{
	"contracts/exp1_multidimArray.sol": {
		"MultiDimArrayIteration": {
			"abi": [
				{
					"inputs": [],
					"name": "getAllElements",
					"outputs": [
						{
							"internalType": "uint256[]",
							"name": "",
							"type": "uint256[]"
						}
					],
					"stateMutability": "view",
					"type": "function"
				},
				{
					"inputs": [
						{
							"internalType": "uint256",
							"name": "_index",
							"type": "uint256"
						}
					],
					"name": "getElementFlat",
					"outputs": [
						{
							"internalType": "uint256",
							"name": "",
							"type": "uint256"
						}
					],
					"stateMutability": "view",
					"type": "function"
				}
			],
			"devdoc": {
				"kind": "dev",
				"methods": {},
				"version": 1
			},
			"evm": {
				"assembly": "    /* \"contracts/exp1_multidimArray.sol\":2732:4139  contract MultiDimArrayIteration {... */\n  mstore(0x40, 0x80)\n  callvalue\n  dup1\n  iszero\n  tag_1\n  jumpi\n  0x00\n  dup1\n  revert\ntag_1:\n  pop\n  dataSize(sub_0)\n  dup1\n  dataOffset(sub_0)\n  0x00\n  codecopy\n  0x00\n  return\nstop\n\nsub_0: assembly {\n        /* \"contracts/exp1_multidimArray.sol\":2732:4139  contract MultiDimArrayIteration {... */\n      mstore(0x40, 0x80)\n      callvalue\n      dup1\n      iszero\n      tag_1\n      jumpi\n      0x00\n      dup1\n      revert\n    tag_1:\n      pop\n      jumpi(tag_2, lt(calldatasize, 0x04))\n      shr(0xe0, calldataload(0x00))\n      dup1\n      0x191f7433\n      eq\n      tag_3\n      jumpi\n      dup1\n      0x280ca666\n      eq\n      tag_4\n      jumpi\n    tag_2:\n      0x00\n      dup1\n      revert\n        /* \"contracts/exp1_multidimArray.sol\":3664:4136  function getElementFlat(uint _index) public view returns (uint) {... */\n    tag_3:\n      tag_5\n      0x04\n      dup1\n      calldatasize\n      sub\n      dup2\n      add\n      swap1\n      tag_6\n      swap2\n      swap1\n      tag_7\n      jump\t// in\n    tag_6:\n      tag_8\n      jump\t// in\n    tag_5:\n      mload(0x40)\n      tag_9\n      swap2\n      swap1\n      tag_10\n      jump\t// in\n    tag_9:\n      mload(0x40)\n      dup1\n      swap2\n      sub\n      swap1\n      return\n        /* \"contracts/exp1_multidimArray.sol\":2876:3573  function getAllElements() public view returns (uint[] memory) {... */\n    tag_4:\n      tag_11\n      tag_12\n      jump\t// in\n    tag_11:\n      mload(0x40)\n      tag_13\n      swap2\n      swap1\n      tag_14\n      jump\t// in\n    tag_13:\n      mload(0x40)\n      dup1\n      swap2\n      sub\n      swap1\n      return\n        /* \"contracts/exp1_multidimArray.sol\":3664:4136  function getElementFlat(uint _index) public view returns (uint) {... */\n    tag_8:\n        /* \"contracts/exp1_multidimArray.sol\":3722:3726  uint */\n      0x00\n        /* \"contracts/exp1_multidimArray.sol\":3739:3754  uint totalCount */\n      dup1\n        /* \"contracts/exp1_multidimArray.sol\":3757:3758  0 */\n      0x00\n        /* \"contracts/exp1_multidimArray.sol\":3739:3758  uint totalCount = 0 */\n      swap1\n      pop\n        /* \"contracts/exp1_multidimArray.sol\":3850:3856  uint i */\n      0x00\n        /* \"contracts/exp1_multidimArray.sol\":3845:4089  for (uint i = 0; i < multiArray.length; i++) {... */\n    tag_16:\n        /* \"contracts/exp1_multidimArray.sol\":3866:3876  multiArray */\n      0x00\n        /* \"contracts/exp1_multidimArray.sol\":3866:3883  multiArray.length */\n      dup1\n      sload\n      swap1\n      pop\n        /* \"contracts/exp1_multidimArray.sol\":3862:3863  i */\n      dup2\n        /* \"contracts/exp1_multidimArray.sol\":3862:3883  i < multiArray.length */\n      lt\n        /* \"contracts/exp1_multidimArray.sol\":3845:4089  for (uint i = 0; i < multiArray.length; i++) {... */\n      iszero\n      tag_17\n      jumpi\n        /* \"contracts/exp1_multidimArray.sol\":3931:3941  multiArray */\n      0x00\n        /* \"contracts/exp1_multidimArray.sol\":3942:3943  i */\n      dup2\n        /* \"contracts/exp1_multidimArray.sol\":3931:3944  multiArray[i] */\n      dup2\n      sload\n      dup2\n      lt\n      tag_19\n      jumpi\n      tag_20\n      tag_21\n      jump\t// in\n    tag_20:\n    tag_19:\n      swap1\n      0x00\n      mstore\n      keccak256(0x00, 0x20)\n      add\n        /* \"contracts/exp1_multidimArray.sol\":3931:3951  multiArray[i].length */\n      dup1\n      sload\n      swap1\n      pop\n        /* \"contracts/exp1_multidimArray.sol\":3918:3928  totalCount */\n      dup3\n        /* \"contracts/exp1_multidimArray.sol\":3918:3951  totalCount + multiArray[i].length */\n      tag_23\n      swap2\n      swap1\n      tag_24\n      jump\t// in\n    tag_23:\n        /* \"contracts/exp1_multidimArray.sol\":3909:3915  _index */\n      dup5\n        /* \"contracts/exp1_multidimArray.sol\":3909:3951  _index < totalCount + multiArray[i].length */\n      lt\n        /* \"contracts/exp1_multidimArray.sol\":3905:4029  if (_index < totalCount + multiArray[i].length) {... */\n      iszero\n      tag_25\n      jumpi\n        /* \"contracts/exp1_multidimArray.sol\":3979:3989  multiArray */\n      0x00\n        /* \"contracts/exp1_multidimArray.sol\":3990:3991  i */\n      dup2\n        /* \"contracts/exp1_multidimArray.sol\":3979:3992  multiArray[i] */\n      dup2\n      sload\n      dup2\n      lt\n      tag_26\n      jumpi\n      tag_27\n      tag_21\n      jump\t// in\n    tag_27:\n    tag_26:\n      swap1\n      0x00\n      mstore\n      keccak256(0x00, 0x20)\n      add\n        /* \"contracts/exp1_multidimArray.sol\":4002:4012  totalCount */\n      dup3\n        /* \"contracts/exp1_multidimArray.sol\":3993:3999  _index */\n      dup6\n        /* \"contracts/exp1_multidimArray.sol\":3993:4012  _index - totalCount */\n      tag_29\n      swap2\n      swap1\n      tag_30\n      jump\t// in\n    tag_29:\n        /* \"contracts/exp1_multidimArray.sol\":3979:4013  multiArray[i][_index - totalCount] */\n      dup2\n      sload\n      dup2\n      lt\n      tag_31\n      jumpi\n      tag_32\n      tag_21\n      jump\t// in\n    tag_32:\n    tag_31:\n      swap1\n      0x00\n      mstore\n      keccak256(0x00, 0x20)\n      add\n      sload\n        /* \"contracts/exp1_multidimArray.sol\":3972:4013  return multiArray[i][_index - totalCount] */\n      swap3\n      pop\n      pop\n      pop\n      jump(tag_15)\n        /* \"contracts/exp1_multidimArray.sol\":3905:4029  if (_index < totalCount + multiArray[i].length) {... */\n    tag_25:\n        /* \"contracts/exp1_multidimArray.sol\":4057:4067  multiArray */\n      0x00\n        /* \"contracts/exp1_multidimArray.sol\":4068:4069  i */\n      dup2\n        /* \"contracts/exp1_multidimArray.sol\":4057:4070  multiArray[i] */\n      dup2\n      sload\n      dup2\n      lt\n      tag_34\n      jumpi\n      tag_35\n      tag_21\n      jump\t// in\n    tag_35:\n    tag_34:\n      swap1\n      0x00\n      mstore\n      keccak256(0x00, 0x20)\n      add\n        /* \"contracts/exp1_multidimArray.sol\":4057:4077  multiArray[i].length */\n      dup1\n      sload\n      swap1\n      pop\n        /* \"contracts/exp1_multidimArray.sol\":4043:4077  totalCount += multiArray[i].length */\n      dup3\n      tag_37\n      swap2\n      swap1\n      tag_24\n      jump\t// in\n    tag_37:\n      swap2\n      pop\n        /* \"contracts/exp1_multidimArray.sol\":3885:3888  i++ */\n      dup1\n      dup1\n      0x01\n      add\n      swap2\n      pop\n      pop\n        /* \"contracts/exp1_multidimArray.sol\":3845:4089  for (uint i = 0; i < multiArray.length; i++) {... */\n      jump(tag_16)\n    tag_17:\n      pop\n        /* \"contracts/exp1_multidimArray.sol\":4099:4128  revert(\"Index out of bounds\") */\n      mload(0x40)\n      0x08c379a000000000000000000000000000000000000000000000000000000000\n      dup2\n      mstore\n      0x04\n      add\n      tag_38\n      swap1\n      tag_39\n      jump\t// in\n    tag_38:\n      mload(0x40)\n      dup1\n      swap2\n      sub\n      swap1\n      revert\n        /* \"contracts/exp1_multidimArray.sol\":3664:4136  function getElementFlat(uint _index) public view returns (uint) {... */\n    tag_15:\n      swap2\n      swap1\n      pop\n      jump\t// out\n        /* \"contracts/exp1_multidimArray.sol\":2876:3573  function getAllElements() public view returns (uint[] memory) {... */\n    tag_12:\n        /* \"contracts/exp1_multidimArray.sol\":2923:2936  uint[] memory */\n      0x60\n        /* \"contracts/exp1_multidimArray.sol\":2949:2964  uint totalCount */\n      0x00\n        /* \"contracts/exp1_multidimArray.sol\":3031:3037  uint i */\n      dup1\n        /* \"contracts/exp1_multidimArray.sol\":3026:3132  for (uint i = 0; i < multiArray.length; i++) {... */\n    tag_41:\n        /* \"contracts/exp1_multidimArray.sol\":3047:3057  multiArray */\n      0x00\n        /* \"contracts/exp1_multidimArray.sol\":3047:3064  multiArray.length */\n      dup1\n      sload\n      swap1\n      pop\n        /* \"contracts/exp1_multidimArray.sol\":3043:3044  i */\n      dup2\n        /* \"contracts/exp1_multidimArray.sol\":3043:3064  i < multiArray.length */\n      lt\n        /* \"contracts/exp1_multidimArray.sol\":3026:3132  for (uint i = 0; i < multiArray.length; i++) {... */\n      iszero\n      tag_42\n      jumpi\n        /* \"contracts/exp1_multidimArray.sol\":3100:3110  multiArray */\n      0x00\n        /* \"contracts/exp1_multidimArray.sol\":3111:3112  i */\n      dup2\n        /* \"contracts/exp1_multidimArray.sol\":3100:3113  multiArray[i] */\n      dup2\n      sload\n      dup2\n      lt\n      tag_44\n      jumpi\n      tag_45\n      tag_21\n      jump\t// in\n    tag_45:\n    tag_44:\n      swap1\n      0x00\n      mstore\n      keccak256(0x00, 0x20)\n      add\n        /* \"contracts/exp1_multidimArray.sol\":3100:3120  multiArray[i].length */\n      dup1\n      sload\n      swap1\n      pop\n        /* \"contracts/exp1_multidimArray.sol\":3086:3120  totalCount += multiArray[i].length */\n      dup3\n      tag_47\n      swap2\n      swap1\n      tag_24\n      jump\t// in\n    tag_47:\n      swap2\n      pop\n        /* \"contracts/exp1_multidimArray.sol\":3066:3069  i++ */\n      dup1\n      dup1\n      0x01\n      add\n      swap2\n      pop\n      pop\n        /* \"contracts/exp1_multidimArray.sol\":3026:3132  for (uint i = 0; i < multiArray.length; i++) {... */\n      jump(tag_41)\n    tag_42:\n      pop\n        /* \"contracts/exp1_multidimArray.sol\":3152:3177  uint[] memory allElements */\n      0x00\n        /* \"contracts/exp1_multidimArray.sol\":3191:3201  totalCount */\n      dup2\n        /* \"contracts/exp1_multidimArray.sol\":3180:3202  new uint[](totalCount) */\n      0xffffffffffffffff\n      dup2\n      gt\n      iszero\n      tag_48\n      jumpi\n      tag_49\n      tag_50\n      jump\t// in\n    tag_49:\n    tag_48:\n      mload(0x40)\n      swap1\n      dup1\n      dup3\n      mstore\n      dup1\n      0x20\n      mul\n      0x20\n      add\n      dup3\n      add\n      0x40\n      mstore\n      dup1\n      iszero\n      tag_51\n      jumpi\n      dup2\n      0x20\n      add\n      0x20\n      dup3\n      mul\n      dup1\n      calldatasize\n      dup4\n      calldatacopy\n      dup1\n      dup3\n      add\n      swap2\n      pop\n      pop\n      swap1\n      pop\n    tag_51:\n      pop\n        /* \"contracts/exp1_multidimArray.sol\":3152:3202  uint[] memory allElements = new uint[](totalCount) */\n      swap1\n      pop\n        /* \"contracts/exp1_multidimArray.sol\":3213:3223  uint index */\n      0x00\n        /* \"contracts/exp1_multidimArray.sol\":3325:3331  uint i */\n      dup1\n        /* \"contracts/exp1_multidimArray.sol\":3320:3537  for (uint i = 0; i < multiArray.length; i++) {... */\n    tag_52:\n        /* \"contracts/exp1_multidimArray.sol\":3341:3351  multiArray */\n      0x00\n        /* \"contracts/exp1_multidimArray.sol\":3341:3358  multiArray.length */\n      dup1\n      sload\n      swap1\n      pop\n        /* \"contracts/exp1_multidimArray.sol\":3337:3338  i */\n      dup2\n        /* \"contracts/exp1_multidimArray.sol\":3337:3358  i < multiArray.length */\n      lt\n        /* \"contracts/exp1_multidimArray.sol\":3320:3537  for (uint i = 0; i < multiArray.length; i++) {... */\n      iszero\n      tag_53\n      jumpi\n        /* \"contracts/exp1_multidimArray.sol\":3385:3391  uint j */\n      0x00\n        /* \"contracts/exp1_multidimArray.sol\":3380:3526  for (uint j = 0; j < multiArray[i].length; j++) {... */\n    tag_55:\n        /* \"contracts/exp1_multidimArray.sol\":3401:3411  multiArray */\n      0x00\n        /* \"contracts/exp1_multidimArray.sol\":3412:3413  i */\n      dup3\n        /* \"contracts/exp1_multidimArray.sol\":3401:3414  multiArray[i] */\n      dup2\n      sload\n      dup2\n      lt\n      tag_58\n      jumpi\n      tag_59\n      tag_21\n      jump\t// in\n    tag_59:\n    tag_58:\n      swap1\n      0x00\n      mstore\n      keccak256(0x00, 0x20)\n      add\n        /* \"contracts/exp1_multidimArray.sol\":3401:3421  multiArray[i].length */\n      dup1\n      sload\n      swap1\n      pop\n        /* \"contracts/exp1_multidimArray.sol\":3397:3398  j */\n      dup2\n        /* \"contracts/exp1_multidimArray.sol\":3397:3421  j < multiArray[i].length */\n      lt\n        /* \"contracts/exp1_multidimArray.sol\":3380:3526  for (uint j = 0; j < multiArray[i].length; j++) {... */\n      iszero\n      tag_56\n      jumpi\n        /* \"contracts/exp1_multidimArray.sol\":3468:3478  multiArray */\n      0x00\n        /* \"contracts/exp1_multidimArray.sol\":3479:3480  i */\n      dup3\n        /* \"contracts/exp1_multidimArray.sol\":3468:3481  multiArray[i] */\n      dup2\n      sload\n      dup2\n      lt\n      tag_61\n      jumpi\n      tag_62\n      tag_21\n      jump\t// in\n    tag_62:\n    tag_61:\n      swap1\n      0x00\n      mstore\n      keccak256(0x00, 0x20)\n      add\n        /* \"contracts/exp1_multidimArray.sol\":3482:3483  j */\n      dup2\n        /* \"contracts/exp1_multidimArray.sol\":3468:3484  multiArray[i][j] */\n      dup2\n      sload\n      dup2\n      lt\n      tag_64\n      jumpi\n      tag_65\n      tag_21\n      jump\t// in\n    tag_65:\n    tag_64:\n      swap1\n      0x00\n      mstore\n      keccak256(0x00, 0x20)\n      add\n      sload\n        /* \"contracts/exp1_multidimArray.sol\":3447:3458  allElements */\n      dup5\n        /* \"contracts/exp1_multidimArray.sol\":3459:3464  index */\n      dup5\n        /* \"contracts/exp1_multidimArray.sol\":3447:3465  allElements[index] */\n      dup2\n      mload\n      dup2\n      lt\n      tag_67\n      jumpi\n      tag_68\n      tag_21\n      jump\t// in\n    tag_68:\n    tag_67:\n      0x20\n      mul\n      0x20\n      add\n      add\n        /* \"contracts/exp1_multidimArray.sol\":3447:3484  allElements[index] = multiArray[i][j] */\n      dup2\n      dup2\n      mstore\n      pop\n      pop\n        /* \"contracts/exp1_multidimArray.sol\":3503:3510  index++ */\n      dup3\n      dup1\n      tag_69\n      swap1\n      tag_70\n      jump\t// in\n    tag_69:\n      swap4\n      pop\n      pop\n        /* \"contracts/exp1_multidimArray.sol\":3423:3426  j++ */\n      dup1\n      dup1\n      0x01\n      add\n      swap2\n      pop\n      pop\n        /* \"contracts/exp1_multidimArray.sol\":3380:3526  for (uint j = 0; j < multiArray[i].length; j++) {... */\n      jump(tag_55)\n    tag_56:\n      pop\n        /* \"contracts/exp1_multidimArray.sol\":3360:3363  i++ */\n      dup1\n      dup1\n      0x01\n      add\n      swap2\n      pop\n      pop\n        /* \"contracts/exp1_multidimArray.sol\":3320:3537  for (uint i = 0; i < multiArray.length; i++) {... */\n      jump(tag_52)\n    tag_53:\n      pop\n        /* \"contracts/exp1_multidimArray.sol\":3554:3565  allElements */\n      dup2\n        /* \"contracts/exp1_multidimArray.sol\":3547:3565  return allElements */\n      swap4\n      pop\n      pop\n      pop\n      pop\n        /* \"contracts/exp1_multidimArray.sol\":2876:3573  function getAllElements() public view returns (uint[] memory) {... */\n      swap1\n      jump\t// out\n        /* \"#utility.yul\":88:205   */\n    tag_72:\n        /* \"#utility.yul\":197:198   */\n      0x00\n        /* \"#utility.yul\":194:195   */\n      dup1\n        /* \"#utility.yul\":187:199   */\n      revert\n        /* \"#utility.yul\":334:411   */\n    tag_74:\n        /* \"#utility.yul\":371:378   */\n      0x00\n        /* \"#utility.yul\":400:405   */\n      dup2\n        /* \"#utility.yul\":389:405   */\n      swap1\n      pop\n        /* \"#utility.yul\":334:411   */\n      swap2\n      swap1\n      pop\n      jump\t// out\n        /* \"#utility.yul\":417:539   */\n    tag_75:\n        /* \"#utility.yul\":490:514   */\n      tag_95\n        /* \"#utility.yul\":508:513   */\n      dup2\n        /* \"#utility.yul\":490:514   */\n      tag_74\n      jump\t// in\n    tag_95:\n        /* \"#utility.yul\":483:488   */\n      dup2\n        /* \"#utility.yul\":480:515   */\n      eq\n        /* \"#utility.yul\":470:533   */\n      tag_96\n      jumpi\n        /* \"#utility.yul\":529:530   */\n      0x00\n        /* \"#utility.yul\":526:527   */\n      dup1\n        /* \"#utility.yul\":519:531   */\n      revert\n        /* \"#utility.yul\":470:533   */\n    tag_96:\n        /* \"#utility.yul\":417:539   */\n      pop\n      jump\t// out\n        /* \"#utility.yul\":545:684   */\n    tag_76:\n        /* \"#utility.yul\":591:596   */\n      0x00\n        /* \"#utility.yul\":629:635   */\n      dup2\n        /* \"#utility.yul\":616:636   */\n      calldataload\n        /* \"#utility.yul\":607:636   */\n      swap1\n      pop\n        /* \"#utility.yul\":645:678   */\n      tag_98\n        /* \"#utility.yul\":672:677   */\n      dup2\n        /* \"#utility.yul\":645:678   */\n      tag_75\n      jump\t// in\n    tag_98:\n        /* \"#utility.yul\":545:684   */\n      swap3\n      swap2\n      pop\n      pop\n      jump\t// out\n        /* \"#utility.yul\":690:1019   */\n    tag_7:\n        /* \"#utility.yul\":749:755   */\n      0x00\n        /* \"#utility.yul\":798:800   */\n      0x20\n        /* \"#utility.yul\":786:795   */\n      dup3\n        /* \"#utility.yul\":777:784   */\n      dup5\n        /* \"#utility.yul\":773:796   */\n      sub\n        /* \"#utility.yul\":769:801   */\n      slt\n        /* \"#utility.yul\":766:885   */\n      iszero\n      tag_100\n      jumpi\n        /* \"#utility.yul\":804:883   */\n      tag_101\n      tag_72\n      jump\t// in\n    tag_101:\n        /* \"#utility.yul\":766:885   */\n    tag_100:\n        /* \"#utility.yul\":924:925   */\n      0x00\n        /* \"#utility.yul\":949:1002   */\n      tag_102\n        /* \"#utility.yul\":994:1001   */\n      dup5\n        /* \"#utility.yul\":985:991   */\n      dup3\n        /* \"#utility.yul\":974:983   */\n      dup6\n        /* \"#utility.yul\":970:992   */\n      add\n        /* \"#utility.yul\":949:1002   */\n      tag_76\n      jump\t// in\n    tag_102:\n        /* \"#utility.yul\":939:1002   */\n      swap2\n      pop\n        /* \"#utility.yul\":895:1012   */\n      pop\n        /* \"#utility.yul\":690:1019   */\n      swap3\n      swap2\n      pop\n      pop\n      jump\t// out\n        /* \"#utility.yul\":1025:1143   */\n    tag_77:\n        /* \"#utility.yul\":1112:1136   */\n      tag_104\n        /* \"#utility.yul\":1130:1135   */\n      dup2\n        /* \"#utility.yul\":1112:1136   */\n      tag_74\n      jump\t// in\n    tag_104:\n        /* \"#utility.yul\":1107:1110   */\n      dup3\n        /* \"#utility.yul\":1100:1137   */\n      mstore\n        /* \"#utility.yul\":1025:1143   */\n      pop\n      pop\n      jump\t// out\n        /* \"#utility.yul\":1149:1371   */\n    tag_10:\n        /* \"#utility.yul\":1242:1246   */\n      0x00\n        /* \"#utility.yul\":1280:1282   */\n      0x20\n        /* \"#utility.yul\":1269:1278   */\n      dup3\n        /* \"#utility.yul\":1265:1283   */\n      add\n        /* \"#utility.yul\":1257:1283   */\n      swap1\n      pop\n        /* \"#utility.yul\":1293:1364   */\n      tag_106\n        /* \"#utility.yul\":1361:1362   */\n      0x00\n        /* \"#utility.yul\":1350:1359   */\n      dup4\n        /* \"#utility.yul\":1346:1363   */\n      add\n        /* \"#utility.yul\":1337:1343   */\n      dup5\n        /* \"#utility.yul\":1293:1364   */\n      tag_77\n      jump\t// in\n    tag_106:\n        /* \"#utility.yul\":1149:1371   */\n      swap3\n      swap2\n      pop\n      pop\n      jump\t// out\n        /* \"#utility.yul\":1377:1491   */\n    tag_78:\n        /* \"#utility.yul\":1444:1450   */\n      0x00\n        /* \"#utility.yul\":1478:1483   */\n      dup2\n        /* \"#utility.yul\":1472:1484   */\n      mload\n        /* \"#utility.yul\":1462:1484   */\n      swap1\n      pop\n        /* \"#utility.yul\":1377:1491   */\n      swap2\n      swap1\n      pop\n      jump\t// out\n        /* \"#utility.yul\":1497:1681   */\n    tag_79:\n        /* \"#utility.yul\":1596:1607   */\n      0x00\n        /* \"#utility.yul\":1630:1636   */\n      dup3\n        /* \"#utility.yul\":1625:1628   */\n      dup3\n        /* \"#utility.yul\":1618:1637   */\n      mstore\n        /* \"#utility.yul\":1670:1674   */\n      0x20\n        /* \"#utility.yul\":1665:1668   */\n      dup3\n        /* \"#utility.yul\":1661:1675   */\n      add\n        /* \"#utility.yul\":1646:1675   */\n      swap1\n      pop\n        /* \"#utility.yul\":1497:1681   */\n      swap3\n      swap2\n      pop\n      pop\n      jump\t// out\n        /* \"#utility.yul\":1687:1819   */\n    tag_80:\n        /* \"#utility.yul\":1754:1758   */\n      0x00\n        /* \"#utility.yul\":1777:1780   */\n      dup2\n        /* \"#utility.yul\":1769:1780   */\n      swap1\n      pop\n        /* \"#utility.yul\":1807:1811   */\n      0x20\n        /* \"#utility.yul\":1802:1805   */\n      dup3\n        /* \"#utility.yul\":1798:1812   */\n      add\n        /* \"#utility.yul\":1790:1812   */\n      swap1\n      pop\n        /* \"#utility.yul\":1687:1819   */\n      swap2\n      swap1\n      pop\n      jump\t// out\n        /* \"#utility.yul\":1825:1933   */\n    tag_81:\n        /* \"#utility.yul\":1902:1926   */\n      tag_111\n        /* \"#utility.yul\":1920:1925   */\n      dup2\n        /* \"#utility.yul\":1902:1926   */\n      tag_74\n      jump\t// in\n    tag_111:\n        /* \"#utility.yul\":1897:1900   */\n      dup3\n        /* \"#utility.yul\":1890:1927   */\n      mstore\n        /* \"#utility.yul\":1825:1933   */\n      pop\n      pop\n      jump\t// out\n        /* \"#utility.yul\":1939:2118   */\n    tag_82:\n        /* \"#utility.yul\":2008:2018   */\n      0x00\n        /* \"#utility.yul\":2029:2075   */\n      tag_113\n        /* \"#utility.yul\":2071:2074   */\n      dup4\n        /* \"#utility.yul\":2063:2069   */\n      dup4\n        /* \"#utility.yul\":2029:2075   */\n      tag_81\n      jump\t// in\n    tag_113:\n        /* \"#utility.yul\":2107:2111   */\n      0x20\n        /* \"#utility.yul\":2102:2105   */\n      dup4\n        /* \"#utility.yul\":2098:2112   */\n      add\n        /* \"#utility.yul\":2084:2112   */\n      swap1\n      pop\n        /* \"#utility.yul\":1939:2118   */\n      swap3\n      swap2\n      pop\n      pop\n      jump\t// out\n        /* \"#utility.yul\":2124:2237   */\n    tag_83:\n        /* \"#utility.yul\":2194:2198   */\n      0x00\n        /* \"#utility.yul\":2226:2230   */\n      0x20\n        /* \"#utility.yul\":2221:2224   */\n      dup3\n        /* \"#utility.yul\":2217:2231   */\n      add\n        /* \"#utility.yul\":2209:2231   */\n      swap1\n      pop\n        /* \"#utility.yul\":2124:2237   */\n      swap2\n      swap1\n      pop\n      jump\t// out\n        /* \"#utility.yul\":2273:3005   */\n    tag_84:\n        /* \"#utility.yul\":2392:2395   */\n      0x00\n        /* \"#utility.yul\":2421:2475   */\n      tag_116\n        /* \"#utility.yul\":2469:2474   */\n      dup3\n        /* \"#utility.yul\":2421:2475   */\n      tag_78\n      jump\t// in\n    tag_116:\n        /* \"#utility.yul\":2491:2577   */\n      tag_117\n        /* \"#utility.yul\":2570:2576   */\n      dup2\n        /* \"#utility.yul\":2565:2568   */\n      dup6\n        /* \"#utility.yul\":2491:2577   */\n      tag_79\n      jump\t// in\n    tag_117:\n        /* \"#utility.yul\":2484:2577   */\n      swap4\n      pop\n        /* \"#utility.yul\":2601:2657   */\n      tag_118\n        /* \"#utility.yul\":2651:2656   */\n      dup4\n        /* \"#utility.yul\":2601:2657   */\n      tag_80\n      jump\t// in\n    tag_118:\n        /* \"#utility.yul\":2680:2687   */\n      dup1\n        /* \"#utility.yul\":2711:2712   */\n      0x00\n        /* \"#utility.yul\":2696:2980   */\n    tag_119:\n        /* \"#utility.yul\":2721:2727   */\n      dup4\n        /* \"#utility.yul\":2718:2719   */\n      dup2\n        /* \"#utility.yul\":2715:2728   */\n      lt\n        /* \"#utility.yul\":2696:2980   */\n      iszero\n      tag_121\n      jumpi\n        /* \"#utility.yul\":2797:2803   */\n      dup2\n        /* \"#utility.yul\":2791:2804   */\n      mload\n        /* \"#utility.yul\":2824:2887   */\n      tag_122\n        /* \"#utility.yul\":2883:2886   */\n      dup9\n        /* \"#utility.yul\":2868:2881   */\n      dup3\n        /* \"#utility.yul\":2824:2887   */\n      tag_82\n      jump\t// in\n    tag_122:\n        /* \"#utility.yul\":2817:2887   */\n      swap8\n      pop\n        /* \"#utility.yul\":2910:2970   */\n      tag_123\n        /* \"#utility.yul\":2963:2969   */\n      dup4\n        /* \"#utility.yul\":2910:2970   */\n      tag_83\n      jump\t// in\n    tag_123:\n        /* \"#utility.yul\":2900:2970   */\n      swap3\n      pop\n        /* \"#utility.yul\":2756:2980   */\n      pop\n        /* \"#utility.yul\":2743:2744   */\n      0x01\n        /* \"#utility.yul\":2740:2741   */\n      dup2\n        /* \"#utility.yul\":2736:2745   */\n      add\n        /* \"#utility.yul\":2731:2745   */\n      swap1\n      pop\n        /* \"#utility.yul\":2696:2980   */\n      jump(tag_119)\n    tag_121:\n        /* \"#utility.yul\":2700:2714   */\n      pop\n        /* \"#utility.yul\":2996:2999   */\n      dup6\n        /* \"#utility.yul\":2989:2999   */\n      swap4\n      pop\n        /* \"#utility.yul\":2397:3005   */\n      pop\n      pop\n      pop\n        /* \"#utility.yul\":2273:3005   */\n      swap3\n      swap2\n      pop\n      pop\n      jump\t// out\n        /* \"#utility.yul\":3011:3384   */\n    tag_14:\n        /* \"#utility.yul\":3154:3158   */\n      0x00\n        /* \"#utility.yul\":3192:3194   */\n      0x20\n        /* \"#utility.yul\":3181:3190   */\n      dup3\n        /* \"#utility.yul\":3177:3195   */\n      add\n        /* \"#utility.yul\":3169:3195   */\n      swap1\n      pop\n        /* \"#utility.yul\":3241:3250   */\n      dup2\n        /* \"#utility.yul\":3235:3239   */\n      dup2\n        /* \"#utility.yul\":3231:3251   */\n      sub\n        /* \"#utility.yul\":3227:3228   */\n      0x00\n        /* \"#utility.yul\":3216:3225   */\n      dup4\n        /* \"#utility.yul\":3212:3229   */\n      add\n        /* \"#utility.yul\":3205:3252   */\n      mstore\n        /* \"#utility.yul\":3269:3377   */\n      tag_125\n        /* \"#utility.yul\":3372:3376   */\n      dup2\n        /* \"#utility.yul\":3363:3369   */\n      dup5\n        /* \"#utility.yul\":3269:3377   */\n      tag_84\n      jump\t// in\n    tag_125:\n        /* \"#utility.yul\":3261:3377   */\n      swap1\n      pop\n        /* \"#utility.yul\":3011:3384   */\n      swap3\n      swap2\n      pop\n      pop\n      jump\t// out\n        /* \"#utility.yul\":3390:3570   */\n    tag_21:\n        /* \"#utility.yul\":3438:3515   */\n      0x4e487b7100000000000000000000000000000000000000000000000000000000\n        /* \"#utility.yul\":3435:3436   */\n      0x00\n        /* \"#utility.yul\":3428:3516   */\n      mstore\n        /* \"#utility.yul\":3535:3539   */\n      0x32\n        /* \"#utility.yul\":3532:3533   */\n      0x04\n        /* \"#utility.yul\":3525:3540   */\n      mstore\n        /* \"#utility.yul\":3559:3563   */\n      0x24\n        /* \"#utility.yul\":3556:3557   */\n      0x00\n        /* \"#utility.yul\":3549:3564   */\n      revert\n        /* \"#utility.yul\":3576:3756   */\n    tag_85:\n        /* \"#utility.yul\":3624:3701   */\n      0x4e487b7100000000000000000000000000000000000000000000000000000000\n        /* \"#utility.yul\":3621:3622   */\n      0x00\n        /* \"#utility.yul\":3614:3702   */\n      mstore\n        /* \"#utility.yul\":3721:3725   */\n      0x11\n        /* \"#utility.yul\":3718:3719   */\n      0x04\n        /* \"#utility.yul\":3711:3726   */\n      mstore\n        /* \"#utility.yul\":3745:3749   */\n      0x24\n        /* \"#utility.yul\":3742:3743   */\n      0x00\n        /* \"#utility.yul\":3735:3750   */\n      revert\n        /* \"#utility.yul\":3762:3953   */\n    tag_24:\n        /* \"#utility.yul\":3802:3805   */\n      0x00\n        /* \"#utility.yul\":3821:3841   */\n      tag_129\n        /* \"#utility.yul\":3839:3840   */\n      dup3\n        /* \"#utility.yul\":3821:3841   */\n      tag_74\n      jump\t// in\n    tag_129:\n        /* \"#utility.yul\":3816:3841   */\n      swap2\n      pop\n        /* \"#utility.yul\":3855:3875   */\n      tag_130\n        /* \"#utility.yul\":3873:3874   */\n      dup4\n        /* \"#utility.yul\":3855:3875   */\n      tag_74\n      jump\t// in\n    tag_130:\n        /* \"#utility.yul\":3850:3875   */\n      swap3\n      pop\n        /* \"#utility.yul\":3898:3899   */\n      dup3\n        /* \"#utility.yul\":3895:3896   */\n      dup3\n        /* \"#utility.yul\":3891:3900   */\n      add\n        /* \"#utility.yul\":3884:3900   */\n      swap1\n      pop\n        /* \"#utility.yul\":3919:3922   */\n      dup1\n        /* \"#utility.yul\":3916:3917   */\n      dup3\n        /* \"#utility.yul\":3913:3923   */\n      gt\n        /* \"#utility.yul\":3910:3946   */\n      iszero\n      tag_131\n      jumpi\n        /* \"#utility.yul\":3926:3944   */\n      tag_132\n      tag_85\n      jump\t// in\n    tag_132:\n        /* \"#utility.yul\":3910:3946   */\n    tag_131:\n        /* \"#utility.yul\":3762:3953   */\n      swap3\n      swap2\n      pop\n      pop\n      jump\t// out\n        /* \"#utility.yul\":3959:4153   */\n    tag_30:\n        /* \"#utility.yul\":3999:4003   */\n      0x00\n        /* \"#utility.yul\":4019:4039   */\n      tag_134\n        /* \"#utility.yul\":4037:4038   */\n      dup3\n        /* \"#utility.yul\":4019:4039   */\n      tag_74\n      jump\t// in\n    tag_134:\n        /* \"#utility.yul\":4014:4039   */\n      swap2\n      pop\n        /* \"#utility.yul\":4053:4073   */\n      tag_135\n        /* \"#utility.yul\":4071:4072   */\n      dup4\n        /* \"#utility.yul\":4053:4073   */\n      tag_74\n      jump\t// in\n    tag_135:\n        /* \"#utility.yul\":4048:4073   */\n      swap3\n      pop\n        /* \"#utility.yul\":4097:4098   */\n      dup3\n        /* \"#utility.yul\":4094:4095   */\n      dup3\n        /* \"#utility.yul\":4090:4099   */\n      sub\n        /* \"#utility.yul\":4082:4099   */\n      swap1\n      pop\n        /* \"#utility.yul\":4121:4122   */\n      dup2\n        /* \"#utility.yul\":4115:4119   */\n      dup2\n        /* \"#utility.yul\":4112:4123   */\n      gt\n        /* \"#utility.yul\":4109:4146   */\n      iszero\n      tag_136\n      jumpi\n        /* \"#utility.yul\":4126:4144   */\n      tag_137\n      tag_85\n      jump\t// in\n    tag_137:\n        /* \"#utility.yul\":4109:4146   */\n    tag_136:\n        /* \"#utility.yul\":3959:4153   */\n      swap3\n      swap2\n      pop\n      pop\n      jump\t// out\n        /* \"#utility.yul\":4159:4328   */\n    tag_86:\n        /* \"#utility.yul\":4243:4254   */\n      0x00\n        /* \"#utility.yul\":4277:4283   */\n      dup3\n        /* \"#utility.yul\":4272:4275   */\n      dup3\n        /* \"#utility.yul\":4265:4284   */\n      mstore\n        /* \"#utility.yul\":4317:4321   */\n      0x20\n        /* \"#utility.yul\":4312:4315   */\n      dup3\n        /* \"#utility.yul\":4308:4322   */\n      add\n        /* \"#utility.yul\":4293:4322   */\n      swap1\n      pop\n        /* \"#utility.yul\":4159:4328   */\n      swap3\n      swap2\n      pop\n      pop\n      jump\t// out\n        /* \"#utility.yul\":4334:4503   */\n    tag_87:\n        /* \"#utility.yul\":4474:4495   */\n      0x496e646578206f7574206f6620626f756e647300000000000000000000000000\n        /* \"#utility.yul\":4470:4471   */\n      0x00\n        /* \"#utility.yul\":4462:4468   */\n      dup3\n        /* \"#utility.yul\":4458:4472   */\n      add\n        /* \"#utility.yul\":4451:4496   */\n      mstore\n        /* \"#utility.yul\":4334:4503   */\n      pop\n      jump\t// out\n        /* \"#utility.yul\":4509:4875   */\n    tag_88:\n        /* \"#utility.yul\":4651:4654   */\n      0x00\n        /* \"#utility.yul\":4672:4739   */\n      tag_141\n        /* \"#utility.yul\":4736:4738   */\n      0x13\n        /* \"#utility.yul\":4731:4734   */\n      dup4\n        /* \"#utility.yul\":4672:4739   */\n      tag_86\n      jump\t// in\n    tag_141:\n        /* \"#utility.yul\":4665:4739   */\n      swap2\n      pop\n        /* \"#utility.yul\":4748:4841   */\n      tag_142\n        /* \"#utility.yul\":4837:4840   */\n      dup3\n        /* \"#utility.yul\":4748:4841   */\n      tag_87\n      jump\t// in\n    tag_142:\n        /* \"#utility.yul\":4866:4868   */\n      0x20\n        /* \"#utility.yul\":4861:4864   */\n      dup3\n        /* \"#utility.yul\":4857:4869   */\n      add\n        /* \"#utility.yul\":4850:4869   */\n      swap1\n      pop\n        /* \"#utility.yul\":4509:4875   */\n      swap2\n      swap1\n      pop\n      jump\t// out\n        /* \"#utility.yul\":4881:5300   */\n    tag_39:\n        /* \"#utility.yul\":5047:5051   */\n      0x00\n        /* \"#utility.yul\":5085:5087   */\n      0x20\n        /* \"#utility.yul\":5074:5083   */\n      dup3\n        /* \"#utility.yul\":5070:5088   */\n      add\n        /* \"#utility.yul\":5062:5088   */\n      swap1\n      pop\n        /* \"#utility.yul\":5134:5143   */\n      dup2\n        /* \"#utility.yul\":5128:5132   */\n      dup2\n        /* \"#utility.yul\":5124:5144   */\n      sub\n        /* \"#utility.yul\":5120:5121   */\n      0x00\n        /* \"#utility.yul\":5109:5118   */\n      dup4\n        /* \"#utility.yul\":5105:5122   */\n      add\n        /* \"#utility.yul\":5098:5145   */\n      mstore\n        /* \"#utility.yul\":5162:5293   */\n      tag_144\n        /* \"#utility.yul\":5288:5292   */\n      dup2\n        /* \"#utility.yul\":5162:5293   */\n      tag_88\n      jump\t// in\n    tag_144:\n        /* \"#utility.yul\":5154:5293   */\n      swap1\n      pop\n        /* \"#utility.yul\":4881:5300   */\n      swap2\n      swap1\n      pop\n      jump\t// out\n        /* \"#utility.yul\":5306:5486   */\n    tag_50:\n        /* \"#utility.yul\":5354:5431   */\n      0x4e487b7100000000000000000000000000000000000000000000000000000000\n        /* \"#utility.yul\":5351:5352   */\n      0x00\n        /* \"#utility.yul\":5344:5432   */\n      mstore\n        /* \"#utility.yul\":5451:5455   */\n      0x41\n        /* \"#utility.yul\":5448:5449   */\n      0x04\n        /* \"#utility.yul\":5441:5456   */\n      mstore\n        /* \"#utility.yul\":5475:5479   */\n      0x24\n        /* \"#utility.yul\":5472:5473   */\n      0x00\n        /* \"#utility.yul\":5465:5480   */\n      revert\n        /* \"#utility.yul\":5492:5725   */\n    tag_70:\n        /* \"#utility.yul\":5531:5534   */\n      0x00\n        /* \"#utility.yul\":5554:5578   */\n      tag_147\n        /* \"#utility.yul\":5572:5577   */\n      dup3\n        /* \"#utility.yul\":5554:5578   */\n      tag_74\n      jump\t// in\n    tag_147:\n        /* \"#utility.yul\":5545:5578   */\n      swap2\n      pop\n        /* \"#utility.yul\":5600:5666   */\n      0xffffffffffffffffffffffffffffffffffffffffffffffffffffffffffffffff\n        /* \"#utility.yul\":5593:5598   */\n      dup3\n        /* \"#utility.yul\":5590:5667   */\n      sub\n        /* \"#utility.yul\":5587:5690   */\n      tag_148\n      jumpi\n        /* \"#utility.yul\":5670:5688   */\n      tag_149\n      tag_85\n      jump\t// in\n    tag_149:\n        /* \"#utility.yul\":5587:5690   */\n    tag_148:\n        /* \"#utility.yul\":5717:5718   */\n      0x01\n        /* \"#utility.yul\":5710:5715   */\n      dup3\n        /* \"#utility.yul\":5706:5719   */\n      add\n        /* \"#utility.yul\":5699:5719   */\n      swap1\n      pop\n        /* \"#utility.yul\":5492:5725   */\n      swap2\n      swap1\n      pop\n      jump\t// out\n\n    auxdata: 0xa2646970667358221220564953788516bc531879fc9611941b15d26208aeb33d867699681a2e1e956abc64736f6c634300081a0033\n}\n",
				"bytecode": {
					"linkReferences": {},
					"object": "6080604052348015600e575f80fd5b506106278061001c5f395ff3fe608060405234801561000f575f80fd5b5060043610610034575f3560e01c8063191f743314610038578063280ca66614610068575b5f80fd5b610052600480360381019061004d919061031b565b610086565b60405161005f9190610355565b60405180910390f35b61007061018e565b60405161007d9190610425565b60405180910390f35b5f805f90505f5b5f8054905081101561014d575f81815481106100ac576100ab610445565b5b905f5260205f200180549050826100c3919061049f565b841015610114575f81815481106100dd576100dc610445565b5b905f5260205f200182856100f191906104d2565b8154811061010257610101610445565b5b905f5260205f20015492505050610189565b5f818154811061012757610126610445565b5b905f5260205f2001805490508261013e919061049f565b9150808060010191505061008d565b506040517f08c379a00000000000000000000000000000000000000000000000000000000081526004016101809061055f565b60405180910390fd5b919050565b60605f805b5f805490508110156101d8575f81815481106101b2576101b1610445565b5b905f5260205f200180549050826101c9919061049f565b91508080600101915050610193565b505f8167ffffffffffffffff8111156101f4576101f361057d565b5b6040519080825280602002602001820160405280156102225781602001602082028036833780820191505090505b5090505f805b5f805490508110156102da575f5b5f828154811061024957610248610445565b5b905f5260205f2001805490508110156102cc575f828154811061026f5761026e610445565b5b905f5260205f2001818154811061028957610288610445565b5b905f5260205f2001548484815181106102a5576102a4610445565b5b60200260200101818152505082806102bc906105aa565b9350508080600101915050610236565b508080600101915050610228565b5081935050505090565b5f80fd5b5f819050919050565b6102fa816102e8565b8114610304575f80fd5b50565b5f81359050610315816102f1565b92915050565b5f602082840312156103305761032f6102e4565b5b5f61033d84828501610307565b91505092915050565b61034f816102e8565b82525050565b5f6020820190506103685f830184610346565b92915050565b5f81519050919050565b5f82825260208201905092915050565b5f819050602082019050919050565b6103a0816102e8565b82525050565b5f6103b18383610397565b60208301905092915050565b5f602082019050919050565b5f6103d38261036e565b6103dd8185610378565b93506103e883610388565b805f5b838110156104185781516103ff88826103a6565b975061040a836103bd565b9250506001810190506103eb565b5085935050505092915050565b5f6020820190508181035f83015261043d81846103c9565b905092915050565b7f4e487b71000000000000000000000000000000000000000000000000000000005f52603260045260245ffd5b7f4e487b71000000000000000000000000000000000000000000000000000000005f52601160045260245ffd5b5f6104a9826102e8565b91506104b4836102e8565b92508282019050808211156104cc576104cb610472565b5b92915050565b5f6104dc826102e8565b91506104e7836102e8565b92508282039050818111156104ff576104fe610472565b5b92915050565b5f82825260208201905092915050565b7f496e646578206f7574206f6620626f756e6473000000000000000000000000005f82015250565b5f610549601383610505565b915061055482610515565b602082019050919050565b5f6020820190508181035f8301526105768161053d565b9050919050565b7f4e487b71000000000000000000000000000000000000000000000000000000005f52604160045260245ffd5b5f6105b4826102e8565b91507fffffffffffffffffffffffffffffffffffffffffffffffffffffffffffffffff82036105e6576105e5610472565b5b60018201905091905056fea2646970667358221220564953788516bc531879fc9611941b15d26208aeb33d867699681a2e1e956abc64736f6c634300081a0033",
					"opcodes": "PUSH1 0x80 PUSH1 0x40 MSTORE CALLVALUE DUP1 ISZERO PUSH1 0xE JUMPI PUSH0 DUP1 REVERT JUMPDEST POP PUSH2 0x627 DUP1 PUSH2 0x1C PUSH0 CODECOPY PUSH0 RETURN INVALID PUSH1 0x80 PUSH1 0x40 MSTORE CALLVALUE DUP1 ISZERO PUSH2 0xF JUMPI PUSH0 DUP1 REVERT JUMPDEST POP PUSH1 0x4 CALLDATASIZE LT PUSH2 0x34 JUMPI PUSH0 CALLDATALOAD PUSH1 0xE0 SHR DUP1 PUSH4 0x191F7433 EQ PUSH2 0x38 JUMPI DUP1 PUSH4 0x280CA666 EQ PUSH2 0x68 JUMPI JUMPDEST PUSH0 DUP1 REVERT JUMPDEST PUSH2 0x52 PUSH1 0x4 DUP1 CALLDATASIZE SUB DUP2 ADD SWAP1 PUSH2 0x4D SWAP2 SWAP1 PUSH2 0x31B JUMP JUMPDEST PUSH2 0x86 JUMP JUMPDEST PUSH1 0x40 MLOAD PUSH2 0x5F SWAP2 SWAP1 PUSH2 0x355 JUMP JUMPDEST PUSH1 0x40 MLOAD DUP1 SWAP2 SUB SWAP1 RETURN JUMPDEST PUSH2 0x70 PUSH2 0x18E JUMP JUMPDEST PUSH1 0x40 MLOAD PUSH2 0x7D SWAP2 SWAP1 PUSH2 0x425 JUMP JUMPDEST PUSH1 0x40 MLOAD DUP1 SWAP2 SUB SWAP1 RETURN JUMPDEST PUSH0 DUP1 PUSH0 SWAP1 POP PUSH0 JUMPDEST PUSH0 DUP1 SLOAD SWAP1 POP DUP2 LT ISZERO PUSH2 0x14D JUMPI PUSH0 DUP2 DUP2 SLOAD DUP2 LT PUSH2 0xAC JUMPI PUSH2 0xAB PUSH2 0x445 JUMP JUMPDEST JUMPDEST SWAP1 PUSH0 MSTORE PUSH1 0x20 PUSH0 KECCAK256 ADD DUP1 SLOAD SWAP1 POP DUP3 PUSH2 0xC3 SWAP2 SWAP1 PUSH2 0x49F JUMP JUMPDEST DUP5 LT ISZERO PUSH2 0x114 JUMPI PUSH0 DUP2 DUP2 SLOAD DUP2 LT PUSH2 0xDD JUMPI PUSH2 0xDC PUSH2 0x445 JUMP JUMPDEST JUMPDEST SWAP1 PUSH0 MSTORE PUSH1 0x20 PUSH0 KECCAK256 ADD DUP3 DUP6 PUSH2 0xF1 SWAP2 SWAP1 PUSH2 0x4D2 JUMP JUMPDEST DUP2 SLOAD DUP2 LT PUSH2 0x102 JUMPI PUSH2 0x101 PUSH2 0x445 JUMP JUMPDEST JUMPDEST SWAP1 PUSH0 MSTORE PUSH1 0x20 PUSH0 KECCAK256 ADD SLOAD SWAP3 POP POP POP PUSH2 0x189 JUMP JUMPDEST PUSH0 DUP2 DUP2 SLOAD DUP2 LT PUSH2 0x127 JUMPI PUSH2 0x126 PUSH2 0x445 JUMP JUMPDEST JUMPDEST SWAP1 PUSH0 MSTORE PUSH1 0x20 PUSH0 KECCAK256 ADD DUP1 SLOAD SWAP1 POP DUP3 PUSH2 0x13E SWAP2 SWAP1 PUSH2 0x49F JUMP JUMPDEST SWAP2 POP DUP1 DUP1 PUSH1 0x1 ADD SWAP2 POP POP PUSH2 0x8D JUMP JUMPDEST POP PUSH1 0x40 MLOAD PUSH32 0x8C379A000000000000000000000000000000000000000000000000000000000 DUP2 MSTORE PUSH1 0x4 ADD PUSH2 0x180 SWAP1 PUSH2 0x55F JUMP JUMPDEST PUSH1 0x40 MLOAD DUP1 SWAP2 SUB SWAP1 REVERT JUMPDEST SWAP2 SWAP1 POP JUMP JUMPDEST PUSH1 0x60 PUSH0 DUP1 JUMPDEST PUSH0 DUP1 SLOAD SWAP1 POP DUP2 LT ISZERO PUSH2 0x1D8 JUMPI PUSH0 DUP2 DUP2 SLOAD DUP2 LT PUSH2 0x1B2 JUMPI PUSH2 0x1B1 PUSH2 0x445 JUMP JUMPDEST JUMPDEST SWAP1 PUSH0 MSTORE PUSH1 0x20 PUSH0 KECCAK256 ADD DUP1 SLOAD SWAP1 POP DUP3 PUSH2 0x1C9 SWAP2 SWAP1 PUSH2 0x49F JUMP JUMPDEST SWAP2 POP DUP1 DUP1 PUSH1 0x1 ADD SWAP2 POP POP PUSH2 0x193 JUMP JUMPDEST POP PUSH0 DUP2 PUSH8 0xFFFFFFFFFFFFFFFF DUP2 GT ISZERO PUSH2 0x1F4 JUMPI PUSH2 0x1F3 PUSH2 0x57D JUMP JUMPDEST JUMPDEST PUSH1 0x40 MLOAD SWAP1 DUP1 DUP3 MSTORE DUP1 PUSH1 0x20 MUL PUSH1 0x20 ADD DUP3 ADD PUSH1 0x40 MSTORE DUP1 ISZERO PUSH2 0x222 JUMPI DUP2 PUSH1 0x20 ADD PUSH1 0x20 DUP3 MUL DUP1 CALLDATASIZE DUP4 CALLDATACOPY DUP1 DUP3 ADD SWAP2 POP POP SWAP1 POP JUMPDEST POP SWAP1 POP PUSH0 DUP1 JUMPDEST PUSH0 DUP1 SLOAD SWAP1 POP DUP2 LT ISZERO PUSH2 0x2DA JUMPI PUSH0 JUMPDEST PUSH0 DUP3 DUP2 SLOAD DUP2 LT PUSH2 0x249 JUMPI PUSH2 0x248 PUSH2 0x445 JUMP JUMPDEST JUMPDEST SWAP1 PUSH0 MSTORE PUSH1 0x20 PUSH0 KECCAK256 ADD DUP1 SLOAD SWAP1 POP DUP2 LT ISZERO PUSH2 0x2CC JUMPI PUSH0 DUP3 DUP2 SLOAD DUP2 LT PUSH2 0x26F JUMPI PUSH2 0x26E PUSH2 0x445 JUMP JUMPDEST JUMPDEST SWAP1 PUSH0 MSTORE PUSH1 0x20 PUSH0 KECCAK256 ADD DUP2 DUP2 SLOAD DUP2 LT PUSH2 0x289 JUMPI PUSH2 0x288 PUSH2 0x445 JUMP JUMPDEST JUMPDEST SWAP1 PUSH0 MSTORE PUSH1 0x20 PUSH0 KECCAK256 ADD SLOAD DUP5 DUP5 DUP2 MLOAD DUP2 LT PUSH2 0x2A5 JUMPI PUSH2 0x2A4 PUSH2 0x445 JUMP JUMPDEST JUMPDEST PUSH1 0x20 MUL PUSH1 0x20 ADD ADD DUP2 DUP2 MSTORE POP POP DUP3 DUP1 PUSH2 0x2BC SWAP1 PUSH2 0x5AA JUMP JUMPDEST SWAP4 POP POP DUP1 DUP1 PUSH1 0x1 ADD SWAP2 POP POP PUSH2 0x236 JUMP JUMPDEST POP DUP1 DUP1 PUSH1 0x1 ADD SWAP2 POP POP PUSH2 0x228 JUMP JUMPDEST POP DUP2 SWAP4 POP POP POP POP SWAP1 JUMP JUMPDEST PUSH0 DUP1 REVERT JUMPDEST PUSH0 DUP2 SWAP1 POP SWAP2 SWAP1 POP JUMP JUMPDEST PUSH2 0x2FA DUP2 PUSH2 0x2E8 JUMP JUMPDEST DUP2 EQ PUSH2 0x304 JUMPI PUSH0 DUP1 REVERT JUMPDEST POP JUMP JUMPDEST PUSH0 DUP2 CALLDATALOAD SWAP1 POP PUSH2 0x315 DUP2 PUSH2 0x2F1 JUMP JUMPDEST SWAP3 SWAP2 POP POP JUMP JUMPDEST PUSH0 PUSH1 0x20 DUP3 DUP5 SUB SLT ISZERO PUSH2 0x330 JUMPI PUSH2 0x32F PUSH2 0x2E4 JUMP JUMPDEST JUMPDEST PUSH0 PUSH2 0x33D DUP5 DUP3 DUP6 ADD PUSH2 0x307 JUMP JUMPDEST SWAP2 POP POP SWAP3 SWAP2 POP POP JUMP JUMPDEST PUSH2 0x34F DUP2 PUSH2 0x2E8 JUMP JUMPDEST DUP3 MSTORE POP POP JUMP JUMPDEST PUSH0 PUSH1 0x20 DUP3 ADD SWAP1 POP PUSH2 0x368 PUSH0 DUP4 ADD DUP5 PUSH2 0x346 JUMP JUMPDEST SWAP3 SWAP2 POP POP JUMP JUMPDEST PUSH0 DUP2 MLOAD SWAP1 POP SWAP2 SWAP1 POP JUMP JUMPDEST PUSH0 DUP3 DUP3 MSTORE PUSH1 0x20 DUP3 ADD SWAP1 POP SWAP3 SWAP2 POP POP JUMP JUMPDEST PUSH0 DUP2 SWAP1 POP PUSH1 0x20 DUP3 ADD SWAP1 POP SWAP2 SWAP1 POP JUMP JUMPDEST PUSH2 0x3A0 DUP2 PUSH2 0x2E8 JUMP JUMPDEST DUP3 MSTORE POP POP JUMP JUMPDEST PUSH0 PUSH2 0x3B1 DUP4 DUP4 PUSH2 0x397 JUMP JUMPDEST PUSH1 0x20 DUP4 ADD SWAP1 POP SWAP3 SWAP2 POP POP JUMP JUMPDEST PUSH0 PUSH1 0x20 DUP3 ADD SWAP1 POP SWAP2 SWAP1 POP JUMP JUMPDEST PUSH0 PUSH2 0x3D3 DUP3 PUSH2 0x36E JUMP JUMPDEST PUSH2 0x3DD DUP2 DUP6 PUSH2 0x378 JUMP JUMPDEST SWAP4 POP PUSH2 0x3E8 DUP4 PUSH2 0x388 JUMP JUMPDEST DUP1 PUSH0 JUMPDEST DUP4 DUP2 LT ISZERO PUSH2 0x418 JUMPI DUP2 MLOAD PUSH2 0x3FF DUP9 DUP3 PUSH2 0x3A6 JUMP JUMPDEST SWAP8 POP PUSH2 0x40A DUP4 PUSH2 0x3BD JUMP JUMPDEST SWAP3 POP POP PUSH1 0x1 DUP2 ADD SWAP1 POP PUSH2 0x3EB JUMP JUMPDEST POP DUP6 SWAP4 POP POP POP POP SWAP3 SWAP2 POP POP JUMP JUMPDEST PUSH0 PUSH1 0x20 DUP3 ADD SWAP1 POP DUP2 DUP2 SUB PUSH0 DUP4 ADD MSTORE PUSH2 0x43D DUP2 DUP5 PUSH2 0x3C9 JUMP JUMPDEST SWAP1 POP SWAP3 SWAP2 POP POP JUMP JUMPDEST PUSH32 0x4E487B7100000000000000000000000000000000000000000000000000000000 PUSH0 MSTORE PUSH1 0x32 PUSH1 0x4 MSTORE PUSH1 0x24 PUSH0 REVERT JUMPDEST PUSH32 0x4E487B7100000000000000000000000000000000000000000000000000000000 PUSH0 MSTORE PUSH1 0x11 PUSH1 0x4 MSTORE PUSH1 0x24 PUSH0 REVERT JUMPDEST PUSH0 PUSH2 0x4A9 DUP3 PUSH2 0x2E8 JUMP JUMPDEST SWAP2 POP PUSH2 0x4B4 DUP4 PUSH2 0x2E8 JUMP JUMPDEST SWAP3 POP DUP3 DUP3 ADD SWAP1 POP DUP1 DUP3 GT ISZERO PUSH2 0x4CC JUMPI PUSH2 0x4CB PUSH2 0x472 JUMP JUMPDEST JUMPDEST SWAP3 SWAP2 POP POP JUMP JUMPDEST PUSH0 PUSH2 0x4DC DUP3 PUSH2 0x2E8 JUMP JUMPDEST SWAP2 POP PUSH2 0x4E7 DUP4 PUSH2 0x2E8 JUMP JUMPDEST SWAP3 POP DUP3 DUP3 SUB SWAP1 POP DUP2 DUP2 GT ISZERO PUSH2 0x4FF JUMPI PUSH2 0x4FE PUSH2 0x472 JUMP JUMPDEST JUMPDEST SWAP3 SWAP2 POP POP JUMP JUMPDEST PUSH0 DUP3 DUP3 MSTORE PUSH1 0x20 DUP3 ADD SWAP1 POP SWAP3 SWAP2 POP POP JUMP JUMPDEST PUSH32 0x496E646578206F7574206F6620626F756E647300000000000000000000000000 PUSH0 DUP3 ADD MSTORE POP JUMP JUMPDEST PUSH0 PUSH2 0x549 PUSH1 0x13 DUP4 PUSH2 0x505 JUMP JUMPDEST SWAP2 POP PUSH2 0x554 DUP3 PUSH2 0x515 JUMP JUMPDEST PUSH1 0x20 DUP3 ADD SWAP1 POP SWAP2 SWAP1 POP JUMP JUMPDEST PUSH0 PUSH1 0x20 DUP3 ADD SWAP1 POP DUP2 DUP2 SUB PUSH0 DUP4 ADD MSTORE PUSH2 0x576 DUP2 PUSH2 0x53D JUMP JUMPDEST SWAP1 POP SWAP2 SWAP1 POP JUMP JUMPDEST PUSH32 0x4E487B7100000000000000000000000000000000000000000000000000000000 PUSH0 MSTORE PUSH1 0x41 PUSH1 0x4 MSTORE PUSH1 0x24 PUSH0 REVERT JUMPDEST PUSH0 PUSH2 0x5B4 DUP3 PUSH2 0x2E8 JUMP JUMPDEST SWAP2 POP PUSH32 0xFFFFFFFFFFFFFFFFFFFFFFFFFFFFFFFFFFFFFFFFFFFFFFFFFFFFFFFFFFFFFFFF DUP3 SUB PUSH2 0x5E6 JUMPI PUSH2 0x5E5 PUSH2 0x472 JUMP JUMPDEST JUMPDEST PUSH1 0x1 DUP3 ADD SWAP1 POP SWAP2 SWAP1 POP JUMP INVALID LOG2 PUSH5 0x6970667358 0x22 SLT KECCAK256 JUMP BLOBHASH MSTORE8 PUSH25 0x8516BC531879FC9611941B15D26208AEB33D867699681A2E1E SWAP6 PUSH11 0xBC64736F6C634300081A00 CALLER "
				},
				"gasEstimates": {
					"creation": {
						"codeDepositCost": "315000",
						"executionCost": "353",
						"totalCost": "315353"
					},
					"external": {
						"getAllElements()": "infinite",
						"getElementFlat(uint256)": "infinite"
					}
				},
				"methodIdentifiers": {
					"getAllElements()": "280ca666",
					"getElementFlat(uint256)": "191f7433"
				}
			},
			"storageLayout": {
				"storage": [
					{
						"astId": 231,
						"contract": "contracts/exp1_multidimArray.sol:MultiDimArrayIteration",
						"label": "multiArray",
						"offset": 0,
						"slot": "0",
						"type": "t_array(t_array(t_uint256)dyn_storage)dyn_storage"
					}
				],
				"types": {
					"t_array(t_array(t_uint256)dyn_storage)dyn_storage": {
						"base": "t_array(t_uint256)dyn_storage",
						"encoding": "dynamic_array",
						"label": "uint256[][]",
						"numberOfBytes": "32"
					},
					"t_array(t_uint256)dyn_storage": {
						"base": "t_uint256",
						"encoding": "dynamic_array",
						"label": "uint256[]",
						"numberOfBytes": "32"
					},
					"t_uint256": {
						"encoding": "inplace",
						"label": "uint256",
						"numberOfBytes": "32"
					}
				}
			},
			"userdoc": {
				"kind": "user",
				"methods": {},
				"version": 1
			}
		}
	}
}