{
	"contracts/exp1_multidimArray.sol": {
		"MultiDimArraySizeAccess": {
			"abi": [
				{
					"inputs": [
						{
							"internalType": "uint256",
							"name": "_row",
							"type": "uint256"
						}
					],
					"name": "getColumnCount",
					"outputs": [
						{
							"internalType": "uint256",
							"name": "",
							"type": "uint256"
						}
					],
					"stateMutability": "view",
					"type": "function"
				},
				{
					"inputs": [],
					"name": "getRowCount",
					"outputs": [
						{
							"internalType": "uint256",
							"name": "",
							"type": "uint256"
						}
					],
					"stateMutability": "view",
					"type": "function"
				},
				{
					"inputs": [],
					"name": "getTotalElementCount",
					"outputs": [
						{
							"internalType": "uint256",
							"name": "",
							"type": "uint256"
						}
					],
					"stateMutability": "view",
					"type": "function"
				}
			],
			"devdoc": {
				"kind": "dev",
				"methods": {},
				"version": 1
			},
			"evm": {
				"assembly": "    /* \"contracts/exp1_multidimArray.sol\":1875:2666  contract MultiDimArraySizeAccess {... */\n  mstore(0x40, 0x80)\n  callvalue\n  dup1\n  iszero\n  tag_1\n  jumpi\n  0x00\n  dup1\n  revert\ntag_1:\n  pop\n  dataSize(sub_0)\n  dup1\n  dataOffset(sub_0)\n  0x00\n  codecopy\n  0x00\n  return\nstop\n\nsub_0: assembly {\n        /* \"contracts/exp1_multidimArray.sol\":1875:2666  contract MultiDimArraySizeAccess {... */\n      mstore(0x40, 0x80)\n      callvalue\n      dup1\n      iszero\n      tag_1\n      jumpi\n      0x00\n      dup1\n      revert\n    tag_1:\n      pop\n      jumpi(tag_2, lt(calldatasize, 0x04))\n      shr(0xe0, calldataload(0x00))\n      dup1\n      0x172a575a\n      eq\n      tag_3\n      jumpi\n      dup1\n      0x7262854e\n      eq\n      tag_4\n      jumpi\n      dup1\n      0xfb8410b2\n      eq\n      tag_5\n      jumpi\n    tag_2:\n      0x00\n      dup1\n      revert\n        /* \"contracts/exp1_multidimArray.sol\":2422:2663  function getTotalElementCount() public view returns (uint) {... */\n    tag_3:\n      tag_6\n      tag_7\n      jump\t// in\n    tag_6:\n      mload(0x40)\n      tag_8\n      swap2\n      swap1\n      tag_9\n      jump\t// in\n    tag_8:\n      mload(0x40)\n      dup1\n      swap2\n      sub\n      swap1\n      return\n        /* \"contracts/exp1_multidimArray.sol\":2018:2111  function getRowCount() public view returns (uint) {... */\n    tag_4:\n      tag_10\n      tag_11\n      jump\t// in\n    tag_10:\n      mload(0x40)\n      tag_12\n      swap2\n      swap1\n      tag_9\n      jump\t// in\n    tag_12:\n      mload(0x40)\n      dup1\n      swap2\n      sub\n      swap1\n      return\n        /* \"contracts/exp1_multidimArray.sol\":2177:2359  function getColumnCount(uint _row) public view returns (uint) {... */\n    tag_5:\n      tag_13\n      0x04\n      dup1\n      calldatasize\n      sub\n      dup2\n      add\n      swap1\n      tag_14\n      swap2\n      swap1\n      tag_15\n      jump\t// in\n    tag_14:\n      tag_16\n      jump\t// in\n    tag_13:\n      mload(0x40)\n      tag_17\n      swap2\n      swap1\n      tag_9\n      jump\t// in\n    tag_17:\n      mload(0x40)\n      dup1\n      swap2\n      sub\n      swap1\n      return\n        /* \"contracts/exp1_multidimArray.sol\":2422:2663  function getTotalElementCount() public view returns (uint) {... */\n    tag_7:\n        /* \"contracts/exp1_multidimArray.sol\":2475:2479  uint */\n      0x00\n        /* \"contracts/exp1_multidimArray.sol\":2492:2507  uint totalCount */\n      dup1\n        /* \"contracts/exp1_multidimArray.sol\":2510:2511  0 */\n      0x00\n        /* \"contracts/exp1_multidimArray.sol\":2492:2511  uint totalCount = 0 */\n      swap1\n      pop\n        /* \"contracts/exp1_multidimArray.sol\":2527:2533  uint i */\n      0x00\n        /* \"contracts/exp1_multidimArray.sol\":2522:2628  for (uint i = 0; i < multiArray.length; i++) {... */\n    tag_19:\n        /* \"contracts/exp1_multidimArray.sol\":2543:2553  multiArray */\n      0x00\n        /* \"contracts/exp1_multidimArray.sol\":2543:2560  multiArray.length */\n      dup1\n      sload\n      swap1\n      pop\n        /* \"contracts/exp1_multidimArray.sol\":2539:2540  i */\n      dup2\n        /* \"contracts/exp1_multidimArray.sol\":2539:2560  i < multiArray.length */\n      lt\n        /* \"contracts/exp1_multidimArray.sol\":2522:2628  for (uint i = 0; i < multiArray.length; i++) {... */\n      iszero\n      tag_20\n      jumpi\n        /* \"contracts/exp1_multidimArray.sol\":2596:2606  multiArray */\n      0x00\n        /* \"contracts/exp1_multidimArray.sol\":2607:2608  i */\n      dup2\n        /* \"contracts/exp1_multidimArray.sol\":2596:2609  multiArray[i] */\n      dup2\n      sload\n      dup2\n      lt\n      tag_22\n      jumpi\n      tag_23\n      tag_24\n      jump\t// in\n    tag_23:\n    tag_22:\n      swap1\n      0x00\n      mstore\n      keccak256(0x00, 0x20)\n      add\n        /* \"contracts/exp1_multidimArray.sol\":2596:2616  multiArray[i].length */\n      dup1\n      sload\n      swap1\n      pop\n        /* \"contracts/exp1_multidimArray.sol\":2582:2616  totalCount += multiArray[i].length */\n      dup3\n      tag_26\n      swap2\n      swap1\n      tag_27\n      jump\t// in\n    tag_26:\n      swap2\n      pop\n        /* \"contracts/exp1_multidimArray.sol\":2562:2565  i++ */\n      dup1\n      dup1\n      0x01\n      add\n      swap2\n      pop\n      pop\n        /* \"contracts/exp1_multidimArray.sol\":2522:2628  for (uint i = 0; i < multiArray.length; i++) {... */\n      jump(tag_19)\n    tag_20:\n      pop\n        /* \"contracts/exp1_multidimArray.sol\":2645:2655  totalCount */\n      dup1\n        /* \"contracts/exp1_multidimArray.sol\":2638:2655  return totalCount */\n      swap2\n      pop\n      pop\n        /* \"contracts/exp1_multidimArray.sol\":2422:2663  function getTotalElementCount() public view returns (uint) {... */\n      swap1\n      jump\t// out\n        /* \"contracts/exp1_multidimArray.sol\":2018:2111  function getRowCount() public view returns (uint) {... */\n    tag_11:\n        /* \"contracts/exp1_multidimArray.sol\":2062:2066  uint */\n      0x00\n        /* \"contracts/exp1_multidimArray.sol\":2086:2096  multiArray */\n      dup1\n        /* \"contracts/exp1_multidimArray.sol\":2086:2103  multiArray.length */\n      dup1\n      sload\n      swap1\n      pop\n        /* \"contracts/exp1_multidimArray.sol\":2079:2103  return multiArray.length */\n      swap1\n      pop\n        /* \"contracts/exp1_multidimArray.sol\":2018:2111  function getRowCount() public view returns (uint) {... */\n      swap1\n      jump\t// out\n        /* \"contracts/exp1_multidimArray.sol\":2177:2359  function getColumnCount(uint _row) public view returns (uint) {... */\n    tag_16:\n        /* \"contracts/exp1_multidimArray.sol\":2233:2237  uint */\n      0x00\n        /* \"contracts/exp1_multidimArray.sol\":2265:2275  multiArray */\n      dup1\n        /* \"contracts/exp1_multidimArray.sol\":2265:2282  multiArray.length */\n      dup1\n      sload\n      swap1\n      pop\n        /* \"contracts/exp1_multidimArray.sol\":2258:2262  _row */\n      dup3\n        /* \"contracts/exp1_multidimArray.sol\":2258:2282  _row < multiArray.length */\n      lt\n        /* \"contracts/exp1_multidimArray.sol\":2250:2310  require(_row < multiArray.length, \"Row index out of bounds\") */\n      tag_30\n      jumpi\n      mload(0x40)\n      0x08c379a000000000000000000000000000000000000000000000000000000000\n      dup2\n      mstore\n      0x04\n      add\n      tag_31\n      swap1\n      tag_32\n      jump\t// in\n    tag_31:\n      mload(0x40)\n      dup1\n      swap2\n      sub\n      swap1\n      revert\n    tag_30:\n        /* \"contracts/exp1_multidimArray.sol\":2328:2338  multiArray */\n      0x00\n        /* \"contracts/exp1_multidimArray.sol\":2339:2343  _row */\n      dup3\n        /* \"contracts/exp1_multidimArray.sol\":2328:2344  multiArray[_row] */\n      dup2\n      sload\n      dup2\n      lt\n      tag_33\n      jumpi\n      tag_34\n      tag_24\n      jump\t// in\n    tag_34:\n    tag_33:\n      swap1\n      0x00\n      mstore\n      keccak256(0x00, 0x20)\n      add\n        /* \"contracts/exp1_multidimArray.sol\":2328:2351  multiArray[_row].length */\n      dup1\n      sload\n      swap1\n      pop\n        /* \"contracts/exp1_multidimArray.sol\":2321:2351  return multiArray[_row].length */\n      swap1\n      pop\n        /* \"contracts/exp1_multidimArray.sol\":2177:2359  function getColumnCount(uint _row) public view returns (uint) {... */\n      swap2\n      swap1\n      pop\n      jump\t// out\n        /* \"#utility.yul\":7:84   */\n    tag_36:\n        /* \"#utility.yul\":44:51   */\n      0x00\n        /* \"#utility.yul\":73:78   */\n      dup2\n        /* \"#utility.yul\":62:78   */\n      swap1\n      pop\n        /* \"#utility.yul\":7:84   */\n      swap2\n      swap1\n      pop\n      jump\t// out\n        /* \"#utility.yul\":90:208   */\n    tag_37:\n        /* \"#utility.yul\":177:201   */\n      tag_50\n        /* \"#utility.yul\":195:200   */\n      dup2\n        /* \"#utility.yul\":177:201   */\n      tag_36\n      jump\t// in\n    tag_50:\n        /* \"#utility.yul\":172:175   */\n      dup3\n        /* \"#utility.yul\":165:202   */\n      mstore\n        /* \"#utility.yul\":90:208   */\n      pop\n      pop\n      jump\t// out\n        /* \"#utility.yul\":214:436   */\n    tag_9:\n        /* \"#utility.yul\":307:311   */\n      0x00\n        /* \"#utility.yul\":345:347   */\n      0x20\n        /* \"#utility.yul\":334:343   */\n      dup3\n        /* \"#utility.yul\":330:348   */\n      add\n        /* \"#utility.yul\":322:348   */\n      swap1\n      pop\n        /* \"#utility.yul\":358:429   */\n      tag_52\n        /* \"#utility.yul\":426:427   */\n      0x00\n        /* \"#utility.yul\":415:424   */\n      dup4\n        /* \"#utility.yul\":411:428   */\n      add\n        /* \"#utility.yul\":402:408   */\n      dup5\n        /* \"#utility.yul\":358:429   */\n      tag_37\n      jump\t// in\n    tag_52:\n        /* \"#utility.yul\":214:436   */\n      swap3\n      swap2\n      pop\n      pop\n      jump\t// out\n        /* \"#utility.yul\":523:640   */\n    tag_39:\n        /* \"#utility.yul\":632:633   */\n      0x00\n        /* \"#utility.yul\":629:630   */\n      dup1\n        /* \"#utility.yul\":622:634   */\n      revert\n        /* \"#utility.yul\":769:891   */\n    tag_41:\n        /* \"#utility.yul\":842:866   */\n      tag_57\n        /* \"#utility.yul\":860:865   */\n      dup2\n        /* \"#utility.yul\":842:866   */\n      tag_36\n      jump\t// in\n    tag_57:\n        /* \"#utility.yul\":835:840   */\n      dup2\n        /* \"#utility.yul\":832:867   */\n      eq\n        /* \"#utility.yul\":822:885   */\n      tag_58\n      jumpi\n        /* \"#utility.yul\":881:882   */\n      0x00\n        /* \"#utility.yul\":878:879   */\n      dup1\n        /* \"#utility.yul\":871:883   */\n      revert\n        /* \"#utility.yul\":822:885   */\n    tag_58:\n        /* \"#utility.yul\":769:891   */\n      pop\n      jump\t// out\n        /* \"#utility.yul\":897:1036   */\n    tag_42:\n        /* \"#utility.yul\":943:948   */\n      0x00\n        /* \"#utility.yul\":981:987   */\n      dup2\n        /* \"#utility.yul\":968:988   */\n      calldataload\n        /* \"#utility.yul\":959:988   */\n      swap1\n      pop\n        /* \"#utility.yul\":997:1030   */\n      tag_60\n        /* \"#utility.yul\":1024:1029   */\n      dup2\n        /* \"#utility.yul\":997:1030   */\n      tag_41\n      jump\t// in\n    tag_60:\n        /* \"#utility.yul\":897:1036   */\n      swap3\n      swap2\n      pop\n      pop\n      jump\t// out\n        /* \"#utility.yul\":1042:1371   */\n    tag_15:\n        /* \"#utility.yul\":1101:1107   */\n      0x00\n        /* \"#utility.yul\":1150:1152   */\n      0x20\n        /* \"#utility.yul\":1138:1147   */\n      dup3\n        /* \"#utility.yul\":1129:1136   */\n      dup5\n        /* \"#utility.yul\":1125:1148   */\n      sub\n        /* \"#utility.yul\":1121:1153   */\n      slt\n        /* \"#utility.yul\":1118:1237   */\n      iszero\n      tag_62\n      jumpi\n        /* \"#utility.yul\":1156:1235   */\n      tag_63\n      tag_39\n      jump\t// in\n    tag_63:\n        /* \"#utility.yul\":1118:1237   */\n    tag_62:\n        /* \"#utility.yul\":1276:1277   */\n      0x00\n        /* \"#utility.yul\":1301:1354   */\n      tag_64\n        /* \"#utility.yul\":1346:1353   */\n      dup5\n        /* \"#utility.yul\":1337:1343   */\n      dup3\n        /* \"#utility.yul\":1326:1335   */\n      dup6\n        /* \"#utility.yul\":1322:1344   */\n      add\n        /* \"#utility.yul\":1301:1354   */\n      tag_42\n      jump\t// in\n    tag_64:\n        /* \"#utility.yul\":1291:1354   */\n      swap2\n      pop\n        /* \"#utility.yul\":1247:1364   */\n      pop\n        /* \"#utility.yul\":1042:1371   */\n      swap3\n      swap2\n      pop\n      pop\n      jump\t// out\n        /* \"#utility.yul\":1377:1557   */\n    tag_24:\n        /* \"#utility.yul\":1425:1502   */\n      0x4e487b7100000000000000000000000000000000000000000000000000000000\n        /* \"#utility.yul\":1422:1423   */\n      0x00\n        /* \"#utility.yul\":1415:1503   */\n      mstore\n        /* \"#utility.yul\":1522:1526   */\n      0x32\n        /* \"#utility.yul\":1519:1520   */\n      0x04\n        /* \"#utility.yul\":1512:1527   */\n      mstore\n        /* \"#utility.yul\":1546:1550   */\n      0x24\n        /* \"#utility.yul\":1543:1544   */\n      0x00\n        /* \"#utility.yul\":1536:1551   */\n      revert\n        /* \"#utility.yul\":1563:1743   */\n    tag_43:\n        /* \"#utility.yul\":1611:1688   */\n      0x4e487b7100000000000000000000000000000000000000000000000000000000\n        /* \"#utility.yul\":1608:1609   */\n      0x00\n        /* \"#utility.yul\":1601:1689   */\n      mstore\n        /* \"#utility.yul\":1708:1712   */\n      0x11\n        /* \"#utility.yul\":1705:1706   */\n      0x04\n        /* \"#utility.yul\":1698:1713   */\n      mstore\n        /* \"#utility.yul\":1732:1736   */\n      0x24\n        /* \"#utility.yul\":1729:1730   */\n      0x00\n        /* \"#utility.yul\":1722:1737   */\n      revert\n        /* \"#utility.yul\":1749:1940   */\n    tag_27:\n        /* \"#utility.yul\":1789:1792   */\n      0x00\n        /* \"#utility.yul\":1808:1828   */\n      tag_68\n        /* \"#utility.yul\":1826:1827   */\n      dup3\n        /* \"#utility.yul\":1808:1828   */\n      tag_36\n      jump\t// in\n    tag_68:\n        /* \"#utility.yul\":1803:1828   */\n      swap2\n      pop\n        /* \"#utility.yul\":1842:1862   */\n      tag_69\n        /* \"#utility.yul\":1860:1861   */\n      dup4\n        /* \"#utility.yul\":1842:1862   */\n      tag_36\n      jump\t// in\n    tag_69:\n        /* \"#utility.yul\":1837:1862   */\n      swap3\n      pop\n        /* \"#utility.yul\":1885:1886   */\n      dup3\n        /* \"#utility.yul\":1882:1883   */\n      dup3\n        /* \"#utility.yul\":1878:1887   */\n      add\n        /* \"#utility.yul\":1871:1887   */\n      swap1\n      pop\n        /* \"#utility.yul\":1906:1909   */\n      dup1\n        /* \"#utility.yul\":1903:1904   */\n      dup3\n        /* \"#utility.yul\":1900:1910   */\n      gt\n        /* \"#utility.yul\":1897:1933   */\n      iszero\n      tag_70\n      jumpi\n        /* \"#utility.yul\":1913:1931   */\n      tag_71\n      tag_43\n      jump\t// in\n    tag_71:\n        /* \"#utility.yul\":1897:1933   */\n    tag_70:\n        /* \"#utility.yul\":1749:1940   */\n      swap3\n      swap2\n      pop\n      pop\n      jump\t// out\n        /* \"#utility.yul\":1946:2115   */\n    tag_44:\n        /* \"#utility.yul\":2030:2041   */\n      0x00\n        /* \"#utility.yul\":2064:2070   */\n      dup3\n        /* \"#utility.yul\":2059:2062   */\n      dup3\n        /* \"#utility.yul\":2052:2071   */\n      mstore\n        /* \"#utility.yul\":2104:2108   */\n      0x20\n        /* \"#utility.yul\":2099:2102   */\n      dup3\n        /* \"#utility.yul\":2095:2109   */\n      add\n        /* \"#utility.yul\":2080:2109   */\n      swap1\n      pop\n        /* \"#utility.yul\":1946:2115   */\n      swap3\n      swap2\n      pop\n      pop\n      jump\t// out\n        /* \"#utility.yul\":2121:2294   */\n    tag_45:\n        /* \"#utility.yul\":2261:2286   */\n      0x526f7720696e646578206f7574206f6620626f756e6473000000000000000000\n        /* \"#utility.yul\":2257:2258   */\n      0x00\n        /* \"#utility.yul\":2249:2255   */\n      dup3\n        /* \"#utility.yul\":2245:2259   */\n      add\n        /* \"#utility.yul\":2238:2287   */\n      mstore\n        /* \"#utility.yul\":2121:2294   */\n      pop\n      jump\t// out\n        /* \"#utility.yul\":2300:2666   */\n    tag_46:\n        /* \"#utility.yul\":2442:2445   */\n      0x00\n        /* \"#utility.yul\":2463:2530   */\n      tag_75\n        /* \"#utility.yul\":2527:2529   */\n      0x17\n        /* \"#utility.yul\":2522:2525   */\n      dup4\n        /* \"#utility.yul\":2463:2530   */\n      tag_44\n      jump\t// in\n    tag_75:\n        /* \"#utility.yul\":2456:2530   */\n      swap2\n      pop\n        /* \"#utility.yul\":2539:2632   */\n      tag_76\n        /* \"#utility.yul\":2628:2631   */\n      dup3\n        /* \"#utility.yul\":2539:2632   */\n      tag_45\n      jump\t// in\n    tag_76:\n        /* \"#utility.yul\":2657:2659   */\n      0x20\n        /* \"#utility.yul\":2652:2655   */\n      dup3\n        /* \"#utility.yul\":2648:2660   */\n      add\n        /* \"#utility.yul\":2641:2660   */\n      swap1\n      pop\n        /* \"#utility.yul\":2300:2666   */\n      swap2\n      swap1\n      pop\n      jump\t// out\n        /* \"#utility.yul\":2672:3091   */\n    tag_32:\n        /* \"#utility.yul\":2838:2842   */\n      0x00\n        /* \"#utility.yul\":2876:2878   */\n      0x20\n        /* \"#utility.yul\":2865:2874   */\n      dup3\n        /* \"#utility.yul\":2861:2879   */\n      add\n        /* \"#utility.yul\":2853:2879   */\n      swap1\n      pop\n        /* \"#utility.yul\":2925:2934   */\n      dup2\n        /* \"#utility.yul\":2919:2923   */\n      dup2\n        /* \"#utility.yul\":2915:2935   */\n      sub\n        /* \"#utility.yul\":2911:2912   */\n      0x00\n        /* \"#utility.yul\":2900:2909   */\n      dup4\n        /* \"#utility.yul\":2896:2913   */\n      add\n        /* \"#utility.yul\":2889:2936   */\n      mstore\n        /* \"#utility.yul\":2953:3084   */\n      tag_78\n        /* \"#utility.yul\":3079:3083   */\n      dup2\n        /* \"#utility.yul\":2953:3084   */\n      tag_46\n      jump\t// in\n    tag_78:\n        /* \"#utility.yul\":2945:3084   */\n      swap1\n      pop\n        /* \"#utility.yul\":2672:3091   */\n      swap2\n      swap1\n      pop\n      jump\t// out\n\n    auxdata: 0xa26469706673582212200a3d8d322bf0d395ab8038a2a615753188d645042ec06166c0b970c5806fd22764736f6c634300081a0033\n}\n",
				"bytecode": {
					"linkReferences": {},
					"object": "6080604052348015600e575f80fd5b506103408061001c5f395ff3fe608060405234801561000f575f80fd5b506004361061003f575f3560e01c8063172a575a146100435780637262854e14610061578063fb8410b21461007f575b5f80fd5b61004b6100af565b6040516100589190610193565b60405180910390f35b610069610103565b6040516100769190610193565b60405180910390f35b610099600480360381019061009491906101da565b61010e565b6040516100a69190610193565b60405180910390f35b5f805f90505f5b5f805490508110156100fb575f81815481106100d5576100d4610205565b5b905f5260205f200180549050826100ec919061025f565b915080806001019150506100b6565b508091505090565b5f8080549050905090565b5f80805490508210610155576040517f08c379a000000000000000000000000000000000000000000000000000000000815260040161014c906102ec565b60405180910390fd5b5f828154811061016857610167610205565b5b905f5260205f2001805490509050919050565b5f819050919050565b61018d8161017b565b82525050565b5f6020820190506101a65f830184610184565b92915050565b5f80fd5b6101b98161017b565b81146101c3575f80fd5b50565b5f813590506101d4816101b0565b92915050565b5f602082840312156101ef576101ee6101ac565b5b5f6101fc848285016101c6565b91505092915050565b7f4e487b71000000000000000000000000000000000000000000000000000000005f52603260045260245ffd5b7f4e487b71000000000000000000000000000000000000000000000000000000005f52601160045260245ffd5b5f6102698261017b565b91506102748361017b565b925082820190508082111561028c5761028b610232565b5b92915050565b5f82825260208201905092915050565b7f526f7720696e646578206f7574206f6620626f756e64730000000000000000005f82015250565b5f6102d6601783610292565b91506102e1826102a2565b602082019050919050565b5f6020820190508181035f830152610303816102ca565b905091905056fea26469706673582212200a3d8d322bf0d395ab8038a2a615753188d645042ec06166c0b970c5806fd22764736f6c634300081a0033",
					"opcodes": "PUSH1 0x80 PUSH1 0x40 MSTORE CALLVALUE DUP1 ISZERO PUSH1 0xE JUMPI PUSH0 DUP1 REVERT JUMPDEST POP PUSH2 0x340 DUP1 PUSH2 0x1C PUSH0 CODECOPY PUSH0 RETURN INVALID PUSH1 0x80 PUSH1 0x40 MSTORE CALLVALUE DUP1 ISZERO PUSH2 0xF JUMPI PUSH0 DUP1 REVERT JUMPDEST POP PUSH1 0x4 CALLDATASIZE LT PUSH2 0x3F JUMPI PUSH0 CALLDATALOAD PUSH1 0xE0 SHR DUP1 PUSH4 0x172A575A EQ PUSH2 0x43 JUMPI DUP1 PUSH4 0x7262854E EQ PUSH2 0x61 JUMPI DUP1 PUSH4 0xFB8410B2 EQ PUSH2 0x7F JUMPI JUMPDEST PUSH0 DUP1 REVERT JUMPDEST PUSH2 0x4B PUSH2 0xAF JUMP JUMPDEST PUSH1 0x40 MLOAD PUSH2 0x58 SWAP2 SWAP1 PUSH2 0x193 JUMP JUMPDEST PUSH1 0x40 MLOAD DUP1 SWAP2 SUB SWAP1 RETURN JUMPDEST PUSH2 0x69 PUSH2 0x103 JUMP JUMPDEST PUSH1 0x40 MLOAD PUSH2 0x76 SWAP2 SWAP1 PUSH2 0x193 JUMP JUMPDEST PUSH1 0x40 MLOAD DUP1 SWAP2 SUB SWAP1 RETURN JUMPDEST PUSH2 0x99 PUSH1 0x4 DUP1 CALLDATASIZE SUB DUP2 ADD SWAP1 PUSH2 0x94 SWAP2 SWAP1 PUSH2 0x1DA JUMP JUMPDEST PUSH2 0x10E JUMP JUMPDEST PUSH1 0x40 MLOAD PUSH2 0xA6 SWAP2 SWAP1 PUSH2 0x193 JUMP JUMPDEST PUSH1 0x40 MLOAD DUP1 SWAP2 SUB SWAP1 RETURN JUMPDEST PUSH0 DUP1 PUSH0 SWAP1 POP PUSH0 JUMPDEST PUSH0 DUP1 SLOAD SWAP1 POP DUP2 LT ISZERO PUSH2 0xFB JUMPI PUSH0 DUP2 DUP2 SLOAD DUP2 LT PUSH2 0xD5 JUMPI PUSH2 0xD4 PUSH2 0x205 JUMP JUMPDEST JUMPDEST SWAP1 PUSH0 MSTORE PUSH1 0x20 PUSH0 KECCAK256 ADD DUP1 SLOAD SWAP1 POP DUP3 PUSH2 0xEC SWAP2 SWAP1 PUSH2 0x25F JUMP JUMPDEST SWAP2 POP DUP1 DUP1 PUSH1 0x1 ADD SWAP2 POP POP PUSH2 0xB6 JUMP JUMPDEST POP DUP1 SWAP2 POP POP SWAP1 JUMP JUMPDEST PUSH0 DUP1 DUP1 SLOAD SWAP1 POP SWAP1 POP SWAP1 JUMP JUMPDEST PUSH0 DUP1 DUP1 SLOAD SWAP1 POP DUP3 LT PUSH2 0x155 JUMPI PUSH1 0x40 MLOAD PUSH32 0x8C379A000000000000000000000000000000000000000000000000000000000 DUP2 MSTORE PUSH1 0x4 ADD PUSH2 0x14C SWAP1 PUSH2 0x2EC JUMP JUMPDEST PUSH1 0x40 MLOAD DUP1 SWAP2 SUB SWAP1 REVERT JUMPDEST PUSH0 DUP3 DUP2 SLOAD DUP2 LT PUSH2 0x168 JUMPI PUSH2 0x167 PUSH2 0x205 JUMP JUMPDEST JUMPDEST SWAP1 PUSH0 MSTORE PUSH1 0x20 PUSH0 KECCAK256 ADD DUP1 SLOAD SWAP1 POP SWAP1 POP SWAP2 SWAP1 POP JUMP JUMPDEST PUSH0 DUP2 SWAP1 POP SWAP2 SWAP1 POP JUMP JUMPDEST PUSH2 0x18D DUP2 PUSH2 0x17B JUMP JUMPDEST DUP3 MSTORE POP POP JUMP JUMPDEST PUSH0 PUSH1 0x20 DUP3 ADD SWAP1 POP PUSH2 0x1A6 PUSH0 DUP4 ADD DUP5 PUSH2 0x184 JUMP JUMPDEST SWAP3 SWAP2 POP POP JUMP JUMPDEST PUSH0 DUP1 REVERT JUMPDEST PUSH2 0x1B9 DUP2 PUSH2 0x17B JUMP JUMPDEST DUP2 EQ PUSH2 0x1C3 JUMPI PUSH0 DUP1 REVERT JUMPDEST POP JUMP JUMPDEST PUSH0 DUP2 CALLDATALOAD SWAP1 POP PUSH2 0x1D4 DUP2 PUSH2 0x1B0 JUMP JUMPDEST SWAP3 SWAP2 POP POP JUMP JUMPDEST PUSH0 PUSH1 0x20 DUP3 DUP5 SUB SLT ISZERO PUSH2 0x1EF JUMPI PUSH2 0x1EE PUSH2 0x1AC JUMP JUMPDEST JUMPDEST PUSH0 PUSH2 0x1FC DUP5 DUP3 DUP6 ADD PUSH2 0x1C6 JUMP JUMPDEST SWAP2 POP POP SWAP3 SWAP2 POP POP JUMP JUMPDEST PUSH32 0x4E487B7100000000000000000000000000000000000000000000000000000000 PUSH0 MSTORE PUSH1 0x32 PUSH1 0x4 MSTORE PUSH1 0x24 PUSH0 REVERT JUMPDEST PUSH32 0x4E487B7100000000000000000000000000000000000000000000000000000000 PUSH0 MSTORE PUSH1 0x11 PUSH1 0x4 MSTORE PUSH1 0x24 PUSH0 REVERT JUMPDEST PUSH0 PUSH2 0x269 DUP3 PUSH2 0x17B JUMP JUMPDEST SWAP2 POP PUSH2 0x274 DUP4 PUSH2 0x17B JUMP JUMPDEST SWAP3 POP DUP3 DUP3 ADD SWAP1 POP DUP1 DUP3 GT ISZERO PUSH2 0x28C JUMPI PUSH2 0x28B PUSH2 0x232 JUMP JUMPDEST JUMPDEST SWAP3 SWAP2 POP POP JUMP JUMPDEST PUSH0 DUP3 DUP3 MSTORE PUSH1 0x20 DUP3 ADD SWAP1 POP SWAP3 SWAP2 POP POP JUMP JUMPDEST PUSH32 0x526F7720696E646578206F7574206F6620626F756E6473000000000000000000 PUSH0 DUP3 ADD MSTORE POP JUMP JUMPDEST PUSH0 PUSH2 0x2D6 PUSH1 0x17 DUP4 PUSH2 0x292 JUMP JUMPDEST SWAP2 POP PUSH2 0x2E1 DUP3 PUSH2 0x2A2 JUMP JUMPDEST PUSH1 0x20 DUP3 ADD SWAP1 POP SWAP2 SWAP1 POP JUMP JUMPDEST PUSH0 PUSH1 0x20 DUP3 ADD SWAP1 POP DUP2 DUP2 SUB PUSH0 DUP4 ADD MSTORE PUSH2 0x303 DUP2 PUSH2 0x2CA JUMP JUMPDEST SWAP1 POP SWAP2 SWAP1 POP JUMP INVALID LOG2 PUSH5 0x6970667358 0x22 SLT KECCAK256 EXP RETURNDATASIZE DUP14 ORIGIN 0x2B CREATE 0xD3 SWAP6 0xAB DUP1 CODESIZE LOG2 0xA6 ISZERO PUSH22 0x3188D645042EC06166C0B970C5806FD22764736F6C63 NUMBER STOP ADDMOD BYTE STOP CALLER "
				},
				"gasEstimates": {
					"creation": {
						"codeDepositCost": "166400",
						"executionCost": "206",
						"totalCost": "166606"
					},
					"external": {
						"getColumnCount(uint256)": "infinite",
						"getRowCount()": "2440",
						"getTotalElementCount()": "infinite"
					}
				},
				"methodIdentifiers": {
					"getColumnCount(uint256)": "fb8410b2",
					"getRowCount()": "7262854e",
					"getTotalElementCount()": "172a575a"
				}
			},
			"storageLayout": {
				"storage": [
					{
						"astId": 164,
						"contract": "contracts/exp1_multidimArray.sol:MultiDimArraySizeAccess",
						"label": "multiArray",
						"offset": 0,
						"slot": "0",
						"type": "t_array(t_array(t_uint256)dyn_storage)dyn_storage"
					}
				],
				"types": {
					"t_array(t_array(t_uint256)dyn_storage)dyn_storage": {
						"base": "t_array(t_uint256)dyn_storage",
						"encoding": "dynamic_array",
						"label": "uint256[][]",
						"numberOfBytes": "32"
					},
					"t_array(t_uint256)dyn_storage": {
						"base": "t_uint256",
						"encoding": "dynamic_array",
						"label": "uint256[]",
						"numberOfBytes": "32"
					},
					"t_uint256": {
						"encoding": "inplace",
						"label": "uint256",
						"numberOfBytes": "32"
					}
				}
			},
			"userdoc": {
				"kind": "user",
				"methods": {},
				"version": 1
			}
		}
	}
}