{
	"contracts/exp1_multidimArray.sol": {
		"MultiDimArrayBasic": {
			"abi": [
				{
					"inputs": [
						{
							"internalType": "uint256[]",
							"name": "_row",
							"type": "uint256[]"
						}
					],
					"name": "addRow",
					"outputs": [],
					"stateMutability": "nonpayable",
					"type": "function"
				},
				{
					"inputs": [
						{
							"internalType": "uint256",
							"name": "_row",
							"type": "uint256"
						},
						{
							"internalType": "uint256",
							"name": "_col",
							"type": "uint256"
						}
					],
					"name": "getElement",
					"outputs": [
						{
							"internalType": "uint256",
							"name": "",
							"type": "uint256"
						}
					],
					"stateMutability": "view",
					"type": "function"
				},
				{
					"inputs": [
						{
							"internalType": "uint256",
							"name": "_row",
							"type": "uint256"
						}
					],
					"name": "getRow",
					"outputs": [
						{
							"internalType": "uint256[]",
							"name": "",
							"type": "uint256[]"
						}
					],
					"stateMutability": "view",
					"type": "function"
				}
			],
			"devdoc": {
				"custom:dev-run-script": "./scripts/deploy_with_ethers.ts",
				"details": "Store & retrieve value in a variable",
				"kind": "dev",
				"methods": {},
				"title": "Storage",
				"version": 1
			},
			"evm": {
				"assembly": "    /* \"contracts/exp1_multidimArray.sol\":208:1004  contract MultiDimArrayBasic {... */\n  mstore(0x40, 0x80)\n  callvalue\n  dup1\n  iszero\n  tag_1\n  jumpi\n  0x00\n  dup1\n  revert\ntag_1:\n  pop\n  dataSize(sub_0)\n  dup1\n  dataOffset(sub_0)\n  0x00\n  codecopy\n  0x00\n  return\nstop\n\nsub_0: assembly {\n        /* \"contracts/exp1_multidimArray.sol\":208:1004  contract MultiDimArrayBasic {... */\n      mstore(0x40, 0x80)\n      callvalue\n      dup1\n      iszero\n      tag_1\n      jumpi\n      0x00\n      dup1\n      revert\n    tag_1:\n      pop\n      jumpi(tag_2, lt(calldatasize, 0x04))\n      shr(0xe0, calldataload(0x00))\n      dup1\n      0x303a36e2\n      eq\n      tag_3\n      jumpi\n      dup1\n      0x84d92f8e\n      eq\n      tag_4\n      jumpi\n      dup1\n      0xcb34f1da\n      eq\n      tag_5\n      jumpi\n    tag_2:\n      0x00\n      dup1\n      revert\n        /* \"contracts/exp1_multidimArray.sol\":825:1001  function getRow(uint _row) public view returns (uint[] memory) {... */\n    tag_3:\n      tag_6\n      0x04\n      dup1\n      calldatasize\n      sub\n      dup2\n      add\n      swap1\n      tag_7\n      swap2\n      swap1\n      tag_8\n      jump\t// in\n    tag_7:\n      tag_9\n      jump\t// in\n    tag_6:\n      mload(0x40)\n      tag_10\n      swap2\n      swap1\n      tag_11\n      jump\t// in\n    tag_10:\n      mload(0x40)\n      dup1\n      swap2\n      sub\n      swap1\n      return\n        /* \"contracts/exp1_multidimArray.sol\":331:414  function addRow(uint[] memory _row) public {... */\n    tag_4:\n      tag_12\n      0x04\n      dup1\n      calldatasize\n      sub\n      dup2\n      add\n      swap1\n      tag_13\n      swap2\n      swap1\n      tag_14\n      jump\t// in\n    tag_13:\n      tag_15\n      jump\t// in\n    tag_12:\n      stop\n        /* \"contracts/exp1_multidimArray.sol\":506:774  function getElement(uint _row, uint _col) public view returns (uint) {... */\n    tag_5:\n      tag_16\n      0x04\n      dup1\n      calldatasize\n      sub\n      dup2\n      add\n      swap1\n      tag_17\n      swap2\n      swap1\n      tag_18\n      jump\t// in\n    tag_17:\n      tag_19\n      jump\t// in\n    tag_16:\n      mload(0x40)\n      tag_20\n      swap2\n      swap1\n      tag_21\n      jump\t// in\n    tag_20:\n      mload(0x40)\n      dup1\n      swap2\n      sub\n      swap1\n      return\n        /* \"contracts/exp1_multidimArray.sol\":825:1001  function getRow(uint _row) public view returns (uint[] memory) {... */\n    tag_9:\n        /* \"contracts/exp1_multidimArray.sol\":873:886  uint[] memory */\n      0x60\n        /* \"contracts/exp1_multidimArray.sol\":914:924  multiArray */\n      0x00\n        /* \"contracts/exp1_multidimArray.sol\":914:931  multiArray.length */\n      dup1\n      sload\n      swap1\n      pop\n        /* \"contracts/exp1_multidimArray.sol\":907:911  _row */\n      dup3\n        /* \"contracts/exp1_multidimArray.sol\":907:931  _row < multiArray.length */\n      lt\n        /* \"contracts/exp1_multidimArray.sol\":899:959  require(_row < multiArray.length, \"Row index out of bounds\") */\n      tag_23\n      jumpi\n      mload(0x40)\n      0x08c379a000000000000000000000000000000000000000000000000000000000\n      dup2\n      mstore\n      0x04\n      add\n      tag_24\n      swap1\n      tag_25\n      jump\t// in\n    tag_24:\n      mload(0x40)\n      dup1\n      swap2\n      sub\n      swap1\n      revert\n    tag_23:\n        /* \"contracts/exp1_multidimArray.sol\":977:987  multiArray */\n      0x00\n        /* \"contracts/exp1_multidimArray.sol\":988:992  _row */\n      dup3\n        /* \"contracts/exp1_multidimArray.sol\":977:993  multiArray[_row] */\n      dup2\n      sload\n      dup2\n      lt\n      tag_26\n      jumpi\n      tag_27\n      tag_28\n      jump\t// in\n    tag_27:\n    tag_26:\n      swap1\n      0x00\n      mstore\n      keccak256(0x00, 0x20)\n      add\n        /* \"contracts/exp1_multidimArray.sol\":970:993  return multiArray[_row] */\n      dup1\n      sload\n      dup1\n      0x20\n      mul\n      0x20\n      add\n      mload(0x40)\n      swap1\n      dup2\n      add\n      0x40\n      mstore\n      dup1\n      swap3\n      swap2\n      swap1\n      dup2\n      dup2\n      mstore\n      0x20\n      add\n      dup3\n      dup1\n      sload\n      dup1\n      iszero\n      tag_30\n      jumpi\n      0x20\n      mul\n      dup3\n      add\n      swap2\n      swap1\n      0x00\n      mstore\n      keccak256(0x00, 0x20)\n      swap1\n    tag_31:\n      dup2\n      sload\n      dup2\n      mstore\n      0x20\n      add\n      swap1\n      0x01\n      add\n      swap1\n      dup1\n      dup4\n      gt\n      tag_31\n      jumpi\n    tag_30:\n      pop\n      pop\n      pop\n      pop\n      pop\n      swap1\n      pop\n        /* \"contracts/exp1_multidimArray.sol\":825:1001  function getRow(uint _row) public view returns (uint[] memory) {... */\n      swap2\n      swap1\n      pop\n      jump\t// out\n        /* \"contracts/exp1_multidimArray.sol\":331:414  function addRow(uint[] memory _row) public {... */\n    tag_15:\n        /* \"contracts/exp1_multidimArray.sol\":385:395  multiArray */\n      0x00\n        /* \"contracts/exp1_multidimArray.sol\":401:405  _row */\n      dup2\n        /* \"contracts/exp1_multidimArray.sol\":385:406  multiArray.push(_row) */\n      swap1\n      dup1\n      0x01\n      dup2\n      sload\n      add\n      dup1\n      dup3\n      sstore\n      dup1\n      swap2\n      pop\n      pop\n      0x01\n      swap1\n      sub\n      swap1\n      0x00\n      mstore\n      keccak256(0x00, 0x20)\n      add\n      0x00\n      swap1\n      swap2\n      swap1\n      swap2\n      swap1\n      swap2\n      pop\n      swap1\n      dup1\n      mload\n      swap1\n      0x20\n      add\n      swap1\n      tag_34\n      swap3\n      swap2\n      swap1\n      tag_35\n      jump\t// in\n    tag_34:\n      pop\n        /* \"contracts/exp1_multidimArray.sol\":331:414  function addRow(uint[] memory _row) public {... */\n      pop\n      jump\t// out\n        /* \"contracts/exp1_multidimArray.sol\":506:774  function getElement(uint _row, uint _col) public view returns (uint) {... */\n    tag_19:\n        /* \"contracts/exp1_multidimArray.sol\":569:573  uint */\n      0x00\n        /* \"contracts/exp1_multidimArray.sol\":601:611  multiArray */\n      dup1\n        /* \"contracts/exp1_multidimArray.sol\":601:618  multiArray.length */\n      dup1\n      sload\n      swap1\n      pop\n        /* \"contracts/exp1_multidimArray.sol\":594:598  _row */\n      dup4\n        /* \"contracts/exp1_multidimArray.sol\":594:618  _row < multiArray.length */\n      lt\n        /* \"contracts/exp1_multidimArray.sol\":586:646  require(_row < multiArray.length, \"Row index out of bounds\") */\n      tag_37\n      jumpi\n      mload(0x40)\n      0x08c379a000000000000000000000000000000000000000000000000000000000\n      dup2\n      mstore\n      0x04\n      add\n      tag_38\n      swap1\n      tag_25\n      jump\t// in\n    tag_38:\n      mload(0x40)\n      dup1\n      swap2\n      sub\n      swap1\n      revert\n    tag_37:\n        /* \"contracts/exp1_multidimArray.sol\":672:682  multiArray */\n      0x00\n        /* \"contracts/exp1_multidimArray.sol\":683:687  _row */\n      dup4\n        /* \"contracts/exp1_multidimArray.sol\":672:688  multiArray[_row] */\n      dup2\n      sload\n      dup2\n      lt\n      tag_39\n      jumpi\n      tag_40\n      tag_28\n      jump\t// in\n    tag_40:\n    tag_39:\n      swap1\n      0x00\n      mstore\n      keccak256(0x00, 0x20)\n      add\n        /* \"contracts/exp1_multidimArray.sol\":672:695  multiArray[_row].length */\n      dup1\n      sload\n      swap1\n      pop\n        /* \"contracts/exp1_multidimArray.sol\":665:669  _col */\n      dup3\n        /* \"contracts/exp1_multidimArray.sol\":665:695  _col < multiArray[_row].length */\n      lt\n        /* \"contracts/exp1_multidimArray.sol\":657:726  require(_col < multiArray[_row].length, \"Column index out of bounds\") */\n      tag_42\n      jumpi\n      mload(0x40)\n      0x08c379a000000000000000000000000000000000000000000000000000000000\n      dup2\n      mstore\n      0x04\n      add\n      tag_43\n      swap1\n      tag_44\n      jump\t// in\n    tag_43:\n      mload(0x40)\n      dup1\n      swap2\n      sub\n      swap1\n      revert\n    tag_42:\n        /* \"contracts/exp1_multidimArray.sol\":744:754  multiArray */\n      0x00\n        /* \"contracts/exp1_multidimArray.sol\":755:759  _row */\n      dup4\n        /* \"contracts/exp1_multidimArray.sol\":744:760  multiArray[_row] */\n      dup2\n      sload\n      dup2\n      lt\n      tag_45\n      jumpi\n      tag_46\n      tag_28\n      jump\t// in\n    tag_46:\n    tag_45:\n      swap1\n      0x00\n      mstore\n      keccak256(0x00, 0x20)\n      add\n        /* \"contracts/exp1_multidimArray.sol\":761:765  _col */\n      dup3\n        /* \"contracts/exp1_multidimArray.sol\":744:766  multiArray[_row][_col] */\n      dup2\n      sload\n      dup2\n      lt\n      tag_48\n      jumpi\n      tag_49\n      tag_28\n      jump\t// in\n    tag_49:\n    tag_48:\n      swap1\n      0x00\n      mstore\n      keccak256(0x00, 0x20)\n      add\n      sload\n        /* \"contracts/exp1_multidimArray.sol\":737:766  return multiArray[_row][_col] */\n      swap1\n      pop\n        /* \"contracts/exp1_multidimArray.sol\":506:774  function getElement(uint _row, uint _col) public view returns (uint) {... */\n      swap3\n      swap2\n      pop\n      pop\n      jump\t// out\n    tag_35:\n      dup3\n      dup1\n      sload\n      dup3\n      dup3\n      sstore\n      swap1\n      0x00\n      mstore\n      keccak256(0x00, 0x20)\n      swap1\n      dup2\n      add\n      swap3\n      dup3\n      iszero\n      tag_51\n      jumpi\n      swap2\n      0x20\n      mul\n      dup3\n      add\n    tag_52:\n      dup3\n      dup2\n      gt\n      iszero\n      tag_53\n      jumpi\n      dup3\n      mload\n      dup3\n      sstore\n      swap2\n      0x20\n      add\n      swap2\n      swap1\n      0x01\n      add\n      swap1\n      jump(tag_52)\n    tag_53:\n    tag_51:\n      pop\n      swap1\n      pop\n      tag_54\n      swap2\n      swap1\n      tag_55\n      jump\t// in\n    tag_54:\n      pop\n      swap1\n      jump\t// out\n    tag_55:\n    tag_56:\n      dup1\n      dup3\n      gt\n      iszero\n      tag_57\n      jumpi\n      0x00\n      dup2\n      0x00\n      swap1\n      sstore\n      pop\n      0x01\n      add\n      jump(tag_56)\n    tag_57:\n      pop\n      swap1\n      jump\t// out\n        /* \"#utility.yul\":7:82   */\n    tag_58:\n        /* \"#utility.yul\":40:46   */\n      0x00\n        /* \"#utility.yul\":73:75   */\n      0x40\n        /* \"#utility.yul\":67:76   */\n      mload\n        /* \"#utility.yul\":57:76   */\n      swap1\n      pop\n        /* \"#utility.yul\":7:82   */\n      swap1\n      jump\t// out\n        /* \"#utility.yul\":88:205   */\n    tag_59:\n        /* \"#utility.yul\":197:198   */\n      0x00\n        /* \"#utility.yul\":194:195   */\n      dup1\n        /* \"#utility.yul\":187:199   */\n      revert\n        /* \"#utility.yul\":211:328   */\n    tag_60:\n        /* \"#utility.yul\":320:321   */\n      0x00\n        /* \"#utility.yul\":317:318   */\n      dup1\n        /* \"#utility.yul\":310:322   */\n      revert\n        /* \"#utility.yul\":334:411   */\n    tag_61:\n        /* \"#utility.yul\":371:378   */\n      0x00\n        /* \"#utility.yul\":400:405   */\n      dup2\n        /* \"#utility.yul\":389:405   */\n      swap1\n      pop\n        /* \"#utility.yul\":334:411   */\n      swap2\n      swap1\n      pop\n      jump\t// out\n        /* \"#utility.yul\":417:539   */\n    tag_62:\n        /* \"#utility.yul\":490:514   */\n      tag_92\n        /* \"#utility.yul\":508:513   */\n      dup2\n        /* \"#utility.yul\":490:514   */\n      tag_61\n      jump\t// in\n    tag_92:\n        /* \"#utility.yul\":483:488   */\n      dup2\n        /* \"#utility.yul\":480:515   */\n      eq\n        /* \"#utility.yul\":470:533   */\n      tag_93\n      jumpi\n        /* \"#utility.yul\":529:530   */\n      0x00\n        /* \"#utility.yul\":526:527   */\n      dup1\n        /* \"#utility.yul\":519:531   */\n      revert\n        /* \"#utility.yul\":470:533   */\n    tag_93:\n        /* \"#utility.yul\":417:539   */\n      pop\n      jump\t// out\n        /* \"#utility.yul\":545:684   */\n    tag_63:\n        /* \"#utility.yul\":591:596   */\n      0x00\n        /* \"#utility.yul\":629:635   */\n      dup2\n        /* \"#utility.yul\":616:636   */\n      calldataload\n        /* \"#utility.yul\":607:636   */\n      swap1\n      pop\n        /* \"#utility.yul\":645:678   */\n      tag_95\n        /* \"#utility.yul\":672:677   */\n      dup2\n        /* \"#utility.yul\":645:678   */\n      tag_62\n      jump\t// in\n    tag_95:\n        /* \"#utility.yul\":545:684   */\n      swap3\n      swap2\n      pop\n      pop\n      jump\t// out\n        /* \"#utility.yul\":690:1019   */\n    tag_8:\n        /* \"#utility.yul\":749:755   */\n      0x00\n        /* \"#utility.yul\":798:800   */\n      0x20\n        /* \"#utility.yul\":786:795   */\n      dup3\n        /* \"#utility.yul\":777:784   */\n      dup5\n        /* \"#utility.yul\":773:796   */\n      sub\n        /* \"#utility.yul\":769:801   */\n      slt\n        /* \"#utility.yul\":766:885   */\n      iszero\n      tag_97\n      jumpi\n        /* \"#utility.yul\":804:883   */\n      tag_98\n      tag_59\n      jump\t// in\n    tag_98:\n        /* \"#utility.yul\":766:885   */\n    tag_97:\n        /* \"#utility.yul\":924:925   */\n      0x00\n        /* \"#utility.yul\":949:1002   */\n      tag_99\n        /* \"#utility.yul\":994:1001   */\n      dup5\n        /* \"#utility.yul\":985:991   */\n      dup3\n        /* \"#utility.yul\":974:983   */\n      dup6\n        /* \"#utility.yul\":970:992   */\n      add\n        /* \"#utility.yul\":949:1002   */\n      tag_63\n      jump\t// in\n    tag_99:\n        /* \"#utility.yul\":939:1002   */\n      swap2\n      pop\n        /* \"#utility.yul\":895:1012   */\n      pop\n        /* \"#utility.yul\":690:1019   */\n      swap3\n      swap2\n      pop\n      pop\n      jump\t// out\n        /* \"#utility.yul\":1025:1139   */\n    tag_64:\n        /* \"#utility.yul\":1092:1098   */\n      0x00\n        /* \"#utility.yul\":1126:1131   */\n      dup2\n        /* \"#utility.yul\":1120:1132   */\n      mload\n        /* \"#utility.yul\":1110:1132   */\n      swap1\n      pop\n        /* \"#utility.yul\":1025:1139   */\n      swap2\n      swap1\n      pop\n      jump\t// out\n        /* \"#utility.yul\":1145:1329   */\n    tag_65:\n        /* \"#utility.yul\":1244:1255   */\n      0x00\n        /* \"#utility.yul\":1278:1284   */\n      dup3\n        /* \"#utility.yul\":1273:1276   */\n      dup3\n        /* \"#utility.yul\":1266:1285   */\n      mstore\n        /* \"#utility.yul\":1318:1322   */\n      0x20\n        /* \"#utility.yul\":1313:1316   */\n      dup3\n        /* \"#utility.yul\":1309:1323   */\n      add\n        /* \"#utility.yul\":1294:1323   */\n      swap1\n      pop\n        /* \"#utility.yul\":1145:1329   */\n      swap3\n      swap2\n      pop\n      pop\n      jump\t// out\n        /* \"#utility.yul\":1335:1467   */\n    tag_66:\n        /* \"#utility.yul\":1402:1406   */\n      0x00\n        /* \"#utility.yul\":1425:1428   */\n      dup2\n        /* \"#utility.yul\":1417:1428   */\n      swap1\n      pop\n        /* \"#utility.yul\":1455:1459   */\n      0x20\n        /* \"#utility.yul\":1450:1453   */\n      dup3\n        /* \"#utility.yul\":1446:1460   */\n      add\n        /* \"#utility.yul\":1438:1460   */\n      swap1\n      pop\n        /* \"#utility.yul\":1335:1467   */\n      swap2\n      swap1\n      pop\n      jump\t// out\n        /* \"#utility.yul\":1473:1581   */\n    tag_67:\n        /* \"#utility.yul\":1550:1574   */\n      tag_104\n        /* \"#utility.yul\":1568:1573   */\n      dup2\n        /* \"#utility.yul\":1550:1574   */\n      tag_61\n      jump\t// in\n    tag_104:\n        /* \"#utility.yul\":1545:1548   */\n      dup3\n        /* \"#utility.yul\":1538:1575   */\n      mstore\n        /* \"#utility.yul\":1473:1581   */\n      pop\n      pop\n      jump\t// out\n        /* \"#utility.yul\":1587:1766   */\n    tag_68:\n        /* \"#utility.yul\":1656:1666   */\n      0x00\n        /* \"#utility.yul\":1677:1723   */\n      tag_106\n        /* \"#utility.yul\":1719:1722   */\n      dup4\n        /* \"#utility.yul\":1711:1717   */\n      dup4\n        /* \"#utility.yul\":1677:1723   */\n      tag_67\n      jump\t// in\n    tag_106:\n        /* \"#utility.yul\":1755:1759   */\n      0x20\n        /* \"#utility.yul\":1750:1753   */\n      dup4\n        /* \"#utility.yul\":1746:1760   */\n      add\n        /* \"#utility.yul\":1732:1760   */\n      swap1\n      pop\n        /* \"#utility.yul\":1587:1766   */\n      swap3\n      swap2\n      pop\n      pop\n      jump\t// out\n        /* \"#utility.yul\":1772:1885   */\n    tag_69:\n        /* \"#utility.yul\":1842:1846   */\n      0x00\n        /* \"#utility.yul\":1874:1878   */\n      0x20\n        /* \"#utility.yul\":1869:1872   */\n      dup3\n        /* \"#utility.yul\":1865:1879   */\n      add\n        /* \"#utility.yul\":1857:1879   */\n      swap1\n      pop\n        /* \"#utility.yul\":1772:1885   */\n      swap2\n      swap1\n      pop\n      jump\t// out\n        /* \"#utility.yul\":1921:2653   */\n    tag_70:\n        /* \"#utility.yul\":2040:2043   */\n      0x00\n        /* \"#utility.yul\":2069:2123   */\n      tag_109\n        /* \"#utility.yul\":2117:2122   */\n      dup3\n        /* \"#utility.yul\":2069:2123   */\n      tag_64\n      jump\t// in\n    tag_109:\n        /* \"#utility.yul\":2139:2225   */\n      tag_110\n        /* \"#utility.yul\":2218:2224   */\n      dup2\n        /* \"#utility.yul\":2213:2216   */\n      dup6\n        /* \"#utility.yul\":2139:2225   */\n      tag_65\n      jump\t// in\n    tag_110:\n        /* \"#utility.yul\":2132:2225   */\n      swap4\n      pop\n        /* \"#utility.yul\":2249:2305   */\n      tag_111\n        /* \"#utility.yul\":2299:2304   */\n      dup4\n        /* \"#utility.yul\":2249:2305   */\n      tag_66\n      jump\t// in\n    tag_111:\n        /* \"#utility.yul\":2328:2335   */\n      dup1\n        /* \"#utility.yul\":2359:2360   */\n      0x00\n        /* \"#utility.yul\":2344:2628   */\n    tag_112:\n        /* \"#utility.yul\":2369:2375   */\n      dup4\n        /* \"#utility.yul\":2366:2367   */\n      dup2\n        /* \"#utility.yul\":2363:2376   */\n      lt\n        /* \"#utility.yul\":2344:2628   */\n      iszero\n      tag_114\n      jumpi\n        /* \"#utility.yul\":2445:2451   */\n      dup2\n        /* \"#utility.yul\":2439:2452   */\n      mload\n        /* \"#utility.yul\":2472:2535   */\n      tag_115\n        /* \"#utility.yul\":2531:2534   */\n      dup9\n        /* \"#utility.yul\":2516:2529   */\n      dup3\n        /* \"#utility.yul\":2472:2535   */\n      tag_68\n      jump\t// in\n    tag_115:\n        /* \"#utility.yul\":2465:2535   */\n      swap8\n      pop\n        /* \"#utility.yul\":2558:2618   */\n      tag_116\n        /* \"#utility.yul\":2611:2617   */\n      dup4\n        /* \"#utility.yul\":2558:2618   */\n      tag_69\n      jump\t// in\n    tag_116:\n        /* \"#utility.yul\":2548:2618   */\n      swap3\n      pop\n        /* \"#utility.yul\":2404:2628   */\n      pop\n        /* \"#utility.yul\":2391:2392   */\n      0x01\n        /* \"#utility.yul\":2388:2389   */\n      dup2\n        /* \"#utility.yul\":2384:2393   */\n      add\n        /* \"#utility.yul\":2379:2393   */\n      swap1\n      pop\n        /* \"#utility.yul\":2344:2628   */\n      jump(tag_112)\n    tag_114:\n        /* \"#utility.yul\":2348:2362   */\n      pop\n        /* \"#utility.yul\":2644:2647   */\n      dup6\n        /* \"#utility.yul\":2637:2647   */\n      swap4\n      pop\n        /* \"#utility.yul\":2045:2653   */\n      pop\n      pop\n      pop\n        /* \"#utility.yul\":1921:2653   */\n      swap3\n      swap2\n      pop\n      pop\n      jump\t// out\n        /* \"#utility.yul\":2659:3032   */\n    tag_11:\n        /* \"#utility.yul\":2802:2806   */\n      0x00\n        /* \"#utility.yul\":2840:2842   */\n      0x20\n        /* \"#utility.yul\":2829:2838   */\n      dup3\n        /* \"#utility.yul\":2825:2843   */\n      add\n        /* \"#utility.yul\":2817:2843   */\n      swap1\n      pop\n        /* \"#utility.yul\":2889:2898   */\n      dup2\n        /* \"#utility.yul\":2883:2887   */\n      dup2\n        /* \"#utility.yul\":2879:2899   */\n      sub\n        /* \"#utility.yul\":2875:2876   */\n      0x00\n        /* \"#utility.yul\":2864:2873   */\n      dup4\n        /* \"#utility.yul\":2860:2877   */\n      add\n        /* \"#utility.yul\":2853:2900   */\n      mstore\n        /* \"#utility.yul\":2917:3025   */\n      tag_118\n        /* \"#utility.yul\":3020:3024   */\n      dup2\n        /* \"#utility.yul\":3011:3017   */\n      dup5\n        /* \"#utility.yul\":2917:3025   */\n      tag_70\n      jump\t// in\n    tag_118:\n        /* \"#utility.yul\":2909:3025   */\n      swap1\n      pop\n        /* \"#utility.yul\":2659:3032   */\n      swap3\n      swap2\n      pop\n      pop\n      jump\t// out\n        /* \"#utility.yul\":3038:3155   */\n    tag_71:\n        /* \"#utility.yul\":3147:3148   */\n      0x00\n        /* \"#utility.yul\":3144:3145   */\n      dup1\n        /* \"#utility.yul\":3137:3149   */\n      revert\n        /* \"#utility.yul\":3161:3263   */\n    tag_72:\n        /* \"#utility.yul\":3202:3208   */\n      0x00\n        /* \"#utility.yul\":3253:3255   */\n      0x1f\n        /* \"#utility.yul\":3249:3256   */\n      not\n        /* \"#utility.yul\":3244:3246   */\n      0x1f\n        /* \"#utility.yul\":3237:3242   */\n      dup4\n        /* \"#utility.yul\":3233:3247   */\n      add\n        /* \"#utility.yul\":3229:3257   */\n      and\n        /* \"#utility.yul\":3219:3257   */\n      swap1\n      pop\n        /* \"#utility.yul\":3161:3263   */\n      swap2\n      swap1\n      pop\n      jump\t// out\n        /* \"#utility.yul\":3269:3449   */\n    tag_73:\n        /* \"#utility.yul\":3317:3394   */\n      0x4e487b7100000000000000000000000000000000000000000000000000000000\n        /* \"#utility.yul\":3314:3315   */\n      0x00\n        /* \"#utility.yul\":3307:3395   */\n      mstore\n        /* \"#utility.yul\":3414:3418   */\n      0x41\n        /* \"#utility.yul\":3411:3412   */\n      0x04\n        /* \"#utility.yul\":3404:3419   */\n      mstore\n        /* \"#utility.yul\":3438:3442   */\n      0x24\n        /* \"#utility.yul\":3435:3436   */\n      0x00\n        /* \"#utility.yul\":3428:3443   */\n      revert\n        /* \"#utility.yul\":3455:3736   */\n    tag_74:\n        /* \"#utility.yul\":3538:3565   */\n      tag_123\n        /* \"#utility.yul\":3560:3564   */\n      dup3\n        /* \"#utility.yul\":3538:3565   */\n      tag_72\n      jump\t// in\n    tag_123:\n        /* \"#utility.yul\":3530:3536   */\n      dup2\n        /* \"#utility.yul\":3526:3566   */\n      add\n        /* \"#utility.yul\":3668:3674   */\n      dup2\n        /* \"#utility.yul\":3656:3666   */\n      dup2\n        /* \"#utility.yul\":3653:3675   */\n      lt\n        /* \"#utility.yul\":3632:3650   */\n      0xffffffffffffffff\n        /* \"#utility.yul\":3620:3630   */\n      dup3\n        /* \"#utility.yul\":3617:3651   */\n      gt\n        /* \"#utility.yul\":3614:3676   */\n      or\n        /* \"#utility.yul\":3611:3699   */\n      iszero\n      tag_124\n      jumpi\n        /* \"#utility.yul\":3679:3697   */\n      tag_125\n      tag_73\n      jump\t// in\n    tag_125:\n        /* \"#utility.yul\":3611:3699   */\n    tag_124:\n        /* \"#utility.yul\":3719:3729   */\n      dup1\n        /* \"#utility.yul\":3715:3717   */\n      0x40\n        /* \"#utility.yul\":3708:3730   */\n      mstore\n        /* \"#utility.yul\":3498:3736   */\n      pop\n        /* \"#utility.yul\":3455:3736   */\n      pop\n      pop\n      jump\t// out\n        /* \"#utility.yul\":3742:3871   */\n    tag_75:\n        /* \"#utility.yul\":3776:3782   */\n      0x00\n        /* \"#utility.yul\":3803:3823   */\n      tag_127\n      tag_58\n      jump\t// in\n    tag_127:\n        /* \"#utility.yul\":3793:3823   */\n      swap1\n      pop\n        /* \"#utility.yul\":3832:3865   */\n      tag_128\n        /* \"#utility.yul\":3860:3864   */\n      dup3\n        /* \"#utility.yul\":3852:3858   */\n      dup3\n        /* \"#utility.yul\":3832:3865   */\n      tag_74\n      jump\t// in\n    tag_128:\n        /* \"#utility.yul\":3742:3871   */\n      swap2\n      swap1\n      pop\n      jump\t// out\n        /* \"#utility.yul\":3877:4188   */\n    tag_76:\n        /* \"#utility.yul\":3954:3958   */\n      0x00\n        /* \"#utility.yul\":4044:4062   */\n      0xffffffffffffffff\n        /* \"#utility.yul\":4036:4042   */\n      dup3\n        /* \"#utility.yul\":4033:4063   */\n      gt\n        /* \"#utility.yul\":4030:4086   */\n      iszero\n      tag_130\n      jumpi\n        /* \"#utility.yul\":4066:4084   */\n      tag_131\n      tag_73\n      jump\t// in\n    tag_131:\n        /* \"#utility.yul\":4030:4086   */\n    tag_130:\n        /* \"#utility.yul\":4116:4120   */\n      0x20\n        /* \"#utility.yul\":4108:4114   */\n      dup3\n        /* \"#utility.yul\":4104:4121   */\n      mul\n        /* \"#utility.yul\":4096:4121   */\n      swap1\n      pop\n        /* \"#utility.yul\":4176:4180   */\n      0x20\n        /* \"#utility.yul\":4170:4174   */\n      dup2\n        /* \"#utility.yul\":4166:4181   */\n      add\n        /* \"#utility.yul\":4158:4181   */\n      swap1\n      pop\n        /* \"#utility.yul\":3877:4188   */\n      swap2\n      swap1\n      pop\n      jump\t// out\n        /* \"#utility.yul\":4194:4311   */\n    tag_77:\n        /* \"#utility.yul\":4303:4304   */\n      0x00\n        /* \"#utility.yul\":4300:4301   */\n      dup1\n        /* \"#utility.yul\":4293:4305   */\n      revert\n        /* \"#utility.yul\":4334:5044   */\n    tag_78:\n        /* \"#utility.yul\":4430:4435   */\n      0x00\n        /* \"#utility.yul\":4455:4536   */\n      tag_134\n        /* \"#utility.yul\":4471:4535   */\n      tag_135\n        /* \"#utility.yul\":4528:4534   */\n      dup5\n        /* \"#utility.yul\":4471:4535   */\n      tag_76\n      jump\t// in\n    tag_135:\n        /* \"#utility.yul\":4455:4536   */\n      tag_75\n      jump\t// in\n    tag_134:\n        /* \"#utility.yul\":4446:4536   */\n      swap1\n      pop\n        /* \"#utility.yul\":4556:4561   */\n      dup1\n        /* \"#utility.yul\":4585:4591   */\n      dup4\n        /* \"#utility.yul\":4578:4583   */\n      dup3\n        /* \"#utility.yul\":4571:4592   */\n      mstore\n        /* \"#utility.yul\":4619:4623   */\n      0x20\n        /* \"#utility.yul\":4612:4617   */\n      dup3\n        /* \"#utility.yul\":4608:4624   */\n      add\n        /* \"#utility.yul\":4601:4624   */\n      swap1\n      pop\n        /* \"#utility.yul\":4672:4676   */\n      0x20\n        /* \"#utility.yul\":4664:4670   */\n      dup5\n        /* \"#utility.yul\":4660:4677   */\n      mul\n        /* \"#utility.yul\":4652:4658   */\n      dup4\n        /* \"#utility.yul\":4648:4678   */\n      add\n        /* \"#utility.yul\":4701:4704   */\n      dup6\n        /* \"#utility.yul\":4693:4699   */\n      dup2\n        /* \"#utility.yul\":4690:4705   */\n      gt\n        /* \"#utility.yul\":4687:4809   */\n      iszero\n      tag_136\n      jumpi\n        /* \"#utility.yul\":4720:4799   */\n      tag_137\n      tag_77\n      jump\t// in\n    tag_137:\n        /* \"#utility.yul\":4687:4809   */\n    tag_136:\n        /* \"#utility.yul\":4835:4841   */\n      dup4\n        /* \"#utility.yul\":4818:5038   */\n    tag_138:\n        /* \"#utility.yul\":4852:4858   */\n      dup2\n        /* \"#utility.yul\":4847:4850   */\n      dup2\n        /* \"#utility.yul\":4844:4859   */\n      lt\n        /* \"#utility.yul\":4818:5038   */\n      iszero\n      tag_140\n      jumpi\n        /* \"#utility.yul\":4927:4930   */\n      dup1\n        /* \"#utility.yul\":4956:4993   */\n      tag_141\n        /* \"#utility.yul\":4989:4992   */\n      dup9\n        /* \"#utility.yul\":4977:4987   */\n      dup3\n        /* \"#utility.yul\":4956:4993   */\n      tag_63\n      jump\t// in\n    tag_141:\n        /* \"#utility.yul\":4951:4954   */\n      dup5\n        /* \"#utility.yul\":4944:4994   */\n      mstore\n        /* \"#utility.yul\":5023:5027   */\n      0x20\n        /* \"#utility.yul\":5018:5021   */\n      dup5\n        /* \"#utility.yul\":5014:5028   */\n      add\n        /* \"#utility.yul\":5007:5028   */\n      swap4\n      pop\n        /* \"#utility.yul\":4894:5038   */\n      pop\n        /* \"#utility.yul\":4878:4882   */\n      0x20\n        /* \"#utility.yul\":4873:4876   */\n      dup2\n        /* \"#utility.yul\":4869:4883   */\n      add\n        /* \"#utility.yul\":4862:4883   */\n      swap1\n      pop\n        /* \"#utility.yul\":4818:5038   */\n      jump(tag_138)\n    tag_140:\n        /* \"#utility.yul\":4822:4843   */\n      pop\n        /* \"#utility.yul\":4436:5044   */\n      pop\n      pop\n        /* \"#utility.yul\":4334:5044   */\n      swap4\n      swap3\n      pop\n      pop\n      pop\n      jump\t// out\n        /* \"#utility.yul\":5067:5437   */\n    tag_79:\n        /* \"#utility.yul\":5138:5143   */\n      0x00\n        /* \"#utility.yul\":5187:5190   */\n      dup3\n        /* \"#utility.yul\":5180:5184   */\n      0x1f\n        /* \"#utility.yul\":5172:5178   */\n      dup4\n        /* \"#utility.yul\":5168:5185   */\n      add\n        /* \"#utility.yul\":5164:5191   */\n      slt\n        /* \"#utility.yul\":5154:5276   */\n      tag_143\n      jumpi\n        /* \"#utility.yul\":5195:5274   */\n      tag_144\n      tag_71\n      jump\t// in\n    tag_144:\n        /* \"#utility.yul\":5154:5276   */\n    tag_143:\n        /* \"#utility.yul\":5312:5318   */\n      dup2\n        /* \"#utility.yul\":5299:5319   */\n      calldataload\n        /* \"#utility.yul\":5337:5431   */\n      tag_145\n        /* \"#utility.yul\":5427:5430   */\n      dup5\n        /* \"#utility.yul\":5419:5425   */\n      dup3\n        /* \"#utility.yul\":5412:5416   */\n      0x20\n        /* \"#utility.yul\":5404:5410   */\n      dup7\n        /* \"#utility.yul\":5400:5417   */\n      add\n        /* \"#utility.yul\":5337:5431   */\n      tag_78\n      jump\t// in\n    tag_145:\n        /* \"#utility.yul\":5328:5431   */\n      swap2\n      pop\n        /* \"#utility.yul\":5144:5437   */\n      pop\n        /* \"#utility.yul\":5067:5437   */\n      swap3\n      swap2\n      pop\n      pop\n      jump\t// out\n        /* \"#utility.yul\":5443:5982   */\n    tag_14:\n        /* \"#utility.yul\":5527:5533   */\n      0x00\n        /* \"#utility.yul\":5576:5578   */\n      0x20\n        /* \"#utility.yul\":5564:5573   */\n      dup3\n        /* \"#utility.yul\":5555:5562   */\n      dup5\n        /* \"#utility.yul\":5551:5574   */\n      sub\n        /* \"#utility.yul\":5547:5579   */\n      slt\n        /* \"#utility.yul\":5544:5663   */\n      iszero\n      tag_147\n      jumpi\n        /* \"#utility.yul\":5582:5661   */\n      tag_148\n      tag_59\n      jump\t// in\n    tag_148:\n        /* \"#utility.yul\":5544:5663   */\n    tag_147:\n        /* \"#utility.yul\":5730:5731   */\n      0x00\n        /* \"#utility.yul\":5719:5728   */\n      dup3\n        /* \"#utility.yul\":5715:5732   */\n      add\n        /* \"#utility.yul\":5702:5733   */\n      calldataload\n        /* \"#utility.yul\":5760:5778   */\n      0xffffffffffffffff\n        /* \"#utility.yul\":5752:5758   */\n      dup2\n        /* \"#utility.yul\":5749:5779   */\n      gt\n        /* \"#utility.yul\":5746:5863   */\n      iszero\n      tag_149\n      jumpi\n        /* \"#utility.yul\":5782:5861   */\n      tag_150\n      tag_60\n      jump\t// in\n    tag_150:\n        /* \"#utility.yul\":5746:5863   */\n    tag_149:\n        /* \"#utility.yul\":5887:5965   */\n      tag_151\n        /* \"#utility.yul\":5957:5964   */\n      dup5\n        /* \"#utility.yul\":5948:5954   */\n      dup3\n        /* \"#utility.yul\":5937:5946   */\n      dup6\n        /* \"#utility.yul\":5933:5955   */\n      add\n        /* \"#utility.yul\":5887:5965   */\n      tag_79\n      jump\t// in\n    tag_151:\n        /* \"#utility.yul\":5877:5965   */\n      swap2\n      pop\n        /* \"#utility.yul\":5673:5975   */\n      pop\n        /* \"#utility.yul\":5443:5982   */\n      swap3\n      swap2\n      pop\n      pop\n      jump\t// out\n        /* \"#utility.yul\":5988:6462   */\n    tag_18:\n        /* \"#utility.yul\":6056:6062   */\n      0x00\n        /* \"#utility.yul\":6064:6070   */\n      dup1\n        /* \"#utility.yul\":6113:6115   */\n      0x40\n        /* \"#utility.yul\":6101:6110   */\n      dup4\n        /* \"#utility.yul\":6092:6099   */\n      dup6\n        /* \"#utility.yul\":6088:6111   */\n      sub\n        /* \"#utility.yul\":6084:6116   */\n      slt\n        /* \"#utility.yul\":6081:6200   */\n      iszero\n      tag_153\n      jumpi\n        /* \"#utility.yul\":6119:6198   */\n      tag_154\n      tag_59\n      jump\t// in\n    tag_154:\n        /* \"#utility.yul\":6081:6200   */\n    tag_153:\n        /* \"#utility.yul\":6239:6240   */\n      0x00\n        /* \"#utility.yul\":6264:6317   */\n      tag_155\n        /* \"#utility.yul\":6309:6316   */\n      dup6\n        /* \"#utility.yul\":6300:6306   */\n      dup3\n        /* \"#utility.yul\":6289:6298   */\n      dup7\n        /* \"#utility.yul\":6285:6307   */\n      add\n        /* \"#utility.yul\":6264:6317   */\n      tag_63\n      jump\t// in\n    tag_155:\n        /* \"#utility.yul\":6254:6317   */\n      swap3\n      pop\n        /* \"#utility.yul\":6210:6327   */\n      pop\n        /* \"#utility.yul\":6366:6368   */\n      0x20\n        /* \"#utility.yul\":6392:6445   */\n      tag_156\n        /* \"#utility.yul\":6437:6444   */\n      dup6\n        /* \"#utility.yul\":6428:6434   */\n      dup3\n        /* \"#utility.yul\":6417:6426   */\n      dup7\n        /* \"#utility.yul\":6413:6435   */\n      add\n        /* \"#utility.yul\":6392:6445   */\n      tag_63\n      jump\t// in\n    tag_156:\n        /* \"#utility.yul\":6382:6445   */\n      swap2\n      pop\n        /* \"#utility.yul\":6337:6455   */\n      pop\n        /* \"#utility.yul\":5988:6462   */\n      swap3\n      pop\n      swap3\n      swap1\n      pop\n      jump\t// out\n        /* \"#utility.yul\":6468:6586   */\n    tag_80:\n        /* \"#utility.yul\":6555:6579   */\n      tag_158\n        /* \"#utility.yul\":6573:6578   */\n      dup2\n        /* \"#utility.yul\":6555:6579   */\n      tag_61\n      jump\t// in\n    tag_158:\n        /* \"#utility.yul\":6550:6553   */\n      dup3\n        /* \"#utility.yul\":6543:6580   */\n      mstore\n        /* \"#utility.yul\":6468:6586   */\n      pop\n      pop\n      jump\t// out\n        /* \"#utility.yul\":6592:6814   */\n    tag_21:\n        /* \"#utility.yul\":6685:6689   */\n      0x00\n        /* \"#utility.yul\":6723:6725   */\n      0x20\n        /* \"#utility.yul\":6712:6721   */\n      dup3\n        /* \"#utility.yul\":6708:6726   */\n      add\n        /* \"#utility.yul\":6700:6726   */\n      swap1\n      pop\n        /* \"#utility.yul\":6736:6807   */\n      tag_160\n        /* \"#utility.yul\":6804:6805   */\n      0x00\n        /* \"#utility.yul\":6793:6802   */\n      dup4\n        /* \"#utility.yul\":6789:6806   */\n      add\n        /* \"#utility.yul\":6780:6786   */\n      dup5\n        /* \"#utility.yul\":6736:6807   */\n      tag_80\n      jump\t// in\n    tag_160:\n        /* \"#utility.yul\":6592:6814   */\n      swap3\n      swap2\n      pop\n      pop\n      jump\t// out\n        /* \"#utility.yul\":6820:6989   */\n    tag_81:\n        /* \"#utility.yul\":6904:6915   */\n      0x00\n        /* \"#utility.yul\":6938:6944   */\n      dup3\n        /* \"#utility.yul\":6933:6936   */\n      dup3\n        /* \"#utility.yul\":6926:6945   */\n      mstore\n        /* \"#utility.yul\":6978:6982   */\n      0x20\n        /* \"#utility.yul\":6973:6976   */\n      dup3\n        /* \"#utility.yul\":6969:6983   */\n      add\n        /* \"#utility.yul\":6954:6983   */\n      swap1\n      pop\n        /* \"#utility.yul\":6820:6989   */\n      swap3\n      swap2\n      pop\n      pop\n      jump\t// out\n        /* \"#utility.yul\":6995:7168   */\n    tag_82:\n        /* \"#utility.yul\":7135:7160   */\n      0x526f7720696e646578206f7574206f6620626f756e6473000000000000000000\n        /* \"#utility.yul\":7131:7132   */\n      0x00\n        /* \"#utility.yul\":7123:7129   */\n      dup3\n        /* \"#utility.yul\":7119:7133   */\n      add\n        /* \"#utility.yul\":7112:7161   */\n      mstore\n        /* \"#utility.yul\":6995:7168   */\n      pop\n      jump\t// out\n        /* \"#utility.yul\":7174:7540   */\n    tag_83:\n        /* \"#utility.yul\":7316:7319   */\n      0x00\n        /* \"#utility.yul\":7337:7404   */\n      tag_164\n        /* \"#utility.yul\":7401:7403   */\n      0x17\n        /* \"#utility.yul\":7396:7399   */\n      dup4\n        /* \"#utility.yul\":7337:7404   */\n      tag_81\n      jump\t// in\n    tag_164:\n        /* \"#utility.yul\":7330:7404   */\n      swap2\n      pop\n        /* \"#utility.yul\":7413:7506   */\n      tag_165\n        /* \"#utility.yul\":7502:7505   */\n      dup3\n        /* \"#utility.yul\":7413:7506   */\n      tag_82\n      jump\t// in\n    tag_165:\n        /* \"#utility.yul\":7531:7533   */\n      0x20\n        /* \"#utility.yul\":7526:7529   */\n      dup3\n        /* \"#utility.yul\":7522:7534   */\n      add\n        /* \"#utility.yul\":7515:7534   */\n      swap1\n      pop\n        /* \"#utility.yul\":7174:7540   */\n      swap2\n      swap1\n      pop\n      jump\t// out\n        /* \"#utility.yul\":7546:7965   */\n    tag_25:\n        /* \"#utility.yul\":7712:7716   */\n      0x00\n        /* \"#utility.yul\":7750:7752   */\n      0x20\n        /* \"#utility.yul\":7739:7748   */\n      dup3\n        /* \"#utility.yul\":7735:7753   */\n      add\n        /* \"#utility.yul\":7727:7753   */\n      swap1\n      pop\n        /* \"#utility.yul\":7799:7808   */\n      dup2\n        /* \"#utility.yul\":7793:7797   */\n      dup2\n        /* \"#utility.yul\":7789:7809   */\n      sub\n        /* \"#utility.yul\":7785:7786   */\n      0x00\n        /* \"#utility.yul\":7774:7783   */\n      dup4\n        /* \"#utility.yul\":7770:7787   */\n      add\n        /* \"#utility.yul\":7763:7810   */\n      mstore\n        /* \"#utility.yul\":7827:7958   */\n      tag_167\n        /* \"#utility.yul\":7953:7957   */\n      dup2\n        /* \"#utility.yul\":7827:7958   */\n      tag_83\n      jump\t// in\n    tag_167:\n        /* \"#utility.yul\":7819:7958   */\n      swap1\n      pop\n        /* \"#utility.yul\":7546:7965   */\n      swap2\n      swap1\n      pop\n      jump\t// out\n        /* \"#utility.yul\":7971:8151   */\n    tag_28:\n        /* \"#utility.yul\":8019:8096   */\n      0x4e487b7100000000000000000000000000000000000000000000000000000000\n        /* \"#utility.yul\":8016:8017   */\n      0x00\n        /* \"#utility.yul\":8009:8097   */\n      mstore\n        /* \"#utility.yul\":8116:8120   */\n      0x32\n        /* \"#utility.yul\":8113:8114   */\n      0x04\n        /* \"#utility.yul\":8106:8121   */\n      mstore\n        /* \"#utility.yul\":8140:8144   */\n      0x24\n        /* \"#utility.yul\":8137:8138   */\n      0x00\n        /* \"#utility.yul\":8130:8145   */\n      revert\n        /* \"#utility.yul\":8157:8333   */\n    tag_84:\n        /* \"#utility.yul\":8297:8325   */\n      0x436f6c756d6e20696e646578206f7574206f6620626f756e6473000000000000\n        /* \"#utility.yul\":8293:8294   */\n      0x00\n        /* \"#utility.yul\":8285:8291   */\n      dup3\n        /* \"#utility.yul\":8281:8295   */\n      add\n        /* \"#utility.yul\":8274:8326   */\n      mstore\n        /* \"#utility.yul\":8157:8333   */\n      pop\n      jump\t// out\n        /* \"#utility.yul\":8339:8705   */\n    tag_85:\n        /* \"#utility.yul\":8481:8484   */\n      0x00\n        /* \"#utility.yul\":8502:8569   */\n      tag_171\n        /* \"#utility.yul\":8566:8568   */\n      0x1a\n        /* \"#utility.yul\":8561:8564   */\n      dup4\n        /* \"#utility.yul\":8502:8569   */\n      tag_81\n      jump\t// in\n    tag_171:\n        /* \"#utility.yul\":8495:8569   */\n      swap2\n      pop\n        /* \"#utility.yul\":8578:8671   */\n      tag_172\n        /* \"#utility.yul\":8667:8670   */\n      dup3\n        /* \"#utility.yul\":8578:8671   */\n      tag_84\n      jump\t// in\n    tag_172:\n        /* \"#utility.yul\":8696:8698   */\n      0x20\n        /* \"#utility.yul\":8691:8694   */\n      dup3\n        /* \"#utility.yul\":8687:8699   */\n      add\n        /* \"#utility.yul\":8680:8699   */\n      swap1\n      pop\n        /* \"#utility.yul\":8339:8705   */\n      swap2\n      swap1\n      pop\n      jump\t// out\n        /* \"#utility.yul\":8711:9130   */\n    tag_44:\n        /* \"#utility.yul\":8877:8881   */\n      0x00\n        /* \"#utility.yul\":8915:8917   */\n      0x20\n        /* \"#utility.yul\":8904:8913   */\n      dup3\n        /* \"#utility.yul\":8900:8918   */\n      add\n        /* \"#utility.yul\":8892:8918   */\n      swap1\n      pop\n        /* \"#utility.yul\":8964:8973   */\n      dup2\n        /* \"#utility.yul\":8958:8962   */\n      dup2\n        /* \"#utility.yul\":8954:8974   */\n      sub\n        /* \"#utility.yul\":8950:8951   */\n      0x00\n        /* \"#utility.yul\":8939:8948   */\n      dup4\n        /* \"#utility.yul\":8935:8952   */\n      add\n        /* \"#utility.yul\":8928:8975   */\n      mstore\n        /* \"#utility.yul\":8992:9123   */\n      tag_174\n        /* \"#utility.yul\":9118:9122   */\n      dup2\n        /* \"#utility.yul\":8992:9123   */\n      tag_85\n      jump\t// in\n    tag_174:\n        /* \"#utility.yul\":8984:9123   */\n      swap1\n      pop\n        /* \"#utility.yul\":8711:9130   */\n      swap2\n      swap1\n      pop\n      jump\t// out\n\n    auxdata: 0xa26469706673582212208c2e1559e6c834a78273a983addb48c026a9319c17eb9df23f1245c58877f16064736f6c634300081a0033\n}\n",
				"bytecode": {
					"linkReferences": {},
					"object": "6080604052348015600e575f80fd5b506107828061001c5f395ff3fe608060405234801561000f575f80fd5b506004361061003f575f3560e01c8063303a36e21461004357806384d92f8e14610073578063cb34f1da1461008f575b5f80fd5b61005d60048036038101906100589190610340565b6100bf565b60405161006a9190610422565b60405180910390f35b61008d60048036038101906100889190610592565b610176565b005b6100a960048036038101906100a491906105d9565b6101b1565b6040516100b69190610626565b60405180910390f35b60605f805490508210610107576040517f08c379a00000000000000000000000000000000000000000000000000000000081526004016100fe90610699565b60405180910390fd5b5f828154811061011a576101196106b7565b5b905f5260205f200180548060200260200160405190810160405280929190818152602001828054801561016a57602002820191905f5260205f20905b815481526020019060010190808311610156575b50505050509050919050565b5f81908060018154018082558091505060019003905f5260205f20015f9091909190915090805190602001906101ad929190610296565b5050565b5f808054905083106101f8576040517f08c379a00000000000000000000000000000000000000000000000000000000081526004016101ef90610699565b60405180910390fd5b5f838154811061020b5761020a6106b7565b5b905f5260205f2001805490508210610258576040517f08c379a000000000000000000000000000000000000000000000000000000000815260040161024f9061072e565b60405180910390fd5b5f838154811061026b5761026a6106b7565b5b905f5260205f20018281548110610285576102846106b7565b5b905f5260205f200154905092915050565b828054828255905f5260205f209081019282156102d0579160200282015b828111156102cf5782518255916020019190600101906102b4565b5b5090506102dd91906102e1565b5090565b5b808211156102f8575f815f9055506001016102e2565b5090565b5f604051905090565b5f80fd5b5f80fd5b5f819050919050565b61031f8161030d565b8114610329575f80fd5b50565b5f8135905061033a81610316565b92915050565b5f6020828403121561035557610354610305565b5b5f6103628482850161032c565b91505092915050565b5f81519050919050565b5f82825260208201905092915050565b5f819050602082019050919050565b61039d8161030d565b82525050565b5f6103ae8383610394565b60208301905092915050565b5f602082019050919050565b5f6103d08261036b565b6103da8185610375565b93506103e583610385565b805f5b838110156104155781516103fc88826103a3565b9750610407836103ba565b9250506001810190506103e8565b5085935050505092915050565b5f6020820190508181035f83015261043a81846103c6565b905092915050565b5f80fd5b5f601f19601f8301169050919050565b7f4e487b71000000000000000000000000000000000000000000000000000000005f52604160045260245ffd5b61048c82610446565b810181811067ffffffffffffffff821117156104ab576104aa610456565b5b80604052505050565b5f6104bd6102fc565b90506104c98282610483565b919050565b5f67ffffffffffffffff8211156104e8576104e7610456565b5b602082029050602081019050919050565b5f80fd5b5f61050f61050a846104ce565b6104b4565b90508083825260208201905060208402830185811115610532576105316104f9565b5b835b8181101561055b5780610547888261032c565b845260208401935050602081019050610534565b5050509392505050565b5f82601f83011261057957610578610442565b5b81356105898482602086016104fd565b91505092915050565b5f602082840312156105a7576105a6610305565b5b5f82013567ffffffffffffffff8111156105c4576105c3610309565b5b6105d084828501610565565b91505092915050565b5f80604083850312156105ef576105ee610305565b5b5f6105fc8582860161032c565b925050602061060d8582860161032c565b9150509250929050565b6106208161030d565b82525050565b5f6020820190506106395f830184610617565b92915050565b5f82825260208201905092915050565b7f526f7720696e646578206f7574206f6620626f756e64730000000000000000005f82015250565b5f61068360178361063f565b915061068e8261064f565b602082019050919050565b5f6020820190508181035f8301526106b081610677565b9050919050565b7f4e487b71000000000000000000000000000000000000000000000000000000005f52603260045260245ffd5b7f436f6c756d6e20696e646578206f7574206f6620626f756e64730000000000005f82015250565b5f610718601a8361063f565b9150610723826106e4565b602082019050919050565b5f6020820190508181035f8301526107458161070c565b905091905056fea26469706673582212208c2e1559e6c834a78273a983addb48c026a9319c17eb9df23f1245c58877f16064736f6c634300081a0033",
					"opcodes": "PUSH1 0x80 PUSH1 0x40 MSTORE CALLVALUE DUP1 ISZERO PUSH1 0xE JUMPI PUSH0 DUP1 REVERT JUMPDEST POP PUSH2 0x782 DUP1 PUSH2 0x1C PUSH0 CODECOPY PUSH0 RETURN INVALID PUSH1 0x80 PUSH1 0x40 MSTORE CALLVALUE DUP1 ISZERO PUSH2 0xF JUMPI PUSH0 DUP1 REVERT JUMPDEST POP PUSH1 0x4 CALLDATASIZE LT PUSH2 0x3F JUMPI PUSH0 CALLDATALOAD PUSH1 0xE0 SHR DUP1 PUSH4 0x303A36E2 EQ PUSH2 0x43 JUMPI DUP1 PUSH4 0x84D92F8E EQ PUSH2 0x73 JUMPI DUP1 PUSH4 0xCB34F1DA EQ PUSH2 0x8F JUMPI JUMPDEST PUSH0 DUP1 REVERT JUMPDEST PUSH2 0x5D PUSH1 0x4 DUP1 CALLDATASIZE SUB DUP2 ADD SWAP1 PUSH2 0x58 SWAP2 SWAP1 PUSH2 0x340 JUMP JUMPDEST PUSH2 0xBF JUMP JUMPDEST PUSH1 0x40 MLOAD PUSH2 0x6A SWAP2 SWAP1 PUSH2 0x422 JUMP JUMPDEST PUSH1 0x40 MLOAD DUP1 SWAP2 SUB SWAP1 RETURN JUMPDEST PUSH2 0x8D PUSH1 0x4 DUP1 CALLDATASIZE SUB DUP2 ADD SWAP1 PUSH2 0x88 SWAP2 SWAP1 PUSH2 0x592 JUMP JUMPDEST PUSH2 0x176 JUMP JUMPDEST STOP JUMPDEST PUSH2 0xA9 PUSH1 0x4 DUP1 CALLDATASIZE SUB DUP2 ADD SWAP1 PUSH2 0xA4 SWAP2 SWAP1 PUSH2 0x5D9 JUMP JUMPDEST PUSH2 0x1B1 JUMP JUMPDEST PUSH1 0x40 MLOAD PUSH2 0xB6 SWAP2 SWAP1 PUSH2 0x626 JUMP JUMPDEST PUSH1 0x40 MLOAD DUP1 SWAP2 SUB SWAP1 RETURN JUMPDEST PUSH1 0x60 PUSH0 DUP1 SLOAD SWAP1 POP DUP3 LT PUSH2 0x107 JUMPI PUSH1 0x40 MLOAD PUSH32 0x8C379A000000000000000000000000000000000000000000000000000000000 DUP2 MSTORE PUSH1 0x4 ADD PUSH2 0xFE SWAP1 PUSH2 0x699 JUMP JUMPDEST PUSH1 0x40 MLOAD DUP1 SWAP2 SUB SWAP1 REVERT JUMPDEST PUSH0 DUP3 DUP2 SLOAD DUP2 LT PUSH2 0x11A JUMPI PUSH2 0x119 PUSH2 0x6B7 JUMP JUMPDEST JUMPDEST SWAP1 PUSH0 MSTORE PUSH1 0x20 PUSH0 KECCAK256 ADD DUP1 SLOAD DUP1 PUSH1 0x20 MUL PUSH1 0x20 ADD PUSH1 0x40 MLOAD SWAP1 DUP2 ADD PUSH1 0x40 MSTORE DUP1 SWAP3 SWAP2 SWAP1 DUP2 DUP2 MSTORE PUSH1 0x20 ADD DUP3 DUP1 SLOAD DUP1 ISZERO PUSH2 0x16A JUMPI PUSH1 0x20 MUL DUP3 ADD SWAP2 SWAP1 PUSH0 MSTORE PUSH1 0x20 PUSH0 KECCAK256 SWAP1 JUMPDEST DUP2 SLOAD DUP2 MSTORE PUSH1 0x20 ADD SWAP1 PUSH1 0x1 ADD SWAP1 DUP1 DUP4 GT PUSH2 0x156 JUMPI JUMPDEST POP POP POP POP POP SWAP1 POP SWAP2 SWAP1 POP JUMP JUMPDEST PUSH0 DUP2 SWAP1 DUP1 PUSH1 0x1 DUP2 SLOAD ADD DUP1 DUP3 SSTORE DUP1 SWAP2 POP POP PUSH1 0x1 SWAP1 SUB SWAP1 PUSH0 MSTORE PUSH1 0x20 PUSH0 KECCAK256 ADD PUSH0 SWAP1 SWAP2 SWAP1 SWAP2 SWAP1 SWAP2 POP SWAP1 DUP1 MLOAD SWAP1 PUSH1 0x20 ADD SWAP1 PUSH2 0x1AD SWAP3 SWAP2 SWAP1 PUSH2 0x296 JUMP JUMPDEST POP POP JUMP JUMPDEST PUSH0 DUP1 DUP1 SLOAD SWAP1 POP DUP4 LT PUSH2 0x1F8 JUMPI PUSH1 0x40 MLOAD PUSH32 0x8C379A000000000000000000000000000000000000000000000000000000000 DUP2 MSTORE PUSH1 0x4 ADD PUSH2 0x1EF SWAP1 PUSH2 0x699 JUMP JUMPDEST PUSH1 0x40 MLOAD DUP1 SWAP2 SUB SWAP1 REVERT JUMPDEST PUSH0 DUP4 DUP2 SLOAD DUP2 LT PUSH2 0x20B JUMPI PUSH2 0x20A PUSH2 0x6B7 JUMP JUMPDEST JUMPDEST SWAP1 PUSH0 MSTORE PUSH1 0x20 PUSH0 KECCAK256 ADD DUP1 SLOAD SWAP1 POP DUP3 LT PUSH2 0x258 JUMPI PUSH1 0x40 MLOAD PUSH32 0x8C379A000000000000000000000000000000000000000000000000000000000 DUP2 MSTORE PUSH1 0x4 ADD PUSH2 0x24F SWAP1 PUSH2 0x72E JUMP JUMPDEST PUSH1 0x40 MLOAD DUP1 SWAP2 SUB SWAP1 REVERT JUMPDEST PUSH0 DUP4 DUP2 SLOAD DUP2 LT PUSH2 0x26B JUMPI PUSH2 0x26A PUSH2 0x6B7 JUMP JUMPDEST JUMPDEST SWAP1 PUSH0 MSTORE PUSH1 0x20 PUSH0 KECCAK256 ADD DUP3 DUP2 SLOAD DUP2 LT PUSH2 0x285 JUMPI PUSH2 0x284 PUSH2 0x6B7 JUMP JUMPDEST JUMPDEST SWAP1 PUSH0 MSTORE PUSH1 0x20 PUSH0 KECCAK256 ADD SLOAD SWAP1 POP SWAP3 SWAP2 POP POP JUMP JUMPDEST DUP3 DUP1 SLOAD DUP3 DUP3 SSTORE SWAP1 PUSH0 MSTORE PUSH1 0x20 PUSH0 KECCAK256 SWAP1 DUP2 ADD SWAP3 DUP3 ISZERO PUSH2 0x2D0 JUMPI SWAP2 PUSH1 0x20 MUL DUP3 ADD JUMPDEST DUP3 DUP2 GT ISZERO PUSH2 0x2CF JUMPI DUP3 MLOAD DUP3 SSTORE SWAP2 PUSH1 0x20 ADD SWAP2 SWAP1 PUSH1 0x1 ADD SWAP1 PUSH2 0x2B4 JUMP JUMPDEST JUMPDEST POP SWAP1 POP PUSH2 0x2DD SWAP2 SWAP1 PUSH2 0x2E1 JUMP JUMPDEST POP SWAP1 JUMP JUMPDEST JUMPDEST DUP1 DUP3 GT ISZERO PUSH2 0x2F8 JUMPI PUSH0 DUP2 PUSH0 SWAP1 SSTORE POP PUSH1 0x1 ADD PUSH2 0x2E2 JUMP JUMPDEST POP SWAP1 JUMP JUMPDEST PUSH0 PUSH1 0x40 MLOAD SWAP1 POP SWAP1 JUMP JUMPDEST PUSH0 DUP1 REVERT JUMPDEST PUSH0 DUP1 REVERT JUMPDEST PUSH0 DUP2 SWAP1 POP SWAP2 SWAP1 POP JUMP JUMPDEST PUSH2 0x31F DUP2 PUSH2 0x30D JUMP JUMPDEST DUP2 EQ PUSH2 0x329 JUMPI PUSH0 DUP1 REVERT JUMPDEST POP JUMP JUMPDEST PUSH0 DUP2 CALLDATALOAD SWAP1 POP PUSH2 0x33A DUP2 PUSH2 0x316 JUMP JUMPDEST SWAP3 SWAP2 POP POP JUMP JUMPDEST PUSH0 PUSH1 0x20 DUP3 DUP5 SUB SLT ISZERO PUSH2 0x355 JUMPI PUSH2 0x354 PUSH2 0x305 JUMP JUMPDEST JUMPDEST PUSH0 PUSH2 0x362 DUP5 DUP3 DUP6 ADD PUSH2 0x32C JUMP JUMPDEST SWAP2 POP POP SWAP3 SWAP2 POP POP JUMP JUMPDEST PUSH0 DUP2 MLOAD SWAP1 POP SWAP2 SWAP1 POP JUMP JUMPDEST PUSH0 DUP3 DUP3 MSTORE PUSH1 0x20 DUP3 ADD SWAP1 POP SWAP3 SWAP2 POP POP JUMP JUMPDEST PUSH0 DUP2 SWAP1 POP PUSH1 0x20 DUP3 ADD SWAP1 POP SWAP2 SWAP1 POP JUMP JUMPDEST PUSH2 0x39D DUP2 PUSH2 0x30D JUMP JUMPDEST DUP3 MSTORE POP POP JUMP JUMPDEST PUSH0 PUSH2 0x3AE DUP4 DUP4 PUSH2 0x394 JUMP JUMPDEST PUSH1 0x20 DUP4 ADD SWAP1 POP SWAP3 SWAP2 POP POP JUMP JUMPDEST PUSH0 PUSH1 0x20 DUP3 ADD SWAP1 POP SWAP2 SWAP1 POP JUMP JUMPDEST PUSH0 PUSH2 0x3D0 DUP3 PUSH2 0x36B JUMP JUMPDEST PUSH2 0x3DA DUP2 DUP6 PUSH2 0x375 JUMP JUMPDEST SWAP4 POP PUSH2 0x3E5 DUP4 PUSH2 0x385 JUMP JUMPDEST DUP1 PUSH0 JUMPDEST DUP4 DUP2 LT ISZERO PUSH2 0x415 JUMPI DUP2 MLOAD PUSH2 0x3FC DUP9 DUP3 PUSH2 0x3A3 JUMP JUMPDEST SWAP8 POP PUSH2 0x407 DUP4 PUSH2 0x3BA JUMP JUMPDEST SWAP3 POP POP PUSH1 0x1 DUP2 ADD SWAP1 POP PUSH2 0x3E8 JUMP JUMPDEST POP DUP6 SWAP4 POP POP POP POP SWAP3 SWAP2 POP POP JUMP JUMPDEST PUSH0 PUSH1 0x20 DUP3 ADD SWAP1 POP DUP2 DUP2 SUB PUSH0 DUP4 ADD MSTORE PUSH2 0x43A DUP2 DUP5 PUSH2 0x3C6 JUMP JUMPDEST SWAP1 POP SWAP3 SWAP2 POP POP JUMP JUMPDEST PUSH0 DUP1 REVERT JUMPDEST PUSH0 PUSH1 0x1F NOT PUSH1 0x1F DUP4 ADD AND SWAP1 POP SWAP2 SWAP1 POP JUMP JUMPDEST PUSH32 0x4E487B7100000000000000000000000000000000000000000000000000000000 PUSH0 MSTORE PUSH1 0x41 PUSH1 0x4 MSTORE PUSH1 0x24 PUSH0 REVERT JUMPDEST PUSH2 0x48C DUP3 PUSH2 0x446 JUMP JUMPDEST DUP2 ADD DUP2 DUP2 LT PUSH8 0xFFFFFFFFFFFFFFFF DUP3 GT OR ISZERO PUSH2 0x4AB JUMPI PUSH2 0x4AA PUSH2 0x456 JUMP JUMPDEST JUMPDEST DUP1 PUSH1 0x40 MSTORE POP POP POP JUMP JUMPDEST PUSH0 PUSH2 0x4BD PUSH2 0x2FC JUMP JUMPDEST SWAP1 POP PUSH2 0x4C9 DUP3 DUP3 PUSH2 0x483 JUMP JUMPDEST SWAP2 SWAP1 POP JUMP JUMPDEST PUSH0 PUSH8 0xFFFFFFFFFFFFFFFF DUP3 GT ISZERO PUSH2 0x4E8 JUMPI PUSH2 0x4E7 PUSH2 0x456 JUMP JUMPDEST JUMPDEST PUSH1 0x20 DUP3 MUL SWAP1 POP PUSH1 0x20 DUP2 ADD SWAP1 POP SWAP2 SWAP1 POP JUMP JUMPDEST PUSH0 DUP1 REVERT JUMPDEST PUSH0 PUSH2 0x50F PUSH2 0x50A DUP5 PUSH2 0x4CE JUMP JUMPDEST PUSH2 0x4B4 JUMP JUMPDEST SWAP1 POP DUP1 DUP4 DUP3 MSTORE PUSH1 0x20 DUP3 ADD SWAP1 POP PUSH1 0x20 DUP5 MUL DUP4 ADD DUP6 DUP2 GT ISZERO PUSH2 0x532 JUMPI PUSH2 0x531 PUSH2 0x4F9 JUMP JUMPDEST JUMPDEST DUP4 JUMPDEST DUP2 DUP2 LT ISZERO PUSH2 0x55B JUMPI DUP1 PUSH2 0x547 DUP9 DUP3 PUSH2 0x32C JUMP JUMPDEST DUP5 MSTORE PUSH1 0x20 DUP5 ADD SWAP4 POP POP PUSH1 0x20 DUP2 ADD SWAP1 POP PUSH2 0x534 JUMP JUMPDEST POP POP POP SWAP4 SWAP3 POP POP POP JUMP JUMPDEST PUSH0 DUP3 PUSH1 0x1F DUP4 ADD SLT PUSH2 0x579 JUMPI PUSH2 0x578 PUSH2 0x442 JUMP JUMPDEST JUMPDEST DUP2 CALLDATALOAD PUSH2 0x589 DUP5 DUP3 PUSH1 0x20 DUP7 ADD PUSH2 0x4FD JUMP JUMPDEST SWAP2 POP POP SWAP3 SWAP2 POP POP JUMP JUMPDEST PUSH0 PUSH1 0x20 DUP3 DUP5 SUB SLT ISZERO PUSH2 0x5A7 JUMPI PUSH2 0x5A6 PUSH2 0x305 JUMP JUMPDEST JUMPDEST PUSH0 DUP3 ADD CALLDATALOAD PUSH8 0xFFFFFFFFFFFFFFFF DUP2 GT ISZERO PUSH2 0x5C4 JUMPI PUSH2 0x5C3 PUSH2 0x309 JUMP JUMPDEST JUMPDEST PUSH2 0x5D0 DUP5 DUP3 DUP6 ADD PUSH2 0x565 JUMP JUMPDEST SWAP2 POP POP SWAP3 SWAP2 POP POP JUMP JUMPDEST PUSH0 DUP1 PUSH1 0x40 DUP4 DUP6 SUB SLT ISZERO PUSH2 0x5EF JUMPI PUSH2 0x5EE PUSH2 0x305 JUMP JUMPDEST JUMPDEST PUSH0 PUSH2 0x5FC DUP6 DUP3 DUP7 ADD PUSH2 0x32C JUMP JUMPDEST SWAP3 POP POP PUSH1 0x20 PUSH2 0x60D DUP6 DUP3 DUP7 ADD PUSH2 0x32C JUMP JUMPDEST SWAP2 POP POP SWAP3 POP SWAP3 SWAP1 POP JUMP JUMPDEST PUSH2 0x620 DUP2 PUSH2 0x30D JUMP JUMPDEST DUP3 MSTORE POP POP JUMP JUMPDEST PUSH0 PUSH1 0x20 DUP3 ADD SWAP1 POP PUSH2 0x639 PUSH0 DUP4 ADD DUP5 PUSH2 0x617 JUMP JUMPDEST SWAP3 SWAP2 POP POP JUMP JUMPDEST PUSH0 DUP3 DUP3 MSTORE PUSH1 0x20 DUP3 ADD SWAP1 POP SWAP3 SWAP2 POP POP JUMP JUMPDEST PUSH32 0x526F7720696E646578206F7574206F6620626F756E6473000000000000000000 PUSH0 DUP3 ADD MSTORE POP JUMP JUMPDEST PUSH0 PUSH2 0x683 PUSH1 0x17 DUP4 PUSH2 0x63F JUMP JUMPDEST SWAP2 POP PUSH2 0x68E DUP3 PUSH2 0x64F JUMP JUMPDEST PUSH1 0x20 DUP3 ADD SWAP1 POP SWAP2 SWAP1 POP JUMP JUMPDEST PUSH0 PUSH1 0x20 DUP3 ADD SWAP1 POP DUP2 DUP2 SUB PUSH0 DUP4 ADD MSTORE PUSH2 0x6B0 DUP2 PUSH2 0x677 JUMP JUMPDEST SWAP1 POP SWAP2 SWAP1 POP JUMP JUMPDEST PUSH32 0x4E487B7100000000000000000000000000000000000000000000000000000000 PUSH0 MSTORE PUSH1 0x32 PUSH1 0x4 MSTORE PUSH1 0x24 PUSH0 REVERT JUMPDEST PUSH32 0x436F6C756D6E20696E646578206F7574206F6620626F756E6473000000000000 PUSH0 DUP3 ADD MSTORE POP JUMP JUMPDEST PUSH0 PUSH2 0x718 PUSH1 0x1A DUP4 PUSH2 0x63F JUMP JUMPDEST SWAP2 POP PUSH2 0x723 DUP3 PUSH2 0x6E4 JUMP JUMPDEST PUSH1 0x20 DUP3 ADD SWAP1 POP SWAP2 SWAP1 POP JUMP JUMPDEST PUSH0 PUSH1 0x20 DUP3 ADD SWAP1 POP DUP2 DUP2 SUB PUSH0 DUP4 ADD MSTORE PUSH2 0x745 DUP2 PUSH2 0x70C JUMP JUMPDEST SWAP1 POP SWAP2 SWAP1 POP JUMP INVALID LOG2 PUSH5 0x6970667358 0x22 SLT KECCAK256 DUP13 0x2E ISZERO MSIZE 0xE6 0xC8 CALLVALUE 0xA7 DUP3 PUSH20 0xA983ADDB48C026A9319C17EB9DF23F1245C58877 CALL PUSH1 0x64 PUSH20 0x6F6C634300081A00330000000000000000000000 "
				},
				"gasEstimates": {
					"creation": {
						"codeDepositCost": "384400",
						"executionCost": "422",
						"totalCost": "384822"
					},
					"external": {
						"addRow(uint256[])": "infinite",
						"getElement(uint256,uint256)": "infinite",
						"getRow(uint256)": "infinite"
					}
				},
				"methodIdentifiers": {
					"addRow(uint256[])": "84d92f8e",
					"getElement(uint256,uint256)": "cb34f1da",
					"getRow(uint256)": "303a36e2"
				}
			},
			"storageLayout": {
				"storage": [
					{
						"astId": 6,
						"contract": "contracts/exp1_multidimArray.sol:MultiDimArrayBasic",
						"label": "multiArray",
						"offset": 0,
						"slot": "0",
						"type": "t_array(t_array(t_uint256)dyn_storage)dyn_storage"
					}
				],
				"types": {
					"t_array(t_array(t_uint256)dyn_storage)dyn_storage": {
						"base": "t_array(t_uint256)dyn_storage",
						"encoding": "dynamic_array",
						"label": "uint256[][]",
						"numberOfBytes": "32"
					},
					"t_array(t_uint256)dyn_storage": {
						"base": "t_uint256",
						"encoding": "dynamic_array",
						"label": "uint256[]",
						"numberOfBytes": "32"
					},
					"t_uint256": {
						"encoding": "inplace",
						"label": "uint256",
						"numberOfBytes": "32"
					}
				}
			},
			"userdoc": {
				"kind": "user",
				"methods": {},
				"version": 1
			}
		}
	}
}