{
	"contracts/q2mst.sol": {
		"EmployeeSalaries": {
			"abi": [
				{
					"anonymous": false,
					"inputs": [
						{
							"indexed": true,
							"internalType": "uint256",
							"name": "employeeId",
							"type": "uint256"
						},
						{
							"indexed": false,
							"internalType": "uint256",
							"name": "salary",
							"type": "uint256"
						}
					],
					"name": "SalaryUpdated",
					"type": "event"
				},
				{
					"inputs": [
						{
							"internalType": "uint256",
							"name": "employeeId",
							"type": "uint256"
						}
					],
					"name": "getSalary",
					"outputs": [
						{
							"internalType": "uint256",
							"name": "",
							"type": "uint256"
						}
					],
					"stateMutability": "view",
					"type": "function"
				},
				{
					"inputs": [
						{
							"internalType": "uint256",
							"name": "employeeId",
							"type": "uint256"
						},
						{
							"internalType": "uint256",
							"name": "salary",
							"type": "uint256"
						}
					],
					"name": "updateSalary",
					"outputs": [],
					"stateMutability": "nonpayable",
					"type": "function"
				}
			],
			"devdoc": {
				"kind": "dev",
				"methods": {},
				"version": 1
			},
			"evm": {
				"assembly": "    /* \"contracts/q2mst.sol\":124:1051  contract EmployeeSalaries {... */\n  mstore(0x40, 0x80)\n  callvalue\n  dup1\n  iszero\n  tag_1\n  jumpi\n  0x00\n  dup1\n  revert\ntag_1:\n  pop\n  dataSize(sub_0)\n  dup1\n  dataOffset(sub_0)\n  0x00\n  codecopy\n  0x00\n  return\nstop\n\nsub_0: assembly {\n        /* \"contracts/q2mst.sol\":124:1051  contract EmployeeSalaries {... */\n      mstore(0x40, 0x80)\n      callvalue\n      dup1\n      iszero\n      tag_1\n      jumpi\n      0x00\n      dup1\n      revert\n    tag_1:\n      pop\n      jumpi(tag_2, lt(calldatasize, 0x04))\n      shr(0xe0, calldataload(0x00))\n      dup1\n      0x5e4af8f6\n      eq\n      tag_3\n      jumpi\n      dup1\n      0x80bfacc2\n      eq\n      tag_4\n      jumpi\n    tag_2:\n      0x00\n      dup1\n      revert\n        /* \"contracts/q2mst.sol\":445:740  function updateSalary(uint256 employeeId, uint256 salary) public {... */\n    tag_3:\n      tag_5\n      0x04\n      dup1\n      calldatasize\n      sub\n      dup2\n      add\n      swap1\n      tag_6\n      swap2\n      swap1\n      tag_7\n      jump\t// in\n    tag_6:\n      tag_8\n      jump\t// in\n    tag_5:\n      stop\n        /* \"contracts/q2mst.sol\":796:1048  function getSalary(uint256 employeeId) public view returns (uint256) {... */\n    tag_4:\n      tag_9\n      0x04\n      dup1\n      calldatasize\n      sub\n      dup2\n      add\n      swap1\n      tag_10\n      swap2\n      swap1\n      tag_11\n      jump\t// in\n    tag_10:\n      tag_12\n      jump\t// in\n    tag_9:\n      mload(0x40)\n      tag_13\n      swap2\n      swap1\n      tag_14\n      jump\t// in\n    tag_13:\n      mload(0x40)\n      dup1\n      swap2\n      sub\n      swap1\n      return\n        /* \"contracts/q2mst.sol\":445:740  function updateSalary(uint256 employeeId, uint256 salary) public {... */\n    tag_8:\n        /* \"contracts/q2mst.sol\":542:543  0 */\n      0x00\n        /* \"contracts/q2mst.sol\":529:539  employeeId */\n      dup3\n        /* \"contracts/q2mst.sol\":529:543  employeeId > 0 */\n      gt\n        /* \"contracts/q2mst.sol\":521:567  require(employeeId > 0, \"Invalid employee ID\") */\n      tag_16\n      jumpi\n      mload(0x40)\n      0x08c379a000000000000000000000000000000000000000000000000000000000\n      dup2\n      mstore\n      0x04\n      add\n      tag_17\n      swap1\n      tag_18\n      jump\t// in\n    tag_17:\n      mload(0x40)\n      dup1\n      swap2\n      sub\n      swap1\n      revert\n    tag_16:\n        /* \"contracts/q2mst.sol\":595:596  0 */\n      0x00\n        /* \"contracts/q2mst.sol\":586:592  salary */\n      dup2\n        /* \"contracts/q2mst.sol\":586:596  salary > 0 */\n      gt\n        /* \"contracts/q2mst.sol\":578:633  require(salary > 0, \"Salary must be greater than zero\") */\n      tag_19\n      jumpi\n      mload(0x40)\n      0x08c379a000000000000000000000000000000000000000000000000000000000\n      dup2\n      mstore\n      0x04\n      add\n      tag_20\n      swap1\n      tag_21\n      jump\t// in\n    tag_20:\n      mload(0x40)\n      dup1\n      swap2\n      sub\n      swap1\n      revert\n    tag_19:\n        /* \"contracts/q2mst.sol\":677:683  salary */\n      dup1\n        /* \"contracts/q2mst.sol\":646:662  employeeSalaries */\n      0x00\n        /* \"contracts/q2mst.sol\":646:674  employeeSalaries[employeeId] */\n      dup1\n        /* \"contracts/q2mst.sol\":663:673  employeeId */\n      dup5\n        /* \"contracts/q2mst.sol\":646:674  employeeSalaries[employeeId] */\n      dup2\n      mstore\n      0x20\n      add\n      swap1\n      dup2\n      mstore\n      0x20\n      add\n      0x00\n      keccak256\n        /* \"contracts/q2mst.sol\":646:683  employeeSalaries[employeeId] = salary */\n      dup2\n      swap1\n      sstore\n      pop\n        /* \"contracts/q2mst.sol\":713:723  employeeId */\n      dup2\n        /* \"contracts/q2mst.sol\":699:732  SalaryUpdated(employeeId, salary) */\n      0x513be2fc65a5dac62d6e1b032498d16eefe8bde7d11dff22331597cab2ab23db\n        /* \"contracts/q2mst.sol\":725:731  salary */\n      dup3\n        /* \"contracts/q2mst.sol\":699:732  SalaryUpdated(employeeId, salary) */\n      mload(0x40)\n      tag_22\n      swap2\n      swap1\n      tag_14\n      jump\t// in\n    tag_22:\n      mload(0x40)\n      dup1\n      swap2\n      sub\n      swap1\n      log2\n        /* \"contracts/q2mst.sol\":445:740  function updateSalary(uint256 employeeId, uint256 salary) public {... */\n      pop\n      pop\n      jump\t// out\n        /* \"contracts/q2mst.sol\":796:1048  function getSalary(uint256 employeeId) public view returns (uint256) {... */\n    tag_12:\n        /* \"contracts/q2mst.sol\":856:863  uint256 */\n      0x00\n        /* \"contracts/q2mst.sol\":897:898  0 */\n      dup1\n        /* \"contracts/q2mst.sol\":884:894  employeeId */\n      dup3\n        /* \"contracts/q2mst.sol\":884:898  employeeId > 0 */\n      gt\n        /* \"contracts/q2mst.sol\":876:922  require(employeeId > 0, \"Invalid employee ID\") */\n      tag_24\n      jumpi\n      mload(0x40)\n      0x08c379a000000000000000000000000000000000000000000000000000000000\n      dup2\n      mstore\n      0x04\n      add\n      tag_25\n      swap1\n      tag_18\n      jump\t// in\n    tag_25:\n      mload(0x40)\n      dup1\n      swap2\n      sub\n      swap1\n      revert\n    tag_24:\n        /* \"contracts/q2mst.sol\":972:973  0 */\n      0x00\n        /* \"contracts/q2mst.sol\":941:957  employeeSalaries */\n      dup1\n        /* \"contracts/q2mst.sol\":941:969  employeeSalaries[employeeId] */\n      0x00\n        /* \"contracts/q2mst.sol\":958:968  employeeId */\n      dup5\n        /* \"contracts/q2mst.sol\":941:969  employeeSalaries[employeeId] */\n      dup2\n      mstore\n      0x20\n      add\n      swap1\n      dup2\n      mstore\n      0x20\n      add\n      0x00\n      keccak256\n      sload\n        /* \"contracts/q2mst.sol\":941:973  employeeSalaries[employeeId] > 0 */\n      gt\n        /* \"contracts/q2mst.sol\":933:994  require(employeeSalaries[employeeId] > 0, \"Salary not found\") */\n      tag_26\n      jumpi\n      mload(0x40)\n      0x08c379a000000000000000000000000000000000000000000000000000000000\n      dup2\n      mstore\n      0x04\n      add\n      tag_27\n      swap1\n      tag_28\n      jump\t// in\n    tag_27:\n      mload(0x40)\n      dup1\n      swap2\n      sub\n      swap1\n      revert\n    tag_26:\n        /* \"contracts/q2mst.sol\":1012:1028  employeeSalaries */\n      0x00\n        /* \"contracts/q2mst.sol\":1012:1040  employeeSalaries[employeeId] */\n      dup1\n        /* \"contracts/q2mst.sol\":1029:1039  employeeId */\n      dup4\n        /* \"contracts/q2mst.sol\":1012:1040  employeeSalaries[employeeId] */\n      dup2\n      mstore\n      0x20\n      add\n      swap1\n      dup2\n      mstore\n      0x20\n      add\n      0x00\n      keccak256\n      sload\n        /* \"contracts/q2mst.sol\":1005:1040  return employeeSalaries[employeeId] */\n      swap1\n      pop\n        /* \"contracts/q2mst.sol\":796:1048  function getSalary(uint256 employeeId) public view returns (uint256) {... */\n      swap2\n      swap1\n      pop\n      jump\t// out\n        /* \"#utility.yul\":88:205   */\n    tag_30:\n        /* \"#utility.yul\":197:198   */\n      0x00\n        /* \"#utility.yul\":194:195   */\n      dup1\n        /* \"#utility.yul\":187:199   */\n      revert\n        /* \"#utility.yul\":334:411   */\n    tag_32:\n        /* \"#utility.yul\":371:378   */\n      0x00\n        /* \"#utility.yul\":400:405   */\n      dup2\n        /* \"#utility.yul\":389:405   */\n      swap1\n      pop\n        /* \"#utility.yul\":334:411   */\n      swap2\n      swap1\n      pop\n      jump\t// out\n        /* \"#utility.yul\":417:539   */\n    tag_33:\n        /* \"#utility.yul\":490:514   */\n      tag_49\n        /* \"#utility.yul\":508:513   */\n      dup2\n        /* \"#utility.yul\":490:514   */\n      tag_32\n      jump\t// in\n    tag_49:\n        /* \"#utility.yul\":483:488   */\n      dup2\n        /* \"#utility.yul\":480:515   */\n      eq\n        /* \"#utility.yul\":470:533   */\n      tag_50\n      jumpi\n        /* \"#utility.yul\":529:530   */\n      0x00\n        /* \"#utility.yul\":526:527   */\n      dup1\n        /* \"#utility.yul\":519:531   */\n      revert\n        /* \"#utility.yul\":470:533   */\n    tag_50:\n        /* \"#utility.yul\":417:539   */\n      pop\n      jump\t// out\n        /* \"#utility.yul\":545:684   */\n    tag_34:\n        /* \"#utility.yul\":591:596   */\n      0x00\n        /* \"#utility.yul\":629:635   */\n      dup2\n        /* \"#utility.yul\":616:636   */\n      calldataload\n        /* \"#utility.yul\":607:636   */\n      swap1\n      pop\n        /* \"#utility.yul\":645:678   */\n      tag_52\n        /* \"#utility.yul\":672:677   */\n      dup2\n        /* \"#utility.yul\":645:678   */\n      tag_33\n      jump\t// in\n    tag_52:\n        /* \"#utility.yul\":545:684   */\n      swap3\n      swap2\n      pop\n      pop\n      jump\t// out\n        /* \"#utility.yul\":690:1164   */\n    tag_7:\n        /* \"#utility.yul\":758:764   */\n      0x00\n        /* \"#utility.yul\":766:772   */\n      dup1\n        /* \"#utility.yul\":815:817   */\n      0x40\n        /* \"#utility.yul\":803:812   */\n      dup4\n        /* \"#utility.yul\":794:801   */\n      dup6\n        /* \"#utility.yul\":790:813   */\n      sub\n        /* \"#utility.yul\":786:818   */\n      slt\n        /* \"#utility.yul\":783:902   */\n      iszero\n      tag_54\n      jumpi\n        /* \"#utility.yul\":821:900   */\n      tag_55\n      tag_30\n      jump\t// in\n    tag_55:\n        /* \"#utility.yul\":783:902   */\n    tag_54:\n        /* \"#utility.yul\":941:942   */\n      0x00\n        /* \"#utility.yul\":966:1019   */\n      tag_56\n        /* \"#utility.yul\":1011:1018   */\n      dup6\n        /* \"#utility.yul\":1002:1008   */\n      dup3\n        /* \"#utility.yul\":991:1000   */\n      dup7\n        /* \"#utility.yul\":987:1009   */\n      add\n        /* \"#utility.yul\":966:1019   */\n      tag_34\n      jump\t// in\n    tag_56:\n        /* \"#utility.yul\":956:1019   */\n      swap3\n      pop\n        /* \"#utility.yul\":912:1029   */\n      pop\n        /* \"#utility.yul\":1068:1070   */\n      0x20\n        /* \"#utility.yul\":1094:1147   */\n      tag_57\n        /* \"#utility.yul\":1139:1146   */\n      dup6\n        /* \"#utility.yul\":1130:1136   */\n      dup3\n        /* \"#utility.yul\":1119:1128   */\n      dup7\n        /* \"#utility.yul\":1115:1137   */\n      add\n        /* \"#utility.yul\":1094:1147   */\n      tag_34\n      jump\t// in\n    tag_57:\n        /* \"#utility.yul\":1084:1147   */\n      swap2\n      pop\n        /* \"#utility.yul\":1039:1157   */\n      pop\n        /* \"#utility.yul\":690:1164   */\n      swap3\n      pop\n      swap3\n      swap1\n      pop\n      jump\t// out\n        /* \"#utility.yul\":1170:1499   */\n    tag_11:\n        /* \"#utility.yul\":1229:1235   */\n      0x00\n        /* \"#utility.yul\":1278:1280   */\n      0x20\n        /* \"#utility.yul\":1266:1275   */\n      dup3\n        /* \"#utility.yul\":1257:1264   */\n      dup5\n        /* \"#utility.yul\":1253:1276   */\n      sub\n        /* \"#utility.yul\":1249:1281   */\n      slt\n        /* \"#utility.yul\":1246:1365   */\n      iszero\n      tag_59\n      jumpi\n        /* \"#utility.yul\":1284:1363   */\n      tag_60\n      tag_30\n      jump\t// in\n    tag_60:\n        /* \"#utility.yul\":1246:1365   */\n    tag_59:\n        /* \"#utility.yul\":1404:1405   */\n      0x00\n        /* \"#utility.yul\":1429:1482   */\n      tag_61\n        /* \"#utility.yul\":1474:1481   */\n      dup5\n        /* \"#utility.yul\":1465:1471   */\n      dup3\n        /* \"#utility.yul\":1454:1463   */\n      dup6\n        /* \"#utility.yul\":1450:1472   */\n      add\n        /* \"#utility.yul\":1429:1482   */\n      tag_34\n      jump\t// in\n    tag_61:\n        /* \"#utility.yul\":1419:1482   */\n      swap2\n      pop\n        /* \"#utility.yul\":1375:1492   */\n      pop\n        /* \"#utility.yul\":1170:1499   */\n      swap3\n      swap2\n      pop\n      pop\n      jump\t// out\n        /* \"#utility.yul\":1505:1623   */\n    tag_35:\n        /* \"#utility.yul\":1592:1616   */\n      tag_63\n        /* \"#utility.yul\":1610:1615   */\n      dup2\n        /* \"#utility.yul\":1592:1616   */\n      tag_32\n      jump\t// in\n    tag_63:\n        /* \"#utility.yul\":1587:1590   */\n      dup3\n        /* \"#utility.yul\":1580:1617   */\n      mstore\n        /* \"#utility.yul\":1505:1623   */\n      pop\n      pop\n      jump\t// out\n        /* \"#utility.yul\":1629:1851   */\n    tag_14:\n        /* \"#utility.yul\":1722:1726   */\n      0x00\n        /* \"#utility.yul\":1760:1762   */\n      0x20\n        /* \"#utility.yul\":1749:1758   */\n      dup3\n        /* \"#utility.yul\":1745:1763   */\n      add\n        /* \"#utility.yul\":1737:1763   */\n      swap1\n      pop\n        /* \"#utility.yul\":1773:1844   */\n      tag_65\n        /* \"#utility.yul\":1841:1842   */\n      0x00\n        /* \"#utility.yul\":1830:1839   */\n      dup4\n        /* \"#utility.yul\":1826:1843   */\n      add\n        /* \"#utility.yul\":1817:1823   */\n      dup5\n        /* \"#utility.yul\":1773:1844   */\n      tag_35\n      jump\t// in\n    tag_65:\n        /* \"#utility.yul\":1629:1851   */\n      swap3\n      swap2\n      pop\n      pop\n      jump\t// out\n        /* \"#utility.yul\":1857:2026   */\n    tag_36:\n        /* \"#utility.yul\":1941:1952   */\n      0x00\n        /* \"#utility.yul\":1975:1981   */\n      dup3\n        /* \"#utility.yul\":1970:1973   */\n      dup3\n        /* \"#utility.yul\":1963:1982   */\n      mstore\n        /* \"#utility.yul\":2015:2019   */\n      0x20\n        /* \"#utility.yul\":2010:2013   */\n      dup3\n        /* \"#utility.yul\":2006:2020   */\n      add\n        /* \"#utility.yul\":1991:2020   */\n      swap1\n      pop\n        /* \"#utility.yul\":1857:2026   */\n      swap3\n      swap2\n      pop\n      pop\n      jump\t// out\n        /* \"#utility.yul\":2032:2201   */\n    tag_37:\n        /* \"#utility.yul\":2172:2193   */\n      0x496e76616c696420656d706c6f79656520494400000000000000000000000000\n        /* \"#utility.yul\":2168:2169   */\n      0x00\n        /* \"#utility.yul\":2160:2166   */\n      dup3\n        /* \"#utility.yul\":2156:2170   */\n      add\n        /* \"#utility.yul\":2149:2194   */\n      mstore\n        /* \"#utility.yul\":2032:2201   */\n      pop\n      jump\t// out\n        /* \"#utility.yul\":2207:2573   */\n    tag_38:\n        /* \"#utility.yul\":2349:2352   */\n      0x00\n        /* \"#utility.yul\":2370:2437   */\n      tag_69\n        /* \"#utility.yul\":2434:2436   */\n      0x13\n        /* \"#utility.yul\":2429:2432   */\n      dup4\n        /* \"#utility.yul\":2370:2437   */\n      tag_36\n      jump\t// in\n    tag_69:\n        /* \"#utility.yul\":2363:2437   */\n      swap2\n      pop\n        /* \"#utility.yul\":2446:2539   */\n      tag_70\n        /* \"#utility.yul\":2535:2538   */\n      dup3\n        /* \"#utility.yul\":2446:2539   */\n      tag_37\n      jump\t// in\n    tag_70:\n        /* \"#utility.yul\":2564:2566   */\n      0x20\n        /* \"#utility.yul\":2559:2562   */\n      dup3\n        /* \"#utility.yul\":2555:2567   */\n      add\n        /* \"#utility.yul\":2548:2567   */\n      swap1\n      pop\n        /* \"#utility.yul\":2207:2573   */\n      swap2\n      swap1\n      pop\n      jump\t// out\n        /* \"#utility.yul\":2579:2998   */\n    tag_18:\n        /* \"#utility.yul\":2745:2749   */\n      0x00\n        /* \"#utility.yul\":2783:2785   */\n      0x20\n        /* \"#utility.yul\":2772:2781   */\n      dup3\n        /* \"#utility.yul\":2768:2786   */\n      add\n        /* \"#utility.yul\":2760:2786   */\n      swap1\n      pop\n        /* \"#utility.yul\":2832:2841   */\n      dup2\n        /* \"#utility.yul\":2826:2830   */\n      dup2\n        /* \"#utility.yul\":2822:2842   */\n      sub\n        /* \"#utility.yul\":2818:2819   */\n      0x00\n        /* \"#utility.yul\":2807:2816   */\n      dup4\n        /* \"#utility.yul\":2803:2820   */\n      add\n        /* \"#utility.yul\":2796:2843   */\n      mstore\n        /* \"#utility.yul\":2860:2991   */\n      tag_72\n        /* \"#utility.yul\":2986:2990   */\n      dup2\n        /* \"#utility.yul\":2860:2991   */\n      tag_38\n      jump\t// in\n    tag_72:\n        /* \"#utility.yul\":2852:2991   */\n      swap1\n      pop\n        /* \"#utility.yul\":2579:2998   */\n      swap2\n      swap1\n      pop\n      jump\t// out\n        /* \"#utility.yul\":3004:3186   */\n    tag_39:\n        /* \"#utility.yul\":3144:3178   */\n      0x53616c617279206d7573742062652067726561746572207468616e207a65726f\n        /* \"#utility.yul\":3140:3141   */\n      0x00\n        /* \"#utility.yul\":3132:3138   */\n      dup3\n        /* \"#utility.yul\":3128:3142   */\n      add\n        /* \"#utility.yul\":3121:3179   */\n      mstore\n        /* \"#utility.yul\":3004:3186   */\n      pop\n      jump\t// out\n        /* \"#utility.yul\":3192:3558   */\n    tag_40:\n        /* \"#utility.yul\":3334:3337   */\n      0x00\n        /* \"#utility.yul\":3355:3422   */\n      tag_75\n        /* \"#utility.yul\":3419:3421   */\n      0x20\n        /* \"#utility.yul\":3414:3417   */\n      dup4\n        /* \"#utility.yul\":3355:3422   */\n      tag_36\n      jump\t// in\n    tag_75:\n        /* \"#utility.yul\":3348:3422   */\n      swap2\n      pop\n        /* \"#utility.yul\":3431:3524   */\n      tag_76\n        /* \"#utility.yul\":3520:3523   */\n      dup3\n        /* \"#utility.yul\":3431:3524   */\n      tag_39\n      jump\t// in\n    tag_76:\n        /* \"#utility.yul\":3549:3551   */\n      0x20\n        /* \"#utility.yul\":3544:3547   */\n      dup3\n        /* \"#utility.yul\":3540:3552   */\n      add\n        /* \"#utility.yul\":3533:3552   */\n      swap1\n      pop\n        /* \"#utility.yul\":3192:3558   */\n      swap2\n      swap1\n      pop\n      jump\t// out\n        /* \"#utility.yul\":3564:3983   */\n    tag_21:\n        /* \"#utility.yul\":3730:3734   */\n      0x00\n        /* \"#utility.yul\":3768:3770   */\n      0x20\n        /* \"#utility.yul\":3757:3766   */\n      dup3\n        /* \"#utility.yul\":3753:3771   */\n      add\n        /* \"#utility.yul\":3745:3771   */\n      swap1\n      pop\n        /* \"#utility.yul\":3817:3826   */\n      dup2\n        /* \"#utility.yul\":3811:3815   */\n      dup2\n        /* \"#utility.yul\":3807:3827   */\n      sub\n        /* \"#utility.yul\":3803:3804   */\n      0x00\n        /* \"#utility.yul\":3792:3801   */\n      dup4\n        /* \"#utility.yul\":3788:3805   */\n      add\n        /* \"#utility.yul\":3781:3828   */\n      mstore\n        /* \"#utility.yul\":3845:3976   */\n      tag_78\n        /* \"#utility.yul\":3971:3975   */\n      dup2\n        /* \"#utility.yul\":3845:3976   */\n      tag_40\n      jump\t// in\n    tag_78:\n        /* \"#utility.yul\":3837:3976   */\n      swap1\n      pop\n        /* \"#utility.yul\":3564:3983   */\n      swap2\n      swap1\n      pop\n      jump\t// out\n        /* \"#utility.yul\":3989:4155   */\n    tag_41:\n        /* \"#utility.yul\":4129:4147   */\n      0x53616c617279206e6f7420666f756e6400000000000000000000000000000000\n        /* \"#utility.yul\":4125:4126   */\n      0x00\n        /* \"#utility.yul\":4117:4123   */\n      dup3\n        /* \"#utility.yul\":4113:4127   */\n      add\n        /* \"#utility.yul\":4106:4148   */\n      mstore\n        /* \"#utility.yul\":3989:4155   */\n      pop\n      jump\t// out\n        /* \"#utility.yul\":4161:4527   */\n    tag_42:\n        /* \"#utility.yul\":4303:4306   */\n      0x00\n        /* \"#utility.yul\":4324:4391   */\n      tag_81\n        /* \"#utility.yul\":4388:4390   */\n      0x10\n        /* \"#utility.yul\":4383:4386   */\n      dup4\n        /* \"#utility.yul\":4324:4391   */\n      tag_36\n      jump\t// in\n    tag_81:\n        /* \"#utility.yul\":4317:4391   */\n      swap2\n      pop\n        /* \"#utility.yul\":4400:4493   */\n      tag_82\n        /* \"#utility.yul\":4489:4492   */\n      dup3\n        /* \"#utility.yul\":4400:4493   */\n      tag_41\n      jump\t// in\n    tag_82:\n        /* \"#utility.yul\":4518:4520   */\n      0x20\n        /* \"#utility.yul\":4513:4516   */\n      dup3\n        /* \"#utility.yul\":4509:4521   */\n      add\n        /* \"#utility.yul\":4502:4521   */\n      swap1\n      pop\n        /* \"#utility.yul\":4161:4527   */\n      swap2\n      swap1\n      pop\n      jump\t// out\n        /* \"#utility.yul\":4533:4952   */\n    tag_28:\n        /* \"#utility.yul\":4699:4703   */\n      0x00\n        /* \"#utility.yul\":4737:4739   */\n      0x20\n        /* \"#utility.yul\":4726:4735   */\n      dup3\n        /* \"#utility.yul\":4722:4740   */\n      add\n        /* \"#utility.yul\":4714:4740   */\n      swap1\n      pop\n        /* \"#utility.yul\":4786:4795   */\n      dup2\n        /* \"#utility.yul\":4780:4784   */\n      dup2\n        /* \"#utility.yul\":4776:4796   */\n      sub\n        /* \"#utility.yul\":4772:4773   */\n      0x00\n        /* \"#utility.yul\":4761:4770   */\n      dup4\n        /* \"#utility.yul\":4757:4774   */\n      add\n        /* \"#utility.yul\":4750:4797   */\n      mstore\n        /* \"#utility.yul\":4814:4945   */\n      tag_84\n        /* \"#utility.yul\":4940:4944   */\n      dup2\n        /* \"#utility.yul\":4814:4945   */\n      tag_42\n      jump\t// in\n    tag_84:\n        /* \"#utility.yul\":4806:4945   */\n      swap1\n      pop\n        /* \"#utility.yul\":4533:4952   */\n      swap2\n      swap1\n      pop\n      jump\t// out\n\n    auxdata: 0xa2646970667358221220a393de6e6a9658a3bf62852c1306b3a0a81b1a4c4cc680086dad5433e8e0d45c64736f6c634300081a0033\n}\n",
				"bytecode": {
					"linkReferences": {},
					"object": "6080604052348015600e575f80fd5b5061044c8061001c5f395ff3fe608060405234801561000f575f80fd5b5060043610610034575f3560e01c80635e4af8f61461003857806380bfacc214610054575b5f80fd5b610052600480360381019061004d919061023d565b610084565b005b61006e6004803603810190610069919061027b565b610159565b60405161007b91906102b5565b60405180910390f35b5f82116100c6576040517f08c379a00000000000000000000000000000000000000000000000000000000081526004016100bd90610328565b60405180910390fd5b5f8111610108576040517f08c379a00000000000000000000000000000000000000000000000000000000081526004016100ff90610390565b60405180910390fd5b805f808481526020019081526020015f2081905550817f513be2fc65a5dac62d6e1b032498d16eefe8bde7d11dff22331597cab2ab23db8260405161014d91906102b5565b60405180910390a25050565b5f80821161019c576040517f08c379a000000000000000000000000000000000000000000000000000000000815260040161019390610328565b60405180910390fd5b5f805f8481526020019081526020015f2054116101ee576040517f08c379a00000000000000000000000000000000000000000000000000000000081526004016101e5906103f8565b60405180910390fd5b5f808381526020019081526020015f20549050919050565b5f80fd5b5f819050919050565b61021c8161020a565b8114610226575f80fd5b50565b5f8135905061023781610213565b92915050565b5f806040838503121561025357610252610206565b5b5f61026085828601610229565b925050602061027185828601610229565b9150509250929050565b5f602082840312156102905761028f610206565b5b5f61029d84828501610229565b91505092915050565b6102af8161020a565b82525050565b5f6020820190506102c85f8301846102a6565b92915050565b5f82825260208201905092915050565b7f496e76616c696420656d706c6f796565204944000000000000000000000000005f82015250565b5f6103126013836102ce565b915061031d826102de565b602082019050919050565b5f6020820190508181035f83015261033f81610306565b9050919050565b7f53616c617279206d7573742062652067726561746572207468616e207a65726f5f82015250565b5f61037a6020836102ce565b915061038582610346565b602082019050919050565b5f6020820190508181035f8301526103a78161036e565b9050919050565b7f53616c617279206e6f7420666f756e64000000000000000000000000000000005f82015250565b5f6103e26010836102ce565b91506103ed826103ae565b602082019050919050565b5f6020820190508181035f83015261040f816103d6565b905091905056fea2646970667358221220a393de6e6a9658a3bf62852c1306b3a0a81b1a4c4cc680086dad5433e8e0d45c64736f6c634300081a0033",
					"opcodes": "PUSH1 0x80 PUSH1 0x40 MSTORE CALLVALUE DUP1 ISZERO PUSH1 0xE JUMPI PUSH0 DUP1 REVERT JUMPDEST POP PUSH2 0x44C DUP1 PUSH2 0x1C PUSH0 CODECOPY PUSH0 RETURN INVALID PUSH1 0x80 PUSH1 0x40 MSTORE CALLVALUE DUP1 ISZERO PUSH2 0xF JUMPI PUSH0 DUP1 REVERT JUMPDEST POP PUSH1 0x4 CALLDATASIZE LT PUSH2 0x34 JUMPI PUSH0 CALLDATALOAD PUSH1 0xE0 SHR DUP1 PUSH4 0x5E4AF8F6 EQ PUSH2 0x38 JUMPI DUP1 PUSH4 0x80BFACC2 EQ PUSH2 0x54 JUMPI JUMPDEST PUSH0 DUP1 REVERT JUMPDEST PUSH2 0x52 PUSH1 0x4 DUP1 CALLDATASIZE SUB DUP2 ADD SWAP1 PUSH2 0x4D SWAP2 SWAP1 PUSH2 0x23D JUMP JUMPDEST PUSH2 0x84 JUMP JUMPDEST STOP JUMPDEST PUSH2 0x6E PUSH1 0x4 DUP1 CALLDATASIZE SUB DUP2 ADD SWAP1 PUSH2 0x69 SWAP2 SWAP1 PUSH2 0x27B JUMP JUMPDEST PUSH2 0x159 JUMP JUMPDEST PUSH1 0x40 MLOAD PUSH2 0x7B SWAP2 SWAP1 PUSH2 0x2B5 JUMP JUMPDEST PUSH1 0x40 MLOAD DUP1 SWAP2 SUB SWAP1 RETURN JUMPDEST PUSH0 DUP3 GT PUSH2 0xC6 JUMPI PUSH1 0x40 MLOAD PUSH32 0x8C379A000000000000000000000000000000000000000000000000000000000 DUP2 MSTORE PUSH1 0x4 ADD PUSH2 0xBD SWAP1 PUSH2 0x328 JUMP JUMPDEST PUSH1 0x40 MLOAD DUP1 SWAP2 SUB SWAP1 REVERT JUMPDEST PUSH0 DUP2 GT PUSH2 0x108 JUMPI PUSH1 0x40 MLOAD PUSH32 0x8C379A000000000000000000000000000000000000000000000000000000000 DUP2 MSTORE PUSH1 0x4 ADD PUSH2 0xFF SWAP1 PUSH2 0x390 JUMP JUMPDEST PUSH1 0x40 MLOAD DUP1 SWAP2 SUB SWAP1 REVERT JUMPDEST DUP1 PUSH0 DUP1 DUP5 DUP2 MSTORE PUSH1 0x20 ADD SWAP1 DUP2 MSTORE PUSH1 0x20 ADD PUSH0 KECCAK256 DUP2 SWAP1 SSTORE POP DUP2 PUSH32 0x513BE2FC65A5DAC62D6E1B032498D16EEFE8BDE7D11DFF22331597CAB2AB23DB DUP3 PUSH1 0x40 MLOAD PUSH2 0x14D SWAP2 SWAP1 PUSH2 0x2B5 JUMP JUMPDEST PUSH1 0x40 MLOAD DUP1 SWAP2 SUB SWAP1 LOG2 POP POP JUMP JUMPDEST PUSH0 DUP1 DUP3 GT PUSH2 0x19C JUMPI PUSH1 0x40 MLOAD PUSH32 0x8C379A000000000000000000000000000000000000000000000000000000000 DUP2 MSTORE PUSH1 0x4 ADD PUSH2 0x193 SWAP1 PUSH2 0x328 JUMP JUMPDEST PUSH1 0x40 MLOAD DUP1 SWAP2 SUB SWAP1 REVERT JUMPDEST PUSH0 DUP1 PUSH0 DUP5 DUP2 MSTORE PUSH1 0x20 ADD SWAP1 DUP2 MSTORE PUSH1 0x20 ADD PUSH0 KECCAK256 SLOAD GT PUSH2 0x1EE JUMPI PUSH1 0x40 MLOAD PUSH32 0x8C379A000000000000000000000000000000000000000000000000000000000 DUP2 MSTORE PUSH1 0x4 ADD PUSH2 0x1E5 SWAP1 PUSH2 0x3F8 JUMP JUMPDEST PUSH1 0x40 MLOAD DUP1 SWAP2 SUB SWAP1 REVERT JUMPDEST PUSH0 DUP1 DUP4 DUP2 MSTORE PUSH1 0x20 ADD SWAP1 DUP2 MSTORE PUSH1 0x20 ADD PUSH0 KECCAK256 SLOAD SWAP1 POP SWAP2 SWAP1 POP JUMP JUMPDEST PUSH0 DUP1 REVERT JUMPDEST PUSH0 DUP2 SWAP1 POP SWAP2 SWAP1 POP JUMP JUMPDEST PUSH2 0x21C DUP2 PUSH2 0x20A JUMP JUMPDEST DUP2 EQ PUSH2 0x226 JUMPI PUSH0 DUP1 REVERT JUMPDEST POP JUMP JUMPDEST PUSH0 DUP2 CALLDATALOAD SWAP1 POP PUSH2 0x237 DUP2 PUSH2 0x213 JUMP JUMPDEST SWAP3 SWAP2 POP POP JUMP JUMPDEST PUSH0 DUP1 PUSH1 0x40 DUP4 DUP6 SUB SLT ISZERO PUSH2 0x253 JUMPI PUSH2 0x252 PUSH2 0x206 JUMP JUMPDEST JUMPDEST PUSH0 PUSH2 0x260 DUP6 DUP3 DUP7 ADD PUSH2 0x229 JUMP JUMPDEST SWAP3 POP POP PUSH1 0x20 PUSH2 0x271 DUP6 DUP3 DUP7 ADD PUSH2 0x229 JUMP JUMPDEST SWAP2 POP POP SWAP3 POP SWAP3 SWAP1 POP JUMP JUMPDEST PUSH0 PUSH1 0x20 DUP3 DUP5 SUB SLT ISZERO PUSH2 0x290 JUMPI PUSH2 0x28F PUSH2 0x206 JUMP JUMPDEST JUMPDEST PUSH0 PUSH2 0x29D DUP5 DUP3 DUP6 ADD PUSH2 0x229 JUMP JUMPDEST SWAP2 POP POP SWAP3 SWAP2 POP POP JUMP JUMPDEST PUSH2 0x2AF DUP2 PUSH2 0x20A JUMP JUMPDEST DUP3 MSTORE POP POP JUMP JUMPDEST PUSH0 PUSH1 0x20 DUP3 ADD SWAP1 POP PUSH2 0x2C8 PUSH0 DUP4 ADD DUP5 PUSH2 0x2A6 JUMP JUMPDEST SWAP3 SWAP2 POP POP JUMP JUMPDEST PUSH0 DUP3 DUP3 MSTORE PUSH1 0x20 DUP3 ADD SWAP1 POP SWAP3 SWAP2 POP POP JUMP JUMPDEST PUSH32 0x496E76616C696420656D706C6F79656520494400000000000000000000000000 PUSH0 DUP3 ADD MSTORE POP JUMP JUMPDEST PUSH0 PUSH2 0x312 PUSH1 0x13 DUP4 PUSH2 0x2CE JUMP JUMPDEST SWAP2 POP PUSH2 0x31D DUP3 PUSH2 0x2DE JUMP JUMPDEST PUSH1 0x20 DUP3 ADD SWAP1 POP SWAP2 SWAP1 POP JUMP JUMPDEST PUSH0 PUSH1 0x20 DUP3 ADD SWAP1 POP DUP2 DUP2 SUB PUSH0 DUP4 ADD MSTORE PUSH2 0x33F DUP2 PUSH2 0x306 JUMP JUMPDEST SWAP1 POP SWAP2 SWAP1 POP JUMP JUMPDEST PUSH32 0x53616C617279206D7573742062652067726561746572207468616E207A65726F PUSH0 DUP3 ADD MSTORE POP JUMP JUMPDEST PUSH0 PUSH2 0x37A PUSH1 0x20 DUP4 PUSH2 0x2CE JUMP JUMPDEST SWAP2 POP PUSH2 0x385 DUP3 PUSH2 0x346 JUMP JUMPDEST PUSH1 0x20 DUP3 ADD SWAP1 POP SWAP2 SWAP1 POP JUMP JUMPDEST PUSH0 PUSH1 0x20 DUP3 ADD SWAP1 POP DUP2 DUP2 SUB PUSH0 DUP4 ADD MSTORE PUSH2 0x3A7 DUP2 PUSH2 0x36E JUMP JUMPDEST SWAP1 POP SWAP2 SWAP1 POP JUMP JUMPDEST PUSH32 0x53616C617279206E6F7420666F756E6400000000000000000000000000000000 PUSH0 DUP3 ADD MSTORE POP JUMP JUMPDEST PUSH0 PUSH2 0x3E2 PUSH1 0x10 DUP4 PUSH2 0x2CE JUMP JUMPDEST SWAP2 POP PUSH2 0x3ED DUP3 PUSH2 0x3AE JUMP JUMPDEST PUSH1 0x20 DUP3 ADD SWAP1 POP SWAP2 SWAP1 POP JUMP JUMPDEST PUSH0 PUSH1 0x20 DUP3 ADD SWAP1 POP DUP2 DUP2 SUB PUSH0 DUP4 ADD MSTORE PUSH2 0x40F DUP2 PUSH2 0x3D6 JUMP JUMPDEST SWAP1 POP SWAP2 SWAP1 POP JUMP INVALID LOG2 PUSH5 0x6970667358 0x22 SLT KECCAK256 LOG3 SWAP4 0xDE PUSH15 0x6A9658A3BF62852C1306B3A0A81B1A 0x4C 0x4C 0xC6 DUP1 ADDMOD PUSH14 0xAD5433E8E0D45C64736F6C634300 ADDMOD BYTE STOP CALLER "
				},
				"gasEstimates": {
					"creation": {
						"codeDepositCost": "220000",
						"executionCost": "261",
						"totalCost": "220261"
					},
					"external": {
						"getSalary(uint256)": "infinite",
						"updateSalary(uint256,uint256)": "infinite"
					}
				},
				"methodIdentifiers": {
					"getSalary(uint256)": "80bfacc2",
					"updateSalary(uint256,uint256)": "5e4af8f6"
				}
			},
			"storageLayout": {
				"storage": [
					{
						"astId": 5,
						"contract": "contracts/q2mst.sol:EmployeeSalaries",
						"label": "employeeSalaries",
						"offset": 0,
						"slot": "0",
						"type": "t_mapping(t_uint256,t_uint256)"
					}
				],
				"types": {
					"t_mapping(t_uint256,t_uint256)": {
						"encoding": "mapping",
						"key": "t_uint256",
						"label": "mapping(uint256 => uint256)",
						"numberOfBytes": "32",
						"value": "t_uint256"
					},
					"t_uint256": {
						"encoding": "inplace",
						"label": "uint256",
						"numberOfBytes": "32"
					}
				}
			},
			"userdoc": {
				"kind": "user",
				"methods": {},
				"version": 1
			}
		}
	}
}