{
	"contracts/exp1_multidimArray.sol": {
		"MultiDimArrayModify": {
			"abi": [
				{
					"inputs": [
						{
							"internalType": "uint256",
							"name": "_row",
							"type": "uint256"
						}
					],
					"name": "deleteRow",
					"outputs": [],
					"stateMutability": "nonpayable",
					"type": "function"
				},
				{
					"inputs": [
						{
							"internalType": "uint256",
							"name": "_row",
							"type": "uint256"
						},
						{
							"internalType": "uint256",
							"name": "_col",
							"type": "uint256"
						},
						{
							"internalType": "uint256",
							"name": "_value",
							"type": "uint256"
						}
					],
					"name": "updateElement",
					"outputs": [],
					"stateMutability": "nonpayable",
					"type": "function"
				}
			],
			"devdoc": {
				"kind": "dev",
				"methods": {},
				"version": 1
			},
			"evm": {
				"assembly": "    /* \"contracts/exp1_multidimArray.sol\":957:1709  contract MultiDimArrayModify {... */\n  mstore(0x40, 0x80)\n  callvalue\n  dup1\n  iszero\n  tag_1\n  jumpi\n  0x00\n  dup1\n  revert\ntag_1:\n  pop\n  dataSize(sub_0)\n  dup1\n  dataOffset(sub_0)\n  0x00\n  codecopy\n  0x00\n  return\nstop\n\nsub_0: assembly {\n        /* \"contracts/exp1_multidimArray.sol\":957:1709  contract MultiDimArrayModify {... */\n      mstore(0x40, 0x80)\n      callvalue\n      dup1\n      iszero\n      tag_1\n      jumpi\n      0x00\n      dup1\n      revert\n    tag_1:\n      pop\n      jumpi(tag_2, lt(calldatasize, 0x04))\n      shr(0xe0, calldataload(0x00))\n      dup1\n      0x4243938b\n      eq\n      tag_3\n      jumpi\n      dup1\n      0xce947ce2\n      eq\n      tag_4\n      jumpi\n    tag_2:\n      0x00\n      dup1\n      revert\n        /* \"contracts/exp1_multidimArray.sol\":1114:1380  function updateElement(uint _row, uint _col, uint _value) public {... */\n    tag_3:\n      tag_5\n      0x04\n      dup1\n      calldatasize\n      sub\n      dup2\n      add\n      swap1\n      tag_6\n      swap2\n      swap1\n      tag_7\n      jump\t// in\n    tag_6:\n      tag_8\n      jump\t// in\n    tag_5:\n      stop\n        /* \"contracts/exp1_multidimArray.sol\":1441:1706  function deleteRow(uint _row) public {... */\n    tag_4:\n      tag_9\n      0x04\n      dup1\n      calldatasize\n      sub\n      dup2\n      add\n      swap1\n      tag_10\n      swap2\n      swap1\n      tag_11\n      jump\t// in\n    tag_10:\n      tag_12\n      jump\t// in\n    tag_9:\n      stop\n        /* \"contracts/exp1_multidimArray.sol\":1114:1380  function updateElement(uint _row, uint _col, uint _value) public {... */\n    tag_8:\n        /* \"contracts/exp1_multidimArray.sol\":1205:1215  multiArray */\n      0x00\n        /* \"contracts/exp1_multidimArray.sol\":1205:1222  multiArray.length */\n      dup1\n      sload\n      swap1\n      pop\n        /* \"contracts/exp1_multidimArray.sol\":1198:1202  _row */\n      dup4\n        /* \"contracts/exp1_multidimArray.sol\":1198:1222  _row < multiArray.length */\n      lt\n        /* \"contracts/exp1_multidimArray.sol\":1190:1250  require(_row < multiArray.length, \"Row index out of bounds\") */\n      tag_14\n      jumpi\n      mload(0x40)\n      0x08c379a000000000000000000000000000000000000000000000000000000000\n      dup2\n      mstore\n      0x04\n      add\n      tag_15\n      swap1\n      tag_16\n      jump\t// in\n    tag_15:\n      mload(0x40)\n      dup1\n      swap2\n      sub\n      swap1\n      revert\n    tag_14:\n        /* \"contracts/exp1_multidimArray.sol\":1276:1286  multiArray */\n      0x00\n        /* \"contracts/exp1_multidimArray.sol\":1287:1291  _row */\n      dup4\n        /* \"contracts/exp1_multidimArray.sol\":1276:1292  multiArray[_row] */\n      dup2\n      sload\n      dup2\n      lt\n      tag_17\n      jumpi\n      tag_18\n      tag_19\n      jump\t// in\n    tag_18:\n    tag_17:\n      swap1\n      0x00\n      mstore\n      keccak256(0x00, 0x20)\n      add\n        /* \"contracts/exp1_multidimArray.sol\":1276:1299  multiArray[_row].length */\n      dup1\n      sload\n      swap1\n      pop\n        /* \"contracts/exp1_multidimArray.sol\":1269:1273  _col */\n      dup3\n        /* \"contracts/exp1_multidimArray.sol\":1269:1299  _col < multiArray[_row].length */\n      lt\n        /* \"contracts/exp1_multidimArray.sol\":1261:1330  require(_col < multiArray[_row].length, \"Column index out of bounds\") */\n      tag_21\n      jumpi\n      mload(0x40)\n      0x08c379a000000000000000000000000000000000000000000000000000000000\n      dup2\n      mstore\n      0x04\n      add\n      tag_22\n      swap1\n      tag_23\n      jump\t// in\n    tag_22:\n      mload(0x40)\n      dup1\n      swap2\n      sub\n      swap1\n      revert\n    tag_21:\n        /* \"contracts/exp1_multidimArray.sol\":1366:1372  _value */\n      dup1\n        /* \"contracts/exp1_multidimArray.sol\":1341:1351  multiArray */\n      0x00\n        /* \"contracts/exp1_multidimArray.sol\":1352:1356  _row */\n      dup5\n        /* \"contracts/exp1_multidimArray.sol\":1341:1357  multiArray[_row] */\n      dup2\n      sload\n      dup2\n      lt\n      tag_24\n      jumpi\n      tag_25\n      tag_19\n      jump\t// in\n    tag_25:\n    tag_24:\n      swap1\n      0x00\n      mstore\n      keccak256(0x00, 0x20)\n      add\n        /* \"contracts/exp1_multidimArray.sol\":1358:1362  _col */\n      dup4\n        /* \"contracts/exp1_multidimArray.sol\":1341:1363  multiArray[_row][_col] */\n      dup2\n      sload\n      dup2\n      lt\n      tag_27\n      jumpi\n      tag_28\n      tag_19\n      jump\t// in\n    tag_28:\n    tag_27:\n      swap1\n      0x00\n      mstore\n      keccak256(0x00, 0x20)\n      add\n        /* \"contracts/exp1_multidimArray.sol\":1341:1372  multiArray[_row][_col] = _value */\n      dup2\n      swap1\n      sstore\n      pop\n        /* \"contracts/exp1_multidimArray.sol\":1114:1380  function updateElement(uint _row, uint _col, uint _value) public {... */\n      pop\n      pop\n      pop\n      jump\t// out\n        /* \"contracts/exp1_multidimArray.sol\":1441:1706  function deleteRow(uint _row) public {... */\n    tag_12:\n        /* \"contracts/exp1_multidimArray.sol\":1504:1514  multiArray */\n      0x00\n        /* \"contracts/exp1_multidimArray.sol\":1504:1521  multiArray.length */\n      dup1\n      sload\n      swap1\n      pop\n        /* \"contracts/exp1_multidimArray.sol\":1497:1501  _row */\n      dup2\n        /* \"contracts/exp1_multidimArray.sol\":1497:1521  _row < multiArray.length */\n      lt\n        /* \"contracts/exp1_multidimArray.sol\":1489:1549  require(_row < multiArray.length, \"Row index out of bounds\") */\n      tag_31\n      jumpi\n      mload(0x40)\n      0x08c379a000000000000000000000000000000000000000000000000000000000\n      dup2\n      mstore\n      0x04\n      add\n      tag_32\n      swap1\n      tag_16\n      jump\t// in\n    tag_32:\n      mload(0x40)\n      dup1\n      swap2\n      sub\n      swap1\n      revert\n    tag_31:\n        /* \"contracts/exp1_multidimArray.sol\":1565:1571  uint i */\n      0x00\n        /* \"contracts/exp1_multidimArray.sol\":1574:1578  _row */\n      dup2\n        /* \"contracts/exp1_multidimArray.sol\":1565:1578  uint i = _row */\n      swap1\n      pop\n        /* \"contracts/exp1_multidimArray.sol\":1560:1672  for (uint i = _row; i < multiArray.length - 1; i++) {... */\n    tag_33:\n        /* \"contracts/exp1_multidimArray.sol\":1604:1605  1 */\n      0x01\n        /* \"contracts/exp1_multidimArray.sol\":1584:1594  multiArray */\n      0x00\n        /* \"contracts/exp1_multidimArray.sol\":1584:1601  multiArray.length */\n      dup1\n      sload\n      swap1\n      pop\n        /* \"contracts/exp1_multidimArray.sol\":1584:1605  multiArray.length - 1 */\n      tag_36\n      swap2\n      swap1\n      tag_37\n      jump\t// in\n    tag_36:\n        /* \"contracts/exp1_multidimArray.sol\":1580:1581  i */\n      dup2\n        /* \"contracts/exp1_multidimArray.sol\":1580:1605  i < multiArray.length - 1 */\n      lt\n        /* \"contracts/exp1_multidimArray.sol\":1560:1672  for (uint i = _row; i < multiArray.length - 1; i++) {... */\n      iszero\n      tag_34\n      jumpi\n        /* \"contracts/exp1_multidimArray.sol\":1643:1653  multiArray */\n      0x00\n        /* \"contracts/exp1_multidimArray.sol\":1658:1659  1 */\n      0x01\n        /* \"contracts/exp1_multidimArray.sol\":1654:1655  i */\n      dup3\n        /* \"contracts/exp1_multidimArray.sol\":1654:1659  i + 1 */\n      tag_38\n      swap2\n      swap1\n      tag_39\n      jump\t// in\n    tag_38:\n        /* \"contracts/exp1_multidimArray.sol\":1643:1660  multiArray[i + 1] */\n      dup2\n      sload\n      dup2\n      lt\n      tag_40\n      jumpi\n      tag_41\n      tag_19\n      jump\t// in\n    tag_41:\n    tag_40:\n      swap1\n      0x00\n      mstore\n      keccak256(0x00, 0x20)\n      add\n        /* \"contracts/exp1_multidimArray.sol\":1627:1637  multiArray */\n      0x00\n        /* \"contracts/exp1_multidimArray.sol\":1638:1639  i */\n      dup3\n        /* \"contracts/exp1_multidimArray.sol\":1627:1640  multiArray[i] */\n      dup2\n      sload\n      dup2\n      lt\n      tag_43\n      jumpi\n      tag_44\n      tag_19\n      jump\t// in\n    tag_44:\n    tag_43:\n      swap1\n      0x00\n      mstore\n      keccak256(0x00, 0x20)\n      add\n        /* \"contracts/exp1_multidimArray.sol\":1627:1660  multiArray[i] = multiArray[i + 1] */\n      swap1\n      dup1\n      sload\n      tag_46\n      swap3\n      swap2\n      swap1\n      tag_47\n      jump\t// in\n    tag_46:\n      pop\n        /* \"contracts/exp1_multidimArray.sol\":1607:1610  i++ */\n      dup1\n      dup1\n      0x01\n      add\n      swap2\n      pop\n      pop\n        /* \"contracts/exp1_multidimArray.sol\":1560:1672  for (uint i = _row; i < multiArray.length - 1; i++) {... */\n      jump(tag_33)\n    tag_34:\n      pop\n        /* \"contracts/exp1_multidimArray.sol\":1682:1692  multiArray */\n      0x00\n        /* \"contracts/exp1_multidimArray.sol\":1682:1698  multiArray.pop() */\n      dup1\n      sload\n      dup1\n      tag_48\n      jumpi\n      tag_49\n      tag_50\n      jump\t// in\n    tag_49:\n    tag_48:\n      0x01\n      swap1\n      sub\n      dup2\n      dup2\n      swap1\n      0x00\n      mstore\n      keccak256(0x00, 0x20)\n      add\n      0x00\n      tag_52\n      swap2\n      swap1\n      tag_53\n      jump\t// in\n    tag_52:\n      swap1\n      sstore\n        /* \"contracts/exp1_multidimArray.sol\":1441:1706  function deleteRow(uint _row) public {... */\n      pop\n      jump\t// out\n    tag_47:\n      dup3\n      dup1\n      sload\n      dup3\n      dup3\n      sstore\n      swap1\n      0x00\n      mstore\n      keccak256(0x00, 0x20)\n      swap1\n      dup2\n      add\n      swap3\n      dup3\n      iszero\n      tag_54\n      jumpi\n      0x00\n      mstore\n      keccak256(0x00, 0x20)\n      swap2\n      dup3\n      add\n    tag_55:\n      dup3\n      dup2\n      gt\n      iszero\n      tag_56\n      jumpi\n      dup3\n      sload\n      dup3\n      sstore\n      swap2\n      0x01\n      add\n      swap2\n      swap1\n      0x01\n      add\n      swap1\n      jump(tag_55)\n    tag_56:\n    tag_54:\n      pop\n      swap1\n      pop\n      tag_57\n      swap2\n      swap1\n      tag_58\n      jump\t// in\n    tag_57:\n      pop\n      swap1\n      jump\t// out\n    tag_53:\n      pop\n      dup1\n      sload\n      0x00\n      dup3\n      sstore\n      swap1\n      0x00\n      mstore\n      keccak256(0x00, 0x20)\n      swap1\n      dup2\n      add\n      swap1\n      tag_60\n      swap2\n      swap1\n      tag_58\n      jump\t// in\n    tag_60:\n      pop\n      jump\t// out\n    tag_58:\n    tag_61:\n      dup1\n      dup3\n      gt\n      iszero\n      tag_62\n      jumpi\n      0x00\n      dup2\n      0x00\n      swap1\n      sstore\n      pop\n      0x01\n      add\n      jump(tag_61)\n    tag_62:\n      pop\n      swap1\n      jump\t// out\n        /* \"#utility.yul\":88:205   */\n    tag_64:\n        /* \"#utility.yul\":197:198   */\n      0x00\n        /* \"#utility.yul\":194:195   */\n      dup1\n        /* \"#utility.yul\":187:199   */\n      revert\n        /* \"#utility.yul\":334:411   */\n    tag_66:\n        /* \"#utility.yul\":371:378   */\n      0x00\n        /* \"#utility.yul\":400:405   */\n      dup2\n        /* \"#utility.yul\":389:405   */\n      swap1\n      pop\n        /* \"#utility.yul\":334:411   */\n      swap2\n      swap1\n      pop\n      jump\t// out\n        /* \"#utility.yul\":417:539   */\n    tag_67:\n        /* \"#utility.yul\":490:514   */\n      tag_81\n        /* \"#utility.yul\":508:513   */\n      dup2\n        /* \"#utility.yul\":490:514   */\n      tag_66\n      jump\t// in\n    tag_81:\n        /* \"#utility.yul\":483:488   */\n      dup2\n        /* \"#utility.yul\":480:515   */\n      eq\n        /* \"#utility.yul\":470:533   */\n      tag_82\n      jumpi\n        /* \"#utility.yul\":529:530   */\n      0x00\n        /* \"#utility.yul\":526:527   */\n      dup1\n        /* \"#utility.yul\":519:531   */\n      revert\n        /* \"#utility.yul\":470:533   */\n    tag_82:\n        /* \"#utility.yul\":417:539   */\n      pop\n      jump\t// out\n        /* \"#utility.yul\":545:684   */\n    tag_68:\n        /* \"#utility.yul\":591:596   */\n      0x00\n        /* \"#utility.yul\":629:635   */\n      dup2\n        /* \"#utility.yul\":616:636   */\n      calldataload\n        /* \"#utility.yul\":607:636   */\n      swap1\n      pop\n        /* \"#utility.yul\":645:678   */\n      tag_84\n        /* \"#utility.yul\":672:677   */\n      dup2\n        /* \"#utility.yul\":645:678   */\n      tag_67\n      jump\t// in\n    tag_84:\n        /* \"#utility.yul\":545:684   */\n      swap3\n      swap2\n      pop\n      pop\n      jump\t// out\n        /* \"#utility.yul\":690:1309   */\n    tag_7:\n        /* \"#utility.yul\":767:773   */\n      0x00\n        /* \"#utility.yul\":775:781   */\n      dup1\n        /* \"#utility.yul\":783:789   */\n      0x00\n        /* \"#utility.yul\":832:834   */\n      0x60\n        /* \"#utility.yul\":820:829   */\n      dup5\n        /* \"#utility.yul\":811:818   */\n      dup7\n        /* \"#utility.yul\":807:830   */\n      sub\n        /* \"#utility.yul\":803:835   */\n      slt\n        /* \"#utility.yul\":800:919   */\n      iszero\n      tag_86\n      jumpi\n        /* \"#utility.yul\":838:917   */\n      tag_87\n      tag_64\n      jump\t// in\n    tag_87:\n        /* \"#utility.yul\":800:919   */\n    tag_86:\n        /* \"#utility.yul\":958:959   */\n      0x00\n        /* \"#utility.yul\":983:1036   */\n      tag_88\n        /* \"#utility.yul\":1028:1035   */\n      dup7\n        /* \"#utility.yul\":1019:1025   */\n      dup3\n        /* \"#utility.yul\":1008:1017   */\n      dup8\n        /* \"#utility.yul\":1004:1026   */\n      add\n        /* \"#utility.yul\":983:1036   */\n      tag_68\n      jump\t// in\n    tag_88:\n        /* \"#utility.yul\":973:1036   */\n      swap4\n      pop\n        /* \"#utility.yul\":929:1046   */\n      pop\n        /* \"#utility.yul\":1085:1087   */\n      0x20\n        /* \"#utility.yul\":1111:1164   */\n      tag_89\n        /* \"#utility.yul\":1156:1163   */\n      dup7\n        /* \"#utility.yul\":1147:1153   */\n      dup3\n        /* \"#utility.yul\":1136:1145   */\n      dup8\n        /* \"#utility.yul\":1132:1154   */\n      add\n        /* \"#utility.yul\":1111:1164   */\n      tag_68\n      jump\t// in\n    tag_89:\n        /* \"#utility.yul\":1101:1164   */\n      swap3\n      pop\n        /* \"#utility.yul\":1056:1174   */\n      pop\n        /* \"#utility.yul\":1213:1215   */\n      0x40\n        /* \"#utility.yul\":1239:1292   */\n      tag_90\n        /* \"#utility.yul\":1284:1291   */\n      dup7\n        /* \"#utility.yul\":1275:1281   */\n      dup3\n        /* \"#utility.yul\":1264:1273   */\n      dup8\n        /* \"#utility.yul\":1260:1282   */\n      add\n        /* \"#utility.yul\":1239:1292   */\n      tag_68\n      jump\t// in\n    tag_90:\n        /* \"#utility.yul\":1229:1292   */\n      swap2\n      pop\n        /* \"#utility.yul\":1184:1302   */\n      pop\n        /* \"#utility.yul\":690:1309   */\n      swap3\n      pop\n      swap3\n      pop\n      swap3\n      jump\t// out\n        /* \"#utility.yul\":1315:1644   */\n    tag_11:\n        /* \"#utility.yul\":1374:1380   */\n      0x00\n        /* \"#utility.yul\":1423:1425   */\n      0x20\n        /* \"#utility.yul\":1411:1420   */\n      dup3\n        /* \"#utility.yul\":1402:1409   */\n      dup5\n        /* \"#utility.yul\":1398:1421   */\n      sub\n        /* \"#utility.yul\":1394:1426   */\n      slt\n        /* \"#utility.yul\":1391:1510   */\n      iszero\n      tag_92\n      jumpi\n        /* \"#utility.yul\":1429:1508   */\n      tag_93\n      tag_64\n      jump\t// in\n    tag_93:\n        /* \"#utility.yul\":1391:1510   */\n    tag_92:\n        /* \"#utility.yul\":1549:1550   */\n      0x00\n        /* \"#utility.yul\":1574:1627   */\n      tag_94\n        /* \"#utility.yul\":1619:1626   */\n      dup5\n        /* \"#utility.yul\":1610:1616   */\n      dup3\n        /* \"#utility.yul\":1599:1608   */\n      dup6\n        /* \"#utility.yul\":1595:1617   */\n      add\n        /* \"#utility.yul\":1574:1627   */\n      tag_68\n      jump\t// in\n    tag_94:\n        /* \"#utility.yul\":1564:1627   */\n      swap2\n      pop\n        /* \"#utility.yul\":1520:1637   */\n      pop\n        /* \"#utility.yul\":1315:1644   */\n      swap3\n      swap2\n      pop\n      pop\n      jump\t// out\n        /* \"#utility.yul\":1650:1819   */\n    tag_69:\n        /* \"#utility.yul\":1734:1745   */\n      0x00\n        /* \"#utility.yul\":1768:1774   */\n      dup3\n        /* \"#utility.yul\":1763:1766   */\n      dup3\n        /* \"#utility.yul\":1756:1775   */\n      mstore\n        /* \"#utility.yul\":1808:1812   */\n      0x20\n        /* \"#utility.yul\":1803:1806   */\n      dup3\n        /* \"#utility.yul\":1799:1813   */\n      add\n        /* \"#utility.yul\":1784:1813   */\n      swap1\n      pop\n        /* \"#utility.yul\":1650:1819   */\n      swap3\n      swap2\n      pop\n      pop\n      jump\t// out\n        /* \"#utility.yul\":1825:1998   */\n    tag_70:\n        /* \"#utility.yul\":1965:1990   */\n      0x526f7720696e646578206f7574206f6620626f756e6473000000000000000000\n        /* \"#utility.yul\":1961:1962   */\n      0x00\n        /* \"#utility.yul\":1953:1959   */\n      dup3\n        /* \"#utility.yul\":1949:1963   */\n      add\n        /* \"#utility.yul\":1942:1991   */\n      mstore\n        /* \"#utility.yul\":1825:1998   */\n      pop\n      jump\t// out\n        /* \"#utility.yul\":2004:2370   */\n    tag_71:\n        /* \"#utility.yul\":2146:2149   */\n      0x00\n        /* \"#utility.yul\":2167:2234   */\n      tag_98\n        /* \"#utility.yul\":2231:2233   */\n      0x17\n        /* \"#utility.yul\":2226:2229   */\n      dup4\n        /* \"#utility.yul\":2167:2234   */\n      tag_69\n      jump\t// in\n    tag_98:\n        /* \"#utility.yul\":2160:2234   */\n      swap2\n      pop\n        /* \"#utility.yul\":2243:2336   */\n      tag_99\n        /* \"#utility.yul\":2332:2335   */\n      dup3\n        /* \"#utility.yul\":2243:2336   */\n      tag_70\n      jump\t// in\n    tag_99:\n        /* \"#utility.yul\":2361:2363   */\n      0x20\n        /* \"#utility.yul\":2356:2359   */\n      dup3\n        /* \"#utility.yul\":2352:2364   */\n      add\n        /* \"#utility.yul\":2345:2364   */\n      swap1\n      pop\n        /* \"#utility.yul\":2004:2370   */\n      swap2\n      swap1\n      pop\n      jump\t// out\n        /* \"#utility.yul\":2376:2795   */\n    tag_16:\n        /* \"#utility.yul\":2542:2546   */\n      0x00\n        /* \"#utility.yul\":2580:2582   */\n      0x20\n        /* \"#utility.yul\":2569:2578   */\n      dup3\n        /* \"#utility.yul\":2565:2583   */\n      add\n        /* \"#utility.yul\":2557:2583   */\n      swap1\n      pop\n        /* \"#utility.yul\":2629:2638   */\n      dup2\n        /* \"#utility.yul\":2623:2627   */\n      dup2\n        /* \"#utility.yul\":2619:2639   */\n      sub\n        /* \"#utility.yul\":2615:2616   */\n      0x00\n        /* \"#utility.yul\":2604:2613   */\n      dup4\n        /* \"#utility.yul\":2600:2617   */\n      add\n        /* \"#utility.yul\":2593:2640   */\n      mstore\n        /* \"#utility.yul\":2657:2788   */\n      tag_101\n        /* \"#utility.yul\":2783:2787   */\n      dup2\n        /* \"#utility.yul\":2657:2788   */\n      tag_71\n      jump\t// in\n    tag_101:\n        /* \"#utility.yul\":2649:2788   */\n      swap1\n      pop\n        /* \"#utility.yul\":2376:2795   */\n      swap2\n      swap1\n      pop\n      jump\t// out\n        /* \"#utility.yul\":2801:2981   */\n    tag_19:\n        /* \"#utility.yul\":2849:2926   */\n      0x4e487b7100000000000000000000000000000000000000000000000000000000\n        /* \"#utility.yul\":2846:2847   */\n      0x00\n        /* \"#utility.yul\":2839:2927   */\n      mstore\n        /* \"#utility.yul\":2946:2950   */\n      0x32\n        /* \"#utility.yul\":2943:2944   */\n      0x04\n        /* \"#utility.yul\":2936:2951   */\n      mstore\n        /* \"#utility.yul\":2970:2974   */\n      0x24\n        /* \"#utility.yul\":2967:2968   */\n      0x00\n        /* \"#utility.yul\":2960:2975   */\n      revert\n        /* \"#utility.yul\":2987:3163   */\n    tag_72:\n        /* \"#utility.yul\":3127:3155   */\n      0x436f6c756d6e20696e646578206f7574206f6620626f756e6473000000000000\n        /* \"#utility.yul\":3123:3124   */\n      0x00\n        /* \"#utility.yul\":3115:3121   */\n      dup3\n        /* \"#utility.yul\":3111:3125   */\n      add\n        /* \"#utility.yul\":3104:3156   */\n      mstore\n        /* \"#utility.yul\":2987:3163   */\n      pop\n      jump\t// out\n        /* \"#utility.yul\":3169:3535   */\n    tag_73:\n        /* \"#utility.yul\":3311:3314   */\n      0x00\n        /* \"#utility.yul\":3332:3399   */\n      tag_105\n        /* \"#utility.yul\":3396:3398   */\n      0x1a\n        /* \"#utility.yul\":3391:3394   */\n      dup4\n        /* \"#utility.yul\":3332:3399   */\n      tag_69\n      jump\t// in\n    tag_105:\n        /* \"#utility.yul\":3325:3399   */\n      swap2\n      pop\n        /* \"#utility.yul\":3408:3501   */\n      tag_106\n        /* \"#utility.yul\":3497:3500   */\n      dup3\n        /* \"#utility.yul\":3408:3501   */\n      tag_72\n      jump\t// in\n    tag_106:\n        /* \"#utility.yul\":3526:3528   */\n      0x20\n        /* \"#utility.yul\":3521:3524   */\n      dup3\n        /* \"#utility.yul\":3517:3529   */\n      add\n        /* \"#utility.yul\":3510:3529   */\n      swap1\n      pop\n        /* \"#utility.yul\":3169:3535   */\n      swap2\n      swap1\n      pop\n      jump\t// out\n        /* \"#utility.yul\":3541:3960   */\n    tag_23:\n        /* \"#utility.yul\":3707:3711   */\n      0x00\n        /* \"#utility.yul\":3745:3747   */\n      0x20\n        /* \"#utility.yul\":3734:3743   */\n      dup3\n        /* \"#utility.yul\":3730:3748   */\n      add\n        /* \"#utility.yul\":3722:3748   */\n      swap1\n      pop\n        /* \"#utility.yul\":3794:3803   */\n      dup2\n        /* \"#utility.yul\":3788:3792   */\n      dup2\n        /* \"#utility.yul\":3784:3804   */\n      sub\n        /* \"#utility.yul\":3780:3781   */\n      0x00\n        /* \"#utility.yul\":3769:3778   */\n      dup4\n        /* \"#utility.yul\":3765:3782   */\n      add\n        /* \"#utility.yul\":3758:3805   */\n      mstore\n        /* \"#utility.yul\":3822:3953   */\n      tag_108\n        /* \"#utility.yul\":3948:3952   */\n      dup2\n        /* \"#utility.yul\":3822:3953   */\n      tag_73\n      jump\t// in\n    tag_108:\n        /* \"#utility.yul\":3814:3953   */\n      swap1\n      pop\n        /* \"#utility.yul\":3541:3960   */\n      swap2\n      swap1\n      pop\n      jump\t// out\n        /* \"#utility.yul\":3966:4146   */\n    tag_74:\n        /* \"#utility.yul\":4014:4091   */\n      0x4e487b7100000000000000000000000000000000000000000000000000000000\n        /* \"#utility.yul\":4011:4012   */\n      0x00\n        /* \"#utility.yul\":4004:4092   */\n      mstore\n        /* \"#utility.yul\":4111:4115   */\n      0x11\n        /* \"#utility.yul\":4108:4109   */\n      0x04\n        /* \"#utility.yul\":4101:4116   */\n      mstore\n        /* \"#utility.yul\":4135:4139   */\n      0x24\n        /* \"#utility.yul\":4132:4133   */\n      0x00\n        /* \"#utility.yul\":4125:4140   */\n      revert\n        /* \"#utility.yul\":4152:4346   */\n    tag_37:\n        /* \"#utility.yul\":4192:4196   */\n      0x00\n        /* \"#utility.yul\":4212:4232   */\n      tag_111\n        /* \"#utility.yul\":4230:4231   */\n      dup3\n        /* \"#utility.yul\":4212:4232   */\n      tag_66\n      jump\t// in\n    tag_111:\n        /* \"#utility.yul\":4207:4232   */\n      swap2\n      pop\n        /* \"#utility.yul\":4246:4266   */\n      tag_112\n        /* \"#utility.yul\":4264:4265   */\n      dup4\n        /* \"#utility.yul\":4246:4266   */\n      tag_66\n      jump\t// in\n    tag_112:\n        /* \"#utility.yul\":4241:4266   */\n      swap3\n      pop\n        /* \"#utility.yul\":4290:4291   */\n      dup3\n        /* \"#utility.yul\":4287:4288   */\n      dup3\n        /* \"#utility.yul\":4283:4292   */\n      sub\n        /* \"#utility.yul\":4275:4292   */\n      swap1\n      pop\n        /* \"#utility.yul\":4314:4315   */\n      dup2\n        /* \"#utility.yul\":4308:4312   */\n      dup2\n        /* \"#utility.yul\":4305:4316   */\n      gt\n        /* \"#utility.yul\":4302:4339   */\n      iszero\n      tag_113\n      jumpi\n        /* \"#utility.yul\":4319:4337   */\n      tag_114\n      tag_74\n      jump\t// in\n    tag_114:\n        /* \"#utility.yul\":4302:4339   */\n    tag_113:\n        /* \"#utility.yul\":4152:4346   */\n      swap3\n      swap2\n      pop\n      pop\n      jump\t// out\n        /* \"#utility.yul\":4352:4543   */\n    tag_39:\n        /* \"#utility.yul\":4392:4395   */\n      0x00\n        /* \"#utility.yul\":4411:4431   */\n      tag_116\n        /* \"#utility.yul\":4429:4430   */\n      dup3\n        /* \"#utility.yul\":4411:4431   */\n      tag_66\n      jump\t// in\n    tag_116:\n        /* \"#utility.yul\":4406:4431   */\n      swap2\n      pop\n        /* \"#utility.yul\":4445:4465   */\n      tag_117\n        /* \"#utility.yul\":4463:4464   */\n      dup4\n        /* \"#utility.yul\":4445:4465   */\n      tag_66\n      jump\t// in\n    tag_117:\n        /* \"#utility.yul\":4440:4465   */\n      swap3\n      pop\n        /* \"#utility.yul\":4488:4489   */\n      dup3\n        /* \"#utility.yul\":4485:4486   */\n      dup3\n        /* \"#utility.yul\":4481:4490   */\n      add\n        /* \"#utility.yul\":4474:4490   */\n      swap1\n      pop\n        /* \"#utility.yul\":4509:4512   */\n      dup1\n        /* \"#utility.yul\":4506:4507   */\n      dup3\n        /* \"#utility.yul\":4503:4513   */\n      gt\n        /* \"#utility.yul\":4500:4536   */\n      iszero\n      tag_118\n      jumpi\n        /* \"#utility.yul\":4516:4534   */\n      tag_119\n      tag_74\n      jump\t// in\n    tag_119:\n        /* \"#utility.yul\":4500:4536   */\n    tag_118:\n        /* \"#utility.yul\":4352:4543   */\n      swap3\n      swap2\n      pop\n      pop\n      jump\t// out\n        /* \"#utility.yul\":4549:4729   */\n    tag_50:\n        /* \"#utility.yul\":4597:4674   */\n      0x4e487b7100000000000000000000000000000000000000000000000000000000\n        /* \"#utility.yul\":4594:4595   */\n      0x00\n        /* \"#utility.yul\":4587:4675   */\n      mstore\n        /* \"#utility.yul\":4694:4698   */\n      0x31\n        /* \"#utility.yul\":4691:4692   */\n      0x04\n        /* \"#utility.yul\":4684:4699   */\n      mstore\n        /* \"#utility.yul\":4718:4722   */\n      0x24\n        /* \"#utility.yul\":4715:4716   */\n      0x00\n        /* \"#utility.yul\":4708:4723   */\n      revert\n\n    auxdata: 0xa2646970667358221220af25a2439e0893e3cb65152a20c5b5a439feac63de8dcd61b67fece7f8e530b764736f6c634300081a0033\n}\n",
				"bytecode": {
					"linkReferences": {},
					"object": "6080604052348015600e575f80fd5b506105828061001c5f395ff3fe608060405234801561000f575f80fd5b5060043610610034575f3560e01c80634243938b14610038578063ce947ce214610054575b5f80fd5b610052600480360381019061004d9190610304565b610070565b005b61006e60048036038101906100699190610354565b610155565b005b5f8054905083106100b6576040517f08c379a00000000000000000000000000000000000000000000000000000000081526004016100ad906103d9565b60405180910390fd5b5f83815481106100c9576100c86103f7565b5b905f5260205f2001805490508210610116576040517f08c379a000000000000000000000000000000000000000000000000000000000815260040161010d9061046e565b60405180910390fd5b805f848154811061012a576101296103f7565b5b905f5260205f20018381548110610144576101436103f7565b5b905f5260205f200181905550505050565b5f80549050811061019b576040517f08c379a0000000000000000000000000000000000000000000000000000000008152600401610192906103d9565b60405180910390fd5b5f8190505b60015f805490506101b191906104b9565b811015610216575f6001826101c691906104ec565b815481106101d7576101d66103f7565b5b905f5260205f20015f82815481106101f2576101f16103f7565b5b905f5260205f2001908054610208929190610246565b5080806001019150506101a0565b505f8054806102285761022761051f565b5b600190038181905f5260205f20015f6102419190610294565b905550565b828054828255905f5260205f20908101928215610283575f5260205f209182015b82811115610282578254825591600101919060010190610267565b5b50905061029091906102b2565b5090565b5080545f8255905f5260205f20908101906102af91906102b2565b50565b5b808211156102c9575f815f9055506001016102b3565b5090565b5f80fd5b5f819050919050565b6102e3816102d1565b81146102ed575f80fd5b50565b5f813590506102fe816102da565b92915050565b5f805f6060848603121561031b5761031a6102cd565b5b5f610328868287016102f0565b9350506020610339868287016102f0565b925050604061034a868287016102f0565b9150509250925092565b5f60208284031215610369576103686102cd565b5b5f610376848285016102f0565b91505092915050565b5f82825260208201905092915050565b7f526f7720696e646578206f7574206f6620626f756e64730000000000000000005f82015250565b5f6103c360178361037f565b91506103ce8261038f565b602082019050919050565b5f6020820190508181035f8301526103f0816103b7565b9050919050565b7f4e487b71000000000000000000000000000000000000000000000000000000005f52603260045260245ffd5b7f436f6c756d6e20696e646578206f7574206f6620626f756e64730000000000005f82015250565b5f610458601a8361037f565b915061046382610424565b602082019050919050565b5f6020820190508181035f8301526104858161044c565b9050919050565b7f4e487b71000000000000000000000000000000000000000000000000000000005f52601160045260245ffd5b5f6104c3826102d1565b91506104ce836102d1565b92508282039050818111156104e6576104e561048c565b5b92915050565b5f6104f6826102d1565b9150610501836102d1565b92508282019050808211156105195761051861048c565b5b92915050565b7f4e487b71000000000000000000000000000000000000000000000000000000005f52603160045260245ffdfea2646970667358221220af25a2439e0893e3cb65152a20c5b5a439feac63de8dcd61b67fece7f8e530b764736f6c634300081a0033",
					"opcodes": "PUSH1 0x80 PUSH1 0x40 MSTORE CALLVALUE DUP1 ISZERO PUSH1 0xE JUMPI PUSH0 DUP1 REVERT JUMPDEST POP PUSH2 0x582 DUP1 PUSH2 0x1C PUSH0 CODECOPY PUSH0 RETURN INVALID PUSH1 0x80 PUSH1 0x40 MSTORE CALLVALUE DUP1 ISZERO PUSH2 0xF JUMPI PUSH0 DUP1 REVERT JUMPDEST POP PUSH1 0x4 CALLDATASIZE LT PUSH2 0x34 JUMPI PUSH0 CALLDATALOAD PUSH1 0xE0 SHR DUP1 PUSH4 0x4243938B EQ PUSH2 0x38 JUMPI DUP1 PUSH4 0xCE947CE2 EQ PUSH2 0x54 JUMPI JUMPDEST PUSH0 DUP1 REVERT JUMPDEST PUSH2 0x52 PUSH1 0x4 DUP1 CALLDATASIZE SUB DUP2 ADD SWAP1 PUSH2 0x4D SWAP2 SWAP1 PUSH2 0x304 JUMP JUMPDEST PUSH2 0x70 JUMP JUMPDEST STOP JUMPDEST PUSH2 0x6E PUSH1 0x4 DUP1 CALLDATASIZE SUB DUP2 ADD SWAP1 PUSH2 0x69 SWAP2 SWAP1 PUSH2 0x354 JUMP JUMPDEST PUSH2 0x155 JUMP JUMPDEST STOP JUMPDEST PUSH0 DUP1 SLOAD SWAP1 POP DUP4 LT PUSH2 0xB6 JUMPI PUSH1 0x40 MLOAD PUSH32 0x8C379A000000000000000000000000000000000000000000000000000000000 DUP2 MSTORE PUSH1 0x4 ADD PUSH2 0xAD SWAP1 PUSH2 0x3D9 JUMP JUMPDEST PUSH1 0x40 MLOAD DUP1 SWAP2 SUB SWAP1 REVERT JUMPDEST PUSH0 DUP4 DUP2 SLOAD DUP2 LT PUSH2 0xC9 JUMPI PUSH2 0xC8 PUSH2 0x3F7 JUMP JUMPDEST JUMPDEST SWAP1 PUSH0 MSTORE PUSH1 0x20 PUSH0 KECCAK256 ADD DUP1 SLOAD SWAP1 POP DUP3 LT PUSH2 0x116 JUMPI PUSH1 0x40 MLOAD PUSH32 0x8C379A000000000000000000000000000000000000000000000000000000000 DUP2 MSTORE PUSH1 0x4 ADD PUSH2 0x10D SWAP1 PUSH2 0x46E JUMP JUMPDEST PUSH1 0x40 MLOAD DUP1 SWAP2 SUB SWAP1 REVERT JUMPDEST DUP1 PUSH0 DUP5 DUP2 SLOAD DUP2 LT PUSH2 0x12A JUMPI PUSH2 0x129 PUSH2 0x3F7 JUMP JUMPDEST JUMPDEST SWAP1 PUSH0 MSTORE PUSH1 0x20 PUSH0 KECCAK256 ADD DUP4 DUP2 SLOAD DUP2 LT PUSH2 0x144 JUMPI PUSH2 0x143 PUSH2 0x3F7 JUMP JUMPDEST JUMPDEST SWAP1 PUSH0 MSTORE PUSH1 0x20 PUSH0 KECCAK256 ADD DUP2 SWAP1 SSTORE POP POP POP POP JUMP JUMPDEST PUSH0 DUP1 SLOAD SWAP1 POP DUP2 LT PUSH2 0x19B JUMPI PUSH1 0x40 MLOAD PUSH32 0x8C379A000000000000000000000000000000000000000000000000000000000 DUP2 MSTORE PUSH1 0x4 ADD PUSH2 0x192 SWAP1 PUSH2 0x3D9 JUMP JUMPDEST PUSH1 0x40 MLOAD DUP1 SWAP2 SUB SWAP1 REVERT JUMPDEST PUSH0 DUP2 SWAP1 POP JUMPDEST PUSH1 0x1 PUSH0 DUP1 SLOAD SWAP1 POP PUSH2 0x1B1 SWAP2 SWAP1 PUSH2 0x4B9 JUMP JUMPDEST DUP2 LT ISZERO PUSH2 0x216 JUMPI PUSH0 PUSH1 0x1 DUP3 PUSH2 0x1C6 SWAP2 SWAP1 PUSH2 0x4EC JUMP JUMPDEST DUP2 SLOAD DUP2 LT PUSH2 0x1D7 JUMPI PUSH2 0x1D6 PUSH2 0x3F7 JUMP JUMPDEST JUMPDEST SWAP1 PUSH0 MSTORE PUSH1 0x20 PUSH0 KECCAK256 ADD PUSH0 DUP3 DUP2 SLOAD DUP2 LT PUSH2 0x1F2 JUMPI PUSH2 0x1F1 PUSH2 0x3F7 JUMP JUMPDEST JUMPDEST SWAP1 PUSH0 MSTORE PUSH1 0x20 PUSH0 KECCAK256 ADD SWAP1 DUP1 SLOAD PUSH2 0x208 SWAP3 SWAP2 SWAP1 PUSH2 0x246 JUMP JUMPDEST POP DUP1 DUP1 PUSH1 0x1 ADD SWAP2 POP POP PUSH2 0x1A0 JUMP JUMPDEST POP PUSH0 DUP1 SLOAD DUP1 PUSH2 0x228 JUMPI PUSH2 0x227 PUSH2 0x51F JUMP JUMPDEST JUMPDEST PUSH1 0x1 SWAP1 SUB DUP2 DUP2 SWAP1 PUSH0 MSTORE PUSH1 0x20 PUSH0 KECCAK256 ADD PUSH0 PUSH2 0x241 SWAP2 SWAP1 PUSH2 0x294 JUMP JUMPDEST SWAP1 SSTORE POP JUMP JUMPDEST DUP3 DUP1 SLOAD DUP3 DUP3 SSTORE SWAP1 PUSH0 MSTORE PUSH1 0x20 PUSH0 KECCAK256 SWAP1 DUP2 ADD SWAP3 DUP3 ISZERO PUSH2 0x283 JUMPI PUSH0 MSTORE PUSH1 0x20 PUSH0 KECCAK256 SWAP2 DUP3 ADD JUMPDEST DUP3 DUP2 GT ISZERO PUSH2 0x282 JUMPI DUP3 SLOAD DUP3 SSTORE SWAP2 PUSH1 0x1 ADD SWAP2 SWAP1 PUSH1 0x1 ADD SWAP1 PUSH2 0x267 JUMP JUMPDEST JUMPDEST POP SWAP1 POP PUSH2 0x290 SWAP2 SWAP1 PUSH2 0x2B2 JUMP JUMPDEST POP SWAP1 JUMP JUMPDEST POP DUP1 SLOAD PUSH0 DUP3 SSTORE SWAP1 PUSH0 MSTORE PUSH1 0x20 PUSH0 KECCAK256 SWAP1 DUP2 ADD SWAP1 PUSH2 0x2AF SWAP2 SWAP1 PUSH2 0x2B2 JUMP JUMPDEST POP JUMP JUMPDEST JUMPDEST DUP1 DUP3 GT ISZERO PUSH2 0x2C9 JUMPI PUSH0 DUP2 PUSH0 SWAP1 SSTORE POP PUSH1 0x1 ADD PUSH2 0x2B3 JUMP JUMPDEST POP SWAP1 JUMP JUMPDEST PUSH0 DUP1 REVERT JUMPDEST PUSH0 DUP2 SWAP1 POP SWAP2 SWAP1 POP JUMP JUMPDEST PUSH2 0x2E3 DUP2 PUSH2 0x2D1 JUMP JUMPDEST DUP2 EQ PUSH2 0x2ED JUMPI PUSH0 DUP1 REVERT JUMPDEST POP JUMP JUMPDEST PUSH0 DUP2 CALLDATALOAD SWAP1 POP PUSH2 0x2FE DUP2 PUSH2 0x2DA JUMP JUMPDEST SWAP3 SWAP2 POP POP JUMP JUMPDEST PUSH0 DUP1 PUSH0 PUSH1 0x60 DUP5 DUP7 SUB SLT ISZERO PUSH2 0x31B JUMPI PUSH2 0x31A PUSH2 0x2CD JUMP JUMPDEST JUMPDEST PUSH0 PUSH2 0x328 DUP7 DUP3 DUP8 ADD PUSH2 0x2F0 JUMP JUMPDEST SWAP4 POP POP PUSH1 0x20 PUSH2 0x339 DUP7 DUP3 DUP8 ADD PUSH2 0x2F0 JUMP JUMPDEST SWAP3 POP POP PUSH1 0x40 PUSH2 0x34A DUP7 DUP3 DUP8 ADD PUSH2 0x2F0 JUMP JUMPDEST SWAP2 POP POP SWAP3 POP SWAP3 POP SWAP3 JUMP JUMPDEST PUSH0 PUSH1 0x20 DUP3 DUP5 SUB SLT ISZERO PUSH2 0x369 JUMPI PUSH2 0x368 PUSH2 0x2CD JUMP JUMPDEST JUMPDEST PUSH0 PUSH2 0x376 DUP5 DUP3 DUP6 ADD PUSH2 0x2F0 JUMP JUMPDEST SWAP2 POP POP SWAP3 SWAP2 POP POP JUMP JUMPDEST PUSH0 DUP3 DUP3 MSTORE PUSH1 0x20 DUP3 ADD SWAP1 POP SWAP3 SWAP2 POP POP JUMP JUMPDEST PUSH32 0x526F7720696E646578206F7574206F6620626F756E6473000000000000000000 PUSH0 DUP3 ADD MSTORE POP JUMP JUMPDEST PUSH0 PUSH2 0x3C3 PUSH1 0x17 DUP4 PUSH2 0x37F JUMP JUMPDEST SWAP2 POP PUSH2 0x3CE DUP3 PUSH2 0x38F JUMP JUMPDEST PUSH1 0x20 DUP3 ADD SWAP1 POP SWAP2 SWAP1 POP JUMP JUMPDEST PUSH0 PUSH1 0x20 DUP3 ADD SWAP1 POP DUP2 DUP2 SUB PUSH0 DUP4 ADD MSTORE PUSH2 0x3F0 DUP2 PUSH2 0x3B7 JUMP JUMPDEST SWAP1 POP SWAP2 SWAP1 POP JUMP JUMPDEST PUSH32 0x4E487B7100000000000000000000000000000000000000000000000000000000 PUSH0 MSTORE PUSH1 0x32 PUSH1 0x4 MSTORE PUSH1 0x24 PUSH0 REVERT JUMPDEST PUSH32 0x436F6C756D6E20696E646578206F7574206F6620626F756E6473000000000000 PUSH0 DUP3 ADD MSTORE POP JUMP JUMPDEST PUSH0 PUSH2 0x458 PUSH1 0x1A DUP4 PUSH2 0x37F JUMP JUMPDEST SWAP2 POP PUSH2 0x463 DUP3 PUSH2 0x424 JUMP JUMPDEST PUSH1 0x20 DUP3 ADD SWAP1 POP SWAP2 SWAP1 POP JUMP JUMPDEST PUSH0 PUSH1 0x20 DUP3 ADD SWAP1 POP DUP2 DUP2 SUB PUSH0 DUP4 ADD MSTORE PUSH2 0x485 DUP2 PUSH2 0x44C JUMP JUMPDEST SWAP1 POP SWAP2 SWAP1 POP JUMP JUMPDEST PUSH32 0x4E487B7100000000000000000000000000000000000000000000000000000000 PUSH0 MSTORE PUSH1 0x11 PUSH1 0x4 MSTORE PUSH1 0x24 PUSH0 REVERT JUMPDEST PUSH0 PUSH2 0x4C3 DUP3 PUSH2 0x2D1 JUMP JUMPDEST SWAP2 POP PUSH2 0x4CE DUP4 PUSH2 0x2D1 JUMP JUMPDEST SWAP3 POP DUP3 DUP3 SUB SWAP1 POP DUP2 DUP2 GT ISZERO PUSH2 0x4E6 JUMPI PUSH2 0x4E5 PUSH2 0x48C JUMP JUMPDEST JUMPDEST SWAP3 SWAP2 POP POP JUMP JUMPDEST PUSH0 PUSH2 0x4F6 DUP3 PUSH2 0x2D1 JUMP JUMPDEST SWAP2 POP PUSH2 0x501 DUP4 PUSH2 0x2D1 JUMP JUMPDEST SWAP3 POP DUP3 DUP3 ADD SWAP1 POP DUP1 DUP3 GT ISZERO PUSH2 0x519 JUMPI PUSH2 0x518 PUSH2 0x48C JUMP JUMPDEST JUMPDEST SWAP3 SWAP2 POP POP JUMP JUMPDEST PUSH32 0x4E487B7100000000000000000000000000000000000000000000000000000000 PUSH0 MSTORE PUSH1 0x31 PUSH1 0x4 MSTORE PUSH1 0x24 PUSH0 REVERT INVALID LOG2 PUSH5 0x6970667358 0x22 SLT KECCAK256 0xAF 0x25 LOG2 NUMBER SWAP15 ADDMOD SWAP4 0xE3 0xCB PUSH6 0x152A20C5B5A4 CODECOPY INVALID 0xAC PUSH4 0xDE8DCD61 0xB6 PUSH32 0xECE7F8E530B764736F6C634300081A0033000000000000000000000000000000 "
				},
				"gasEstimates": {
					"creation": {
						"codeDepositCost": "282000",
						"executionCost": "322",
						"totalCost": "282322"
					},
					"external": {
						"deleteRow(uint256)": "infinite",
						"updateElement(uint256,uint256,uint256)": "infinite"
					}
				},
				"methodIdentifiers": {
					"deleteRow(uint256)": "ce947ce2",
					"updateElement(uint256,uint256,uint256)": "4243938b"
				}
			},
			"storageLayout": {
				"storage": [
					{
						"astId": 78,
						"contract": "contracts/exp1_multidimArray.sol:MultiDimArrayModify",
						"label": "multiArray",
						"offset": 0,
						"slot": "0",
						"type": "t_array(t_array(t_uint256)dyn_storage)dyn_storage"
					}
				],
				"types": {
					"t_array(t_array(t_uint256)dyn_storage)dyn_storage": {
						"base": "t_array(t_uint256)dyn_storage",
						"encoding": "dynamic_array",
						"label": "uint256[][]",
						"numberOfBytes": "32"
					},
					"t_array(t_uint256)dyn_storage": {
						"base": "t_uint256",
						"encoding": "dynamic_array",
						"label": "uint256[]",
						"numberOfBytes": "32"
					},
					"t_uint256": {
						"encoding": "inplace",
						"label": "uint256",
						"numberOfBytes": "32"
					}
				}
			},
			"userdoc": {
				"kind": "user",
				"methods": {},
				"version": 1
			}
		}
	}
}