{
	"contracts/exp1_stackQueue.sol": {
		"StackQueue": {
			"abi": [
				{
					"inputs": [],
					"name": "dequeue",
					"outputs": [
						{
							"internalType": "uint256",
							"name": "",
							"type": "uint256"
						}
					],
					"stateMutability": "nonpayable",
					"type": "function"
				},
				{
					"inputs": [
						{
							"internalType": "uint256",
							"name": "_value",
							"type": "uint256"
						}
					],
					"name": "enqueue",
					"outputs": [],
					"stateMutability": "nonpayable",
					"type": "function"
				},
				{
					"inputs": [],
					"name": "pop",
					"outputs": [
						{
							"internalType": "uint256",
							"name": "",
							"type": "uint256"
						}
					],
					"stateMutability": "nonpayable",
					"type": "function"
				},
				{
					"inputs": [
						{
							"internalType": "uint256",
							"name": "x",
							"type": "uint256"
						}
					],
					"name": "push",
					"outputs": [],
					"stateMutability": "nonpayable",
					"type": "function"
				},
				{
					"inputs": [],
					"name": "queueFront",
					"outputs": [
						{
							"internalType": "uint256",
							"name": "",
							"type": "uint256"
						}
					],
					"stateMutability": "view",
					"type": "function"
				},
				{
					"inputs": [],
					"name": "queueSize",
					"outputs": [
						{
							"internalType": "uint256",
							"name": "",
							"type": "uint256"
						}
					],
					"stateMutability": "view",
					"type": "function"
				},
				{
					"inputs": [],
					"name": "stackSize",
					"outputs": [
						{
							"internalType": "uint256",
							"name": "",
							"type": "uint256"
						}
					],
					"stateMutability": "view",
					"type": "function"
				},
				{
					"inputs": [],
					"name": "top",
					"outputs": [
						{
							"internalType": "uint256",
							"name": "",
							"type": "uint256"
						}
					],
					"stateMutability": "view",
					"type": "function"
				}
			],
			"devdoc": {
				"custom:dev-run-script": "./scripts/deploy_with_ethers.ts",
				"details": "Store & retrieve value in a variable",
				"kind": "dev",
				"methods": {},
				"title": "Storage",
				"version": 1
			},
			"evm": {
				"assembly": "    /* \"contracts/exp1_stackQueue.sol\":208:1331  contract StackQueue {... */\n  mstore(0x40, 0x80)\n  callvalue\n  dup1\n  iszero\n  tag_1\n  jumpi\n  0x00\n  dup1\n  revert\ntag_1:\n  pop\n  dataSize(sub_0)\n  dup1\n  dataOffset(sub_0)\n  0x00\n  codecopy\n  0x00\n  return\nstop\n\nsub_0: assembly {\n        /* \"contracts/exp1_stackQueue.sol\":208:1331  contract StackQueue {... */\n      mstore(0x40, 0x80)\n      callvalue\n      dup1\n      iszero\n      tag_1\n      jumpi\n      0x00\n      dup1\n      revert\n    tag_1:\n      pop\n      jumpi(tag_2, lt(calldatasize, 0x04))\n      shr(0xe0, calldataload(0x00))\n      dup1\n      0x9a4bea16\n      gt\n      tag_11\n      jumpi\n      dup1\n      0x9a4bea16\n      eq\n      tag_7\n      jumpi\n      dup1\n      0xa4ece52c\n      eq\n      tag_8\n      jumpi\n      dup1\n      0xbae6c2ad\n      eq\n      tag_9\n      jumpi\n      dup1\n      0xfe6dcdba\n      eq\n      tag_10\n      jumpi\n      jump(tag_2)\n    tag_11:\n      dup1\n      0x1ffc735d\n      eq\n      tag_3\n      jumpi\n      dup1\n      0x60dde4c2\n      eq\n      tag_4\n      jumpi\n      dup1\n      0x957908d1\n      eq\n      tag_5\n      jumpi\n      dup1\n      0x959ac484\n      eq\n      tag_6\n      jumpi\n    tag_2:\n      0x00\n      dup1\n      revert\n        /* \"contracts/exp1_stackQueue.sol\":777:851  function enqueue(uint _value) public {... */\n    tag_3:\n      tag_12\n      0x04\n      dup1\n      calldatasize\n      sub\n      dup2\n      add\n      swap1\n      tag_13\n      swap2\n      swap1\n      tag_14\n      jump\t// in\n    tag_13:\n      tag_15\n      jump\t// in\n    tag_12:\n      stop\n        /* \"contracts/exp1_stackQueue.sol\":1066:1221  function queueFront() public view returns (uint) {... */\n    tag_4:\n      tag_16\n      tag_17\n      jump\t// in\n    tag_16:\n      mload(0x40)\n      tag_18\n      swap2\n      swap1\n      tag_19\n      jump\t// in\n    tag_18:\n      mload(0x40)\n      dup1\n      swap2\n      sub\n      swap1\n      return\n        /* \"contracts/exp1_stackQueue.sol\":859:1058  function dequeue() public returns (uint) {... */\n    tag_5:\n      tag_20\n      tag_21\n      jump\t// in\n    tag_20:\n      mload(0x40)\n      tag_22\n      swap2\n      swap1\n      tag_19\n      jump\t// in\n    tag_22:\n      mload(0x40)\n      dup1\n      swap2\n      sub\n      swap1\n      return\n        /* \"contracts/exp1_stackQueue.sol\":264:325  function push(uint x) public {... */\n    tag_6:\n      tag_23\n      0x04\n      dup1\n      calldatasize\n      sub\n      dup2\n      add\n      swap1\n      tag_24\n      swap2\n      swap1\n      tag_14\n      jump\t// in\n    tag_24:\n      tag_25\n      jump\t// in\n    tag_23:\n      stop\n        /* \"contracts/exp1_stackQueue.sol\":632:711  function stackSize() public view returns(uint){... */\n    tag_7:\n      tag_26\n      tag_27\n      jump\t// in\n    tag_26:\n      mload(0x40)\n      tag_28\n      swap2\n      swap1\n      tag_19\n      jump\t// in\n    tag_28:\n      mload(0x40)\n      dup1\n      swap2\n      sub\n      swap1\n      return\n        /* \"contracts/exp1_stackQueue.sol\":330:492  function pop() public returns (uint){... */\n    tag_8:\n      tag_29\n      tag_30\n      jump\t// in\n    tag_29:\n      mload(0x40)\n      tag_31\n      swap2\n      swap1\n      tag_19\n      jump\t// in\n    tag_31:\n      mload(0x40)\n      dup1\n      swap2\n      sub\n      swap1\n      return\n        /* \"contracts/exp1_stackQueue.sol\":1229:1328  function queueSize() public view returns (uint) {... */\n    tag_9:\n      tag_32\n      tag_33\n      jump\t// in\n    tag_32:\n      mload(0x40)\n      tag_34\n      swap2\n      swap1\n      tag_19\n      jump\t// in\n    tag_34:\n      mload(0x40)\n      dup1\n      swap2\n      sub\n      swap1\n      return\n        /* \"contracts/exp1_stackQueue.sol\":497:627  function top() public view returns (uint){... */\n    tag_10:\n      tag_35\n      tag_36\n      jump\t// in\n    tag_35:\n      mload(0x40)\n      tag_37\n      swap2\n      swap1\n      tag_19\n      jump\t// in\n    tag_37:\n      mload(0x40)\n      dup1\n      swap2\n      sub\n      swap1\n      return\n        /* \"contracts/exp1_stackQueue.sol\":777:851  function enqueue(uint _value) public {... */\n    tag_15:\n        /* \"contracts/exp1_stackQueue.sol\":825:830  queue */\n      0x01\n        /* \"contracts/exp1_stackQueue.sol\":836:842  _value */\n      dup2\n        /* \"contracts/exp1_stackQueue.sol\":825:843  queue.push(_value) */\n      swap1\n      dup1\n      0x01\n      dup2\n      sload\n      add\n      dup1\n      dup3\n      sstore\n      dup1\n      swap2\n      pop\n      pop\n      0x01\n      swap1\n      sub\n      swap1\n      0x00\n      mstore\n      keccak256(0x00, 0x20)\n      add\n      0x00\n      swap1\n      swap2\n      swap1\n      swap2\n      swap1\n      swap2\n      pop\n      sstore\n        /* \"contracts/exp1_stackQueue.sol\":777:851  function enqueue(uint _value) public {... */\n      pop\n      jump\t// out\n        /* \"contracts/exp1_stackQueue.sol\":1066:1221  function queueFront() public view returns (uint) {... */\n    tag_17:\n        /* \"contracts/exp1_stackQueue.sol\":1109:1113  uint */\n      0x00\n        /* \"contracts/exp1_stackQueue.sol\":1149:1159  frontIndex */\n      sload(0x02)\n        /* \"contracts/exp1_stackQueue.sol\":1134:1139  queue */\n      0x01\n        /* \"contracts/exp1_stackQueue.sol\":1134:1146  queue.length */\n      dup1\n      sload\n      swap1\n      pop\n        /* \"contracts/exp1_stackQueue.sol\":1134:1159  queue.length > frontIndex */\n      gt\n        /* \"contracts/exp1_stackQueue.sol\":1126:1178  require(queue.length > frontIndex, \"Queue is empty\") */\n      tag_41\n      jumpi\n      mload(0x40)\n      0x08c379a000000000000000000000000000000000000000000000000000000000\n      dup2\n      mstore\n      0x04\n      add\n      tag_42\n      swap1\n      tag_43\n      jump\t// in\n    tag_42:\n      mload(0x40)\n      dup1\n      swap2\n      sub\n      swap1\n      revert\n    tag_41:\n        /* \"contracts/exp1_stackQueue.sol\":1196:1201  queue */\n      0x01\n        /* \"contracts/exp1_stackQueue.sol\":1202:1212  frontIndex */\n      sload(0x02)\n        /* \"contracts/exp1_stackQueue.sol\":1196:1213  queue[frontIndex] */\n      dup2\n      sload\n      dup2\n      lt\n      tag_44\n      jumpi\n      tag_45\n      tag_46\n      jump\t// in\n    tag_45:\n    tag_44:\n      swap1\n      0x00\n      mstore\n      keccak256(0x00, 0x20)\n      add\n      sload\n        /* \"contracts/exp1_stackQueue.sol\":1189:1213  return queue[frontIndex] */\n      swap1\n      pop\n        /* \"contracts/exp1_stackQueue.sol\":1066:1221  function queueFront() public view returns (uint) {... */\n      swap1\n      jump\t// out\n        /* \"contracts/exp1_stackQueue.sol\":859:1058  function dequeue() public returns (uint) {... */\n    tag_21:\n        /* \"contracts/exp1_stackQueue.sol\":894:898  uint */\n      0x00\n        /* \"contracts/exp1_stackQueue.sol\":934:944  frontIndex */\n      sload(0x02)\n        /* \"contracts/exp1_stackQueue.sol\":919:924  queue */\n      0x01\n        /* \"contracts/exp1_stackQueue.sol\":919:931  queue.length */\n      dup1\n      sload\n      swap1\n      pop\n        /* \"contracts/exp1_stackQueue.sol\":919:944  queue.length > frontIndex */\n      gt\n        /* \"contracts/exp1_stackQueue.sol\":911:963  require(queue.length > frontIndex, \"Queue is empty\") */\n      tag_49\n      jumpi\n      mload(0x40)\n      0x08c379a000000000000000000000000000000000000000000000000000000000\n      dup2\n      mstore\n      0x04\n      add\n      tag_50\n      swap1\n      tag_43\n      jump\t// in\n    tag_50:\n      mload(0x40)\n      dup1\n      swap2\n      sub\n      swap1\n      revert\n    tag_49:\n        /* \"contracts/exp1_stackQueue.sol\":974:984  uint value */\n      0x00\n        /* \"contracts/exp1_stackQueue.sol\":987:992  queue */\n      0x01\n        /* \"contracts/exp1_stackQueue.sol\":993:1003  frontIndex */\n      sload(0x02)\n        /* \"contracts/exp1_stackQueue.sol\":987:1004  queue[frontIndex] */\n      dup2\n      sload\n      dup2\n      lt\n      tag_51\n      jumpi\n      tag_52\n      tag_46\n      jump\t// in\n    tag_52:\n    tag_51:\n      swap1\n      0x00\n      mstore\n      keccak256(0x00, 0x20)\n      add\n      sload\n        /* \"contracts/exp1_stackQueue.sol\":974:1004  uint value = queue[frontIndex] */\n      swap1\n      pop\n        /* \"contracts/exp1_stackQueue.sol\":1015:1025  frontIndex */\n      0x02\n      0x00\n        /* \"contracts/exp1_stackQueue.sol\":1015:1027  frontIndex++ */\n      dup2\n      sload\n      dup1\n      swap3\n      swap2\n      swap1\n      tag_54\n      swap1\n      tag_55\n      jump\t// in\n    tag_54:\n      swap2\n      swap1\n      pop\n      sstore\n      pop\n        /* \"contracts/exp1_stackQueue.sol\":1045:1050  value */\n      dup1\n        /* \"contracts/exp1_stackQueue.sol\":1038:1050  return value */\n      swap2\n      pop\n      pop\n        /* \"contracts/exp1_stackQueue.sol\":859:1058  function dequeue() public returns (uint) {... */\n      swap1\n      jump\t// out\n        /* \"contracts/exp1_stackQueue.sol\":264:325  function push(uint x) public {... */\n    tag_25:\n        /* \"contracts/exp1_stackQueue.sol\":304:309  stack */\n      0x00\n        /* \"contracts/exp1_stackQueue.sol\":315:316  x */\n      dup2\n        /* \"contracts/exp1_stackQueue.sol\":304:317  stack.push(x) */\n      swap1\n      dup1\n      0x01\n      dup2\n      sload\n      add\n      dup1\n      dup3\n      sstore\n      dup1\n      swap2\n      pop\n      pop\n      0x01\n      swap1\n      sub\n      swap1\n      0x00\n      mstore\n      keccak256(0x00, 0x20)\n      add\n      0x00\n      swap1\n      swap2\n      swap1\n      swap2\n      swap1\n      swap2\n      pop\n      sstore\n        /* \"contracts/exp1_stackQueue.sol\":264:325  function push(uint x) public {... */\n      pop\n      jump\t// out\n        /* \"contracts/exp1_stackQueue.sol\":632:711  function stackSize() public view returns(uint){... */\n    tag_27:\n        /* \"contracts/exp1_stackQueue.sol\":673:677  uint */\n      0x00\n        /* \"contracts/exp1_stackQueue.sol\":692:697  stack */\n      dup1\n        /* \"contracts/exp1_stackQueue.sol\":692:704  stack.length */\n      dup1\n      sload\n      swap1\n      pop\n        /* \"contracts/exp1_stackQueue.sol\":685:704  return stack.length */\n      swap1\n      pop\n        /* \"contracts/exp1_stackQueue.sol\":632:711  function stackSize() public view returns(uint){... */\n      swap1\n      jump\t// out\n        /* \"contracts/exp1_stackQueue.sol\":330:492  function pop() public returns (uint){... */\n    tag_30:\n        /* \"contracts/exp1_stackQueue.sol\":361:365  uint */\n      0x00\n        /* \"contracts/exp1_stackQueue.sol\":394:395  0 */\n      dup1\n        /* \"contracts/exp1_stackQueue.sol\":381:386  stack */\n      0x00\n        /* \"contracts/exp1_stackQueue.sol\":381:393  stack.length */\n      dup1\n      sload\n      swap1\n      pop\n        /* \"contracts/exp1_stackQueue.sol\":381:395  stack.length>0 */\n      gt\n        /* \"contracts/exp1_stackQueue.sol\":373:415  require(stack.length>0 , \"stack is empty\") */\n      tag_60\n      jumpi\n      mload(0x40)\n      0x08c379a000000000000000000000000000000000000000000000000000000000\n      dup2\n      mstore\n      0x04\n      add\n      tag_61\n      swap1\n      tag_62\n      jump\t// in\n    tag_61:\n      mload(0x40)\n      dup1\n      swap2\n      sub\n      swap1\n      revert\n    tag_60:\n        /* \"contracts/exp1_stackQueue.sol\":422:428  uint x */\n      0x00\n        /* \"contracts/exp1_stackQueue.sol\":431:436  stack */\n      dup1\n        /* \"contracts/exp1_stackQueue.sol\":450:451  1 */\n      0x01\n        /* \"contracts/exp1_stackQueue.sol\":437:442  stack */\n      0x00\n        /* \"contracts/exp1_stackQueue.sol\":437:449  stack.length */\n      dup1\n      sload\n      swap1\n      pop\n        /* \"contracts/exp1_stackQueue.sol\":437:451  stack.length-1 */\n      tag_63\n      swap2\n      swap1\n      tag_64\n      jump\t// in\n    tag_63:\n        /* \"contracts/exp1_stackQueue.sol\":431:452  stack[stack.length-1] */\n      dup2\n      sload\n      dup2\n      lt\n      tag_65\n      jumpi\n      tag_66\n      tag_46\n      jump\t// in\n    tag_66:\n    tag_65:\n      swap1\n      0x00\n      mstore\n      keccak256(0x00, 0x20)\n      add\n      sload\n        /* \"contracts/exp1_stackQueue.sol\":422:452  uint x = stack[stack.length-1] */\n      swap1\n      pop\n        /* \"contracts/exp1_stackQueue.sol\":459:464  stack */\n      0x00\n        /* \"contracts/exp1_stackQueue.sol\":459:470  stack.pop() */\n      dup1\n      sload\n      dup1\n      tag_68\n      jumpi\n      tag_69\n      tag_70\n      jump\t// in\n    tag_69:\n    tag_68:\n      0x01\n      swap1\n      sub\n      dup2\n      dup2\n      swap1\n      0x00\n      mstore\n      keccak256(0x00, 0x20)\n      add\n      0x00\n      swap1\n      sstore\n      swap1\n      sstore\n        /* \"contracts/exp1_stackQueue.sol\":484:485  x */\n      dup1\n        /* \"contracts/exp1_stackQueue.sol\":477:485  return x */\n      swap2\n      pop\n      pop\n        /* \"contracts/exp1_stackQueue.sol\":330:492  function pop() public returns (uint){... */\n      swap1\n      jump\t// out\n        /* \"contracts/exp1_stackQueue.sol\":1229:1328  function queueSize() public view returns (uint) {... */\n    tag_33:\n        /* \"contracts/exp1_stackQueue.sol\":1271:1275  uint */\n      0x00\n        /* \"contracts/exp1_stackQueue.sol\":1310:1320  frontIndex */\n      sload(0x02)\n        /* \"contracts/exp1_stackQueue.sol\":1295:1300  queue */\n      0x01\n        /* \"contracts/exp1_stackQueue.sol\":1295:1307  queue.length */\n      dup1\n      sload\n      swap1\n      pop\n        /* \"contracts/exp1_stackQueue.sol\":1295:1320  queue.length - frontIndex */\n      tag_73\n      swap2\n      swap1\n      tag_64\n      jump\t// in\n    tag_73:\n        /* \"contracts/exp1_stackQueue.sol\":1288:1320  return queue.length - frontIndex */\n      swap1\n      pop\n        /* \"contracts/exp1_stackQueue.sol\":1229:1328  function queueSize() public view returns (uint) {... */\n      swap1\n      jump\t// out\n        /* \"contracts/exp1_stackQueue.sol\":497:627  function top() public view returns (uint){... */\n    tag_36:\n        /* \"contracts/exp1_stackQueue.sol\":533:537  uint */\n      0x00\n        /* \"contracts/exp1_stackQueue.sol\":566:567  0 */\n      dup1\n        /* \"contracts/exp1_stackQueue.sol\":553:558  stack */\n      0x00\n        /* \"contracts/exp1_stackQueue.sol\":553:565  stack.length */\n      dup1\n      sload\n      swap1\n      pop\n        /* \"contracts/exp1_stackQueue.sol\":553:567  stack.length>0 */\n      gt\n        /* \"contracts/exp1_stackQueue.sol\":545:585  require(stack.length>0,\"stack is empty\") */\n      tag_75\n      jumpi\n      mload(0x40)\n      0x08c379a000000000000000000000000000000000000000000000000000000000\n      dup2\n      mstore\n      0x04\n      add\n      tag_76\n      swap1\n      tag_62\n      jump\t// in\n    tag_76:\n      mload(0x40)\n      dup1\n      swap2\n      sub\n      swap1\n      revert\n    tag_75:\n        /* \"contracts/exp1_stackQueue.sol\":599:604  stack */\n      0x00\n        /* \"contracts/exp1_stackQueue.sol\":618:619  1 */\n      0x01\n        /* \"contracts/exp1_stackQueue.sol\":605:610  stack */\n      0x00\n        /* \"contracts/exp1_stackQueue.sol\":605:617  stack.length */\n      dup1\n      sload\n      swap1\n      pop\n        /* \"contracts/exp1_stackQueue.sol\":605:619  stack.length-1 */\n      tag_77\n      swap2\n      swap1\n      tag_64\n      jump\t// in\n    tag_77:\n        /* \"contracts/exp1_stackQueue.sol\":599:620  stack[stack.length-1] */\n      dup2\n      sload\n      dup2\n      lt\n      tag_78\n      jumpi\n      tag_79\n      tag_46\n      jump\t// in\n    tag_79:\n    tag_78:\n      swap1\n      0x00\n      mstore\n      keccak256(0x00, 0x20)\n      add\n      sload\n        /* \"contracts/exp1_stackQueue.sol\":592:620  return stack[stack.length-1] */\n      swap1\n      pop\n        /* \"contracts/exp1_stackQueue.sol\":497:627  function top() public view returns (uint){... */\n      swap1\n      jump\t// out\n        /* \"#utility.yul\":88:205   */\n    tag_82:\n        /* \"#utility.yul\":197:198   */\n      0x00\n        /* \"#utility.yul\":194:195   */\n      dup1\n        /* \"#utility.yul\":187:199   */\n      revert\n        /* \"#utility.yul\":334:411   */\n    tag_84:\n        /* \"#utility.yul\":371:378   */\n      0x00\n        /* \"#utility.yul\":400:405   */\n      dup2\n        /* \"#utility.yul\":389:405   */\n      swap1\n      pop\n        /* \"#utility.yul\":334:411   */\n      swap2\n      swap1\n      pop\n      jump\t// out\n        /* \"#utility.yul\":417:539   */\n    tag_85:\n        /* \"#utility.yul\":490:514   */\n      tag_100\n        /* \"#utility.yul\":508:513   */\n      dup2\n        /* \"#utility.yul\":490:514   */\n      tag_84\n      jump\t// in\n    tag_100:\n        /* \"#utility.yul\":483:488   */\n      dup2\n        /* \"#utility.yul\":480:515   */\n      eq\n        /* \"#utility.yul\":470:533   */\n      tag_101\n      jumpi\n        /* \"#utility.yul\":529:530   */\n      0x00\n        /* \"#utility.yul\":526:527   */\n      dup1\n        /* \"#utility.yul\":519:531   */\n      revert\n        /* \"#utility.yul\":470:533   */\n    tag_101:\n        /* \"#utility.yul\":417:539   */\n      pop\n      jump\t// out\n        /* \"#utility.yul\":545:684   */\n    tag_86:\n        /* \"#utility.yul\":591:596   */\n      0x00\n        /* \"#utility.yul\":629:635   */\n      dup2\n        /* \"#utility.yul\":616:636   */\n      calldataload\n        /* \"#utility.yul\":607:636   */\n      swap1\n      pop\n        /* \"#utility.yul\":645:678   */\n      tag_103\n        /* \"#utility.yul\":672:677   */\n      dup2\n        /* \"#utility.yul\":645:678   */\n      tag_85\n      jump\t// in\n    tag_103:\n        /* \"#utility.yul\":545:684   */\n      swap3\n      swap2\n      pop\n      pop\n      jump\t// out\n        /* \"#utility.yul\":690:1019   */\n    tag_14:\n        /* \"#utility.yul\":749:755   */\n      0x00\n        /* \"#utility.yul\":798:800   */\n      0x20\n        /* \"#utility.yul\":786:795   */\n      dup3\n        /* \"#utility.yul\":777:784   */\n      dup5\n        /* \"#utility.yul\":773:796   */\n      sub\n        /* \"#utility.yul\":769:801   */\n      slt\n        /* \"#utility.yul\":766:885   */\n      iszero\n      tag_105\n      jumpi\n        /* \"#utility.yul\":804:883   */\n      tag_106\n      tag_82\n      jump\t// in\n    tag_106:\n        /* \"#utility.yul\":766:885   */\n    tag_105:\n        /* \"#utility.yul\":924:925   */\n      0x00\n        /* \"#utility.yul\":949:1002   */\n      tag_107\n        /* \"#utility.yul\":994:1001   */\n      dup5\n        /* \"#utility.yul\":985:991   */\n      dup3\n        /* \"#utility.yul\":974:983   */\n      dup6\n        /* \"#utility.yul\":970:992   */\n      add\n        /* \"#utility.yul\":949:1002   */\n      tag_86\n      jump\t// in\n    tag_107:\n        /* \"#utility.yul\":939:1002   */\n      swap2\n      pop\n        /* \"#utility.yul\":895:1012   */\n      pop\n        /* \"#utility.yul\":690:1019   */\n      swap3\n      swap2\n      pop\n      pop\n      jump\t// out\n        /* \"#utility.yul\":1025:1143   */\n    tag_87:\n        /* \"#utility.yul\":1112:1136   */\n      tag_109\n        /* \"#utility.yul\":1130:1135   */\n      dup2\n        /* \"#utility.yul\":1112:1136   */\n      tag_84\n      jump\t// in\n    tag_109:\n        /* \"#utility.yul\":1107:1110   */\n      dup3\n        /* \"#utility.yul\":1100:1137   */\n      mstore\n        /* \"#utility.yul\":1025:1143   */\n      pop\n      pop\n      jump\t// out\n        /* \"#utility.yul\":1149:1371   */\n    tag_19:\n        /* \"#utility.yul\":1242:1246   */\n      0x00\n        /* \"#utility.yul\":1280:1282   */\n      0x20\n        /* \"#utility.yul\":1269:1278   */\n      dup3\n        /* \"#utility.yul\":1265:1283   */\n      add\n        /* \"#utility.yul\":1257:1283   */\n      swap1\n      pop\n        /* \"#utility.yul\":1293:1364   */\n      tag_111\n        /* \"#utility.yul\":1361:1362   */\n      0x00\n        /* \"#utility.yul\":1350:1359   */\n      dup4\n        /* \"#utility.yul\":1346:1363   */\n      add\n        /* \"#utility.yul\":1337:1343   */\n      dup5\n        /* \"#utility.yul\":1293:1364   */\n      tag_87\n      jump\t// in\n    tag_111:\n        /* \"#utility.yul\":1149:1371   */\n      swap3\n      swap2\n      pop\n      pop\n      jump\t// out\n        /* \"#utility.yul\":1377:1546   */\n    tag_88:\n        /* \"#utility.yul\":1461:1472   */\n      0x00\n        /* \"#utility.yul\":1495:1501   */\n      dup3\n        /* \"#utility.yul\":1490:1493   */\n      dup3\n        /* \"#utility.yul\":1483:1502   */\n      mstore\n        /* \"#utility.yul\":1535:1539   */\n      0x20\n        /* \"#utility.yul\":1530:1533   */\n      dup3\n        /* \"#utility.yul\":1526:1540   */\n      add\n        /* \"#utility.yul\":1511:1540   */\n      swap1\n      pop\n        /* \"#utility.yul\":1377:1546   */\n      swap3\n      swap2\n      pop\n      pop\n      jump\t// out\n        /* \"#utility.yul\":1552:1716   */\n    tag_89:\n        /* \"#utility.yul\":1692:1708   */\n      0x517565756520697320656d707479000000000000000000000000000000000000\n        /* \"#utility.yul\":1688:1689   */\n      0x00\n        /* \"#utility.yul\":1680:1686   */\n      dup3\n        /* \"#utility.yul\":1676:1690   */\n      add\n        /* \"#utility.yul\":1669:1709   */\n      mstore\n        /* \"#utility.yul\":1552:1716   */\n      pop\n      jump\t// out\n        /* \"#utility.yul\":1722:2088   */\n    tag_90:\n        /* \"#utility.yul\":1864:1867   */\n      0x00\n        /* \"#utility.yul\":1885:1952   */\n      tag_115\n        /* \"#utility.yul\":1949:1951   */\n      0x0e\n        /* \"#utility.yul\":1944:1947   */\n      dup4\n        /* \"#utility.yul\":1885:1952   */\n      tag_88\n      jump\t// in\n    tag_115:\n        /* \"#utility.yul\":1878:1952   */\n      swap2\n      pop\n        /* \"#utility.yul\":1961:2054   */\n      tag_116\n        /* \"#utility.yul\":2050:2053   */\n      dup3\n        /* \"#utility.yul\":1961:2054   */\n      tag_89\n      jump\t// in\n    tag_116:\n        /* \"#utility.yul\":2079:2081   */\n      0x20\n        /* \"#utility.yul\":2074:2077   */\n      dup3\n        /* \"#utility.yul\":2070:2082   */\n      add\n        /* \"#utility.yul\":2063:2082   */\n      swap1\n      pop\n        /* \"#utility.yul\":1722:2088   */\n      swap2\n      swap1\n      pop\n      jump\t// out\n        /* \"#utility.yul\":2094:2513   */\n    tag_43:\n        /* \"#utility.yul\":2260:2264   */\n      0x00\n        /* \"#utility.yul\":2298:2300   */\n      0x20\n        /* \"#utility.yul\":2287:2296   */\n      dup3\n        /* \"#utility.yul\":2283:2301   */\n      add\n        /* \"#utility.yul\":2275:2301   */\n      swap1\n      pop\n        /* \"#utility.yul\":2347:2356   */\n      dup2\n        /* \"#utility.yul\":2341:2345   */\n      dup2\n        /* \"#utility.yul\":2337:2357   */\n      sub\n        /* \"#utility.yul\":2333:2334   */\n      0x00\n        /* \"#utility.yul\":2322:2331   */\n      dup4\n        /* \"#utility.yul\":2318:2335   */\n      add\n        /* \"#utility.yul\":2311:2358   */\n      mstore\n        /* \"#utility.yul\":2375:2506   */\n      tag_118\n        /* \"#utility.yul\":2501:2505   */\n      dup2\n        /* \"#utility.yul\":2375:2506   */\n      tag_90\n      jump\t// in\n    tag_118:\n        /* \"#utility.yul\":2367:2506   */\n      swap1\n      pop\n        /* \"#utility.yul\":2094:2513   */\n      swap2\n      swap1\n      pop\n      jump\t// out\n        /* \"#utility.yul\":2519:2699   */\n    tag_46:\n        /* \"#utility.yul\":2567:2644   */\n      0x4e487b7100000000000000000000000000000000000000000000000000000000\n        /* \"#utility.yul\":2564:2565   */\n      0x00\n        /* \"#utility.yul\":2557:2645   */\n      mstore\n        /* \"#utility.yul\":2664:2668   */\n      0x32\n        /* \"#utility.yul\":2661:2662   */\n      0x04\n        /* \"#utility.yul\":2654:2669   */\n      mstore\n        /* \"#utility.yul\":2688:2692   */\n      0x24\n        /* \"#utility.yul\":2685:2686   */\n      0x00\n        /* \"#utility.yul\":2678:2693   */\n      revert\n        /* \"#utility.yul\":2705:2885   */\n    tag_91:\n        /* \"#utility.yul\":2753:2830   */\n      0x4e487b7100000000000000000000000000000000000000000000000000000000\n        /* \"#utility.yul\":2750:2751   */\n      0x00\n        /* \"#utility.yul\":2743:2831   */\n      mstore\n        /* \"#utility.yul\":2850:2854   */\n      0x11\n        /* \"#utility.yul\":2847:2848   */\n      0x04\n        /* \"#utility.yul\":2840:2855   */\n      mstore\n        /* \"#utility.yul\":2874:2878   */\n      0x24\n        /* \"#utility.yul\":2871:2872   */\n      0x00\n        /* \"#utility.yul\":2864:2879   */\n      revert\n        /* \"#utility.yul\":2891:3124   */\n    tag_55:\n        /* \"#utility.yul\":2930:2933   */\n      0x00\n        /* \"#utility.yul\":2953:2977   */\n      tag_122\n        /* \"#utility.yul\":2971:2976   */\n      dup3\n        /* \"#utility.yul\":2953:2977   */\n      tag_84\n      jump\t// in\n    tag_122:\n        /* \"#utility.yul\":2944:2977   */\n      swap2\n      pop\n        /* \"#utility.yul\":2999:3065   */\n      0xffffffffffffffffffffffffffffffffffffffffffffffffffffffffffffffff\n        /* \"#utility.yul\":2992:2997   */\n      dup3\n        /* \"#utility.yul\":2989:3066   */\n      sub\n        /* \"#utility.yul\":2986:3089   */\n      tag_123\n      jumpi\n        /* \"#utility.yul\":3069:3087   */\n      tag_124\n      tag_91\n      jump\t// in\n    tag_124:\n        /* \"#utility.yul\":2986:3089   */\n    tag_123:\n        /* \"#utility.yul\":3116:3117   */\n      0x01\n        /* \"#utility.yul\":3109:3114   */\n      dup3\n        /* \"#utility.yul\":3105:3118   */\n      add\n        /* \"#utility.yul\":3098:3118   */\n      swap1\n      pop\n        /* \"#utility.yul\":2891:3124   */\n      swap2\n      swap1\n      pop\n      jump\t// out\n        /* \"#utility.yul\":3130:3294   */\n    tag_92:\n        /* \"#utility.yul\":3270:3286   */\n      0x737461636b20697320656d707479000000000000000000000000000000000000\n        /* \"#utility.yul\":3266:3267   */\n      0x00\n        /* \"#utility.yul\":3258:3264   */\n      dup3\n        /* \"#utility.yul\":3254:3268   */\n      add\n        /* \"#utility.yul\":3247:3287   */\n      mstore\n        /* \"#utility.yul\":3130:3294   */\n      pop\n      jump\t// out\n        /* \"#utility.yul\":3300:3666   */\n    tag_93:\n        /* \"#utility.yul\":3442:3445   */\n      0x00\n        /* \"#utility.yul\":3463:3530   */\n      tag_127\n        /* \"#utility.yul\":3527:3529   */\n      0x0e\n        /* \"#utility.yul\":3522:3525   */\n      dup4\n        /* \"#utility.yul\":3463:3530   */\n      tag_88\n      jump\t// in\n    tag_127:\n        /* \"#utility.yul\":3456:3530   */\n      swap2\n      pop\n        /* \"#utility.yul\":3539:3632   */\n      tag_128\n        /* \"#utility.yul\":3628:3631   */\n      dup3\n        /* \"#utility.yul\":3539:3632   */\n      tag_92\n      jump\t// in\n    tag_128:\n        /* \"#utility.yul\":3657:3659   */\n      0x20\n        /* \"#utility.yul\":3652:3655   */\n      dup3\n        /* \"#utility.yul\":3648:3660   */\n      add\n        /* \"#utility.yul\":3641:3660   */\n      swap1\n      pop\n        /* \"#utility.yul\":3300:3666   */\n      swap2\n      swap1\n      pop\n      jump\t// out\n        /* \"#utility.yul\":3672:4091   */\n    tag_62:\n        /* \"#utility.yul\":3838:3842   */\n      0x00\n        /* \"#utility.yul\":3876:3878   */\n      0x20\n        /* \"#utility.yul\":3865:3874   */\n      dup3\n        /* \"#utility.yul\":3861:3879   */\n      add\n        /* \"#utility.yul\":3853:3879   */\n      swap1\n      pop\n        /* \"#utility.yul\":3925:3934   */\n      dup2\n        /* \"#utility.yul\":3919:3923   */\n      dup2\n        /* \"#utility.yul\":3915:3935   */\n      sub\n        /* \"#utility.yul\":3911:3912   */\n      0x00\n        /* \"#utility.yul\":3900:3909   */\n      dup4\n        /* \"#utility.yul\":3896:3913   */\n      add\n        /* \"#utility.yul\":3889:3936   */\n      mstore\n        /* \"#utility.yul\":3953:4084   */\n      tag_130\n        /* \"#utility.yul\":4079:4083   */\n      dup2\n        /* \"#utility.yul\":3953:4084   */\n      tag_93\n      jump\t// in\n    tag_130:\n        /* \"#utility.yul\":3945:4084   */\n      swap1\n      pop\n        /* \"#utility.yul\":3672:4091   */\n      swap2\n      swap1\n      pop\n      jump\t// out\n        /* \"#utility.yul\":4097:4291   */\n    tag_64:\n        /* \"#utility.yul\":4137:4141   */\n      0x00\n        /* \"#utility.yul\":4157:4177   */\n      tag_132\n        /* \"#utility.yul\":4175:4176   */\n      dup3\n        /* \"#utility.yul\":4157:4177   */\n      tag_84\n      jump\t// in\n    tag_132:\n        /* \"#utility.yul\":4152:4177   */\n      swap2\n      pop\n        /* \"#utility.yul\":4191:4211   */\n      tag_133\n        /* \"#utility.yul\":4209:4210   */\n      dup4\n        /* \"#utility.yul\":4191:4211   */\n      tag_84\n      jump\t// in\n    tag_133:\n        /* \"#utility.yul\":4186:4211   */\n      swap3\n      pop\n        /* \"#utility.yul\":4235:4236   */\n      dup3\n        /* \"#utility.yul\":4232:4233   */\n      dup3\n        /* \"#utility.yul\":4228:4237   */\n      sub\n        /* \"#utility.yul\":4220:4237   */\n      swap1\n      pop\n        /* \"#utility.yul\":4259:4260   */\n      dup2\n        /* \"#utility.yul\":4253:4257   */\n      dup2\n        /* \"#utility.yul\":4250:4261   */\n      gt\n        /* \"#utility.yul\":4247:4284   */\n      iszero\n      tag_134\n      jumpi\n        /* \"#utility.yul\":4264:4282   */\n      tag_135\n      tag_91\n      jump\t// in\n    tag_135:\n        /* \"#utility.yul\":4247:4284   */\n    tag_134:\n        /* \"#utility.yul\":4097:4291   */\n      swap3\n      swap2\n      pop\n      pop\n      jump\t// out\n        /* \"#utility.yul\":4297:4477   */\n    tag_70:\n        /* \"#utility.yul\":4345:4422   */\n      0x4e487b7100000000000000000000000000000000000000000000000000000000\n        /* \"#utility.yul\":4342:4343   */\n      0x00\n        /* \"#utility.yul\":4335:4423   */\n      mstore\n        /* \"#utility.yul\":4442:4446   */\n      0x31\n        /* \"#utility.yul\":4439:4440   */\n      0x04\n        /* \"#utility.yul\":4432:4447   */\n      mstore\n        /* \"#utility.yul\":4466:4470   */\n      0x24\n        /* \"#utility.yul\":4463:4464   */\n      0x00\n        /* \"#utility.yul\":4456:4471   */\n      revert\n\n    auxdata: 0xa26469706673582212204f89feceba08faf50e92cf947946dcea3045bc94d484df931ca99d9402d9921364736f6c634300081a0033\n}\n",
				"bytecode": {
					"linkReferences": {},
					"object": "6080604052348015600e575f80fd5b5061069d8061001c5f395ff3fe608060405234801561000f575f80fd5b5060043610610086575f3560e01c80639a4bea16116100595780639a4bea16146100fe578063a4ece52c1461011c578063bae6c2ad1461013a578063fe6dcdba1461015857610086565b80631ffc735d1461008a57806360dde4c2146100a6578063957908d1146100c4578063959ac484146100e2575b5f80fd5b6100a4600480360381019061009f9190610433565b610176565b005b6100ae61019f565b6040516100bb919061046d565b60405180910390f35b6100cc61020d565b6040516100d9919061046d565b60405180910390f35b6100fc60048036038101906100f79190610433565b610297565b005b6101066102bf565b604051610113919061046d565b60405180910390f35b6101246102ca565b604051610131919061046d565b60405180910390f35b61014261036b565b60405161014f919061046d565b60405180910390f35b610160610384565b60405161016d919061046d565b60405180910390f35b600181908060018154018082558091505060019003905f5260205f20015f909190919091505550565b5f600254600180549050116101e9576040517f08c379a00000000000000000000000000000000000000000000000000000000081526004016101e0906104e0565b60405180910390fd5b6001600254815481106101ff576101fe6104fe565b5b905f5260205f200154905090565b5f60025460018054905011610257576040517f08c379a000000000000000000000000000000000000000000000000000000000815260040161024e906104e0565b60405180910390fd5b5f60016002548154811061026e5761026d6104fe565b5b905f5260205f200154905060025f81548092919061028b90610558565b91905055508091505090565b5f81908060018154018082558091505060019003905f5260205f20015f909190919091505550565b5f8080549050905090565b5f805f8054905011610311576040517f08c379a0000000000000000000000000000000000000000000000000000000008152600401610308906105e9565b60405180910390fd5b5f8060015f805490506103249190610607565b81548110610335576103346104fe565b5b905f5260205f20015490505f8054806103515761035061063a565b5b600190038181905f5260205f20015f905590558091505090565b5f60025460018054905061037f9190610607565b905090565b5f805f80549050116103cb576040517f08c379a00000000000000000000000000000000000000000000000000000000081526004016103c2906105e9565b60405180910390fd5b5f60015f805490506103dd9190610607565b815481106103ee576103ed6104fe565b5b905f5260205f200154905090565b5f80fd5b5f819050919050565b61041281610400565b811461041c575f80fd5b50565b5f8135905061042d81610409565b92915050565b5f60208284031215610448576104476103fc565b5b5f6104558482850161041f565b91505092915050565b61046781610400565b82525050565b5f6020820190506104805f83018461045e565b92915050565b5f82825260208201905092915050565b7f517565756520697320656d7074790000000000000000000000000000000000005f82015250565b5f6104ca600e83610486565b91506104d582610496565b602082019050919050565b5f6020820190508181035f8301526104f7816104be565b9050919050565b7f4e487b71000000000000000000000000000000000000000000000000000000005f52603260045260245ffd5b7f4e487b71000000000000000000000000000000000000000000000000000000005f52601160045260245ffd5b5f61056282610400565b91507fffffffffffffffffffffffffffffffffffffffffffffffffffffffffffffffff82036105945761059361052b565b5b600182019050919050565b7f737461636b20697320656d7074790000000000000000000000000000000000005f82015250565b5f6105d3600e83610486565b91506105de8261059f565b602082019050919050565b5f6020820190508181035f830152610600816105c7565b9050919050565b5f61061182610400565b915061061c83610400565b92508282039050818111156106345761063361052b565b5b92915050565b7f4e487b71000000000000000000000000000000000000000000000000000000005f52603160045260245ffdfea26469706673582212204f89feceba08faf50e92cf947946dcea3045bc94d484df931ca99d9402d9921364736f6c634300081a0033",
					"opcodes": "PUSH1 0x80 PUSH1 0x40 MSTORE CALLVALUE DUP1 ISZERO PUSH1 0xE JUMPI PUSH0 DUP1 REVERT JUMPDEST POP PUSH2 0x69D DUP1 PUSH2 0x1C PUSH0 CODECOPY PUSH0 RETURN INVALID PUSH1 0x80 PUSH1 0x40 MSTORE CALLVALUE DUP1 ISZERO PUSH2 0xF JUMPI PUSH0 DUP1 REVERT JUMPDEST POP PUSH1 0x4 CALLDATASIZE LT PUSH2 0x86 JUMPI PUSH0 CALLDATALOAD PUSH1 0xE0 SHR DUP1 PUSH4 0x9A4BEA16 GT PUSH2 0x59 JUMPI DUP1 PUSH4 0x9A4BEA16 EQ PUSH2 0xFE JUMPI DUP1 PUSH4 0xA4ECE52C EQ PUSH2 0x11C JUMPI DUP1 PUSH4 0xBAE6C2AD EQ PUSH2 0x13A JUMPI DUP1 PUSH4 0xFE6DCDBA EQ PUSH2 0x158 JUMPI PUSH2 0x86 JUMP JUMPDEST DUP1 PUSH4 0x1FFC735D EQ PUSH2 0x8A JUMPI DUP1 PUSH4 0x60DDE4C2 EQ PUSH2 0xA6 JUMPI DUP1 PUSH4 0x957908D1 EQ PUSH2 0xC4 JUMPI DUP1 PUSH4 0x959AC484 EQ PUSH2 0xE2 JUMPI JUMPDEST PUSH0 DUP1 REVERT JUMPDEST PUSH2 0xA4 PUSH1 0x4 DUP1 CALLDATASIZE SUB DUP2 ADD SWAP1 PUSH2 0x9F SWAP2 SWAP1 PUSH2 0x433 JUMP JUMPDEST PUSH2 0x176 JUMP JUMPDEST STOP JUMPDEST PUSH2 0xAE PUSH2 0x19F JUMP JUMPDEST PUSH1 0x40 MLOAD PUSH2 0xBB SWAP2 SWAP1 PUSH2 0x46D JUMP JUMPDEST PUSH1 0x40 MLOAD DUP1 SWAP2 SUB SWAP1 RETURN JUMPDEST PUSH2 0xCC PUSH2 0x20D JUMP JUMPDEST PUSH1 0x40 MLOAD PUSH2 0xD9 SWAP2 SWAP1 PUSH2 0x46D JUMP JUMPDEST PUSH1 0x40 MLOAD DUP1 SWAP2 SUB SWAP1 RETURN JUMPDEST PUSH2 0xFC PUSH1 0x4 DUP1 CALLDATASIZE SUB DUP2 ADD SWAP1 PUSH2 0xF7 SWAP2 SWAP1 PUSH2 0x433 JUMP JUMPDEST PUSH2 0x297 JUMP JUMPDEST STOP JUMPDEST PUSH2 0x106 PUSH2 0x2BF JUMP JUMPDEST PUSH1 0x40 MLOAD PUSH2 0x113 SWAP2 SWAP1 PUSH2 0x46D JUMP JUMPDEST PUSH1 0x40 MLOAD DUP1 SWAP2 SUB SWAP1 RETURN JUMPDEST PUSH2 0x124 PUSH2 0x2CA JUMP JUMPDEST PUSH1 0x40 MLOAD PUSH2 0x131 SWAP2 SWAP1 PUSH2 0x46D JUMP JUMPDEST PUSH1 0x40 MLOAD DUP1 SWAP2 SUB SWAP1 RETURN JUMPDEST PUSH2 0x142 PUSH2 0x36B JUMP JUMPDEST PUSH1 0x40 MLOAD PUSH2 0x14F SWAP2 SWAP1 PUSH2 0x46D JUMP JUMPDEST PUSH1 0x40 MLOAD DUP1 SWAP2 SUB SWAP1 RETURN JUMPDEST PUSH2 0x160 PUSH2 0x384 JUMP JUMPDEST PUSH1 0x40 MLOAD PUSH2 0x16D SWAP2 SWAP1 PUSH2 0x46D JUMP JUMPDEST PUSH1 0x40 MLOAD DUP1 SWAP2 SUB SWAP1 RETURN JUMPDEST PUSH1 0x1 DUP2 SWAP1 DUP1 PUSH1 0x1 DUP2 SLOAD ADD DUP1 DUP3 SSTORE DUP1 SWAP2 POP POP PUSH1 0x1 SWAP1 SUB SWAP1 PUSH0 MSTORE PUSH1 0x20 PUSH0 KECCAK256 ADD PUSH0 SWAP1 SWAP2 SWAP1 SWAP2 SWAP1 SWAP2 POP SSTORE POP JUMP JUMPDEST PUSH0 PUSH1 0x2 SLOAD PUSH1 0x1 DUP1 SLOAD SWAP1 POP GT PUSH2 0x1E9 JUMPI PUSH1 0x40 MLOAD PUSH32 0x8C379A000000000000000000000000000000000000000000000000000000000 DUP2 MSTORE PUSH1 0x4 ADD PUSH2 0x1E0 SWAP1 PUSH2 0x4E0 JUMP JUMPDEST PUSH1 0x40 MLOAD DUP1 SWAP2 SUB SWAP1 REVERT JUMPDEST PUSH1 0x1 PUSH1 0x2 SLOAD DUP2 SLOAD DUP2 LT PUSH2 0x1FF JUMPI PUSH2 0x1FE PUSH2 0x4FE JUMP JUMPDEST JUMPDEST SWAP1 PUSH0 MSTORE PUSH1 0x20 PUSH0 KECCAK256 ADD SLOAD SWAP1 POP SWAP1 JUMP JUMPDEST PUSH0 PUSH1 0x2 SLOAD PUSH1 0x1 DUP1 SLOAD SWAP1 POP GT PUSH2 0x257 JUMPI PUSH1 0x40 MLOAD PUSH32 0x8C379A000000000000000000000000000000000000000000000000000000000 DUP2 MSTORE PUSH1 0x4 ADD PUSH2 0x24E SWAP1 PUSH2 0x4E0 JUMP JUMPDEST PUSH1 0x40 MLOAD DUP1 SWAP2 SUB SWAP1 REVERT JUMPDEST PUSH0 PUSH1 0x1 PUSH1 0x2 SLOAD DUP2 SLOAD DUP2 LT PUSH2 0x26E JUMPI PUSH2 0x26D PUSH2 0x4FE JUMP JUMPDEST JUMPDEST SWAP1 PUSH0 MSTORE PUSH1 0x20 PUSH0 KECCAK256 ADD SLOAD SWAP1 POP PUSH1 0x2 PUSH0 DUP2 SLOAD DUP1 SWAP3 SWAP2 SWAP1 PUSH2 0x28B SWAP1 PUSH2 0x558 JUMP JUMPDEST SWAP2 SWAP1 POP SSTORE POP DUP1 SWAP2 POP POP SWAP1 JUMP JUMPDEST PUSH0 DUP2 SWAP1 DUP1 PUSH1 0x1 DUP2 SLOAD ADD DUP1 DUP3 SSTORE DUP1 SWAP2 POP POP PUSH1 0x1 SWAP1 SUB SWAP1 PUSH0 MSTORE PUSH1 0x20 PUSH0 KECCAK256 ADD PUSH0 SWAP1 SWAP2 SWAP1 SWAP2 SWAP1 SWAP2 POP SSTORE POP JUMP JUMPDEST PUSH0 DUP1 DUP1 SLOAD SWAP1 POP SWAP1 POP SWAP1 JUMP JUMPDEST PUSH0 DUP1 PUSH0 DUP1 SLOAD SWAP1 POP GT PUSH2 0x311 JUMPI PUSH1 0x40 MLOAD PUSH32 0x8C379A000000000000000000000000000000000000000000000000000000000 DUP2 MSTORE PUSH1 0x4 ADD PUSH2 0x308 SWAP1 PUSH2 0x5E9 JUMP JUMPDEST PUSH1 0x40 MLOAD DUP1 SWAP2 SUB SWAP1 REVERT JUMPDEST PUSH0 DUP1 PUSH1 0x1 PUSH0 DUP1 SLOAD SWAP1 POP PUSH2 0x324 SWAP2 SWAP1 PUSH2 0x607 JUMP JUMPDEST DUP2 SLOAD DUP2 LT PUSH2 0x335 JUMPI PUSH2 0x334 PUSH2 0x4FE JUMP JUMPDEST JUMPDEST SWAP1 PUSH0 MSTORE PUSH1 0x20 PUSH0 KECCAK256 ADD SLOAD SWAP1 POP PUSH0 DUP1 SLOAD DUP1 PUSH2 0x351 JUMPI PUSH2 0x350 PUSH2 0x63A JUMP JUMPDEST JUMPDEST PUSH1 0x1 SWAP1 SUB DUP2 DUP2 SWAP1 PUSH0 MSTORE PUSH1 0x20 PUSH0 KECCAK256 ADD PUSH0 SWAP1 SSTORE SWAP1 SSTORE DUP1 SWAP2 POP POP SWAP1 JUMP JUMPDEST PUSH0 PUSH1 0x2 SLOAD PUSH1 0x1 DUP1 SLOAD SWAP1 POP PUSH2 0x37F SWAP2 SWAP1 PUSH2 0x607 JUMP JUMPDEST SWAP1 POP SWAP1 JUMP JUMPDEST PUSH0 DUP1 PUSH0 DUP1 SLOAD SWAP1 POP GT PUSH2 0x3CB JUMPI PUSH1 0x40 MLOAD PUSH32 0x8C379A000000000000000000000000000000000000000000000000000000000 DUP2 MSTORE PUSH1 0x4 ADD PUSH2 0x3C2 SWAP1 PUSH2 0x5E9 JUMP JUMPDEST PUSH1 0x40 MLOAD DUP1 SWAP2 SUB SWAP1 REVERT JUMPDEST PUSH0 PUSH1 0x1 PUSH0 DUP1 SLOAD SWAP1 POP PUSH2 0x3DD SWAP2 SWAP1 PUSH2 0x607 JUMP JUMPDEST DUP2 SLOAD DUP2 LT PUSH2 0x3EE JUMPI PUSH2 0x3ED PUSH2 0x4FE JUMP JUMPDEST JUMPDEST SWAP1 PUSH0 MSTORE PUSH1 0x20 PUSH0 KECCAK256 ADD SLOAD SWAP1 POP SWAP1 JUMP JUMPDEST PUSH0 DUP1 REVERT JUMPDEST PUSH0 DUP2 SWAP1 POP SWAP2 SWAP1 POP JUMP JUMPDEST PUSH2 0x412 DUP2 PUSH2 0x400 JUMP JUMPDEST DUP2 EQ PUSH2 0x41C JUMPI PUSH0 DUP1 REVERT JUMPDEST POP JUMP JUMPDEST PUSH0 DUP2 CALLDATALOAD SWAP1 POP PUSH2 0x42D DUP2 PUSH2 0x409 JUMP JUMPDEST SWAP3 SWAP2 POP POP JUMP JUMPDEST PUSH0 PUSH1 0x20 DUP3 DUP5 SUB SLT ISZERO PUSH2 0x448 JUMPI PUSH2 0x447 PUSH2 0x3FC JUMP JUMPDEST JUMPDEST PUSH0 PUSH2 0x455 DUP5 DUP3 DUP6 ADD PUSH2 0x41F JUMP JUMPDEST SWAP2 POP POP SWAP3 SWAP2 POP POP JUMP JUMPDEST PUSH2 0x467 DUP2 PUSH2 0x400 JUMP JUMPDEST DUP3 MSTORE POP POP JUMP JUMPDEST PUSH0 PUSH1 0x20 DUP3 ADD SWAP1 POP PUSH2 0x480 PUSH0 DUP4 ADD DUP5 PUSH2 0x45E JUMP JUMPDEST SWAP3 SWAP2 POP POP JUMP JUMPDEST PUSH0 DUP3 DUP3 MSTORE PUSH1 0x20 DUP3 ADD SWAP1 POP SWAP3 SWAP2 POP POP JUMP JUMPDEST PUSH32 0x517565756520697320656D707479000000000000000000000000000000000000 PUSH0 DUP3 ADD MSTORE POP JUMP JUMPDEST PUSH0 PUSH2 0x4CA PUSH1 0xE DUP4 PUSH2 0x486 JUMP JUMPDEST SWAP2 POP PUSH2 0x4D5 DUP3 PUSH2 0x496 JUMP JUMPDEST PUSH1 0x20 DUP3 ADD SWAP1 POP SWAP2 SWAP1 POP JUMP JUMPDEST PUSH0 PUSH1 0x20 DUP3 ADD SWAP1 POP DUP2 DUP2 SUB PUSH0 DUP4 ADD MSTORE PUSH2 0x4F7 DUP2 PUSH2 0x4BE JUMP JUMPDEST SWAP1 POP SWAP2 SWAP1 POP JUMP JUMPDEST PUSH32 0x4E487B7100000000000000000000000000000000000000000000000000000000 PUSH0 MSTORE PUSH1 0x32 PUSH1 0x4 MSTORE PUSH1 0x24 PUSH0 REVERT JUMPDEST PUSH32 0x4E487B7100000000000000000000000000000000000000000000000000000000 PUSH0 MSTORE PUSH1 0x11 PUSH1 0x4 MSTORE PUSH1 0x24 PUSH0 REVERT JUMPDEST PUSH0 PUSH2 0x562 DUP3 PUSH2 0x400 JUMP JUMPDEST SWAP2 POP PUSH32 0xFFFFFFFFFFFFFFFFFFFFFFFFFFFFFFFFFFFFFFFFFFFFFFFFFFFFFFFFFFFFFFFF DUP3 SUB PUSH2 0x594 JUMPI PUSH2 0x593 PUSH2 0x52B JUMP JUMPDEST JUMPDEST PUSH1 0x1 DUP3 ADD SWAP1 POP SWAP2 SWAP1 POP JUMP JUMPDEST PUSH32 0x737461636B20697320656D707479000000000000000000000000000000000000 PUSH0 DUP3 ADD MSTORE POP JUMP JUMPDEST PUSH0 PUSH2 0x5D3 PUSH1 0xE DUP4 PUSH2 0x486 JUMP JUMPDEST SWAP2 POP PUSH2 0x5DE DUP3 PUSH2 0x59F JUMP JUMPDEST PUSH1 0x20 DUP3 ADD SWAP1 POP SWAP2 SWAP1 POP JUMP JUMPDEST PUSH0 PUSH1 0x20 DUP3 ADD SWAP1 POP DUP2 DUP2 SUB PUSH0 DUP4 ADD MSTORE PUSH2 0x600 DUP2 PUSH2 0x5C7 JUMP JUMPDEST SWAP1 POP SWAP2 SWAP1 POP JUMP JUMPDEST PUSH0 PUSH2 0x611 DUP3 PUSH2 0x400 JUMP JUMPDEST SWAP2 POP PUSH2 0x61C DUP4 PUSH2 0x400 JUMP JUMPDEST SWAP3 POP DUP3 DUP3 SUB SWAP1 POP DUP2 DUP2 GT ISZERO PUSH2 0x634 JUMPI PUSH2 0x633 PUSH2 0x52B JUMP JUMPDEST JUMPDEST SWAP3 SWAP2 POP POP JUMP JUMPDEST PUSH32 0x4E487B7100000000000000000000000000000000000000000000000000000000 PUSH0 MSTORE PUSH1 0x31 PUSH1 0x4 MSTORE PUSH1 0x24 PUSH0 REVERT INVALID LOG2 PUSH5 0x6970667358 0x22 SLT KECCAK256 0x4F DUP10 INVALID 0xCE 0xBA ADDMOD STATICCALL CREATE2 0xE SWAP3 0xCF SWAP5 PUSH26 0x46DCEA3045BC94D484DF931CA99D9402D9921364736F6C634300 ADDMOD BYTE STOP CALLER "
				},
				"gasEstimates": {
					"creation": {
						"codeDepositCost": "338600",
						"executionCost": "372",
						"totalCost": "338972"
					},
					"external": {
						"dequeue()": "infinite",
						"enqueue(uint256)": "46822",
						"pop()": "infinite",
						"push(uint256)": "46887",
						"queueFront()": "10964",
						"queueSize()": "infinite",
						"stackSize()": "2440",
						"top()": "infinite"
					}
				},
				"methodIdentifiers": {
					"dequeue()": "957908d1",
					"enqueue(uint256)": "1ffc735d",
					"pop()": "a4ece52c",
					"push(uint256)": "959ac484",
					"queueFront()": "60dde4c2",
					"queueSize()": "bae6c2ad",
					"stackSize()": "9a4bea16",
					"top()": "fe6dcdba"
				}
			},
			"storageLayout": {
				"storage": [
					{
						"astId": 5,
						"contract": "contracts/exp1_stackQueue.sol:StackQueue",
						"label": "stack",
						"offset": 0,
						"slot": "0",
						"type": "t_array(t_uint256)dyn_storage"
					},
					{
						"astId": 80,
						"contract": "contracts/exp1_stackQueue.sol:StackQueue",
						"label": "queue",
						"offset": 0,
						"slot": "1",
						"type": "t_array(t_uint256)dyn_storage"
					},
					{
						"astId": 82,
						"contract": "contracts/exp1_stackQueue.sol:StackQueue",
						"label": "frontIndex",
						"offset": 0,
						"slot": "2",
						"type": "t_uint256"
					}
				],
				"types": {
					"t_array(t_uint256)dyn_storage": {
						"base": "t_uint256",
						"encoding": "dynamic_array",
						"label": "uint256[]",
						"numberOfBytes": "32"
					},
					"t_uint256": {
						"encoding": "inplace",
						"label": "uint256",
						"numberOfBytes": "32"
					}
				}
			},
			"userdoc": {
				"kind": "user",
				"methods": {},
				"version": 1
			}
		}
	}
}