{
	"contracts/exp1_types.sol": {
		"Storage": {
			"abi": [
				{
					"inputs": [],
					"name": "a",
					"outputs": [
						{
							"internalType": "bool",
							"name": "",
							"type": "bool"
						}
					],
					"stateMutability": "view",
					"type": "function"
				},
				{
					"inputs": [],
					"name": "addressvar",
					"outputs": [
						{
							"internalType": "address",
							"name": "",
							"type": "address"
						}
					],
					"stateMutability": "view",
					"type": "function"
				},
				{
					"inputs": [
						{
							"internalType": "uint256",
							"name": "",
							"type": "uint256"
						}
					],
					"name": "dynamicarray",
					"outputs": [
						{
							"internalType": "uint256",
							"name": "",
							"type": "uint256"
						}
					],
					"stateMutability": "view",
					"type": "function"
				},
				{
					"inputs": [
						{
							"internalType": "uint256",
							"name": "",
							"type": "uint256"
						}
					],
					"name": "fixedarray",
					"outputs": [
						{
							"internalType": "uint256",
							"name": "",
							"type": "uint256"
						}
					],
					"stateMutability": "view",
					"type": "function"
				},
				{
					"inputs": [],
					"name": "number",
					"outputs": [
						{
							"internalType": "uint256",
							"name": "",
							"type": "uint256"
						}
					],
					"stateMutability": "view",
					"type": "function"
				},
				{
					"inputs": [],
					"name": "number1",
					"outputs": [
						{
							"internalType": "int256",
							"name": "",
							"type": "int256"
						}
					],
					"stateMutability": "view",
					"type": "function"
				},
				{
					"inputs": [],
					"name": "retrieve",
					"outputs": [
						{
							"internalType": "uint256",
							"name": "",
							"type": "uint256"
						},
						{
							"internalType": "int256",
							"name": "",
							"type": "int256"
						},
						{
							"internalType": "bool",
							"name": "",
							"type": "bool"
						},
						{
							"internalType": "address",
							"name": "",
							"type": "address"
						},
						{
							"internalType": "string",
							"name": "",
							"type": "string"
						},
						{
							"internalType": "uint256[3]",
							"name": "",
							"type": "uint256[3]"
						},
						{
							"internalType": "uint256[]",
							"name": "",
							"type": "uint256[]"
						}
					],
					"stateMutability": "view",
					"type": "function"
				},
				{
					"inputs": [
						{
							"internalType": "uint256",
							"name": "num",
							"type": "uint256"
						}
					],
					"name": "store",
					"outputs": [],
					"stateMutability": "nonpayable",
					"type": "function"
				},
				{
					"inputs": [
						{
							"internalType": "int256",
							"name": "num1",
							"type": "int256"
						}
					],
					"name": "store1",
					"outputs": [],
					"stateMutability": "nonpayable",
					"type": "function"
				},
				{
					"inputs": [
						{
							"internalType": "bool",
							"name": "abc",
							"type": "bool"
						}
					],
					"name": "store2",
					"outputs": [],
					"stateMutability": "nonpayable",
					"type": "function"
				},
				{
					"inputs": [
						{
							"internalType": "address",
							"name": "addvar",
							"type": "address"
						}
					],
					"name": "store3",
					"outputs": [],
					"stateMutability": "nonpayable",
					"type": "function"
				},
				{
					"inputs": [
						{
							"internalType": "string",
							"name": "newst",
							"type": "string"
						}
					],
					"name": "store4",
					"outputs": [],
					"stateMutability": "nonpayable",
					"type": "function"
				},
				{
					"inputs": [
						{
							"internalType": "uint256[3]",
							"name": "fa",
							"type": "uint256[3]"
						}
					],
					"name": "store5",
					"outputs": [],
					"stateMutability": "nonpayable",
					"type": "function"
				},
				{
					"inputs": [
						{
							"internalType": "uint256[]",
							"name": "da",
							"type": "uint256[]"
						}
					],
					"name": "store6",
					"outputs": [
						{
							"internalType": "uint256[]",
							"name": "",
							"type": "uint256[]"
						}
					],
					"stateMutability": "nonpayable",
					"type": "function"
				},
				{
					"inputs": [],
					"name": "stringVar",
					"outputs": [
						{
							"internalType": "string",
							"name": "",
							"type": "string"
						}
					],
					"stateMutability": "view",
					"type": "function"
				}
			],
			"devdoc": {
				"custom:dev-run-script": "./scripts/deploy_with_ethers.ts",
				"details": "Store & retrieve value in a variable",
				"kind": "dev",
				"methods": {
					"retrieve()": {
						"details": "Return value ",
						"returns": {
							"_0": "value of 'number'"
						}
					},
					"store(uint256)": {
						"details": "Store value in variable",
						"params": {
							"num": "value to store"
						}
					}
				},
				"title": "Storage",
				"version": 1
			},
			"evm": {
				"assembly": "    /* \"contracts/exp1_types.sol\":234:1530  contract Storage {... */\n  mstore(0x40, 0x80)\n  callvalue\n  dup1\n  iszero\n  tag_1\n  jumpi\n  0x00\n  dup1\n  revert\ntag_1:\n  pop\n  dataSize(sub_0)\n  dup1\n  dataOffset(sub_0)\n  0x00\n  codecopy\n  0x00\n  return\nstop\n\nsub_0: assembly {\n        /* \"contracts/exp1_types.sol\":234:1530  contract Storage {... */\n      mstore(0x40, 0x80)\n      callvalue\n      dup1\n      iszero\n      tag_1\n      jumpi\n      0x00\n      dup1\n      revert\n    tag_1:\n      pop\n      jumpi(tag_2, lt(calldatasize, 0x04))\n      shr(0xe0, calldataload(0x00))\n      dup1\n      0x68c394ff\n      gt\n      tag_18\n      jumpi\n      dup1\n      0xc223a39e\n      gt\n      tag_19\n      jumpi\n      dup1\n      0xc223a39e\n      eq\n      tag_14\n      jumpi\n      dup1\n      0xe9074ca3\n      eq\n      tag_15\n      jumpi\n      dup1\n      0xf3e1b056\n      eq\n      tag_16\n      jumpi\n      dup1\n      0xfaecdad7\n      eq\n      tag_17\n      jumpi\n      jump(tag_2)\n    tag_19:\n      dup1\n      0x68c394ff\n      eq\n      tag_10\n      jumpi\n      dup1\n      0x6a20bf08\n      eq\n      tag_11\n      jumpi\n      dup1\n      0x8381f58a\n      eq\n      tag_12\n      jumpi\n      dup1\n      0x8d8a227b\n      eq\n      tag_13\n      jumpi\n      jump(tag_2)\n    tag_18:\n      dup1\n      0x17fd6986\n      gt\n      tag_20\n      jumpi\n      dup1\n      0x17fd6986\n      eq\n      tag_6\n      jumpi\n      dup1\n      0x2e64cec1\n      eq\n      tag_7\n      jumpi\n      dup1\n      0x344c3634\n      eq\n      tag_8\n      jumpi\n      dup1\n      0x6057361d\n      eq\n      tag_9\n      jumpi\n      jump(tag_2)\n    tag_20:\n      dup1\n      0x029194b4\n      eq\n      tag_3\n      jumpi\n      dup1\n      0x0b559dfa\n      eq\n      tag_4\n      jumpi\n      dup1\n      0x0dbe671f\n      eq\n      tag_5\n      jumpi\n    tag_2:\n      0x00\n      dup1\n      revert\n        /* \"contracts/exp1_types.sol\":402:430  uint256[3] public fixedarray */\n    tag_3:\n      tag_21\n      0x04\n      dup1\n      calldatasize\n      sub\n      dup2\n      add\n      swap1\n      tag_22\n      swap2\n      swap1\n      tag_23\n      jump\t// in\n    tag_22:\n      tag_24\n      jump\t// in\n    tag_21:\n      mload(0x40)\n      tag_25\n      swap2\n      swap1\n      tag_26\n      jump\t// in\n    tag_25:\n      mload(0x40)\n      dup1\n      swap2\n      sub\n      swap1\n      return\n        /* \"contracts/exp1_types.sol\":437:466  uint256[] public dynamicarray */\n    tag_4:\n      tag_27\n      0x04\n      dup1\n      calldatasize\n      sub\n      dup2\n      add\n      swap1\n      tag_28\n      swap2\n      swap1\n      tag_23\n      jump\t// in\n    tag_28:\n      tag_29\n      jump\t// in\n    tag_27:\n      mload(0x40)\n      tag_30\n      swap2\n      swap1\n      tag_26\n      jump\t// in\n    tag_30:\n      mload(0x40)\n      dup1\n      swap2\n      sub\n      swap1\n      return\n        /* \"contracts/exp1_types.sol\":317:331  bool public  a */\n    tag_5:\n      tag_31\n      tag_32\n      jump\t// in\n    tag_31:\n      mload(0x40)\n      tag_33\n      swap2\n      swap1\n      tag_34\n      jump\t// in\n    tag_33:\n      mload(0x40)\n      dup1\n      swap2\n      sub\n      swap1\n      return\n        /* \"contracts/exp1_types.sol\":776:853  function store3(address addvar) public {... */\n    tag_6:\n      tag_35\n      0x04\n      dup1\n      calldatasize\n      sub\n      dup2\n      add\n      swap1\n      tag_36\n      swap2\n      swap1\n      tag_37\n      jump\t// in\n    tag_36:\n      tag_38\n      jump\t// in\n    tag_35:\n      stop\n        /* \"contracts/exp1_types.sol\":1250:1529  function retrieve() public view returns (uint256,int256,bool,address,string memory,uint256[3] memory,uint256[] memory){... */\n    tag_7:\n      tag_39\n      tag_40\n      jump\t// in\n    tag_39:\n      mload(0x40)\n      tag_41\n      swap8\n      swap7\n      swap6\n      swap5\n      swap4\n      swap3\n      swap2\n      swap1\n      tag_42\n      jump\t// in\n    tag_41:\n      mload(0x40)\n      dup1\n      swap2\n      sub\n      swap1\n      return\n        /* \"contracts/exp1_types.sol\":859:939  function store4(string memory newst) public {... */\n    tag_8:\n      tag_43\n      0x04\n      dup1\n      calldatasize\n      sub\n      dup2\n      add\n      swap1\n      tag_44\n      swap2\n      swap1\n      tag_45\n      jump\t// in\n    tag_44:\n      tag_46\n      jump\t// in\n    tag_43:\n      stop\n        /* \"contracts/exp1_types.sol\":564:630  function store(uint256 num) public {... */\n    tag_9:\n      tag_47\n      0x04\n      dup1\n      calldatasize\n      sub\n      dup2\n      add\n      swap1\n      tag_48\n      swap2\n      swap1\n      tag_23\n      jump\t// in\n    tag_48:\n      tag_49\n      jump\t// in\n    tag_47:\n      stop\n        /* \"contracts/exp1_types.sol\":338:364  address public  addressvar */\n    tag_10:\n      tag_50\n      tag_51\n      jump\t// in\n    tag_50:\n      mload(0x40)\n      tag_52\n      swap2\n      swap1\n      tag_53\n      jump\t// in\n    tag_52:\n      mload(0x40)\n      dup1\n      swap2\n      sub\n      swap1\n      return\n        /* \"contracts/exp1_types.sol\":711:770  function store2(bool abc) public {... */\n    tag_11:\n      tag_54\n      0x04\n      dup1\n      calldatasize\n      sub\n      dup2\n      add\n      swap1\n      tag_55\n      swap2\n      swap1\n      tag_56\n      jump\t// in\n    tag_55:\n      tag_57\n      jump\t// in\n    tag_54:\n      stop\n        /* \"contracts/exp1_types.sol\":260:281  uint256 public number */\n    tag_12:\n      tag_58\n      tag_59\n      jump\t// in\n    tag_58:\n      mload(0x40)\n      tag_60\n      swap2\n      swap1\n      tag_26\n      jump\t// in\n    tag_60:\n      mload(0x40)\n      dup1\n      swap2\n      sub\n      swap1\n      return\n        /* \"contracts/exp1_types.sol\":945:1024  function store5(uint256[3] memory fa) public {... */\n    tag_13:\n      tag_61\n      0x04\n      dup1\n      calldatasize\n      sub\n      dup2\n      add\n      swap1\n      tag_62\n      swap2\n      swap1\n      tag_63\n      jump\t// in\n    tag_62:\n      tag_64\n      jump\t// in\n    tag_61:\n      stop\n        /* \"contracts/exp1_types.sol\":288:310  int256 public  number1 */\n    tag_14:\n      tag_65\n      tag_66\n      jump\t// in\n    tag_65:\n      mload(0x40)\n      tag_67\n      swap2\n      swap1\n      tag_68\n      jump\t// in\n    tag_67:\n      mload(0x40)\n      dup1\n      swap2\n      sub\n      swap1\n      return\n        /* \"contracts/exp1_types.sol\":371:395  string public  stringVar */\n    tag_15:\n      tag_69\n      tag_70\n      jump\t// in\n    tag_69:\n      mload(0x40)\n      tag_71\n      swap2\n      swap1\n      tag_72\n      jump\t// in\n    tag_71:\n      mload(0x40)\n      dup1\n      swap2\n      sub\n      swap1\n      return\n        /* \"contracts/exp1_types.sol\":636:705  function store1(int256 num1) public {... */\n    tag_16:\n      tag_73\n      0x04\n      dup1\n      calldatasize\n      sub\n      dup2\n      add\n      swap1\n      tag_74\n      swap2\n      swap1\n      tag_75\n      jump\t// in\n    tag_74:\n      tag_76\n      jump\t// in\n    tag_73:\n      stop\n        /* \"contracts/exp1_types.sol\":1030:1165  function store6(uint256[] memory da) public returns(uint256[] memory){... */\n    tag_17:\n      tag_77\n      0x04\n      dup1\n      calldatasize\n      sub\n      dup2\n      add\n      swap1\n      tag_78\n      swap2\n      swap1\n      tag_79\n      jump\t// in\n    tag_78:\n      tag_80\n      jump\t// in\n    tag_77:\n      mload(0x40)\n      tag_81\n      swap2\n      swap1\n      tag_82\n      jump\t// in\n    tag_81:\n      mload(0x40)\n      dup1\n      swap2\n      sub\n      swap1\n      return\n        /* \"contracts/exp1_types.sol\":402:430  uint256[3] public fixedarray */\n    tag_24:\n      0x04\n      dup2\n      0x03\n      dup2\n      lt\n      tag_83\n      jumpi\n      0x00\n      dup1\n      revert\n    tag_83:\n      add\n      0x00\n      swap2\n      pop\n      swap1\n      pop\n      sload\n      dup2\n      jump\t// out\n        /* \"contracts/exp1_types.sol\":437:466  uint256[] public dynamicarray */\n    tag_29:\n      0x07\n      dup2\n      dup2\n      sload\n      dup2\n      lt\n      tag_85\n      jumpi\n      0x00\n      dup1\n      revert\n    tag_85:\n      swap1\n      0x00\n      mstore\n      keccak256(0x00, 0x20)\n      add\n      0x00\n      swap2\n      pop\n      swap1\n      pop\n      sload\n      dup2\n      jump\t// out\n        /* \"contracts/exp1_types.sol\":317:331  bool public  a */\n    tag_32:\n      0x02\n      0x00\n      swap1\n      sload\n      swap1\n      0x0100\n      exp\n      swap1\n      div\n      0xff\n      and\n      dup2\n      jump\t// out\n        /* \"contracts/exp1_types.sol\":776:853  function store3(address addvar) public {... */\n    tag_38:\n        /* \"contracts/exp1_types.sol\":839:845  addvar */\n      dup1\n        /* \"contracts/exp1_types.sol\":826:836  addressvar */\n      0x02\n      0x01\n        /* \"contracts/exp1_types.sol\":826:845  addressvar = addvar */\n      0x0100\n      exp\n      dup2\n      sload\n      dup2\n      0xffffffffffffffffffffffffffffffffffffffff\n      mul\n      not\n      and\n      swap1\n      dup4\n      0xffffffffffffffffffffffffffffffffffffffff\n      and\n      mul\n      or\n      swap1\n      sstore\n      pop\n        /* \"contracts/exp1_types.sol\":776:853  function store3(address addvar) public {... */\n      pop\n      jump\t// out\n        /* \"contracts/exp1_types.sol\":1250:1529  function retrieve() public view returns (uint256,int256,bool,address,string memory,uint256[3] memory,uint256[] memory){... */\n    tag_40:\n        /* \"contracts/exp1_types.sol\":1291:1298  uint256 */\n      0x00\n        /* \"contracts/exp1_types.sol\":1299:1305  int256 */\n      dup1\n        /* \"contracts/exp1_types.sol\":1306:1310  bool */\n      0x00\n        /* \"contracts/exp1_types.sol\":1311:1318  address */\n      dup1\n        /* \"contracts/exp1_types.sol\":1319:1332  string memory */\n      0x60\n        /* \"contracts/exp1_types.sol\":1333:1350  uint256[3] memory */\n      tag_88\n      tag_89\n      jump\t// in\n    tag_88:\n        /* \"contracts/exp1_types.sol\":1351:1367  uint256[] memory */\n      0x60\n        /* \"contracts/exp1_types.sol\":1387:1393  number */\n      sload(0x00)\n        /* \"contracts/exp1_types.sol\":1404:1411  number1 */\n      sload(0x01)\n        /* \"contracts/exp1_types.sol\":1422:1423  a */\n      0x02\n      0x00\n      swap1\n      sload\n      swap1\n      0x0100\n      exp\n      swap1\n      div\n      0xff\n      and\n        /* \"contracts/exp1_types.sol\":1434:1444  addressvar */\n      0x02\n      0x01\n      swap1\n      sload\n      swap1\n      0x0100\n      exp\n      swap1\n      div\n      0xffffffffffffffffffffffffffffffffffffffff\n      and\n        /* \"contracts/exp1_types.sol\":1455:1464  stringVar */\n      0x03\n        /* \"contracts/exp1_types.sol\":1475:1485  fixedarray */\n      0x04\n        /* \"contracts/exp1_types.sol\":1496:1508  dynamicarray */\n      0x07\n        /* \"contracts/exp1_types.sol\":1379:1519  return (number,... */\n      dup3\n      dup1\n      sload\n      tag_91\n      swap1\n      tag_92\n      jump\t// in\n    tag_91:\n      dup1\n      0x1f\n      add\n      0x20\n      dup1\n      swap2\n      div\n      mul\n      0x20\n      add\n      mload(0x40)\n      swap1\n      dup2\n      add\n      0x40\n      mstore\n      dup1\n      swap3\n      swap2\n      swap1\n      dup2\n      dup2\n      mstore\n      0x20\n      add\n      dup3\n      dup1\n      sload\n      tag_93\n      swap1\n      tag_92\n      jump\t// in\n    tag_93:\n      dup1\n      iszero\n      tag_94\n      jumpi\n      dup1\n      0x1f\n      lt\n      tag_95\n      jumpi\n      0x0100\n      dup1\n      dup4\n      sload\n      div\n      mul\n      dup4\n      mstore\n      swap2\n      0x20\n      add\n      swap2\n      jump(tag_94)\n    tag_95:\n      dup3\n      add\n      swap2\n      swap1\n      0x00\n      mstore\n      keccak256(0x00, 0x20)\n      swap1\n    tag_96:\n      dup2\n      sload\n      dup2\n      mstore\n      swap1\n      0x01\n      add\n      swap1\n      0x20\n      add\n      dup1\n      dup4\n      gt\n      tag_96\n      jumpi\n      dup3\n      swap1\n      sub\n      0x1f\n      and\n      dup3\n      add\n      swap2\n    tag_94:\n      pop\n      pop\n      pop\n      pop\n      pop\n      swap3\n      pop\n      dup2\n      0x03\n      dup1\n      0x20\n      mul\n      mload(0x40)\n      swap1\n      dup2\n      add\n      0x40\n      mstore\n      dup1\n      swap3\n      swap2\n      swap1\n      dup3\n      0x03\n      dup1\n      iszero\n      tag_97\n      jumpi\n      0x20\n      mul\n      dup3\n      add\n      swap2\n    tag_98:\n      dup2\n      sload\n      dup2\n      mstore\n      0x20\n      add\n      swap1\n      0x01\n      add\n      swap1\n      dup1\n      dup4\n      gt\n      tag_98\n      jumpi\n    tag_97:\n      pop\n      pop\n      pop\n      pop\n      pop\n      swap2\n      pop\n      dup1\n      dup1\n      sload\n      dup1\n      0x20\n      mul\n      0x20\n      add\n      mload(0x40)\n      swap1\n      dup2\n      add\n      0x40\n      mstore\n      dup1\n      swap3\n      swap2\n      swap1\n      dup2\n      dup2\n      mstore\n      0x20\n      add\n      dup3\n      dup1\n      sload\n      dup1\n      iszero\n      tag_99\n      jumpi\n      0x20\n      mul\n      dup3\n      add\n      swap2\n      swap1\n      0x00\n      mstore\n      keccak256(0x00, 0x20)\n      swap1\n    tag_100:\n      dup2\n      sload\n      dup2\n      mstore\n      0x20\n      add\n      swap1\n      0x01\n      add\n      swap1\n      dup1\n      dup4\n      gt\n      tag_100\n      jumpi\n    tag_99:\n      pop\n      pop\n      pop\n      pop\n      pop\n      swap1\n      pop\n      swap7\n      pop\n      swap7\n      pop\n      swap7\n      pop\n      swap7\n      pop\n      swap7\n      pop\n      swap7\n      pop\n      swap7\n      pop\n        /* \"contracts/exp1_types.sol\":1250:1529  function retrieve() public view returns (uint256,int256,bool,address,string memory,uint256[3] memory,uint256[] memory){... */\n      swap1\n      swap2\n      swap3\n      swap4\n      swap5\n      swap6\n      swap7\n      jump\t// out\n        /* \"contracts/exp1_types.sol\":859:939  function store4(string memory newst) public {... */\n    tag_46:\n        /* \"contracts/exp1_types.sol\":926:931  newst */\n      dup1\n        /* \"contracts/exp1_types.sol\":914:923  stringVar */\n      0x03\n        /* \"contracts/exp1_types.sol\":914:931  stringVar = newst */\n      swap1\n      dup2\n      tag_102\n      swap2\n      swap1\n      tag_103\n      jump\t// in\n    tag_102:\n      pop\n        /* \"contracts/exp1_types.sol\":859:939  function store4(string memory newst) public {... */\n      pop\n      jump\t// out\n        /* \"contracts/exp1_types.sol\":564:630  function store(uint256 num) public {... */\n    tag_49:\n        /* \"contracts/exp1_types.sol\":619:622  num */\n      dup1\n        /* \"contracts/exp1_types.sol\":610:616  number */\n      0x00\n        /* \"contracts/exp1_types.sol\":610:622  number = num */\n      dup2\n      swap1\n      sstore\n      pop\n        /* \"contracts/exp1_types.sol\":564:630  function store(uint256 num) public {... */\n      pop\n      jump\t// out\n        /* \"contracts/exp1_types.sol\":338:364  address public  addressvar */\n    tag_51:\n      0x02\n      0x01\n      swap1\n      sload\n      swap1\n      0x0100\n      exp\n      swap1\n      div\n      0xffffffffffffffffffffffffffffffffffffffff\n      and\n      dup2\n      jump\t// out\n        /* \"contracts/exp1_types.sol\":711:770  function store2(bool abc) public {... */\n    tag_57:\n        /* \"contracts/exp1_types.sol\":759:762  abc */\n      dup1\n        /* \"contracts/exp1_types.sol\":755:756  a */\n      0x02\n      0x00\n        /* \"contracts/exp1_types.sol\":755:762  a = abc */\n      0x0100\n      exp\n      dup2\n      sload\n      dup2\n      0xff\n      mul\n      not\n      and\n      swap1\n      dup4\n      iszero\n      iszero\n      mul\n      or\n      swap1\n      sstore\n      pop\n        /* \"contracts/exp1_types.sol\":711:770  function store2(bool abc) public {... */\n      pop\n      jump\t// out\n        /* \"contracts/exp1_types.sol\":260:281  uint256 public number */\n    tag_59:\n      sload(0x00)\n      dup2\n      jump\t// out\n        /* \"contracts/exp1_types.sol\":945:1024  function store5(uint256[3] memory fa) public {... */\n    tag_64:\n        /* \"contracts/exp1_types.sol\":1014:1016  fa */\n      dup1\n        /* \"contracts/exp1_types.sol\":1001:1011  fixedarray */\n      0x04\n        /* \"contracts/exp1_types.sol\":1001:1016  fixedarray = fa */\n      swap1\n      0x03\n      tag_107\n      swap3\n      swap2\n      swap1\n      tag_108\n      jump\t// in\n    tag_107:\n      pop\n        /* \"contracts/exp1_types.sol\":945:1024  function store5(uint256[3] memory fa) public {... */\n      pop\n      jump\t// out\n        /* \"contracts/exp1_types.sol\":288:310  int256 public  number1 */\n    tag_66:\n      sload(0x01)\n      dup2\n      jump\t// out\n        /* \"contracts/exp1_types.sol\":371:395  string public  stringVar */\n    tag_70:\n      0x03\n      dup1\n      sload\n      tag_109\n      swap1\n      tag_92\n      jump\t// in\n    tag_109:\n      dup1\n      0x1f\n      add\n      0x20\n      dup1\n      swap2\n      div\n      mul\n      0x20\n      add\n      mload(0x40)\n      swap1\n      dup2\n      add\n      0x40\n      mstore\n      dup1\n      swap3\n      swap2\n      swap1\n      dup2\n      dup2\n      mstore\n      0x20\n      add\n      dup3\n      dup1\n      sload\n      tag_110\n      swap1\n      tag_92\n      jump\t// in\n    tag_110:\n      dup1\n      iszero\n      tag_111\n      jumpi\n      dup1\n      0x1f\n      lt\n      tag_112\n      jumpi\n      0x0100\n      dup1\n      dup4\n      sload\n      div\n      mul\n      dup4\n      mstore\n      swap2\n      0x20\n      add\n      swap2\n      jump(tag_111)\n    tag_112:\n      dup3\n      add\n      swap2\n      swap1\n      0x00\n      mstore\n      keccak256(0x00, 0x20)\n      swap1\n    tag_113:\n      dup2\n      sload\n      dup2\n      mstore\n      swap1\n      0x01\n      add\n      swap1\n      0x20\n      add\n      dup1\n      dup4\n      gt\n      tag_113\n      jumpi\n      dup3\n      swap1\n      sub\n      0x1f\n      and\n      dup3\n      add\n      swap2\n    tag_111:\n      pop\n      pop\n      pop\n      pop\n      pop\n      dup2\n      jump\t// out\n        /* \"contracts/exp1_types.sol\":636:705  function store1(int256 num1) public {... */\n    tag_76:\n        /* \"contracts/exp1_types.sol\":693:697  num1 */\n      dup1\n        /* \"contracts/exp1_types.sol\":683:690  number1 */\n      0x01\n        /* \"contracts/exp1_types.sol\":683:697  number1 = num1 */\n      dup2\n      swap1\n      sstore\n      pop\n        /* \"contracts/exp1_types.sol\":636:705  function store1(int256 num1) public {... */\n      pop\n      jump\t// out\n        /* \"contracts/exp1_types.sol\":1030:1165  function store6(uint256[] memory da) public returns(uint256[] memory){... */\n    tag_80:\n        /* \"contracts/exp1_types.sol\":1082:1098  uint256[] memory */\n      0x60\n        /* \"contracts/exp1_types.sol\":1125:1127  da */\n      dup2\n        /* \"contracts/exp1_types.sol\":1110:1122  dynamicarray */\n      0x07\n        /* \"contracts/exp1_types.sol\":1110:1127  dynamicarray = da */\n      swap1\n      dup1\n      mload\n      swap1\n      0x20\n      add\n      swap1\n      tag_116\n      swap3\n      swap2\n      swap1\n      tag_117\n      jump\t// in\n    tag_116:\n      pop\n        /* \"contracts/exp1_types.sol\":1145:1157  dynamicarray */\n      0x07\n        /* \"contracts/exp1_types.sol\":1138:1157  return dynamicarray */\n      dup1\n      sload\n      dup1\n      0x20\n      mul\n      0x20\n      add\n      mload(0x40)\n      swap1\n      dup2\n      add\n      0x40\n      mstore\n      dup1\n      swap3\n      swap2\n      swap1\n      dup2\n      dup2\n      mstore\n      0x20\n      add\n      dup3\n      dup1\n      sload\n      dup1\n      iszero\n      tag_118\n      jumpi\n      0x20\n      mul\n      dup3\n      add\n      swap2\n      swap1\n      0x00\n      mstore\n      keccak256(0x00, 0x20)\n      swap1\n    tag_119:\n      dup2\n      sload\n      dup2\n      mstore\n      0x20\n      add\n      swap1\n      0x01\n      add\n      swap1\n      dup1\n      dup4\n      gt\n      tag_119\n      jumpi\n    tag_118:\n      pop\n      pop\n      pop\n      pop\n      pop\n      swap1\n      pop\n        /* \"contracts/exp1_types.sol\":1030:1165  function store6(uint256[] memory da) public returns(uint256[] memory){... */\n      swap2\n      swap1\n      pop\n      jump\t// out\n    tag_89:\n      mload(0x40)\n      dup1\n      0x60\n      add\n      0x40\n      mstore\n      dup1\n      0x03\n      swap1\n      0x20\n      dup3\n      mul\n      dup1\n      calldatasize\n      dup4\n      calldatacopy\n      dup1\n      dup3\n      add\n      swap2\n      pop\n      pop\n      swap1\n      pop\n      pop\n      swap1\n      jump\t// out\n    tag_108:\n      dup3\n      0x03\n      dup2\n      add\n      swap3\n      dup3\n      iszero\n      tag_120\n      jumpi\n      swap2\n      0x20\n      mul\n      dup3\n      add\n    tag_121:\n      dup3\n      dup2\n      gt\n      iszero\n      tag_122\n      jumpi\n      dup3\n      mload\n      dup3\n      sstore\n      swap2\n      0x20\n      add\n      swap2\n      swap1\n      0x01\n      add\n      swap1\n      jump(tag_121)\n    tag_122:\n    tag_120:\n      pop\n      swap1\n      pop\n      tag_123\n      swap2\n      swap1\n      tag_124\n      jump\t// in\n    tag_123:\n      pop\n      swap1\n      jump\t// out\n    tag_117:\n      dup3\n      dup1\n      sload\n      dup3\n      dup3\n      sstore\n      swap1\n      0x00\n      mstore\n      keccak256(0x00, 0x20)\n      swap1\n      dup2\n      add\n      swap3\n      dup3\n      iszero\n      tag_125\n      jumpi\n      swap2\n      0x20\n      mul\n      dup3\n      add\n    tag_126:\n      dup3\n      dup2\n      gt\n      iszero\n      tag_127\n      jumpi\n      dup3\n      mload\n      dup3\n      sstore\n      swap2\n      0x20\n      add\n      swap2\n      swap1\n      0x01\n      add\n      swap1\n      jump(tag_126)\n    tag_127:\n    tag_125:\n      pop\n      swap1\n      pop\n      tag_128\n      swap2\n      swap1\n      tag_124\n      jump\t// in\n    tag_128:\n      pop\n      swap1\n      jump\t// out\n    tag_124:\n    tag_129:\n      dup1\n      dup3\n      gt\n      iszero\n      tag_130\n      jumpi\n      0x00\n      dup2\n      0x00\n      swap1\n      sstore\n      pop\n      0x01\n      add\n      jump(tag_129)\n    tag_130:\n      pop\n      swap1\n      jump\t// out\n        /* \"#utility.yul\":7:82   */\n    tag_131:\n        /* \"#utility.yul\":40:46   */\n      0x00\n        /* \"#utility.yul\":73:75   */\n      0x40\n        /* \"#utility.yul\":67:76   */\n      mload\n        /* \"#utility.yul\":57:76   */\n      swap1\n      pop\n        /* \"#utility.yul\":7:82   */\n      swap1\n      jump\t// out\n        /* \"#utility.yul\":88:205   */\n    tag_132:\n        /* \"#utility.yul\":197:198   */\n      0x00\n        /* \"#utility.yul\":194:195   */\n      dup1\n        /* \"#utility.yul\":187:199   */\n      revert\n        /* \"#utility.yul\":211:328   */\n    tag_133:\n        /* \"#utility.yul\":320:321   */\n      0x00\n        /* \"#utility.yul\":317:318   */\n      dup1\n        /* \"#utility.yul\":310:322   */\n      revert\n        /* \"#utility.yul\":334:411   */\n    tag_134:\n        /* \"#utility.yul\":371:378   */\n      0x00\n        /* \"#utility.yul\":400:405   */\n      dup2\n        /* \"#utility.yul\":389:405   */\n      swap1\n      pop\n        /* \"#utility.yul\":334:411   */\n      swap2\n      swap1\n      pop\n      jump\t// out\n        /* \"#utility.yul\":417:539   */\n    tag_135:\n        /* \"#utility.yul\":490:514   */\n      tag_206\n        /* \"#utility.yul\":508:513   */\n      dup2\n        /* \"#utility.yul\":490:514   */\n      tag_134\n      jump\t// in\n    tag_206:\n        /* \"#utility.yul\":483:488   */\n      dup2\n        /* \"#utility.yul\":480:515   */\n      eq\n        /* \"#utility.yul\":470:533   */\n      tag_207\n      jumpi\n        /* \"#utility.yul\":529:530   */\n      0x00\n        /* \"#utility.yul\":526:527   */\n      dup1\n        /* \"#utility.yul\":519:531   */\n      revert\n        /* \"#utility.yul\":470:533   */\n    tag_207:\n        /* \"#utility.yul\":417:539   */\n      pop\n      jump\t// out\n        /* \"#utility.yul\":545:684   */\n    tag_136:\n        /* \"#utility.yul\":591:596   */\n      0x00\n        /* \"#utility.yul\":629:635   */\n      dup2\n        /* \"#utility.yul\":616:636   */\n      calldataload\n        /* \"#utility.yul\":607:636   */\n      swap1\n      pop\n        /* \"#utility.yul\":645:678   */\n      tag_209\n        /* \"#utility.yul\":672:677   */\n      dup2\n        /* \"#utility.yul\":645:678   */\n      tag_135\n      jump\t// in\n    tag_209:\n        /* \"#utility.yul\":545:684   */\n      swap3\n      swap2\n      pop\n      pop\n      jump\t// out\n        /* \"#utility.yul\":690:1019   */\n    tag_23:\n        /* \"#utility.yul\":749:755   */\n      0x00\n        /* \"#utility.yul\":798:800   */\n      0x20\n        /* \"#utility.yul\":786:795   */\n      dup3\n        /* \"#utility.yul\":777:784   */\n      dup5\n        /* \"#utility.yul\":773:796   */\n      sub\n        /* \"#utility.yul\":769:801   */\n      slt\n        /* \"#utility.yul\":766:885   */\n      iszero\n      tag_211\n      jumpi\n        /* \"#utility.yul\":804:883   */\n      tag_212\n      tag_132\n      jump\t// in\n    tag_212:\n        /* \"#utility.yul\":766:885   */\n    tag_211:\n        /* \"#utility.yul\":924:925   */\n      0x00\n        /* \"#utility.yul\":949:1002   */\n      tag_213\n        /* \"#utility.yul\":994:1001   */\n      dup5\n        /* \"#utility.yul\":985:991   */\n      dup3\n        /* \"#utility.yul\":974:983   */\n      dup6\n        /* \"#utility.yul\":970:992   */\n      add\n        /* \"#utility.yul\":949:1002   */\n      tag_136\n      jump\t// in\n    tag_213:\n        /* \"#utility.yul\":939:1002   */\n      swap2\n      pop\n        /* \"#utility.yul\":895:1012   */\n      pop\n        /* \"#utility.yul\":690:1019   */\n      swap3\n      swap2\n      pop\n      pop\n      jump\t// out\n        /* \"#utility.yul\":1025:1143   */\n    tag_137:\n        /* \"#utility.yul\":1112:1136   */\n      tag_215\n        /* \"#utility.yul\":1130:1135   */\n      dup2\n        /* \"#utility.yul\":1112:1136   */\n      tag_134\n      jump\t// in\n    tag_215:\n        /* \"#utility.yul\":1107:1110   */\n      dup3\n        /* \"#utility.yul\":1100:1137   */\n      mstore\n        /* \"#utility.yul\":1025:1143   */\n      pop\n      pop\n      jump\t// out\n        /* \"#utility.yul\":1149:1371   */\n    tag_26:\n        /* \"#utility.yul\":1242:1246   */\n      0x00\n        /* \"#utility.yul\":1280:1282   */\n      0x20\n        /* \"#utility.yul\":1269:1278   */\n      dup3\n        /* \"#utility.yul\":1265:1283   */\n      add\n        /* \"#utility.yul\":1257:1283   */\n      swap1\n      pop\n        /* \"#utility.yul\":1293:1364   */\n      tag_217\n        /* \"#utility.yul\":1361:1362   */\n      0x00\n        /* \"#utility.yul\":1350:1359   */\n      dup4\n        /* \"#utility.yul\":1346:1363   */\n      add\n        /* \"#utility.yul\":1337:1343   */\n      dup5\n        /* \"#utility.yul\":1293:1364   */\n      tag_137\n      jump\t// in\n    tag_217:\n        /* \"#utility.yul\":1149:1371   */\n      swap3\n      swap2\n      pop\n      pop\n      jump\t// out\n        /* \"#utility.yul\":1377:1467   */\n    tag_138:\n        /* \"#utility.yul\":1411:1418   */\n      0x00\n        /* \"#utility.yul\":1454:1459   */\n      dup2\n        /* \"#utility.yul\":1447:1460   */\n      iszero\n        /* \"#utility.yul\":1440:1461   */\n      iszero\n        /* \"#utility.yul\":1429:1461   */\n      swap1\n      pop\n        /* \"#utility.yul\":1377:1467   */\n      swap2\n      swap1\n      pop\n      jump\t// out\n        /* \"#utility.yul\":1473:1582   */\n    tag_139:\n        /* \"#utility.yul\":1554:1575   */\n      tag_220\n        /* \"#utility.yul\":1569:1574   */\n      dup2\n        /* \"#utility.yul\":1554:1575   */\n      tag_138\n      jump\t// in\n    tag_220:\n        /* \"#utility.yul\":1549:1552   */\n      dup3\n        /* \"#utility.yul\":1542:1576   */\n      mstore\n        /* \"#utility.yul\":1473:1582   */\n      pop\n      pop\n      jump\t// out\n        /* \"#utility.yul\":1588:1798   */\n    tag_34:\n        /* \"#utility.yul\":1675:1679   */\n      0x00\n        /* \"#utility.yul\":1713:1715   */\n      0x20\n        /* \"#utility.yul\":1702:1711   */\n      dup3\n        /* \"#utility.yul\":1698:1716   */\n      add\n        /* \"#utility.yul\":1690:1716   */\n      swap1\n      pop\n        /* \"#utility.yul\":1726:1791   */\n      tag_222\n        /* \"#utility.yul\":1788:1789   */\n      0x00\n        /* \"#utility.yul\":1777:1786   */\n      dup4\n        /* \"#utility.yul\":1773:1790   */\n      add\n        /* \"#utility.yul\":1764:1770   */\n      dup5\n        /* \"#utility.yul\":1726:1791   */\n      tag_139\n      jump\t// in\n    tag_222:\n        /* \"#utility.yul\":1588:1798   */\n      swap3\n      swap2\n      pop\n      pop\n      jump\t// out\n        /* \"#utility.yul\":1804:1930   */\n    tag_140:\n        /* \"#utility.yul\":1841:1848   */\n      0x00\n        /* \"#utility.yul\":1881:1923   */\n      0xffffffffffffffffffffffffffffffffffffffff\n        /* \"#utility.yul\":1874:1879   */\n      dup3\n        /* \"#utility.yul\":1870:1924   */\n      and\n        /* \"#utility.yul\":1859:1924   */\n      swap1\n      pop\n        /* \"#utility.yul\":1804:1930   */\n      swap2\n      swap1\n      pop\n      jump\t// out\n        /* \"#utility.yul\":1936:2032   */\n    tag_141:\n        /* \"#utility.yul\":1973:1980   */\n      0x00\n        /* \"#utility.yul\":2002:2026   */\n      tag_225\n        /* \"#utility.yul\":2020:2025   */\n      dup3\n        /* \"#utility.yul\":2002:2026   */\n      tag_140\n      jump\t// in\n    tag_225:\n        /* \"#utility.yul\":1991:2026   */\n      swap1\n      pop\n        /* \"#utility.yul\":1936:2032   */\n      swap2\n      swap1\n      pop\n      jump\t// out\n        /* \"#utility.yul\":2038:2160   */\n    tag_142:\n        /* \"#utility.yul\":2111:2135   */\n      tag_227\n        /* \"#utility.yul\":2129:2134   */\n      dup2\n        /* \"#utility.yul\":2111:2135   */\n      tag_141\n      jump\t// in\n    tag_227:\n        /* \"#utility.yul\":2104:2109   */\n      dup2\n        /* \"#utility.yul\":2101:2136   */\n      eq\n        /* \"#utility.yul\":2091:2154   */\n      tag_228\n      jumpi\n        /* \"#utility.yul\":2150:2151   */\n      0x00\n        /* \"#utility.yul\":2147:2148   */\n      dup1\n        /* \"#utility.yul\":2140:2152   */\n      revert\n        /* \"#utility.yul\":2091:2154   */\n    tag_228:\n        /* \"#utility.yul\":2038:2160   */\n      pop\n      jump\t// out\n        /* \"#utility.yul\":2166:2305   */\n    tag_143:\n        /* \"#utility.yul\":2212:2217   */\n      0x00\n        /* \"#utility.yul\":2250:2256   */\n      dup2\n        /* \"#utility.yul\":2237:2257   */\n      calldataload\n        /* \"#utility.yul\":2228:2257   */\n      swap1\n      pop\n        /* \"#utility.yul\":2266:2299   */\n      tag_230\n        /* \"#utility.yul\":2293:2298   */\n      dup2\n        /* \"#utility.yul\":2266:2299   */\n      tag_142\n      jump\t// in\n    tag_230:\n        /* \"#utility.yul\":2166:2305   */\n      swap3\n      swap2\n      pop\n      pop\n      jump\t// out\n        /* \"#utility.yul\":2311:2640   */\n    tag_37:\n        /* \"#utility.yul\":2370:2376   */\n      0x00\n        /* \"#utility.yul\":2419:2421   */\n      0x20\n        /* \"#utility.yul\":2407:2416   */\n      dup3\n        /* \"#utility.yul\":2398:2405   */\n      dup5\n        /* \"#utility.yul\":2394:2417   */\n      sub\n        /* \"#utility.yul\":2390:2422   */\n      slt\n        /* \"#utility.yul\":2387:2506   */\n      iszero\n      tag_232\n      jumpi\n        /* \"#utility.yul\":2425:2504   */\n      tag_233\n      tag_132\n      jump\t// in\n    tag_233:\n        /* \"#utility.yul\":2387:2506   */\n    tag_232:\n        /* \"#utility.yul\":2545:2546   */\n      0x00\n        /* \"#utility.yul\":2570:2623   */\n      tag_234\n        /* \"#utility.yul\":2615:2622   */\n      dup5\n        /* \"#utility.yul\":2606:2612   */\n      dup3\n        /* \"#utility.yul\":2595:2604   */\n      dup6\n        /* \"#utility.yul\":2591:2613   */\n      add\n        /* \"#utility.yul\":2570:2623   */\n      tag_143\n      jump\t// in\n    tag_234:\n        /* \"#utility.yul\":2560:2623   */\n      swap2\n      pop\n        /* \"#utility.yul\":2516:2633   */\n      pop\n        /* \"#utility.yul\":2311:2640   */\n      swap3\n      swap2\n      pop\n      pop\n      jump\t// out\n        /* \"#utility.yul\":2646:2722   */\n    tag_144:\n        /* \"#utility.yul\":2682:2689   */\n      0x00\n        /* \"#utility.yul\":2711:2716   */\n      dup2\n        /* \"#utility.yul\":2700:2716   */\n      swap1\n      pop\n        /* \"#utility.yul\":2646:2722   */\n      swap2\n      swap1\n      pop\n      jump\t// out\n        /* \"#utility.yul\":2728:2843   */\n    tag_145:\n        /* \"#utility.yul\":2813:2836   */\n      tag_237\n        /* \"#utility.yul\":2830:2835   */\n      dup2\n        /* \"#utility.yul\":2813:2836   */\n      tag_144\n      jump\t// in\n    tag_237:\n        /* \"#utility.yul\":2808:2811   */\n      dup3\n        /* \"#utility.yul\":2801:2837   */\n      mstore\n        /* \"#utility.yul\":2728:2843   */\n      pop\n      pop\n      jump\t// out\n        /* \"#utility.yul\":2849:2967   */\n    tag_146:\n        /* \"#utility.yul\":2936:2960   */\n      tag_239\n        /* \"#utility.yul\":2954:2959   */\n      dup2\n        /* \"#utility.yul\":2936:2960   */\n      tag_141\n      jump\t// in\n    tag_239:\n        /* \"#utility.yul\":2931:2934   */\n      dup3\n        /* \"#utility.yul\":2924:2961   */\n      mstore\n        /* \"#utility.yul\":2849:2967   */\n      pop\n      pop\n      jump\t// out\n        /* \"#utility.yul\":2973:3072   */\n    tag_147:\n        /* \"#utility.yul\":3025:3031   */\n      0x00\n        /* \"#utility.yul\":3059:3064   */\n      dup2\n        /* \"#utility.yul\":3053:3065   */\n      mload\n        /* \"#utility.yul\":3043:3065   */\n      swap1\n      pop\n        /* \"#utility.yul\":2973:3072   */\n      swap2\n      swap1\n      pop\n      jump\t// out\n        /* \"#utility.yul\":3078:3247   */\n    tag_148:\n        /* \"#utility.yul\":3162:3173   */\n      0x00\n        /* \"#utility.yul\":3196:3202   */\n      dup3\n        /* \"#utility.yul\":3191:3194   */\n      dup3\n        /* \"#utility.yul\":3184:3203   */\n      mstore\n        /* \"#utility.yul\":3236:3240   */\n      0x20\n        /* \"#utility.yul\":3231:3234   */\n      dup3\n        /* \"#utility.yul\":3227:3241   */\n      add\n        /* \"#utility.yul\":3212:3241   */\n      swap1\n      pop\n        /* \"#utility.yul\":3078:3247   */\n      swap3\n      swap2\n      pop\n      pop\n      jump\t// out\n        /* \"#utility.yul\":3253:3392   */\n    tag_149:\n        /* \"#utility.yul\":3342:3348   */\n      dup3\n        /* \"#utility.yul\":3337:3340   */\n      dup2\n        /* \"#utility.yul\":3332:3335   */\n      dup4\n        /* \"#utility.yul\":3326:3349   */\n      mcopy\n        /* \"#utility.yul\":3383:3384   */\n      0x00\n        /* \"#utility.yul\":3374:3380   */\n      dup4\n        /* \"#utility.yul\":3369:3372   */\n      dup4\n        /* \"#utility.yul\":3365:3381   */\n      add\n        /* \"#utility.yul\":3358:3385   */\n      mstore\n        /* \"#utility.yul\":3253:3392   */\n      pop\n      pop\n      pop\n      jump\t// out\n        /* \"#utility.yul\":3398:3500   */\n    tag_150:\n        /* \"#utility.yul\":3439:3445   */\n      0x00\n        /* \"#utility.yul\":3490:3492   */\n      0x1f\n        /* \"#utility.yul\":3486:3493   */\n      not\n        /* \"#utility.yul\":3481:3483   */\n      0x1f\n        /* \"#utility.yul\":3474:3479   */\n      dup4\n        /* \"#utility.yul\":3470:3484   */\n      add\n        /* \"#utility.yul\":3466:3494   */\n      and\n        /* \"#utility.yul\":3456:3494   */\n      swap1\n      pop\n        /* \"#utility.yul\":3398:3500   */\n      swap2\n      swap1\n      pop\n      jump\t// out\n        /* \"#utility.yul\":3506:3883   */\n    tag_151:\n        /* \"#utility.yul\":3594:3597   */\n      0x00\n        /* \"#utility.yul\":3622:3661   */\n      tag_245\n        /* \"#utility.yul\":3655:3660   */\n      dup3\n        /* \"#utility.yul\":3622:3661   */\n      tag_147\n      jump\t// in\n    tag_245:\n        /* \"#utility.yul\":3677:3748   */\n      tag_246\n        /* \"#utility.yul\":3741:3747   */\n      dup2\n        /* \"#utility.yul\":3736:3739   */\n      dup6\n        /* \"#utility.yul\":3677:3748   */\n      tag_148\n      jump\t// in\n    tag_246:\n        /* \"#utility.yul\":3670:3748   */\n      swap4\n      pop\n        /* \"#utility.yul\":3757:3822   */\n      tag_247\n        /* \"#utility.yul\":3815:3821   */\n      dup2\n        /* \"#utility.yul\":3810:3813   */\n      dup6\n        /* \"#utility.yul\":3803:3807   */\n      0x20\n        /* \"#utility.yul\":3796:3801   */\n      dup7\n        /* \"#utility.yul\":3792:3808   */\n      add\n        /* \"#utility.yul\":3757:3822   */\n      tag_149\n      jump\t// in\n    tag_247:\n        /* \"#utility.yul\":3847:3876   */\n      tag_248\n        /* \"#utility.yul\":3869:3875   */\n      dup2\n        /* \"#utility.yul\":3847:3876   */\n      tag_150\n      jump\t// in\n    tag_248:\n        /* \"#utility.yul\":3842:3845   */\n      dup5\n        /* \"#utility.yul\":3838:3877   */\n      add\n        /* \"#utility.yul\":3831:3877   */\n      swap2\n      pop\n        /* \"#utility.yul\":3598:3883   */\n      pop\n        /* \"#utility.yul\":3506:3883   */\n      swap3\n      swap2\n      pop\n      pop\n      jump\t// out\n        /* \"#utility.yul\":3889:3993   */\n    tag_152:\n        /* \"#utility.yul\":3954:3960   */\n      0x00\n        /* \"#utility.yul\":3982:3986   */\n      0x03\n        /* \"#utility.yul\":3972:3986   */\n      swap1\n      pop\n        /* \"#utility.yul\":3889:3993   */\n      swap2\n      swap1\n      pop\n      jump\t// out\n        /* \"#utility.yul\":3999:4142   */\n    tag_153:\n        /* \"#utility.yul\":4096:4107   */\n      0x00\n        /* \"#utility.yul\":4133:4136   */\n      dup2\n        /* \"#utility.yul\":4118:4136   */\n      swap1\n      pop\n        /* \"#utility.yul\":3999:4142   */\n      swap3\n      swap2\n      pop\n      pop\n      jump\t// out\n        /* \"#utility.yul\":4148:4246   */\n    tag_154:\n        /* \"#utility.yul\":4213:4217   */\n      0x00\n        /* \"#utility.yul\":4236:4239   */\n      dup2\n        /* \"#utility.yul\":4228:4239   */\n      swap1\n      pop\n        /* \"#utility.yul\":4148:4246   */\n      swap2\n      swap1\n      pop\n      jump\t// out\n        /* \"#utility.yul\":4252:4360   */\n    tag_155:\n        /* \"#utility.yul\":4329:4353   */\n      tag_253\n        /* \"#utility.yul\":4347:4352   */\n      dup2\n        /* \"#utility.yul\":4329:4353   */\n      tag_134\n      jump\t// in\n    tag_253:\n        /* \"#utility.yul\":4324:4327   */\n      dup3\n        /* \"#utility.yul\":4317:4354   */\n      mstore\n        /* \"#utility.yul\":4252:4360   */\n      pop\n      pop\n      jump\t// out\n        /* \"#utility.yul\":4366:4545   */\n    tag_156:\n        /* \"#utility.yul\":4435:4445   */\n      0x00\n        /* \"#utility.yul\":4456:4502   */\n      tag_255\n        /* \"#utility.yul\":4498:4501   */\n      dup4\n        /* \"#utility.yul\":4490:4496   */\n      dup4\n        /* \"#utility.yul\":4456:4502   */\n      tag_155\n      jump\t// in\n    tag_255:\n        /* \"#utility.yul\":4534:4538   */\n      0x20\n        /* \"#utility.yul\":4529:4532   */\n      dup4\n        /* \"#utility.yul\":4525:4539   */\n      add\n        /* \"#utility.yul\":4511:4539   */\n      swap1\n      pop\n        /* \"#utility.yul\":4366:4545   */\n      swap3\n      swap2\n      pop\n      pop\n      jump\t// out\n        /* \"#utility.yul\":4551:4662   */\n    tag_157:\n        /* \"#utility.yul\":4619:4623   */\n      0x00\n        /* \"#utility.yul\":4651:4655   */\n      0x20\n        /* \"#utility.yul\":4646:4649   */\n      dup3\n        /* \"#utility.yul\":4642:4656   */\n      add\n        /* \"#utility.yul\":4634:4656   */\n      swap1\n      pop\n        /* \"#utility.yul\":4551:4662   */\n      swap2\n      swap1\n      pop\n      jump\t// out\n        /* \"#utility.yul\":4700:5394   */\n    tag_158:\n        /* \"#utility.yul\":4836:4888   */\n      tag_258\n        /* \"#utility.yul\":4882:4887   */\n      dup2\n        /* \"#utility.yul\":4836:4888   */\n      tag_152\n      jump\t// in\n    tag_258:\n        /* \"#utility.yul\":4904:4988   */\n      tag_259\n        /* \"#utility.yul\":4981:4987   */\n      dup2\n        /* \"#utility.yul\":4976:4979   */\n      dup5\n        /* \"#utility.yul\":4904:4988   */\n      tag_153\n      jump\t// in\n    tag_259:\n        /* \"#utility.yul\":4897:4988   */\n      swap3\n      pop\n        /* \"#utility.yul\":5012:5066   */\n      tag_260\n        /* \"#utility.yul\":5060:5065   */\n      dup3\n        /* \"#utility.yul\":5012:5066   */\n      tag_154\n      jump\t// in\n    tag_260:\n        /* \"#utility.yul\":5089:5096   */\n      dup1\n        /* \"#utility.yul\":5120:5121   */\n      0x00\n        /* \"#utility.yul\":5105:5387   */\n    tag_261:\n        /* \"#utility.yul\":5130:5136   */\n      dup4\n        /* \"#utility.yul\":5127:5128   */\n      dup2\n        /* \"#utility.yul\":5124:5137   */\n      lt\n        /* \"#utility.yul\":5105:5387   */\n      iszero\n      tag_263\n      jumpi\n        /* \"#utility.yul\":5206:5212   */\n      dup2\n        /* \"#utility.yul\":5200:5213   */\n      mload\n        /* \"#utility.yul\":5233:5296   */\n      tag_264\n        /* \"#utility.yul\":5292:5295   */\n      dup8\n        /* \"#utility.yul\":5277:5290   */\n      dup3\n        /* \"#utility.yul\":5233:5296   */\n      tag_156\n      jump\t// in\n    tag_264:\n        /* \"#utility.yul\":5226:5296   */\n      swap7\n      pop\n        /* \"#utility.yul\":5319:5377   */\n      tag_265\n        /* \"#utility.yul\":5370:5376   */\n      dup4\n        /* \"#utility.yul\":5319:5377   */\n      tag_157\n      jump\t// in\n    tag_265:\n        /* \"#utility.yul\":5309:5377   */\n      swap3\n      pop\n        /* \"#utility.yul\":5165:5387   */\n      pop\n        /* \"#utility.yul\":5152:5153   */\n      0x01\n        /* \"#utility.yul\":5149:5150   */\n      dup2\n        /* \"#utility.yul\":5145:5154   */\n      add\n        /* \"#utility.yul\":5140:5154   */\n      swap1\n      pop\n        /* \"#utility.yul\":5105:5387   */\n      jump(tag_261)\n    tag_263:\n        /* \"#utility.yul\":5109:5123   */\n      pop\n        /* \"#utility.yul\":4812:5394   */\n      pop\n      pop\n      pop\n        /* \"#utility.yul\":4700:5394   */\n      pop\n      pop\n      jump\t// out\n        /* \"#utility.yul\":5400:5514   */\n    tag_159:\n        /* \"#utility.yul\":5467:5473   */\n      0x00\n        /* \"#utility.yul\":5501:5506   */\n      dup2\n        /* \"#utility.yul\":5495:5507   */\n      mload\n        /* \"#utility.yul\":5485:5507   */\n      swap1\n      pop\n        /* \"#utility.yul\":5400:5514   */\n      swap2\n      swap1\n      pop\n      jump\t// out\n        /* \"#utility.yul\":5520:5704   */\n    tag_160:\n        /* \"#utility.yul\":5619:5630   */\n      0x00\n        /* \"#utility.yul\":5653:5659   */\n      dup3\n        /* \"#utility.yul\":5648:5651   */\n      dup3\n        /* \"#utility.yul\":5641:5660   */\n      mstore\n        /* \"#utility.yul\":5693:5697   */\n      0x20\n        /* \"#utility.yul\":5688:5691   */\n      dup3\n        /* \"#utility.yul\":5684:5698   */\n      add\n        /* \"#utility.yul\":5669:5698   */\n      swap1\n      pop\n        /* \"#utility.yul\":5520:5704   */\n      swap3\n      swap2\n      pop\n      pop\n      jump\t// out\n        /* \"#utility.yul\":5710:5842   */\n    tag_161:\n        /* \"#utility.yul\":5777:5781   */\n      0x00\n        /* \"#utility.yul\":5800:5803   */\n      dup2\n        /* \"#utility.yul\":5792:5803   */\n      swap1\n      pop\n        /* \"#utility.yul\":5830:5834   */\n      0x20\n        /* \"#utility.yul\":5825:5828   */\n      dup3\n        /* \"#utility.yul\":5821:5835   */\n      add\n        /* \"#utility.yul\":5813:5835   */\n      swap1\n      pop\n        /* \"#utility.yul\":5710:5842   */\n      swap2\n      swap1\n      pop\n      jump\t// out\n        /* \"#utility.yul\":5848:5961   */\n    tag_162:\n        /* \"#utility.yul\":5918:5922   */\n      0x00\n        /* \"#utility.yul\":5950:5954   */\n      0x20\n        /* \"#utility.yul\":5945:5948   */\n      dup3\n        /* \"#utility.yul\":5941:5955   */\n      add\n        /* \"#utility.yul\":5933:5955   */\n      swap1\n      pop\n        /* \"#utility.yul\":5848:5961   */\n      swap2\n      swap1\n      pop\n      jump\t// out\n        /* \"#utility.yul\":5997:6729   */\n    tag_163:\n        /* \"#utility.yul\":6116:6119   */\n      0x00\n        /* \"#utility.yul\":6145:6199   */\n      tag_271\n        /* \"#utility.yul\":6193:6198   */\n      dup3\n        /* \"#utility.yul\":6145:6199   */\n      tag_159\n      jump\t// in\n    tag_271:\n        /* \"#utility.yul\":6215:6301   */\n      tag_272\n        /* \"#utility.yul\":6294:6300   */\n      dup2\n        /* \"#utility.yul\":6289:6292   */\n      dup6\n        /* \"#utility.yul\":6215:6301   */\n      tag_160\n      jump\t// in\n    tag_272:\n        /* \"#utility.yul\":6208:6301   */\n      swap4\n      pop\n        /* \"#utility.yul\":6325:6381   */\n      tag_273\n        /* \"#utility.yul\":6375:6380   */\n      dup4\n        /* \"#utility.yul\":6325:6381   */\n      tag_161\n      jump\t// in\n    tag_273:\n        /* \"#utility.yul\":6404:6411   */\n      dup1\n        /* \"#utility.yul\":6435:6436   */\n      0x00\n        /* \"#utility.yul\":6420:6704   */\n    tag_274:\n        /* \"#utility.yul\":6445:6451   */\n      dup4\n        /* \"#utility.yul\":6442:6443   */\n      dup2\n        /* \"#utility.yul\":6439:6452   */\n      lt\n        /* \"#utility.yul\":6420:6704   */\n      iszero\n      tag_276\n      jumpi\n        /* \"#utility.yul\":6521:6527   */\n      dup2\n        /* \"#utility.yul\":6515:6528   */\n      mload\n        /* \"#utility.yul\":6548:6611   */\n      tag_277\n        /* \"#utility.yul\":6607:6610   */\n      dup9\n        /* \"#utility.yul\":6592:6605   */\n      dup3\n        /* \"#utility.yul\":6548:6611   */\n      tag_156\n      jump\t// in\n    tag_277:\n        /* \"#utility.yul\":6541:6611   */\n      swap8\n      pop\n        /* \"#utility.yul\":6634:6694   */\n      tag_278\n        /* \"#utility.yul\":6687:6693   */\n      dup4\n        /* \"#utility.yul\":6634:6694   */\n      tag_162\n      jump\t// in\n    tag_278:\n        /* \"#utility.yul\":6624:6694   */\n      swap3\n      pop\n        /* \"#utility.yul\":6480:6704   */\n      pop\n        /* \"#utility.yul\":6467:6468   */\n      0x01\n        /* \"#utility.yul\":6464:6465   */\n      dup2\n        /* \"#utility.yul\":6460:6469   */\n      add\n        /* \"#utility.yul\":6455:6469   */\n      swap1\n      pop\n        /* \"#utility.yul\":6420:6704   */\n      jump(tag_274)\n    tag_276:\n        /* \"#utility.yul\":6424:6438   */\n      pop\n        /* \"#utility.yul\":6720:6723   */\n      dup6\n        /* \"#utility.yul\":6713:6723   */\n      swap4\n      pop\n        /* \"#utility.yul\":6121:6729   */\n      pop\n      pop\n      pop\n        /* \"#utility.yul\":5997:6729   */\n      swap3\n      swap2\n      pop\n      pop\n      jump\t// out\n        /* \"#utility.yul\":6735:7939   */\n    tag_42:\n        /* \"#utility.yul\":7104:7108   */\n      0x00\n        /* \"#utility.yul\":7142:7145   */\n      0x0120\n        /* \"#utility.yul\":7131:7140   */\n      dup3\n        /* \"#utility.yul\":7127:7146   */\n      add\n        /* \"#utility.yul\":7119:7146   */\n      swap1\n      pop\n        /* \"#utility.yul\":7156:7227   */\n      tag_280\n        /* \"#utility.yul\":7224:7225   */\n      0x00\n        /* \"#utility.yul\":7213:7222   */\n      dup4\n        /* \"#utility.yul\":7209:7226   */\n      add\n        /* \"#utility.yul\":7200:7206   */\n      dup11\n        /* \"#utility.yul\":7156:7227   */\n      tag_137\n      jump\t// in\n    tag_280:\n        /* \"#utility.yul\":7237:7307   */\n      tag_281\n        /* \"#utility.yul\":7303:7305   */\n      0x20\n        /* \"#utility.yul\":7292:7301   */\n      dup4\n        /* \"#utility.yul\":7288:7306   */\n      add\n        /* \"#utility.yul\":7279:7285   */\n      dup10\n        /* \"#utility.yul\":7237:7307   */\n      tag_145\n      jump\t// in\n    tag_281:\n        /* \"#utility.yul\":7317:7383   */\n      tag_282\n        /* \"#utility.yul\":7379:7381   */\n      0x40\n        /* \"#utility.yul\":7368:7377   */\n      dup4\n        /* \"#utility.yul\":7364:7382   */\n      add\n        /* \"#utility.yul\":7355:7361   */\n      dup9\n        /* \"#utility.yul\":7317:7383   */\n      tag_139\n      jump\t// in\n    tag_282:\n        /* \"#utility.yul\":7393:7465   */\n      tag_283\n        /* \"#utility.yul\":7461:7463   */\n      0x60\n        /* \"#utility.yul\":7450:7459   */\n      dup4\n        /* \"#utility.yul\":7446:7464   */\n      add\n        /* \"#utility.yul\":7437:7443   */\n      dup8\n        /* \"#utility.yul\":7393:7465   */\n      tag_146\n      jump\t// in\n    tag_283:\n        /* \"#utility.yul\":7513:7522   */\n      dup2\n        /* \"#utility.yul\":7507:7511   */\n      dup2\n        /* \"#utility.yul\":7503:7523   */\n      sub\n        /* \"#utility.yul\":7497:7500   */\n      0x80\n        /* \"#utility.yul\":7486:7495   */\n      dup4\n        /* \"#utility.yul\":7482:7501   */\n      add\n        /* \"#utility.yul\":7475:7524   */\n      mstore\n        /* \"#utility.yul\":7541:7619   */\n      tag_284\n        /* \"#utility.yul\":7614:7618   */\n      dup2\n        /* \"#utility.yul\":7605:7611   */\n      dup7\n        /* \"#utility.yul\":7541:7619   */\n      tag_151\n      jump\t// in\n    tag_284:\n        /* \"#utility.yul\":7533:7619   */\n      swap1\n      pop\n        /* \"#utility.yul\":7629:7748   */\n      tag_285\n        /* \"#utility.yul\":7743:7746   */\n      0xa0\n        /* \"#utility.yul\":7732:7741   */\n      dup4\n        /* \"#utility.yul\":7728:7747   */\n      add\n        /* \"#utility.yul\":7719:7725   */\n      dup6\n        /* \"#utility.yul\":7629:7748   */\n      tag_158\n      jump\t// in\n    tag_285:\n        /* \"#utility.yul\":7796:7805   */\n      dup2\n        /* \"#utility.yul\":7790:7794   */\n      dup2\n        /* \"#utility.yul\":7786:7806   */\n      sub\n        /* \"#utility.yul\":7780:7783   */\n      0x0100\n        /* \"#utility.yul\":7769:7778   */\n      dup4\n        /* \"#utility.yul\":7765:7784   */\n      add\n        /* \"#utility.yul\":7758:7807   */\n      mstore\n        /* \"#utility.yul\":7824:7932   */\n      tag_286\n        /* \"#utility.yul\":7927:7931   */\n      dup2\n        /* \"#utility.yul\":7918:7924   */\n      dup5\n        /* \"#utility.yul\":7824:7932   */\n      tag_163\n      jump\t// in\n    tag_286:\n        /* \"#utility.yul\":7816:7932   */\n      swap1\n      pop\n        /* \"#utility.yul\":6735:7939   */\n      swap9\n      swap8\n      pop\n      pop\n      pop\n      pop\n      pop\n      pop\n      pop\n      pop\n      jump\t// out\n        /* \"#utility.yul\":7945:8062   */\n    tag_164:\n        /* \"#utility.yul\":8054:8055   */\n      0x00\n        /* \"#utility.yul\":8051:8052   */\n      dup1\n        /* \"#utility.yul\":8044:8056   */\n      revert\n        /* \"#utility.yul\":8068:8185   */\n    tag_165:\n        /* \"#utility.yul\":8177:8178   */\n      0x00\n        /* \"#utility.yul\":8174:8175   */\n      dup1\n        /* \"#utility.yul\":8167:8179   */\n      revert\n        /* \"#utility.yul\":8191:8371   */\n    tag_166:\n        /* \"#utility.yul\":8239:8316   */\n      0x4e487b7100000000000000000000000000000000000000000000000000000000\n        /* \"#utility.yul\":8236:8237   */\n      0x00\n        /* \"#utility.yul\":8229:8317   */\n      mstore\n        /* \"#utility.yul\":8336:8340   */\n      0x41\n        /* \"#utility.yul\":8333:8334   */\n      0x04\n        /* \"#utility.yul\":8326:8341   */\n      mstore\n        /* \"#utility.yul\":8360:8364   */\n      0x24\n        /* \"#utility.yul\":8357:8358   */\n      0x00\n        /* \"#utility.yul\":8350:8365   */\n      revert\n        /* \"#utility.yul\":8377:8658   */\n    tag_167:\n        /* \"#utility.yul\":8460:8487   */\n      tag_291\n        /* \"#utility.yul\":8482:8486   */\n      dup3\n        /* \"#utility.yul\":8460:8487   */\n      tag_150\n      jump\t// in\n    tag_291:\n        /* \"#utility.yul\":8452:8458   */\n      dup2\n        /* \"#utility.yul\":8448:8488   */\n      add\n        /* \"#utility.yul\":8590:8596   */\n      dup2\n        /* \"#utility.yul\":8578:8588   */\n      dup2\n        /* \"#utility.yul\":8575:8597   */\n      lt\n        /* \"#utility.yul\":8554:8572   */\n      0xffffffffffffffff\n        /* \"#utility.yul\":8542:8552   */\n      dup3\n        /* \"#utility.yul\":8539:8573   */\n      gt\n        /* \"#utility.yul\":8536:8598   */\n      or\n        /* \"#utility.yul\":8533:8621   */\n      iszero\n      tag_292\n      jumpi\n        /* \"#utility.yul\":8601:8619   */\n      tag_293\n      tag_166\n      jump\t// in\n    tag_293:\n        /* \"#utility.yul\":8533:8621   */\n    tag_292:\n        /* \"#utility.yul\":8641:8651   */\n      dup1\n        /* \"#utility.yul\":8637:8639   */\n      0x40\n        /* \"#utility.yul\":8630:8652   */\n      mstore\n        /* \"#utility.yul\":8420:8658   */\n      pop\n        /* \"#utility.yul\":8377:8658   */\n      pop\n      pop\n      jump\t// out\n        /* \"#utility.yul\":8664:8793   */\n    tag_168:\n        /* \"#utility.yul\":8698:8704   */\n      0x00\n        /* \"#utility.yul\":8725:8745   */\n      tag_295\n      tag_131\n      jump\t// in\n    tag_295:\n        /* \"#utility.yul\":8715:8745   */\n      swap1\n      pop\n        /* \"#utility.yul\":8754:8787   */\n      tag_296\n        /* \"#utility.yul\":8782:8786   */\n      dup3\n        /* \"#utility.yul\":8774:8780   */\n      dup3\n        /* \"#utility.yul\":8754:8787   */\n      tag_167\n      jump\t// in\n    tag_296:\n        /* \"#utility.yul\":8664:8793   */\n      swap2\n      swap1\n      pop\n      jump\t// out\n        /* \"#utility.yul\":8799:9107   */\n    tag_169:\n        /* \"#utility.yul\":8861:8865   */\n      0x00\n        /* \"#utility.yul\":8951:8969   */\n      0xffffffffffffffff\n        /* \"#utility.yul\":8943:8949   */\n      dup3\n        /* \"#utility.yul\":8940:8970   */\n      gt\n        /* \"#utility.yul\":8937:8993   */\n      iszero\n      tag_298\n      jumpi\n        /* \"#utility.yul\":8973:8991   */\n      tag_299\n      tag_166\n      jump\t// in\n    tag_299:\n        /* \"#utility.yul\":8937:8993   */\n    tag_298:\n        /* \"#utility.yul\":9011:9040   */\n      tag_300\n        /* \"#utility.yul\":9033:9039   */\n      dup3\n        /* \"#utility.yul\":9011:9040   */\n      tag_150\n      jump\t// in\n    tag_300:\n        /* \"#utility.yul\":9003:9040   */\n      swap1\n      pop\n        /* \"#utility.yul\":9095:9099   */\n      0x20\n        /* \"#utility.yul\":9089:9093   */\n      dup2\n        /* \"#utility.yul\":9085:9100   */\n      add\n        /* \"#utility.yul\":9077:9100   */\n      swap1\n      pop\n        /* \"#utility.yul\":8799:9107   */\n      swap2\n      swap1\n      pop\n      jump\t// out\n        /* \"#utility.yul\":9113:9261   */\n    tag_170:\n        /* \"#utility.yul\":9211:9217   */\n      dup3\n        /* \"#utility.yul\":9206:9209   */\n      dup2\n        /* \"#utility.yul\":9201:9204   */\n      dup4\n        /* \"#utility.yul\":9188:9218   */\n      calldatacopy\n        /* \"#utility.yul\":9252:9253   */\n      0x00\n        /* \"#utility.yul\":9243:9249   */\n      dup4\n        /* \"#utility.yul\":9238:9241   */\n      dup4\n        /* \"#utility.yul\":9234:9250   */\n      add\n        /* \"#utility.yul\":9227:9254   */\n      mstore\n        /* \"#utility.yul\":9113:9261   */\n      pop\n      pop\n      pop\n      jump\t// out\n        /* \"#utility.yul\":9267:9692   */\n    tag_171:\n        /* \"#utility.yul\":9345:9350   */\n      0x00\n        /* \"#utility.yul\":9370:9436   */\n      tag_303\n        /* \"#utility.yul\":9386:9435   */\n      tag_304\n        /* \"#utility.yul\":9428:9434   */\n      dup5\n        /* \"#utility.yul\":9386:9435   */\n      tag_169\n      jump\t// in\n    tag_304:\n        /* \"#utility.yul\":9370:9436   */\n      tag_168\n      jump\t// in\n    tag_303:\n        /* \"#utility.yul\":9361:9436   */\n      swap1\n      pop\n        /* \"#utility.yul\":9459:9465   */\n      dup3\n        /* \"#utility.yul\":9452:9457   */\n      dup2\n        /* \"#utility.yul\":9445:9466   */\n      mstore\n        /* \"#utility.yul\":9497:9501   */\n      0x20\n        /* \"#utility.yul\":9490:9495   */\n      dup2\n        /* \"#utility.yul\":9486:9502   */\n      add\n        /* \"#utility.yul\":9535:9538   */\n      dup5\n        /* \"#utility.yul\":9526:9532   */\n      dup5\n        /* \"#utility.yul\":9521:9524   */\n      dup5\n        /* \"#utility.yul\":9517:9533   */\n      add\n        /* \"#utility.yul\":9514:9539   */\n      gt\n        /* \"#utility.yul\":9511:9623   */\n      iszero\n      tag_305\n      jumpi\n        /* \"#utility.yul\":9542:9621   */\n      tag_306\n      tag_165\n      jump\t// in\n    tag_306:\n        /* \"#utility.yul\":9511:9623   */\n    tag_305:\n        /* \"#utility.yul\":9632:9686   */\n      tag_307\n        /* \"#utility.yul\":9679:9685   */\n      dup5\n        /* \"#utility.yul\":9674:9677   */\n      dup3\n        /* \"#utility.yul\":9669:9672   */\n      dup6\n        /* \"#utility.yul\":9632:9686   */\n      tag_170\n      jump\t// in\n    tag_307:\n        /* \"#utility.yul\":9351:9692   */\n      pop\n        /* \"#utility.yul\":9267:9692   */\n      swap4\n      swap3\n      pop\n      pop\n      pop\n      jump\t// out\n        /* \"#utility.yul\":9712:10052   */\n    tag_172:\n        /* \"#utility.yul\":9768:9773   */\n      0x00\n        /* \"#utility.yul\":9817:9820   */\n      dup3\n        /* \"#utility.yul\":9810:9814   */\n      0x1f\n        /* \"#utility.yul\":9802:9808   */\n      dup4\n        /* \"#utility.yul\":9798:9815   */\n      add\n        /* \"#utility.yul\":9794:9821   */\n      slt\n        /* \"#utility.yul\":9784:9906   */\n      tag_309\n      jumpi\n        /* \"#utility.yul\":9825:9904   */\n      tag_310\n      tag_164\n      jump\t// in\n    tag_310:\n        /* \"#utility.yul\":9784:9906   */\n    tag_309:\n        /* \"#utility.yul\":9942:9948   */\n      dup2\n        /* \"#utility.yul\":9929:9949   */\n      calldataload\n        /* \"#utility.yul\":9967:10046   */\n      tag_311\n        /* \"#utility.yul\":10042:10045   */\n      dup5\n        /* \"#utility.yul\":10034:10040   */\n      dup3\n        /* \"#utility.yul\":10027:10031   */\n      0x20\n        /* \"#utility.yul\":10019:10025   */\n      dup7\n        /* \"#utility.yul\":10015:10032   */\n      add\n        /* \"#utility.yul\":9967:10046   */\n      tag_171\n      jump\t// in\n    tag_311:\n        /* \"#utility.yul\":9958:10046   */\n      swap2\n      pop\n        /* \"#utility.yul\":9774:10052   */\n      pop\n        /* \"#utility.yul\":9712:10052   */\n      swap3\n      swap2\n      pop\n      pop\n      jump\t// out\n        /* \"#utility.yul\":10058:10567   */\n    tag_45:\n        /* \"#utility.yul\":10127:10133   */\n      0x00\n        /* \"#utility.yul\":10176:10178   */\n      0x20\n        /* \"#utility.yul\":10164:10173   */\n      dup3\n        /* \"#utility.yul\":10155:10162   */\n      dup5\n        /* \"#utility.yul\":10151:10174   */\n      sub\n        /* \"#utility.yul\":10147:10179   */\n      slt\n        /* \"#utility.yul\":10144:10263   */\n      iszero\n      tag_313\n      jumpi\n        /* \"#utility.yul\":10182:10261   */\n      tag_314\n      tag_132\n      jump\t// in\n    tag_314:\n        /* \"#utility.yul\":10144:10263   */\n    tag_313:\n        /* \"#utility.yul\":10330:10331   */\n      0x00\n        /* \"#utility.yul\":10319:10328   */\n      dup3\n        /* \"#utility.yul\":10315:10332   */\n      add\n        /* \"#utility.yul\":10302:10333   */\n      calldataload\n        /* \"#utility.yul\":10360:10378   */\n      0xffffffffffffffff\n        /* \"#utility.yul\":10352:10358   */\n      dup2\n        /* \"#utility.yul\":10349:10379   */\n      gt\n        /* \"#utility.yul\":10346:10463   */\n      iszero\n      tag_315\n      jumpi\n        /* \"#utility.yul\":10382:10461   */\n      tag_316\n      tag_133\n      jump\t// in\n    tag_316:\n        /* \"#utility.yul\":10346:10463   */\n    tag_315:\n        /* \"#utility.yul\":10487:10550   */\n      tag_317\n        /* \"#utility.yul\":10542:10549   */\n      dup5\n        /* \"#utility.yul\":10533:10539   */\n      dup3\n        /* \"#utility.yul\":10522:10531   */\n      dup6\n        /* \"#utility.yul\":10518:10540   */\n      add\n        /* \"#utility.yul\":10487:10550   */\n      tag_172\n      jump\t// in\n    tag_317:\n        /* \"#utility.yul\":10477:10550   */\n      swap2\n      pop\n        /* \"#utility.yul\":10273:10560   */\n      pop\n        /* \"#utility.yul\":10058:10567   */\n      swap3\n      swap2\n      pop\n      pop\n      jump\t// out\n        /* \"#utility.yul\":10573:10795   */\n    tag_53:\n        /* \"#utility.yul\":10666:10670   */\n      0x00\n        /* \"#utility.yul\":10704:10706   */\n      0x20\n        /* \"#utility.yul\":10693:10702   */\n      dup3\n        /* \"#utility.yul\":10689:10707   */\n      add\n        /* \"#utility.yul\":10681:10707   */\n      swap1\n      pop\n        /* \"#utility.yul\":10717:10788   */\n      tag_319\n        /* \"#utility.yul\":10785:10786   */\n      0x00\n        /* \"#utility.yul\":10774:10783   */\n      dup4\n        /* \"#utility.yul\":10770:10787   */\n      add\n        /* \"#utility.yul\":10761:10767   */\n      dup5\n        /* \"#utility.yul\":10717:10788   */\n      tag_146\n      jump\t// in\n    tag_319:\n        /* \"#utility.yul\":10573:10795   */\n      swap3\n      swap2\n      pop\n      pop\n      jump\t// out\n        /* \"#utility.yul\":10801:10917   */\n    tag_173:\n        /* \"#utility.yul\":10871:10892   */\n      tag_321\n        /* \"#utility.yul\":10886:10891   */\n      dup2\n        /* \"#utility.yul\":10871:10892   */\n      tag_138\n      jump\t// in\n    tag_321:\n        /* \"#utility.yul\":10864:10869   */\n      dup2\n        /* \"#utility.yul\":10861:10893   */\n      eq\n        /* \"#utility.yul\":10851:10911   */\n      tag_322\n      jumpi\n        /* \"#utility.yul\":10907:10908   */\n      0x00\n        /* \"#utility.yul\":10904:10905   */\n      dup1\n        /* \"#utility.yul\":10897:10909   */\n      revert\n        /* \"#utility.yul\":10851:10911   */\n    tag_322:\n        /* \"#utility.yul\":10801:10917   */\n      pop\n      jump\t// out\n        /* \"#utility.yul\":10923:11056   */\n    tag_174:\n        /* \"#utility.yul\":10966:10971   */\n      0x00\n        /* \"#utility.yul\":11004:11010   */\n      dup2\n        /* \"#utility.yul\":10991:11011   */\n      calldataload\n        /* \"#utility.yul\":10982:11011   */\n      swap1\n      pop\n        /* \"#utility.yul\":11020:11050   */\n      tag_324\n        /* \"#utility.yul\":11044:11049   */\n      dup2\n        /* \"#utility.yul\":11020:11050   */\n      tag_173\n      jump\t// in\n    tag_324:\n        /* \"#utility.yul\":10923:11056   */\n      swap3\n      swap2\n      pop\n      pop\n      jump\t// out\n        /* \"#utility.yul\":11062:11385   */\n    tag_56:\n        /* \"#utility.yul\":11118:11124   */\n      0x00\n        /* \"#utility.yul\":11167:11169   */\n      0x20\n        /* \"#utility.yul\":11155:11164   */\n      dup3\n        /* \"#utility.yul\":11146:11153   */\n      dup5\n        /* \"#utility.yul\":11142:11165   */\n      sub\n        /* \"#utility.yul\":11138:11170   */\n      slt\n        /* \"#utility.yul\":11135:11254   */\n      iszero\n      tag_326\n      jumpi\n        /* \"#utility.yul\":11173:11252   */\n      tag_327\n      tag_132\n      jump\t// in\n    tag_327:\n        /* \"#utility.yul\":11135:11254   */\n    tag_326:\n        /* \"#utility.yul\":11293:11294   */\n      0x00\n        /* \"#utility.yul\":11318:11368   */\n      tag_328\n        /* \"#utility.yul\":11360:11367   */\n      dup5\n        /* \"#utility.yul\":11351:11357   */\n      dup3\n        /* \"#utility.yul\":11340:11349   */\n      dup6\n        /* \"#utility.yul\":11336:11358   */\n      add\n        /* \"#utility.yul\":11318:11368   */\n      tag_174\n      jump\t// in\n    tag_328:\n        /* \"#utility.yul\":11308:11368   */\n      swap2\n      pop\n        /* \"#utility.yul\":11264:11378   */\n      pop\n        /* \"#utility.yul\":11062:11385   */\n      swap3\n      swap2\n      pop\n      pop\n      jump\t// out\n        /* \"#utility.yul\":11391:11640   */\n    tag_175:\n        /* \"#utility.yul\":11466:11470   */\n      0x00\n        /* \"#utility.yul\":11556:11574   */\n      0xffffffffffffffff\n        /* \"#utility.yul\":11548:11554   */\n      dup3\n        /* \"#utility.yul\":11545:11575   */\n      gt\n        /* \"#utility.yul\":11542:11598   */\n      iszero\n      tag_330\n      jumpi\n        /* \"#utility.yul\":11578:11596   */\n      tag_331\n      tag_166\n      jump\t// in\n    tag_331:\n        /* \"#utility.yul\":11542:11598   */\n    tag_330:\n        /* \"#utility.yul\":11628:11632   */\n      0x20\n        /* \"#utility.yul\":11620:11626   */\n      dup3\n        /* \"#utility.yul\":11616:11633   */\n      mul\n        /* \"#utility.yul\":11608:11633   */\n      swap1\n      pop\n        /* \"#utility.yul\":11391:11640   */\n      swap2\n      swap1\n      pop\n      jump\t// out\n        /* \"#utility.yul\":11646:11763   */\n    tag_176:\n        /* \"#utility.yul\":11755:11756   */\n      0x00\n        /* \"#utility.yul\":11752:11753   */\n      dup1\n        /* \"#utility.yul\":11745:11757   */\n      revert\n        /* \"#utility.yul\":11787:12430   */\n    tag_177:\n        /* \"#utility.yul\":11881:11886   */\n      0x00\n        /* \"#utility.yul\":11906:11985   */\n      tag_334\n        /* \"#utility.yul\":11922:11984   */\n      tag_335\n        /* \"#utility.yul\":11977:11983   */\n      dup5\n        /* \"#utility.yul\":11922:11984   */\n      tag_175\n      jump\t// in\n    tag_335:\n        /* \"#utility.yul\":11906:11985   */\n      tag_168\n      jump\t// in\n    tag_334:\n        /* \"#utility.yul\":11897:11985   */\n      swap1\n      pop\n        /* \"#utility.yul\":12005:12010   */\n      dup1\n        /* \"#utility.yul\":12058:12062   */\n      0x20\n        /* \"#utility.yul\":12050:12056   */\n      dup5\n        /* \"#utility.yul\":12046:12063   */\n      mul\n        /* \"#utility.yul\":12038:12044   */\n      dup4\n        /* \"#utility.yul\":12034:12064   */\n      add\n        /* \"#utility.yul\":12087:12090   */\n      dup6\n        /* \"#utility.yul\":12079:12085   */\n      dup2\n        /* \"#utility.yul\":12076:12091   */\n      gt\n        /* \"#utility.yul\":12073:12195   */\n      iszero\n      tag_336\n      jumpi\n        /* \"#utility.yul\":12106:12185   */\n      tag_337\n      tag_176\n      jump\t// in\n    tag_337:\n        /* \"#utility.yul\":12073:12195   */\n    tag_336:\n        /* \"#utility.yul\":12221:12227   */\n      dup4\n        /* \"#utility.yul\":12204:12424   */\n    tag_338:\n        /* \"#utility.yul\":12238:12244   */\n      dup2\n        /* \"#utility.yul\":12233:12236   */\n      dup2\n        /* \"#utility.yul\":12230:12245   */\n      lt\n        /* \"#utility.yul\":12204:12424   */\n      iszero\n      tag_340\n      jumpi\n        /* \"#utility.yul\":12313:12316   */\n      dup1\n        /* \"#utility.yul\":12342:12379   */\n      tag_341\n        /* \"#utility.yul\":12375:12378   */\n      dup9\n        /* \"#utility.yul\":12363:12373   */\n      dup3\n        /* \"#utility.yul\":12342:12379   */\n      tag_136\n      jump\t// in\n    tag_341:\n        /* \"#utility.yul\":12337:12340   */\n      dup5\n        /* \"#utility.yul\":12330:12380   */\n      mstore\n        /* \"#utility.yul\":12409:12413   */\n      0x20\n        /* \"#utility.yul\":12404:12407   */\n      dup5\n        /* \"#utility.yul\":12400:12414   */\n      add\n        /* \"#utility.yul\":12393:12414   */\n      swap4\n      pop\n        /* \"#utility.yul\":12280:12424   */\n      pop\n        /* \"#utility.yul\":12264:12268   */\n      0x20\n        /* \"#utility.yul\":12259:12262   */\n      dup2\n        /* \"#utility.yul\":12255:12269   */\n      add\n        /* \"#utility.yul\":12248:12269   */\n      swap1\n      pop\n        /* \"#utility.yul\":12204:12424   */\n      jump(tag_338)\n    tag_340:\n        /* \"#utility.yul\":12208:12229   */\n      pop\n        /* \"#utility.yul\":11887:12430   */\n      pop\n      pop\n        /* \"#utility.yul\":11787:12430   */\n      swap4\n      swap3\n      pop\n      pop\n      pop\n      jump\t// out\n        /* \"#utility.yul\":12454:12793   */\n    tag_178:\n        /* \"#utility.yul\":12523:12528   */\n      0x00\n        /* \"#utility.yul\":12572:12575   */\n      dup3\n        /* \"#utility.yul\":12565:12569   */\n      0x1f\n        /* \"#utility.yul\":12557:12563   */\n      dup4\n        /* \"#utility.yul\":12553:12570   */\n      add\n        /* \"#utility.yul\":12549:12576   */\n      slt\n        /* \"#utility.yul\":12539:12661   */\n      tag_343\n      jumpi\n        /* \"#utility.yul\":12580:12659   */\n      tag_344\n      tag_164\n      jump\t// in\n    tag_344:\n        /* \"#utility.yul\":12539:12661   */\n    tag_343:\n        /* \"#utility.yul\":12684:12688   */\n      0x03\n        /* \"#utility.yul\":12706:12787   */\n      tag_345\n        /* \"#utility.yul\":12783:12786   */\n      dup5\n        /* \"#utility.yul\":12775:12781   */\n      dup3\n        /* \"#utility.yul\":12767:12773   */\n      dup6\n        /* \"#utility.yul\":12706:12787   */\n      tag_177\n      jump\t// in\n    tag_345:\n        /* \"#utility.yul\":12697:12787   */\n      swap2\n      pop\n        /* \"#utility.yul\":12529:12793   */\n      pop\n        /* \"#utility.yul\":12454:12793   */\n      swap3\n      swap2\n      pop\n      pop\n      jump\t// out\n        /* \"#utility.yul\":12799:13174   */\n    tag_63:\n        /* \"#utility.yul\":12881:12887   */\n      0x00\n        /* \"#utility.yul\":12930:12932   */\n      0x60\n        /* \"#utility.yul\":12918:12927   */\n      dup3\n        /* \"#utility.yul\":12909:12916   */\n      dup5\n        /* \"#utility.yul\":12905:12928   */\n      sub\n        /* \"#utility.yul\":12901:12933   */\n      slt\n        /* \"#utility.yul\":12898:13017   */\n      iszero\n      tag_347\n      jumpi\n        /* \"#utility.yul\":12936:13015   */\n      tag_348\n      tag_132\n      jump\t// in\n    tag_348:\n        /* \"#utility.yul\":12898:13017   */\n    tag_347:\n        /* \"#utility.yul\":13056:13057   */\n      0x00\n        /* \"#utility.yul\":13081:13157   */\n      tag_349\n        /* \"#utility.yul\":13149:13156   */\n      dup5\n        /* \"#utility.yul\":13140:13146   */\n      dup3\n        /* \"#utility.yul\":13129:13138   */\n      dup6\n        /* \"#utility.yul\":13125:13147   */\n      add\n        /* \"#utility.yul\":13081:13157   */\n      tag_178\n      jump\t// in\n    tag_349:\n        /* \"#utility.yul\":13071:13157   */\n      swap2\n      pop\n        /* \"#utility.yul\":13027:13167   */\n      pop\n        /* \"#utility.yul\":12799:13174   */\n      swap3\n      swap2\n      pop\n      pop\n      jump\t// out\n        /* \"#utility.yul\":13180:13398   */\n    tag_68:\n        /* \"#utility.yul\":13271:13275   */\n      0x00\n        /* \"#utility.yul\":13309:13311   */\n      0x20\n        /* \"#utility.yul\":13298:13307   */\n      dup3\n        /* \"#utility.yul\":13294:13312   */\n      add\n        /* \"#utility.yul\":13286:13312   */\n      swap1\n      pop\n        /* \"#utility.yul\":13322:13391   */\n      tag_351\n        /* \"#utility.yul\":13388:13389   */\n      0x00\n        /* \"#utility.yul\":13377:13386   */\n      dup4\n        /* \"#utility.yul\":13373:13390   */\n      add\n        /* \"#utility.yul\":13364:13370   */\n      dup5\n        /* \"#utility.yul\":13322:13391   */\n      tag_145\n      jump\t// in\n    tag_351:\n        /* \"#utility.yul\":13180:13398   */\n      swap3\n      swap2\n      pop\n      pop\n      jump\t// out\n        /* \"#utility.yul\":13404:13717   */\n    tag_72:\n        /* \"#utility.yul\":13517:13521   */\n      0x00\n        /* \"#utility.yul\":13555:13557   */\n      0x20\n        /* \"#utility.yul\":13544:13553   */\n      dup3\n        /* \"#utility.yul\":13540:13558   */\n      add\n        /* \"#utility.yul\":13532:13558   */\n      swap1\n      pop\n        /* \"#utility.yul\":13604:13613   */\n      dup2\n        /* \"#utility.yul\":13598:13602   */\n      dup2\n        /* \"#utility.yul\":13594:13614   */\n      sub\n        /* \"#utility.yul\":13590:13591   */\n      0x00\n        /* \"#utility.yul\":13579:13588   */\n      dup4\n        /* \"#utility.yul\":13575:13592   */\n      add\n        /* \"#utility.yul\":13568:13615   */\n      mstore\n        /* \"#utility.yul\":13632:13710   */\n      tag_353\n        /* \"#utility.yul\":13705:13709   */\n      dup2\n        /* \"#utility.yul\":13696:13702   */\n      dup5\n        /* \"#utility.yul\":13632:13710   */\n      tag_151\n      jump\t// in\n    tag_353:\n        /* \"#utility.yul\":13624:13710   */\n      swap1\n      pop\n        /* \"#utility.yul\":13404:13717   */\n      swap3\n      swap2\n      pop\n      pop\n      jump\t// out\n        /* \"#utility.yul\":13723:13843   */\n    tag_179:\n        /* \"#utility.yul\":13795:13818   */\n      tag_355\n        /* \"#utility.yul\":13812:13817   */\n      dup2\n        /* \"#utility.yul\":13795:13818   */\n      tag_144\n      jump\t// in\n    tag_355:\n        /* \"#utility.yul\":13788:13793   */\n      dup2\n        /* \"#utility.yul\":13785:13819   */\n      eq\n        /* \"#utility.yul\":13775:13837   */\n      tag_356\n      jumpi\n        /* \"#utility.yul\":13833:13834   */\n      0x00\n        /* \"#utility.yul\":13830:13831   */\n      dup1\n        /* \"#utility.yul\":13823:13835   */\n      revert\n        /* \"#utility.yul\":13775:13837   */\n    tag_356:\n        /* \"#utility.yul\":13723:13843   */\n      pop\n      jump\t// out\n        /* \"#utility.yul\":13849:13986   */\n    tag_180:\n        /* \"#utility.yul\":13894:13899   */\n      0x00\n        /* \"#utility.yul\":13932:13938   */\n      dup2\n        /* \"#utility.yul\":13919:13939   */\n      calldataload\n        /* \"#utility.yul\":13910:13939   */\n      swap1\n      pop\n        /* \"#utility.yul\":13948:13980   */\n      tag_358\n        /* \"#utility.yul\":13974:13979   */\n      dup2\n        /* \"#utility.yul\":13948:13980   */\n      tag_179\n      jump\t// in\n    tag_358:\n        /* \"#utility.yul\":13849:13986   */\n      swap3\n      swap2\n      pop\n      pop\n      jump\t// out\n        /* \"#utility.yul\":13992:14319   */\n    tag_75:\n        /* \"#utility.yul\":14050:14056   */\n      0x00\n        /* \"#utility.yul\":14099:14101   */\n      0x20\n        /* \"#utility.yul\":14087:14096   */\n      dup3\n        /* \"#utility.yul\":14078:14085   */\n      dup5\n        /* \"#utility.yul\":14074:14097   */\n      sub\n        /* \"#utility.yul\":14070:14102   */\n      slt\n        /* \"#utility.yul\":14067:14186   */\n      iszero\n      tag_360\n      jumpi\n        /* \"#utility.yul\":14105:14184   */\n      tag_361\n      tag_132\n      jump\t// in\n    tag_361:\n        /* \"#utility.yul\":14067:14186   */\n    tag_360:\n        /* \"#utility.yul\":14225:14226   */\n      0x00\n        /* \"#utility.yul\":14250:14302   */\n      tag_362\n        /* \"#utility.yul\":14294:14301   */\n      dup5\n        /* \"#utility.yul\":14285:14291   */\n      dup3\n        /* \"#utility.yul\":14274:14283   */\n      dup6\n        /* \"#utility.yul\":14270:14292   */\n      add\n        /* \"#utility.yul\":14250:14302   */\n      tag_180\n      jump\t// in\n    tag_362:\n        /* \"#utility.yul\":14240:14302   */\n      swap2\n      pop\n        /* \"#utility.yul\":14196:14312   */\n      pop\n        /* \"#utility.yul\":13992:14319   */\n      swap3\n      swap2\n      pop\n      pop\n      jump\t// out\n        /* \"#utility.yul\":14325:14636   */\n    tag_181:\n        /* \"#utility.yul\":14402:14406   */\n      0x00\n        /* \"#utility.yul\":14492:14510   */\n      0xffffffffffffffff\n        /* \"#utility.yul\":14484:14490   */\n      dup3\n        /* \"#utility.yul\":14481:14511   */\n      gt\n        /* \"#utility.yul\":14478:14534   */\n      iszero\n      tag_364\n      jumpi\n        /* \"#utility.yul\":14514:14532   */\n      tag_365\n      tag_166\n      jump\t// in\n    tag_365:\n        /* \"#utility.yul\":14478:14534   */\n    tag_364:\n        /* \"#utility.yul\":14564:14568   */\n      0x20\n        /* \"#utility.yul\":14556:14562   */\n      dup3\n        /* \"#utility.yul\":14552:14569   */\n      mul\n        /* \"#utility.yul\":14544:14569   */\n      swap1\n      pop\n        /* \"#utility.yul\":14624:14628   */\n      0x20\n        /* \"#utility.yul\":14618:14622   */\n      dup2\n        /* \"#utility.yul\":14614:14629   */\n      add\n        /* \"#utility.yul\":14606:14629   */\n      swap1\n      pop\n        /* \"#utility.yul\":14325:14636   */\n      swap2\n      swap1\n      pop\n      jump\t// out\n        /* \"#utility.yul\":14659:15369   */\n    tag_182:\n        /* \"#utility.yul\":14755:14760   */\n      0x00\n        /* \"#utility.yul\":14780:14861   */\n      tag_367\n        /* \"#utility.yul\":14796:14860   */\n      tag_368\n        /* \"#utility.yul\":14853:14859   */\n      dup5\n        /* \"#utility.yul\":14796:14860   */\n      tag_181\n      jump\t// in\n    tag_368:\n        /* \"#utility.yul\":14780:14861   */\n      tag_168\n      jump\t// in\n    tag_367:\n        /* \"#utility.yul\":14771:14861   */\n      swap1\n      pop\n        /* \"#utility.yul\":14881:14886   */\n      dup1\n        /* \"#utility.yul\":14910:14916   */\n      dup4\n        /* \"#utility.yul\":14903:14908   */\n      dup3\n        /* \"#utility.yul\":14896:14917   */\n      mstore\n        /* \"#utility.yul\":14944:14948   */\n      0x20\n        /* \"#utility.yul\":14937:14942   */\n      dup3\n        /* \"#utility.yul\":14933:14949   */\n      add\n        /* \"#utility.yul\":14926:14949   */\n      swap1\n      pop\n        /* \"#utility.yul\":14997:15001   */\n      0x20\n        /* \"#utility.yul\":14989:14995   */\n      dup5\n        /* \"#utility.yul\":14985:15002   */\n      mul\n        /* \"#utility.yul\":14977:14983   */\n      dup4\n        /* \"#utility.yul\":14973:15003   */\n      add\n        /* \"#utility.yul\":15026:15029   */\n      dup6\n        /* \"#utility.yul\":15018:15024   */\n      dup2\n        /* \"#utility.yul\":15015:15030   */\n      gt\n        /* \"#utility.yul\":15012:15134   */\n      iszero\n      tag_369\n      jumpi\n        /* \"#utility.yul\":15045:15124   */\n      tag_370\n      tag_176\n      jump\t// in\n    tag_370:\n        /* \"#utility.yul\":15012:15134   */\n    tag_369:\n        /* \"#utility.yul\":15160:15166   */\n      dup4\n        /* \"#utility.yul\":15143:15363   */\n    tag_371:\n        /* \"#utility.yul\":15177:15183   */\n      dup2\n        /* \"#utility.yul\":15172:15175   */\n      dup2\n        /* \"#utility.yul\":15169:15184   */\n      lt\n        /* \"#utility.yul\":15143:15363   */\n      iszero\n      tag_373\n      jumpi\n        /* \"#utility.yul\":15252:15255   */\n      dup1\n        /* \"#utility.yul\":15281:15318   */\n      tag_374\n        /* \"#utility.yul\":15314:15317   */\n      dup9\n        /* \"#utility.yul\":15302:15312   */\n      dup3\n        /* \"#utility.yul\":15281:15318   */\n      tag_136\n      jump\t// in\n    tag_374:\n        /* \"#utility.yul\":15276:15279   */\n      dup5\n        /* \"#utility.yul\":15269:15319   */\n      mstore\n        /* \"#utility.yul\":15348:15352   */\n      0x20\n        /* \"#utility.yul\":15343:15346   */\n      dup5\n        /* \"#utility.yul\":15339:15353   */\n      add\n        /* \"#utility.yul\":15332:15353   */\n      swap4\n      pop\n        /* \"#utility.yul\":15219:15363   */\n      pop\n        /* \"#utility.yul\":15203:15207   */\n      0x20\n        /* \"#utility.yul\":15198:15201   */\n      dup2\n        /* \"#utility.yul\":15194:15208   */\n      add\n        /* \"#utility.yul\":15187:15208   */\n      swap1\n      pop\n        /* \"#utility.yul\":15143:15363   */\n      jump(tag_371)\n    tag_373:\n        /* \"#utility.yul\":15147:15168   */\n      pop\n        /* \"#utility.yul\":14761:15369   */\n      pop\n      pop\n        /* \"#utility.yul\":14659:15369   */\n      swap4\n      swap3\n      pop\n      pop\n      pop\n      jump\t// out\n        /* \"#utility.yul\":15392:15762   */\n    tag_183:\n        /* \"#utility.yul\":15463:15468   */\n      0x00\n        /* \"#utility.yul\":15512:15515   */\n      dup3\n        /* \"#utility.yul\":15505:15509   */\n      0x1f\n        /* \"#utility.yul\":15497:15503   */\n      dup4\n        /* \"#utility.yul\":15493:15510   */\n      add\n        /* \"#utility.yul\":15489:15516   */\n      slt\n        /* \"#utility.yul\":15479:15601   */\n      tag_376\n      jumpi\n        /* \"#utility.yul\":15520:15599   */\n      tag_377\n      tag_164\n      jump\t// in\n    tag_377:\n        /* \"#utility.yul\":15479:15601   */\n    tag_376:\n        /* \"#utility.yul\":15637:15643   */\n      dup2\n        /* \"#utility.yul\":15624:15644   */\n      calldataload\n        /* \"#utility.yul\":15662:15756   */\n      tag_378\n        /* \"#utility.yul\":15752:15755   */\n      dup5\n        /* \"#utility.yul\":15744:15750   */\n      dup3\n        /* \"#utility.yul\":15737:15741   */\n      0x20\n        /* \"#utility.yul\":15729:15735   */\n      dup7\n        /* \"#utility.yul\":15725:15742   */\n      add\n        /* \"#utility.yul\":15662:15756   */\n      tag_182\n      jump\t// in\n    tag_378:\n        /* \"#utility.yul\":15653:15756   */\n      swap2\n      pop\n        /* \"#utility.yul\":15469:15762   */\n      pop\n        /* \"#utility.yul\":15392:15762   */\n      swap3\n      swap2\n      pop\n      pop\n      jump\t// out\n        /* \"#utility.yul\":15768:16307   */\n    tag_79:\n        /* \"#utility.yul\":15852:15858   */\n      0x00\n        /* \"#utility.yul\":15901:15903   */\n      0x20\n        /* \"#utility.yul\":15889:15898   */\n      dup3\n        /* \"#utility.yul\":15880:15887   */\n      dup5\n        /* \"#utility.yul\":15876:15899   */\n      sub\n        /* \"#utility.yul\":15872:15904   */\n      slt\n        /* \"#utility.yul\":15869:15988   */\n      iszero\n      tag_380\n      jumpi\n        /* \"#utility.yul\":15907:15986   */\n      tag_381\n      tag_132\n      jump\t// in\n    tag_381:\n        /* \"#utility.yul\":15869:15988   */\n    tag_380:\n        /* \"#utility.yul\":16055:16056   */\n      0x00\n        /* \"#utility.yul\":16044:16053   */\n      dup3\n        /* \"#utility.yul\":16040:16057   */\n      add\n        /* \"#utility.yul\":16027:16058   */\n      calldataload\n        /* \"#utility.yul\":16085:16103   */\n      0xffffffffffffffff\n        /* \"#utility.yul\":16077:16083   */\n      dup2\n        /* \"#utility.yul\":16074:16104   */\n      gt\n        /* \"#utility.yul\":16071:16188   */\n      iszero\n      tag_382\n      jumpi\n        /* \"#utility.yul\":16107:16186   */\n      tag_383\n      tag_133\n      jump\t// in\n    tag_383:\n        /* \"#utility.yul\":16071:16188   */\n    tag_382:\n        /* \"#utility.yul\":16212:16290   */\n      tag_384\n        /* \"#utility.yul\":16282:16289   */\n      dup5\n        /* \"#utility.yul\":16273:16279   */\n      dup3\n        /* \"#utility.yul\":16262:16271   */\n      dup6\n        /* \"#utility.yul\":16258:16280   */\n      add\n        /* \"#utility.yul\":16212:16290   */\n      tag_183\n      jump\t// in\n    tag_384:\n        /* \"#utility.yul\":16202:16290   */\n      swap2\n      pop\n        /* \"#utility.yul\":15998:16300   */\n      pop\n        /* \"#utility.yul\":15768:16307   */\n      swap3\n      swap2\n      pop\n      pop\n      jump\t// out\n        /* \"#utility.yul\":16313:16686   */\n    tag_82:\n        /* \"#utility.yul\":16456:16460   */\n      0x00\n        /* \"#utility.yul\":16494:16496   */\n      0x20\n        /* \"#utility.yul\":16483:16492   */\n      dup3\n        /* \"#utility.yul\":16479:16497   */\n      add\n        /* \"#utility.yul\":16471:16497   */\n      swap1\n      pop\n        /* \"#utility.yul\":16543:16552   */\n      dup2\n        /* \"#utility.yul\":16537:16541   */\n      dup2\n        /* \"#utility.yul\":16533:16553   */\n      sub\n        /* \"#utility.yul\":16529:16530   */\n      0x00\n        /* \"#utility.yul\":16518:16527   */\n      dup4\n        /* \"#utility.yul\":16514:16531   */\n      add\n        /* \"#utility.yul\":16507:16554   */\n      mstore\n        /* \"#utility.yul\":16571:16679   */\n      tag_386\n        /* \"#utility.yul\":16674:16678   */\n      dup2\n        /* \"#utility.yul\":16665:16671   */\n      dup5\n        /* \"#utility.yul\":16571:16679   */\n      tag_163\n      jump\t// in\n    tag_386:\n        /* \"#utility.yul\":16563:16679   */\n      swap1\n      pop\n        /* \"#utility.yul\":16313:16686   */\n      swap3\n      swap2\n      pop\n      pop\n      jump\t// out\n        /* \"#utility.yul\":16692:16872   */\n    tag_184:\n        /* \"#utility.yul\":16740:16817   */\n      0x4e487b7100000000000000000000000000000000000000000000000000000000\n        /* \"#utility.yul\":16737:16738   */\n      0x00\n        /* \"#utility.yul\":16730:16818   */\n      mstore\n        /* \"#utility.yul\":16837:16841   */\n      0x22\n        /* \"#utility.yul\":16834:16835   */\n      0x04\n        /* \"#utility.yul\":16827:16842   */\n      mstore\n        /* \"#utility.yul\":16861:16865   */\n      0x24\n        /* \"#utility.yul\":16858:16859   */\n      0x00\n        /* \"#utility.yul\":16851:16866   */\n      revert\n        /* \"#utility.yul\":16878:17198   */\n    tag_92:\n        /* \"#utility.yul\":16922:16928   */\n      0x00\n        /* \"#utility.yul\":16959:16960   */\n      0x02\n        /* \"#utility.yul\":16953:16957   */\n      dup3\n        /* \"#utility.yul\":16949:16961   */\n      div\n        /* \"#utility.yul\":16939:16961   */\n      swap1\n      pop\n        /* \"#utility.yul\":17006:17007   */\n      0x01\n        /* \"#utility.yul\":17000:17004   */\n      dup3\n        /* \"#utility.yul\":16996:17008   */\n      and\n        /* \"#utility.yul\":17027:17045   */\n      dup1\n        /* \"#utility.yul\":17017:17098   */\n      tag_389\n      jumpi\n        /* \"#utility.yul\":17083:17087   */\n      0x7f\n        /* \"#utility.yul\":17075:17081   */\n      dup3\n        /* \"#utility.yul\":17071:17088   */\n      and\n        /* \"#utility.yul\":17061:17088   */\n      swap2\n      pop\n        /* \"#utility.yul\":17017:17098   */\n    tag_389:\n        /* \"#utility.yul\":17145:17147   */\n      0x20\n        /* \"#utility.yul\":17137:17143   */\n      dup3\n        /* \"#utility.yul\":17134:17148   */\n      lt\n        /* \"#utility.yul\":17114:17132   */\n      dup2\n        /* \"#utility.yul\":17111:17149   */\n      sub\n        /* \"#utility.yul\":17108:17192   */\n      tag_390\n      jumpi\n        /* \"#utility.yul\":17164:17182   */\n      tag_391\n      tag_184\n      jump\t// in\n    tag_391:\n        /* \"#utility.yul\":17108:17192   */\n    tag_390:\n        /* \"#utility.yul\":16929:17198   */\n      pop\n        /* \"#utility.yul\":16878:17198   */\n      swap2\n      swap1\n      pop\n      jump\t// out\n        /* \"#utility.yul\":17204:17345   */\n    tag_185:\n        /* \"#utility.yul\":17253:17257   */\n      0x00\n        /* \"#utility.yul\":17276:17279   */\n      dup2\n        /* \"#utility.yul\":17268:17279   */\n      swap1\n      pop\n        /* \"#utility.yul\":17299:17302   */\n      dup2\n        /* \"#utility.yul\":17296:17297   */\n      0x00\n        /* \"#utility.yul\":17289:17303   */\n      mstore\n        /* \"#utility.yul\":17333:17337   */\n      0x20\n        /* \"#utility.yul\":17330:17331   */\n      0x00\n        /* \"#utility.yul\":17320:17338   */\n      keccak256\n        /* \"#utility.yul\":17312:17338   */\n      swap1\n      pop\n        /* \"#utility.yul\":17204:17345   */\n      swap2\n      swap1\n      pop\n      jump\t// out\n        /* \"#utility.yul\":17351:17444   */\n    tag_186:\n        /* \"#utility.yul\":17388:17394   */\n      0x00\n        /* \"#utility.yul\":17435:17437   */\n      0x20\n        /* \"#utility.yul\":17430:17432   */\n      0x1f\n        /* \"#utility.yul\":17423:17428   */\n      dup4\n        /* \"#utility.yul\":17419:17433   */\n      add\n        /* \"#utility.yul\":17415:17438   */\n      div\n        /* \"#utility.yul\":17405:17438   */\n      swap1\n      pop\n        /* \"#utility.yul\":17351:17444   */\n      swap2\n      swap1\n      pop\n      jump\t// out\n        /* \"#utility.yul\":17450:17557   */\n    tag_187:\n        /* \"#utility.yul\":17494:17502   */\n      0x00\n        /* \"#utility.yul\":17544:17549   */\n      dup3\n        /* \"#utility.yul\":17538:17542   */\n      dup3\n        /* \"#utility.yul\":17534:17550   */\n      shl\n        /* \"#utility.yul\":17513:17550   */\n      swap1\n      pop\n        /* \"#utility.yul\":17450:17557   */\n      swap3\n      swap2\n      pop\n      pop\n      jump\t// out\n        /* \"#utility.yul\":17563:17956   */\n    tag_188:\n        /* \"#utility.yul\":17632:17638   */\n      0x00\n        /* \"#utility.yul\":17682:17683   */\n      0x08\n        /* \"#utility.yul\":17670:17680   */\n      dup4\n        /* \"#utility.yul\":17666:17684   */\n      mul\n        /* \"#utility.yul\":17705:17802   */\n      tag_396\n        /* \"#utility.yul\":17735:17801   */\n      0xffffffffffffffffffffffffffffffffffffffffffffffffffffffffffffffff\n        /* \"#utility.yul\":17724:17733   */\n      dup3\n        /* \"#utility.yul\":17705:17802   */\n      tag_187\n      jump\t// in\n    tag_396:\n        /* \"#utility.yul\":17823:17862   */\n      tag_397\n        /* \"#utility.yul\":17853:17861   */\n      dup7\n        /* \"#utility.yul\":17842:17851   */\n      dup4\n        /* \"#utility.yul\":17823:17862   */\n      tag_187\n      jump\t// in\n    tag_397:\n        /* \"#utility.yul\":17811:17862   */\n      swap6\n      pop\n        /* \"#utility.yul\":17895:17899   */\n      dup1\n        /* \"#utility.yul\":17891:17900   */\n      not\n        /* \"#utility.yul\":17884:17889   */\n      dup5\n        /* \"#utility.yul\":17880:17901   */\n      and\n        /* \"#utility.yul\":17871:17901   */\n      swap4\n      pop\n        /* \"#utility.yul\":17944:17948   */\n      dup1\n        /* \"#utility.yul\":17934:17942   */\n      dup7\n        /* \"#utility.yul\":17930:17949   */\n      and\n        /* \"#utility.yul\":17923:17928   */\n      dup5\n        /* \"#utility.yul\":17920:17950   */\n      or\n        /* \"#utility.yul\":17910:17950   */\n      swap3\n      pop\n        /* \"#utility.yul\":17639:17956   */\n      pop\n      pop\n        /* \"#utility.yul\":17563:17956   */\n      swap4\n      swap3\n      pop\n      pop\n      pop\n      jump\t// out\n        /* \"#utility.yul\":17962:18022   */\n    tag_189:\n        /* \"#utility.yul\":17990:17993   */\n      0x00\n        /* \"#utility.yul\":18011:18016   */\n      dup2\n        /* \"#utility.yul\":18004:18016   */\n      swap1\n      pop\n        /* \"#utility.yul\":17962:18022   */\n      swap2\n      swap1\n      pop\n      jump\t// out\n        /* \"#utility.yul\":18028:18170   */\n    tag_190:\n        /* \"#utility.yul\":18078:18087   */\n      0x00\n        /* \"#utility.yul\":18111:18164   */\n      tag_400\n        /* \"#utility.yul\":18129:18163   */\n      tag_401\n        /* \"#utility.yul\":18138:18162   */\n      tag_402\n        /* \"#utility.yul\":18156:18161   */\n      dup5\n        /* \"#utility.yul\":18138:18162   */\n      tag_134\n      jump\t// in\n    tag_402:\n        /* \"#utility.yul\":18129:18163   */\n      tag_189\n      jump\t// in\n    tag_401:\n        /* \"#utility.yul\":18111:18164   */\n      tag_134\n      jump\t// in\n    tag_400:\n        /* \"#utility.yul\":18098:18164   */\n      swap1\n      pop\n        /* \"#utility.yul\":18028:18170   */\n      swap2\n      swap1\n      pop\n      jump\t// out\n        /* \"#utility.yul\":18176:18251   */\n    tag_191:\n        /* \"#utility.yul\":18219:18222   */\n      0x00\n        /* \"#utility.yul\":18240:18245   */\n      dup2\n        /* \"#utility.yul\":18233:18245   */\n      swap1\n      pop\n        /* \"#utility.yul\":18176:18251   */\n      swap2\n      swap1\n      pop\n      jump\t// out\n        /* \"#utility.yul\":18257:18526   */\n    tag_192:\n        /* \"#utility.yul\":18367:18406   */\n      tag_405\n        /* \"#utility.yul\":18398:18405   */\n      dup4\n        /* \"#utility.yul\":18367:18406   */\n      tag_190\n      jump\t// in\n    tag_405:\n        /* \"#utility.yul\":18428:18519   */\n      tag_406\n        /* \"#utility.yul\":18477:18518   */\n      tag_407\n        /* \"#utility.yul\":18501:18517   */\n      dup3\n        /* \"#utility.yul\":18477:18518   */\n      tag_191\n      jump\t// in\n    tag_407:\n        /* \"#utility.yul\":18469:18475   */\n      dup5\n        /* \"#utility.yul\":18462:18466   */\n      dup5\n        /* \"#utility.yul\":18456:18467   */\n      sload\n        /* \"#utility.yul\":18428:18519   */\n      tag_188\n      jump\t// in\n    tag_406:\n        /* \"#utility.yul\":18422:18426   */\n      dup3\n        /* \"#utility.yul\":18415:18520   */\n      sstore\n        /* \"#utility.yul\":18333:18526   */\n      pop\n        /* \"#utility.yul\":18257:18526   */\n      pop\n      pop\n      pop\n      jump\t// out\n        /* \"#utility.yul\":18532:18605   */\n    tag_193:\n        /* \"#utility.yul\":18577:18580   */\n      0x00\n        /* \"#utility.yul\":18532:18605   */\n      swap1\n      jump\t// out\n        /* \"#utility.yul\":18611:18800   */\n    tag_194:\n        /* \"#utility.yul\":18688:18720   */\n      tag_410\n      tag_193\n      jump\t// in\n    tag_410:\n        /* \"#utility.yul\":18729:18794   */\n      tag_411\n        /* \"#utility.yul\":18787:18793   */\n      dup2\n        /* \"#utility.yul\":18779:18785   */\n      dup5\n        /* \"#utility.yul\":18773:18777   */\n      dup5\n        /* \"#utility.yul\":18729:18794   */\n      tag_192\n      jump\t// in\n    tag_411:\n        /* \"#utility.yul\":18664:18800   */\n      pop\n        /* \"#utility.yul\":18611:18800   */\n      pop\n      pop\n      jump\t// out\n        /* \"#utility.yul\":18806:18992   */\n    tag_195:\n        /* \"#utility.yul\":18866:18986   */\n    tag_413:\n        /* \"#utility.yul\":18883:18886   */\n      dup2\n        /* \"#utility.yul\":18876:18881   */\n      dup2\n        /* \"#utility.yul\":18873:18887   */\n      lt\n        /* \"#utility.yul\":18866:18986   */\n      iszero\n      tag_415\n      jumpi\n        /* \"#utility.yul\":18937:18976   */\n      tag_416\n        /* \"#utility.yul\":18974:18975   */\n      0x00\n        /* \"#utility.yul\":18967:18972   */\n      dup3\n        /* \"#utility.yul\":18937:18976   */\n      tag_194\n      jump\t// in\n    tag_416:\n        /* \"#utility.yul\":18910:18911   */\n      0x01\n        /* \"#utility.yul\":18903:18908   */\n      dup2\n        /* \"#utility.yul\":18899:18912   */\n      add\n        /* \"#utility.yul\":18890:18912   */\n      swap1\n      pop\n        /* \"#utility.yul\":18866:18986   */\n      jump(tag_413)\n    tag_415:\n        /* \"#utility.yul\":18806:18992   */\n      pop\n      pop\n      jump\t// out\n        /* \"#utility.yul\":18998:19541   */\n    tag_196:\n        /* \"#utility.yul\":19099:19101   */\n      0x1f\n        /* \"#utility.yul\":19094:19097   */\n      dup3\n        /* \"#utility.yul\":19091:19102   */\n      gt\n        /* \"#utility.yul\":19088:19534   */\n      iszero\n      tag_418\n      jumpi\n        /* \"#utility.yul\":19133:19171   */\n      tag_419\n        /* \"#utility.yul\":19165:19170   */\n      dup2\n        /* \"#utility.yul\":19133:19171   */\n      tag_185\n      jump\t// in\n    tag_419:\n        /* \"#utility.yul\":19217:19246   */\n      tag_420\n        /* \"#utility.yul\":19235:19245   */\n      dup5\n        /* \"#utility.yul\":19217:19246   */\n      tag_186\n      jump\t// in\n    tag_420:\n        /* \"#utility.yul\":19207:19215   */\n      dup2\n        /* \"#utility.yul\":19203:19247   */\n      add\n        /* \"#utility.yul\":19400:19402   */\n      0x20\n        /* \"#utility.yul\":19388:19398   */\n      dup6\n        /* \"#utility.yul\":19385:19403   */\n      lt\n        /* \"#utility.yul\":19382:19431   */\n      iszero\n      tag_421\n      jumpi\n        /* \"#utility.yul\":19421:19429   */\n      dup2\n        /* \"#utility.yul\":19406:19429   */\n      swap1\n      pop\n        /* \"#utility.yul\":19382:19431   */\n    tag_421:\n        /* \"#utility.yul\":19444:19524   */\n      tag_422\n        /* \"#utility.yul\":19500:19522   */\n      tag_423\n        /* \"#utility.yul\":19518:19521   */\n      dup6\n        /* \"#utility.yul\":19500:19522   */\n      tag_186\n      jump\t// in\n    tag_423:\n        /* \"#utility.yul\":19490:19498   */\n      dup4\n        /* \"#utility.yul\":19486:19523   */\n      add\n        /* \"#utility.yul\":19473:19484   */\n      dup3\n        /* \"#utility.yul\":19444:19524   */\n      tag_195\n      jump\t// in\n    tag_422:\n        /* \"#utility.yul\":19103:19534   */\n      pop\n      pop\n        /* \"#utility.yul\":19088:19534   */\n    tag_418:\n        /* \"#utility.yul\":18998:19541   */\n      pop\n      pop\n      pop\n      jump\t// out\n        /* \"#utility.yul\":19547:19664   */\n    tag_197:\n        /* \"#utility.yul\":19601:19609   */\n      0x00\n        /* \"#utility.yul\":19651:19656   */\n      dup3\n        /* \"#utility.yul\":19645:19649   */\n      dup3\n        /* \"#utility.yul\":19641:19657   */\n      shr\n        /* \"#utility.yul\":19620:19657   */\n      swap1\n      pop\n        /* \"#utility.yul\":19547:19664   */\n      swap3\n      swap2\n      pop\n      pop\n      jump\t// out\n        /* \"#utility.yul\":19670:19839   */\n    tag_198:\n        /* \"#utility.yul\":19714:19720   */\n      0x00\n        /* \"#utility.yul\":19747:19798   */\n      tag_426\n        /* \"#utility.yul\":19795:19796   */\n      0x00\n        /* \"#utility.yul\":19791:19797   */\n      not\n        /* \"#utility.yul\":19783:19788   */\n      dup5\n        /* \"#utility.yul\":19780:19781   */\n      0x08\n        /* \"#utility.yul\":19776:19789   */\n      mul\n        /* \"#utility.yul\":19747:19798   */\n      tag_197\n      jump\t// in\n    tag_426:\n        /* \"#utility.yul\":19743:19799   */\n      not\n        /* \"#utility.yul\":19828:19832   */\n      dup1\n        /* \"#utility.yul\":19822:19826   */\n      dup4\n        /* \"#utility.yul\":19818:19833   */\n      and\n        /* \"#utility.yul\":19808:19833   */\n      swap2\n      pop\n        /* \"#utility.yul\":19721:19839   */\n      pop\n        /* \"#utility.yul\":19670:19839   */\n      swap3\n      swap2\n      pop\n      pop\n      jump\t// out\n        /* \"#utility.yul\":19844:20139   */\n    tag_199:\n        /* \"#utility.yul\":19920:19924   */\n      0x00\n        /* \"#utility.yul\":20066:20095   */\n      tag_428\n        /* \"#utility.yul\":20091:20094   */\n      dup4\n        /* \"#utility.yul\":20085:20089   */\n      dup4\n        /* \"#utility.yul\":20066:20095   */\n      tag_198\n      jump\t// in\n    tag_428:\n        /* \"#utility.yul\":20058:20095   */\n      swap2\n      pop\n        /* \"#utility.yul\":20128:20131   */\n      dup3\n        /* \"#utility.yul\":20125:20126   */\n      0x02\n        /* \"#utility.yul\":20121:20132   */\n      mul\n        /* \"#utility.yul\":20115:20119   */\n      dup3\n        /* \"#utility.yul\":20112:20133   */\n      or\n        /* \"#utility.yul\":20104:20133   */\n      swap1\n      pop\n        /* \"#utility.yul\":19844:20139   */\n      swap3\n      swap2\n      pop\n      pop\n      jump\t// out\n        /* \"#utility.yul\":20144:21539   */\n    tag_103:\n        /* \"#utility.yul\":20261:20298   */\n      tag_430\n        /* \"#utility.yul\":20294:20297   */\n      dup3\n        /* \"#utility.yul\":20261:20298   */\n      tag_147\n      jump\t// in\n    tag_430:\n        /* \"#utility.yul\":20363:20381   */\n      0xffffffffffffffff\n        /* \"#utility.yul\":20355:20361   */\n      dup2\n        /* \"#utility.yul\":20352:20382   */\n      gt\n        /* \"#utility.yul\":20349:20405   */\n      iszero\n      tag_431\n      jumpi\n        /* \"#utility.yul\":20385:20403   */\n      tag_432\n      tag_166\n      jump\t// in\n    tag_432:\n        /* \"#utility.yul\":20349:20405   */\n    tag_431:\n        /* \"#utility.yul\":20429:20467   */\n      tag_433\n        /* \"#utility.yul\":20461:20465   */\n      dup3\n        /* \"#utility.yul\":20455:20466   */\n      sload\n        /* \"#utility.yul\":20429:20467   */\n      tag_92\n      jump\t// in\n    tag_433:\n        /* \"#utility.yul\":20514:20581   */\n      tag_434\n        /* \"#utility.yul\":20574:20580   */\n      dup3\n        /* \"#utility.yul\":20566:20572   */\n      dup3\n        /* \"#utility.yul\":20560:20564   */\n      dup6\n        /* \"#utility.yul\":20514:20581   */\n      tag_196\n      jump\t// in\n    tag_434:\n        /* \"#utility.yul\":20608:20609   */\n      0x00\n        /* \"#utility.yul\":20632:20636   */\n      0x20\n        /* \"#utility.yul\":20619:20636   */\n      swap1\n      pop\n        /* \"#utility.yul\":20664:20666   */\n      0x1f\n        /* \"#utility.yul\":20656:20662   */\n      dup4\n        /* \"#utility.yul\":20653:20667   */\n      gt\n        /* \"#utility.yul\":20681:20682   */\n      0x01\n        /* \"#utility.yul\":20676:21294   */\n      dup2\n      eq\n      tag_436\n      jumpi\n        /* \"#utility.yul\":21338:21339   */\n      0x00\n        /* \"#utility.yul\":21355:21361   */\n      dup5\n        /* \"#utility.yul\":21352:21429   */\n      iszero\n      tag_437\n      jumpi\n        /* \"#utility.yul\":21404:21413   */\n      dup3\n        /* \"#utility.yul\":21399:21402   */\n      dup8\n        /* \"#utility.yul\":21395:21414   */\n      add\n        /* \"#utility.yul\":21389:21415   */\n      mload\n        /* \"#utility.yul\":21380:21415   */\n      swap1\n      pop\n        /* \"#utility.yul\":21352:21429   */\n    tag_437:\n        /* \"#utility.yul\":21455:21522   */\n      tag_438\n        /* \"#utility.yul\":21515:21521   */\n      dup6\n        /* \"#utility.yul\":21508:21513   */\n      dup3\n        /* \"#utility.yul\":21455:21522   */\n      tag_199\n      jump\t// in\n    tag_438:\n        /* \"#utility.yul\":21449:21453   */\n      dup7\n        /* \"#utility.yul\":21442:21523   */\n      sstore\n        /* \"#utility.yul\":21311:21533   */\n      pop\n        /* \"#utility.yul\":20646:21533   */\n      jump(tag_435)\n        /* \"#utility.yul\":20676:21294   */\n    tag_436:\n        /* \"#utility.yul\":20728:20732   */\n      0x1f\n        /* \"#utility.yul\":20724:20733   */\n      not\n        /* \"#utility.yul\":20716:20722   */\n      dup5\n        /* \"#utility.yul\":20712:20734   */\n      and\n        /* \"#utility.yul\":20762:20799   */\n      tag_439\n        /* \"#utility.yul\":20794:20798   */\n      dup7\n        /* \"#utility.yul\":20762:20799   */\n      tag_185\n      jump\t// in\n    tag_439:\n        /* \"#utility.yul\":20821:20822   */\n      0x00\n        /* \"#utility.yul\":20835:21043   */\n    tag_440:\n        /* \"#utility.yul\":20849:20856   */\n      dup3\n        /* \"#utility.yul\":20846:20847   */\n      dup2\n        /* \"#utility.yul\":20843:20857   */\n      lt\n        /* \"#utility.yul\":20835:21043   */\n      iszero\n      tag_442\n      jumpi\n        /* \"#utility.yul\":20928:20937   */\n      dup5\n        /* \"#utility.yul\":20923:20926   */\n      dup10\n        /* \"#utility.yul\":20919:20938   */\n      add\n        /* \"#utility.yul\":20913:20939   */\n      mload\n        /* \"#utility.yul\":20905:20911   */\n      dup3\n        /* \"#utility.yul\":20898:20940   */\n      sstore\n        /* \"#utility.yul\":20979:20980   */\n      0x01\n        /* \"#utility.yul\":20971:20977   */\n      dup3\n        /* \"#utility.yul\":20967:20981   */\n      add\n        /* \"#utility.yul\":20957:20981   */\n      swap2\n      pop\n        /* \"#utility.yul\":21026:21028   */\n      0x20\n        /* \"#utility.yul\":21015:21024   */\n      dup6\n        /* \"#utility.yul\":21011:21029   */\n      add\n        /* \"#utility.yul\":20998:21029   */\n      swap5\n      pop\n        /* \"#utility.yul\":20872:20876   */\n      0x20\n        /* \"#utility.yul\":20869:20870   */\n      dup2\n        /* \"#utility.yul\":20865:20877   */\n      add\n        /* \"#utility.yul\":20860:20877   */\n      swap1\n      pop\n        /* \"#utility.yul\":20835:21043   */\n      jump(tag_440)\n    tag_442:\n        /* \"#utility.yul\":21071:21077   */\n      dup7\n        /* \"#utility.yul\":21062:21069   */\n      dup4\n        /* \"#utility.yul\":21059:21078   */\n      lt\n        /* \"#utility.yul\":21056:21235   */\n      iszero\n      tag_443\n      jumpi\n        /* \"#utility.yul\":21129:21138   */\n      dup5\n        /* \"#utility.yul\":21124:21127   */\n      dup10\n        /* \"#utility.yul\":21120:21139   */\n      add\n        /* \"#utility.yul\":21114:21140   */\n      mload\n        /* \"#utility.yul\":21172:21220   */\n      tag_444\n        /* \"#utility.yul\":21214:21218   */\n      0x1f\n        /* \"#utility.yul\":21206:21212   */\n      dup10\n        /* \"#utility.yul\":21202:21219   */\n      and\n        /* \"#utility.yul\":21191:21200   */\n      dup3\n        /* \"#utility.yul\":21172:21220   */\n      tag_198\n      jump\t// in\n    tag_444:\n        /* \"#utility.yul\":21164:21170   */\n      dup4\n        /* \"#utility.yul\":21157:21221   */\n      sstore\n        /* \"#utility.yul\":21079:21235   */\n      pop\n        /* \"#utility.yul\":21056:21235   */\n    tag_443:\n        /* \"#utility.yul\":21281:21282   */\n      0x01\n        /* \"#utility.yul\":21277:21278   */\n      0x02\n        /* \"#utility.yul\":21269:21275   */\n      dup9\n        /* \"#utility.yul\":21265:21279   */\n      mul\n        /* \"#utility.yul\":21261:21283   */\n      add\n        /* \"#utility.yul\":21255:21259   */\n      dup9\n        /* \"#utility.yul\":21248:21284   */\n      sstore\n        /* \"#utility.yul\":20683:21294   */\n      pop\n      pop\n      pop\n        /* \"#utility.yul\":20646:21533   */\n    tag_435:\n      pop\n        /* \"#utility.yul\":20236:21539   */\n      pop\n      pop\n      pop\n        /* \"#utility.yul\":20144:21539   */\n      pop\n      pop\n      jump\t// out\n\n    auxdata: 0xa26469706673582212206915694fe6dd49205318ffb0fe3ce08b452e7e463bab8236a6eac23114777f1564736f6c634300081a0033\n}\n",
				"bytecode": {
					"linkReferences": {},
					"object": "6080604052348015600e575f80fd5b5061124b8061001c5f395ff3fe608060405234801561000f575f80fd5b50600436106100f3575f3560e01c806368c394ff11610095578063c223a39e11610064578063c223a39e14610261578063e9074ca31461027f578063f3e1b0561461029d578063faecdad7146102b9576100f3565b806368c394ff146101ed5780636a20bf081461020b5780638381f58a146102275780638d8a227b14610245576100f3565b806317fd6986116100d157806317fd6986146101755780632e64cec114610191578063344c3634146101b55780636057361d146101d1576100f3565b8063029194b4146100f75780630b559dfa146101275780630dbe671f14610157575b5f80fd5b610111600480360381019061010c9190610784565b6102e9565b60405161011e91906107be565b60405180910390f35b610141600480360381019061013c9190610784565b610302565b60405161014e91906107be565b60405180910390f35b61015f610322565b60405161016c91906107f1565b60405180910390f35b61018f600480360381019061018a9190610864565b610334565b005b610199610378565b6040516101ac9796959493929190610a5c565b60405180910390f35b6101cf60048036038101906101ca9190610c05565b6104f5565b005b6101eb60048036038101906101e69190610784565b610508565b005b6101f5610511565b6040516102029190610c4c565b60405180910390f35b61022560048036038101906102209190610c8f565b610537565b005b61022f610553565b60405161023c91906107be565b60405180910390f35b61025f600480360381019061025a9190610d6c565b610558565b005b61026961056d565b6040516102769190610d97565b60405180910390f35b610287610573565b6040516102949190610db0565b60405180910390f35b6102b760048036038101906102b29190610dfa565b6105ff565b005b6102d360048036038101906102ce9190610ee5565b610609565b6040516102e09190610f2c565b60405180910390f35b600481600381106102f8575f80fd5b015f915090505481565b60078181548110610311575f80fd5b905f5260205f20015f915090505481565b60025f9054906101000a900460ff1681565b80600260016101000a81548173ffffffffffffffffffffffffffffffffffffffff021916908373ffffffffffffffffffffffffffffffffffffffff16021790555050565b5f805f806060610386610678565b60605f5460015460025f9054906101000a900460ff16600260019054906101000a900473ffffffffffffffffffffffffffffffffffffffff166003600460078280546103d190610f79565b80601f01602080910402602001604051908101604052809291908181526020018280546103fd90610f79565b80156104485780601f1061041f57610100808354040283529160200191610448565b820191905f5260205f20905b81548152906001019060200180831161042b57829003601f168201915b5050505050925081600380602002604051908101604052809291908260038015610487576020028201915b815481526020019060010190808311610473575b50505050509150808054806020026020016040519081016040528092919081815260200182805480156104d757602002820191905f5260205f20905b8154815260200190600101908083116104c3575b50505050509050965096509650965096509650965090919293949596565b80600390816105049190611146565b5050565b805f8190555050565b600260019054906101000a900473ffffffffffffffffffffffffffffffffffffffff1681565b8060025f6101000a81548160ff02191690831515021790555050565b5f5481565b80600490600361056992919061069a565b5050565b60015481565b6003805461058090610f79565b80601f01602080910402602001604051908101604052809291908181526020018280546105ac90610f79565b80156105f75780601f106105ce576101008083540402835291602001916105f7565b820191905f5260205f20905b8154815290600101906020018083116105da57829003601f168201915b505050505081565b8060018190555050565b606081600790805190602001906106219291906106da565b50600780548060200260200160405190810160405280929190818152602001828054801561066c57602002820191905f5260205f20905b815481526020019060010190808311610658575b50505050509050919050565b6040518060600160405280600390602082028036833780820191505090505090565b82600381019282156106c9579160200282015b828111156106c85782518255916020019190600101906106ad565b5b5090506106d69190610725565b5090565b828054828255905f5260205f20908101928215610714579160200282015b828111156107135782518255916020019190600101906106f8565b5b5090506107219190610725565b5090565b5b8082111561073c575f815f905550600101610726565b5090565b5f604051905090565b5f80fd5b5f80fd5b5f819050919050565b61076381610751565b811461076d575f80fd5b50565b5f8135905061077e8161075a565b92915050565b5f6020828403121561079957610798610749565b5b5f6107a684828501610770565b91505092915050565b6107b881610751565b82525050565b5f6020820190506107d15f8301846107af565b92915050565b5f8115159050919050565b6107eb816107d7565b82525050565b5f6020820190506108045f8301846107e2565b92915050565b5f73ffffffffffffffffffffffffffffffffffffffff82169050919050565b5f6108338261080a565b9050919050565b61084381610829565b811461084d575f80fd5b50565b5f8135905061085e8161083a565b92915050565b5f6020828403121561087957610878610749565b5b5f61088684828501610850565b91505092915050565b5f819050919050565b6108a18161088f565b82525050565b6108b081610829565b82525050565b5f81519050919050565b5f82825260208201905092915050565b8281835e5f83830152505050565b5f601f19601f8301169050919050565b5f6108f8826108b6565b61090281856108c0565b93506109128185602086016108d0565b61091b816108de565b840191505092915050565b5f60039050919050565b5f81905092915050565b5f819050919050565b61094c81610751565b82525050565b5f61095d8383610943565b60208301905092915050565b5f602082019050919050565b61097e81610926565b6109888184610930565b92506109938261093a565b805f5b838110156109c35781516109aa8782610952565b96506109b583610969565b925050600181019050610996565b505050505050565b5f81519050919050565b5f82825260208201905092915050565b5f819050602082019050919050565b5f602082019050919050565b5f610a0a826109cb565b610a1481856109d5565b9350610a1f836109e5565b805f5b83811015610a4f578151610a368882610952565b9750610a41836109f4565b925050600181019050610a22565b5085935050505092915050565b5f61012082019050610a705f83018a6107af565b610a7d6020830189610898565b610a8a60408301886107e2565b610a9760608301876108a7565b8181036080830152610aa981866108ee565b9050610ab860a0830185610975565b818103610100830152610acb8184610a00565b905098975050505050505050565b5f80fd5b5f80fd5b7f4e487b71000000000000000000000000000000000000000000000000000000005f52604160045260245ffd5b610b17826108de565b810181811067ffffffffffffffff82111715610b3657610b35610ae1565b5b80604052505050565b5f610b48610740565b9050610b548282610b0e565b919050565b5f67ffffffffffffffff821115610b7357610b72610ae1565b5b610b7c826108de565b9050602081019050919050565b828183375f83830152505050565b5f610ba9610ba484610b59565b610b3f565b905082815260208101848484011115610bc557610bc4610add565b5b610bd0848285610b89565b509392505050565b5f82601f830112610bec57610beb610ad9565b5b8135610bfc848260208601610b97565b91505092915050565b5f60208284031215610c1a57610c19610749565b5b5f82013567ffffffffffffffff811115610c3757610c3661074d565b5b610c4384828501610bd8565b91505092915050565b5f602082019050610c5f5f8301846108a7565b92915050565b610c6e816107d7565b8114610c78575f80fd5b50565b5f81359050610c8981610c65565b92915050565b5f60208284031215610ca457610ca3610749565b5b5f610cb184828501610c7b565b91505092915050565b5f67ffffffffffffffff821115610cd457610cd3610ae1565b5b602082029050919050565b5f80fd5b5f610cf5610cf084610cba565b610b3f565b90508060208402830185811115610d0f57610d0e610cdf565b5b835b81811015610d385780610d248882610770565b845260208401935050602081019050610d11565b5050509392505050565b5f82601f830112610d5657610d55610ad9565b5b6003610d63848285610ce3565b91505092915050565b5f60608284031215610d8157610d80610749565b5b5f610d8e84828501610d42565b91505092915050565b5f602082019050610daa5f830184610898565b92915050565b5f6020820190508181035f830152610dc881846108ee565b905092915050565b610dd98161088f565b8114610de3575f80fd5b50565b5f81359050610df481610dd0565b92915050565b5f60208284031215610e0f57610e0e610749565b5b5f610e1c84828501610de6565b91505092915050565b5f67ffffffffffffffff821115610e3f57610e3e610ae1565b5b602082029050602081019050919050565b5f610e62610e5d84610e25565b610b3f565b90508083825260208201905060208402830185811115610e8557610e84610cdf565b5b835b81811015610eae5780610e9a8882610770565b845260208401935050602081019050610e87565b5050509392505050565b5f82601f830112610ecc57610ecb610ad9565b5b8135610edc848260208601610e50565b91505092915050565b5f60208284031215610efa57610ef9610749565b5b5f82013567ffffffffffffffff811115610f1757610f1661074d565b5b610f2384828501610eb8565b91505092915050565b5f6020820190508181035f830152610f448184610a00565b905092915050565b7f4e487b71000000000000000000000000000000000000000000000000000000005f52602260045260245ffd5b5f6002820490506001821680610f9057607f821691505b602082108103610fa357610fa2610f4c565b5b50919050565b5f819050815f5260205f209050919050565b5f6020601f8301049050919050565b5f82821b905092915050565b5f600883026110057fffffffffffffffffffffffffffffffffffffffffffffffffffffffffffffffff82610fca565b61100f8683610fca565b95508019841693508086168417925050509392505050565b5f819050919050565b5f61104a61104561104084610751565b611027565b610751565b9050919050565b5f819050919050565b61106383611030565b61107761106f82611051565b848454610fd6565b825550505050565b5f90565b61108b61107f565b61109681848461105a565b505050565b5b818110156110b9576110ae5f82611083565b60018101905061109c565b5050565b601f8211156110fe576110cf81610fa9565b6110d884610fbb565b810160208510156110e7578190505b6110fb6110f385610fbb565b83018261109b565b50505b505050565b5f82821c905092915050565b5f61111e5f1984600802611103565b1980831691505092915050565b5f611136838361110f565b9150826002028217905092915050565b61114f826108b6565b67ffffffffffffffff81111561116857611167610ae1565b5b6111728254610f79565b61117d8282856110bd565b5f60209050601f8311600181146111ae575f841561119c578287015190505b6111a6858261112b565b86555061120d565b601f1984166111bc86610fa9565b5f5b828110156111e3578489015182556001820191506020850194506020810190506111be565b8683101561120057848901516111fc601f89168261110f565b8355505b6001600288020188555050505b50505050505056fea26469706673582212206915694fe6dd49205318ffb0fe3ce08b452e7e463bab8236a6eac23114777f1564736f6c634300081a0033",
					"opcodes": "PUSH1 0x80 PUSH1 0x40 MSTORE CALLVALUE DUP1 ISZERO PUSH1 0xE JUMPI PUSH0 DUP1 REVERT JUMPDEST POP PUSH2 0x124B DUP1 PUSH2 0x1C PUSH0 CODECOPY PUSH0 RETURN INVALID PUSH1 0x80 PUSH1 0x40 MSTORE CALLVALUE DUP1 ISZERO PUSH2 0xF JUMPI PUSH0 DUP1 REVERT JUMPDEST POP PUSH1 0x4 CALLDATASIZE LT PUSH2 0xF3 JUMPI PUSH0 CALLDATALOAD PUSH1 0xE0 SHR DUP1 PUSH4 0x68C394FF GT PUSH2 0x95 JUMPI DUP1 PUSH4 0xC223A39E GT PUSH2 0x64 JUMPI DUP1 PUSH4 0xC223A39E EQ PUSH2 0x261 JUMPI DUP1 PUSH4 0xE9074CA3 EQ PUSH2 0x27F JUMPI DUP1 PUSH4 0xF3E1B056 EQ PUSH2 0x29D JUMPI DUP1 PUSH4 0xFAECDAD7 EQ PUSH2 0x2B9 JUMPI PUSH2 0xF3 JUMP JUMPDEST DUP1 PUSH4 0x68C394FF EQ PUSH2 0x1ED JUMPI DUP1 PUSH4 0x6A20BF08 EQ PUSH2 0x20B JUMPI DUP1 PUSH4 0x8381F58A EQ PUSH2 0x227 JUMPI DUP1 PUSH4 0x8D8A227B EQ PUSH2 0x245 JUMPI PUSH2 0xF3 JUMP JUMPDEST DUP1 PUSH4 0x17FD6986 GT PUSH2 0xD1 JUMPI DUP1 PUSH4 0x17FD6986 EQ PUSH2 0x175 JUMPI DUP1 PUSH4 0x2E64CEC1 EQ PUSH2 0x191 JUMPI DUP1 PUSH4 0x344C3634 EQ PUSH2 0x1B5 JUMPI DUP1 PUSH4 0x6057361D EQ PUSH2 0x1D1 JUMPI PUSH2 0xF3 JUMP JUMPDEST DUP1 PUSH4 0x29194B4 EQ PUSH2 0xF7 JUMPI DUP1 PUSH4 0xB559DFA EQ PUSH2 0x127 JUMPI DUP1 PUSH4 0xDBE671F EQ PUSH2 0x157 JUMPI JUMPDEST PUSH0 DUP1 REVERT JUMPDEST PUSH2 0x111 PUSH1 0x4 DUP1 CALLDATASIZE SUB DUP2 ADD SWAP1 PUSH2 0x10C SWAP2 SWAP1 PUSH2 0x784 JUMP JUMPDEST PUSH2 0x2E9 JUMP JUMPDEST PUSH1 0x40 MLOAD PUSH2 0x11E SWAP2 SWAP1 PUSH2 0x7BE JUMP JUMPDEST PUSH1 0x40 MLOAD DUP1 SWAP2 SUB SWAP1 RETURN JUMPDEST PUSH2 0x141 PUSH1 0x4 DUP1 CALLDATASIZE SUB DUP2 ADD SWAP1 PUSH2 0x13C SWAP2 SWAP1 PUSH2 0x784 JUMP JUMPDEST PUSH2 0x302 JUMP JUMPDEST PUSH1 0x40 MLOAD PUSH2 0x14E SWAP2 SWAP1 PUSH2 0x7BE JUMP JUMPDEST PUSH1 0x40 MLOAD DUP1 SWAP2 SUB SWAP1 RETURN JUMPDEST PUSH2 0x15F PUSH2 0x322 JUMP JUMPDEST PUSH1 0x40 MLOAD PUSH2 0x16C SWAP2 SWAP1 PUSH2 0x7F1 JUMP JUMPDEST PUSH1 0x40 MLOAD DUP1 SWAP2 SUB SWAP1 RETURN JUMPDEST PUSH2 0x18F PUSH1 0x4 DUP1 CALLDATASIZE SUB DUP2 ADD SWAP1 PUSH2 0x18A SWAP2 SWAP1 PUSH2 0x864 JUMP JUMPDEST PUSH2 0x334 JUMP JUMPDEST STOP JUMPDEST PUSH2 0x199 PUSH2 0x378 JUMP JUMPDEST PUSH1 0x40 MLOAD PUSH2 0x1AC SWAP8 SWAP7 SWAP6 SWAP5 SWAP4 SWAP3 SWAP2 SWAP1 PUSH2 0xA5C JUMP JUMPDEST PUSH1 0x40 MLOAD DUP1 SWAP2 SUB SWAP1 RETURN JUMPDEST PUSH2 0x1CF PUSH1 0x4 DUP1 CALLDATASIZE SUB DUP2 ADD SWAP1 PUSH2 0x1CA SWAP2 SWAP1 PUSH2 0xC05 JUMP JUMPDEST PUSH2 0x4F5 JUMP JUMPDEST STOP JUMPDEST PUSH2 0x1EB PUSH1 0x4 DUP1 CALLDATASIZE SUB DUP2 ADD SWAP1 PUSH2 0x1E6 SWAP2 SWAP1 PUSH2 0x784 JUMP JUMPDEST PUSH2 0x508 JUMP JUMPDEST STOP JUMPDEST PUSH2 0x1F5 PUSH2 0x511 JUMP JUMPDEST PUSH1 0x40 MLOAD PUSH2 0x202 SWAP2 SWAP1 PUSH2 0xC4C JUMP JUMPDEST PUSH1 0x40 MLOAD DUP1 SWAP2 SUB SWAP1 RETURN JUMPDEST PUSH2 0x225 PUSH1 0x4 DUP1 CALLDATASIZE SUB DUP2 ADD SWAP1 PUSH2 0x220 SWAP2 SWAP1 PUSH2 0xC8F JUMP JUMPDEST PUSH2 0x537 JUMP JUMPDEST STOP JUMPDEST PUSH2 0x22F PUSH2 0x553 JUMP JUMPDEST PUSH1 0x40 MLOAD PUSH2 0x23C SWAP2 SWAP1 PUSH2 0x7BE JUMP JUMPDEST PUSH1 0x40 MLOAD DUP1 SWAP2 SUB SWAP1 RETURN JUMPDEST PUSH2 0x25F PUSH1 0x4 DUP1 CALLDATASIZE SUB DUP2 ADD SWAP1 PUSH2 0x25A SWAP2 SWAP1 PUSH2 0xD6C JUMP JUMPDEST PUSH2 0x558 JUMP JUMPDEST STOP JUMPDEST PUSH2 0x269 PUSH2 0x56D JUMP JUMPDEST PUSH1 0x40 MLOAD PUSH2 0x276 SWAP2 SWAP1 PUSH2 0xD97 JUMP JUMPDEST PUSH1 0x40 MLOAD DUP1 SWAP2 SUB SWAP1 RETURN JUMPDEST PUSH2 0x287 PUSH2 0x573 JUMP JUMPDEST PUSH1 0x40 MLOAD PUSH2 0x294 SWAP2 SWAP1 PUSH2 0xDB0 JUMP JUMPDEST PUSH1 0x40 MLOAD DUP1 SWAP2 SUB SWAP1 RETURN JUMPDEST PUSH2 0x2B7 PUSH1 0x4 DUP1 CALLDATASIZE SUB DUP2 ADD SWAP1 PUSH2 0x2B2 SWAP2 SWAP1 PUSH2 0xDFA JUMP JUMPDEST PUSH2 0x5FF JUMP JUMPDEST STOP JUMPDEST PUSH2 0x2D3 PUSH1 0x4 DUP1 CALLDATASIZE SUB DUP2 ADD SWAP1 PUSH2 0x2CE SWAP2 SWAP1 PUSH2 0xEE5 JUMP JUMPDEST PUSH2 0x609 JUMP JUMPDEST PUSH1 0x40 MLOAD PUSH2 0x2E0 SWAP2 SWAP1 PUSH2 0xF2C JUMP JUMPDEST PUSH1 0x40 MLOAD DUP1 SWAP2 SUB SWAP1 RETURN JUMPDEST PUSH1 0x4 DUP2 PUSH1 0x3 DUP2 LT PUSH2 0x2F8 JUMPI PUSH0 DUP1 REVERT JUMPDEST ADD PUSH0 SWAP2 POP SWAP1 POP SLOAD DUP2 JUMP JUMPDEST PUSH1 0x7 DUP2 DUP2 SLOAD DUP2 LT PUSH2 0x311 JUMPI PUSH0 DUP1 REVERT JUMPDEST SWAP1 PUSH0 MSTORE PUSH1 0x20 PUSH0 KECCAK256 ADD PUSH0 SWAP2 POP SWAP1 POP SLOAD DUP2 JUMP JUMPDEST PUSH1 0x2 PUSH0 SWAP1 SLOAD SWAP1 PUSH2 0x100 EXP SWAP1 DIV PUSH1 0xFF AND DUP2 JUMP JUMPDEST DUP1 PUSH1 0x2 PUSH1 0x1 PUSH2 0x100 EXP DUP2 SLOAD DUP2 PUSH20 0xFFFFFFFFFFFFFFFFFFFFFFFFFFFFFFFFFFFFFFFF MUL NOT AND SWAP1 DUP4 PUSH20 0xFFFFFFFFFFFFFFFFFFFFFFFFFFFFFFFFFFFFFFFF AND MUL OR SWAP1 SSTORE POP POP JUMP JUMPDEST PUSH0 DUP1 PUSH0 DUP1 PUSH1 0x60 PUSH2 0x386 PUSH2 0x678 JUMP JUMPDEST PUSH1 0x60 PUSH0 SLOAD PUSH1 0x1 SLOAD PUSH1 0x2 PUSH0 SWAP1 SLOAD SWAP1 PUSH2 0x100 EXP SWAP1 DIV PUSH1 0xFF AND PUSH1 0x2 PUSH1 0x1 SWAP1 SLOAD SWAP1 PUSH2 0x100 EXP SWAP1 DIV PUSH20 0xFFFFFFFFFFFFFFFFFFFFFFFFFFFFFFFFFFFFFFFF AND PUSH1 0x3 PUSH1 0x4 PUSH1 0x7 DUP3 DUP1 SLOAD PUSH2 0x3D1 SWAP1 PUSH2 0xF79 JUMP JUMPDEST DUP1 PUSH1 0x1F ADD PUSH1 0x20 DUP1 SWAP2 DIV MUL PUSH1 0x20 ADD PUSH1 0x40 MLOAD SWAP1 DUP2 ADD PUSH1 0x40 MSTORE DUP1 SWAP3 SWAP2 SWAP1 DUP2 DUP2 MSTORE PUSH1 0x20 ADD DUP3 DUP1 SLOAD PUSH2 0x3FD SWAP1 PUSH2 0xF79 JUMP JUMPDEST DUP1 ISZERO PUSH2 0x448 JUMPI DUP1 PUSH1 0x1F LT PUSH2 0x41F JUMPI PUSH2 0x100 DUP1 DUP4 SLOAD DIV MUL DUP4 MSTORE SWAP2 PUSH1 0x20 ADD SWAP2 PUSH2 0x448 JUMP JUMPDEST DUP3 ADD SWAP2 SWAP1 PUSH0 MSTORE PUSH1 0x20 PUSH0 KECCAK256 SWAP1 JUMPDEST DUP2 SLOAD DUP2 MSTORE SWAP1 PUSH1 0x1 ADD SWAP1 PUSH1 0x20 ADD DUP1 DUP4 GT PUSH2 0x42B JUMPI DUP3 SWAP1 SUB PUSH1 0x1F AND DUP3 ADD SWAP2 JUMPDEST POP POP POP POP POP SWAP3 POP DUP2 PUSH1 0x3 DUP1 PUSH1 0x20 MUL PUSH1 0x40 MLOAD SWAP1 DUP2 ADD PUSH1 0x40 MSTORE DUP1 SWAP3 SWAP2 SWAP1 DUP3 PUSH1 0x3 DUP1 ISZERO PUSH2 0x487 JUMPI PUSH1 0x20 MUL DUP3 ADD SWAP2 JUMPDEST DUP2 SLOAD DUP2 MSTORE PUSH1 0x20 ADD SWAP1 PUSH1 0x1 ADD SWAP1 DUP1 DUP4 GT PUSH2 0x473 JUMPI JUMPDEST POP POP POP POP POP SWAP2 POP DUP1 DUP1 SLOAD DUP1 PUSH1 0x20 MUL PUSH1 0x20 ADD PUSH1 0x40 MLOAD SWAP1 DUP2 ADD PUSH1 0x40 MSTORE DUP1 SWAP3 SWAP2 SWAP1 DUP2 DUP2 MSTORE PUSH1 0x20 ADD DUP3 DUP1 SLOAD DUP1 ISZERO PUSH2 0x4D7 JUMPI PUSH1 0x20 MUL DUP3 ADD SWAP2 SWAP1 PUSH0 MSTORE PUSH1 0x20 PUSH0 KECCAK256 SWAP1 JUMPDEST DUP2 SLOAD DUP2 MSTORE PUSH1 0x20 ADD SWAP1 PUSH1 0x1 ADD SWAP1 DUP1 DUP4 GT PUSH2 0x4C3 JUMPI JUMPDEST POP POP POP POP POP SWAP1 POP SWAP7 POP SWAP7 POP SWAP7 POP SWAP7 POP SWAP7 POP SWAP7 POP SWAP7 POP SWAP1 SWAP2 SWAP3 SWAP4 SWAP5 SWAP6 SWAP7 JUMP JUMPDEST DUP1 PUSH1 0x3 SWAP1 DUP2 PUSH2 0x504 SWAP2 SWAP1 PUSH2 0x1146 JUMP JUMPDEST POP POP JUMP JUMPDEST DUP1 PUSH0 DUP2 SWAP1 SSTORE POP POP JUMP JUMPDEST PUSH1 0x2 PUSH1 0x1 SWAP1 SLOAD SWAP1 PUSH2 0x100 EXP SWAP1 DIV PUSH20 0xFFFFFFFFFFFFFFFFFFFFFFFFFFFFFFFFFFFFFFFF AND DUP2 JUMP JUMPDEST DUP1 PUSH1 0x2 PUSH0 PUSH2 0x100 EXP DUP2 SLOAD DUP2 PUSH1 0xFF MUL NOT AND SWAP1 DUP4 ISZERO ISZERO MUL OR SWAP1 SSTORE POP POP JUMP JUMPDEST PUSH0 SLOAD DUP2 JUMP JUMPDEST DUP1 PUSH1 0x4 SWAP1 PUSH1 0x3 PUSH2 0x569 SWAP3 SWAP2 SWAP1 PUSH2 0x69A JUMP JUMPDEST POP POP JUMP JUMPDEST PUSH1 0x1 SLOAD DUP2 JUMP JUMPDEST PUSH1 0x3 DUP1 SLOAD PUSH2 0x580 SWAP1 PUSH2 0xF79 JUMP JUMPDEST DUP1 PUSH1 0x1F ADD PUSH1 0x20 DUP1 SWAP2 DIV MUL PUSH1 0x20 ADD PUSH1 0x40 MLOAD SWAP1 DUP2 ADD PUSH1 0x40 MSTORE DUP1 SWAP3 SWAP2 SWAP1 DUP2 DUP2 MSTORE PUSH1 0x20 ADD DUP3 DUP1 SLOAD PUSH2 0x5AC SWAP1 PUSH2 0xF79 JUMP JUMPDEST DUP1 ISZERO PUSH2 0x5F7 JUMPI DUP1 PUSH1 0x1F LT PUSH2 0x5CE JUMPI PUSH2 0x100 DUP1 DUP4 SLOAD DIV MUL DUP4 MSTORE SWAP2 PUSH1 0x20 ADD SWAP2 PUSH2 0x5F7 JUMP JUMPDEST DUP3 ADD SWAP2 SWAP1 PUSH0 MSTORE PUSH1 0x20 PUSH0 KECCAK256 SWAP1 JUMPDEST DUP2 SLOAD DUP2 MSTORE SWAP1 PUSH1 0x1 ADD SWAP1 PUSH1 0x20 ADD DUP1 DUP4 GT PUSH2 0x5DA JUMPI DUP3 SWAP1 SUB PUSH1 0x1F AND DUP3 ADD SWAP2 JUMPDEST POP POP POP POP POP DUP2 JUMP JUMPDEST DUP1 PUSH1 0x1 DUP2 SWAP1 SSTORE POP POP JUMP JUMPDEST PUSH1 0x60 DUP2 PUSH1 0x7 SWAP1 DUP1 MLOAD SWAP1 PUSH1 0x20 ADD SWAP1 PUSH2 0x621 SWAP3 SWAP2 SWAP1 PUSH2 0x6DA JUMP JUMPDEST POP PUSH1 0x7 DUP1 SLOAD DUP1 PUSH1 0x20 MUL PUSH1 0x20 ADD PUSH1 0x40 MLOAD SWAP1 DUP2 ADD PUSH1 0x40 MSTORE DUP1 SWAP3 SWAP2 SWAP1 DUP2 DUP2 MSTORE PUSH1 0x20 ADD DUP3 DUP1 SLOAD DUP1 ISZERO PUSH2 0x66C JUMPI PUSH1 0x20 MUL DUP3 ADD SWAP2 SWAP1 PUSH0 MSTORE PUSH1 0x20 PUSH0 KECCAK256 SWAP1 JUMPDEST DUP2 SLOAD DUP2 MSTORE PUSH1 0x20 ADD SWAP1 PUSH1 0x1 ADD SWAP1 DUP1 DUP4 GT PUSH2 0x658 JUMPI JUMPDEST POP POP POP POP POP SWAP1 POP SWAP2 SWAP1 POP JUMP JUMPDEST PUSH1 0x40 MLOAD DUP1 PUSH1 0x60 ADD PUSH1 0x40 MSTORE DUP1 PUSH1 0x3 SWAP1 PUSH1 0x20 DUP3 MUL DUP1 CALLDATASIZE DUP4 CALLDATACOPY DUP1 DUP3 ADD SWAP2 POP POP SWAP1 POP POP SWAP1 JUMP JUMPDEST DUP3 PUSH1 0x3 DUP2 ADD SWAP3 DUP3 ISZERO PUSH2 0x6C9 JUMPI SWAP2 PUSH1 0x20 MUL DUP3 ADD JUMPDEST DUP3 DUP2 GT ISZERO PUSH2 0x6C8 JUMPI DUP3 MLOAD DUP3 SSTORE SWAP2 PUSH1 0x20 ADD SWAP2 SWAP1 PUSH1 0x1 ADD SWAP1 PUSH2 0x6AD JUMP JUMPDEST JUMPDEST POP SWAP1 POP PUSH2 0x6D6 SWAP2 SWAP1 PUSH2 0x725 JUMP JUMPDEST POP SWAP1 JUMP JUMPDEST DUP3 DUP1 SLOAD DUP3 DUP3 SSTORE SWAP1 PUSH0 MSTORE PUSH1 0x20 PUSH0 KECCAK256 SWAP1 DUP2 ADD SWAP3 DUP3 ISZERO PUSH2 0x714 JUMPI SWAP2 PUSH1 0x20 MUL DUP3 ADD JUMPDEST DUP3 DUP2 GT ISZERO PUSH2 0x713 JUMPI DUP3 MLOAD DUP3 SSTORE SWAP2 PUSH1 0x20 ADD SWAP2 SWAP1 PUSH1 0x1 ADD SWAP1 PUSH2 0x6F8 JUMP JUMPDEST JUMPDEST POP SWAP1 POP PUSH2 0x721 SWAP2 SWAP1 PUSH2 0x725 JUMP JUMPDEST POP SWAP1 JUMP JUMPDEST JUMPDEST DUP1 DUP3 GT ISZERO PUSH2 0x73C JUMPI PUSH0 DUP2 PUSH0 SWAP1 SSTORE POP PUSH1 0x1 ADD PUSH2 0x726 JUMP JUMPDEST POP SWAP1 JUMP JUMPDEST PUSH0 PUSH1 0x40 MLOAD SWAP1 POP SWAP1 JUMP JUMPDEST PUSH0 DUP1 REVERT JUMPDEST PUSH0 DUP1 REVERT JUMPDEST PUSH0 DUP2 SWAP1 POP SWAP2 SWAP1 POP JUMP JUMPDEST PUSH2 0x763 DUP2 PUSH2 0x751 JUMP JUMPDEST DUP2 EQ PUSH2 0x76D JUMPI PUSH0 DUP1 REVERT JUMPDEST POP JUMP JUMPDEST PUSH0 DUP2 CALLDATALOAD SWAP1 POP PUSH2 0x77E DUP2 PUSH2 0x75A JUMP JUMPDEST SWAP3 SWAP2 POP POP JUMP JUMPDEST PUSH0 PUSH1 0x20 DUP3 DUP5 SUB SLT ISZERO PUSH2 0x799 JUMPI PUSH2 0x798 PUSH2 0x749 JUMP JUMPDEST JUMPDEST PUSH0 PUSH2 0x7A6 DUP5 DUP3 DUP6 ADD PUSH2 0x770 JUMP JUMPDEST SWAP2 POP POP SWAP3 SWAP2 POP POP JUMP JUMPDEST PUSH2 0x7B8 DUP2 PUSH2 0x751 JUMP JUMPDEST DUP3 MSTORE POP POP JUMP JUMPDEST PUSH0 PUSH1 0x20 DUP3 ADD SWAP1 POP PUSH2 0x7D1 PUSH0 DUP4 ADD DUP5 PUSH2 0x7AF JUMP JUMPDEST SWAP3 SWAP2 POP POP JUMP JUMPDEST PUSH0 DUP2 ISZERO ISZERO SWAP1 POP SWAP2 SWAP1 POP JUMP JUMPDEST PUSH2 0x7EB DUP2 PUSH2 0x7D7 JUMP JUMPDEST DUP3 MSTORE POP POP JUMP JUMPDEST PUSH0 PUSH1 0x20 DUP3 ADD SWAP1 POP PUSH2 0x804 PUSH0 DUP4 ADD DUP5 PUSH2 0x7E2 JUMP JUMPDEST SWAP3 SWAP2 POP POP JUMP JUMPDEST PUSH0 PUSH20 0xFFFFFFFFFFFFFFFFFFFFFFFFFFFFFFFFFFFFFFFF DUP3 AND SWAP1 POP SWAP2 SWAP1 POP JUMP JUMPDEST PUSH0 PUSH2 0x833 DUP3 PUSH2 0x80A JUMP JUMPDEST SWAP1 POP SWAP2 SWAP1 POP JUMP JUMPDEST PUSH2 0x843 DUP2 PUSH2 0x829 JUMP JUMPDEST DUP2 EQ PUSH2 0x84D JUMPI PUSH0 DUP1 REVERT JUMPDEST POP JUMP JUMPDEST PUSH0 DUP2 CALLDATALOAD SWAP1 POP PUSH2 0x85E DUP2 PUSH2 0x83A JUMP JUMPDEST SWAP3 SWAP2 POP POP JUMP JUMPDEST PUSH0 PUSH1 0x20 DUP3 DUP5 SUB SLT ISZERO PUSH2 0x879 JUMPI PUSH2 0x878 PUSH2 0x749 JUMP JUMPDEST JUMPDEST PUSH0 PUSH2 0x886 DUP5 DUP3 DUP6 ADD PUSH2 0x850 JUMP JUMPDEST SWAP2 POP POP SWAP3 SWAP2 POP POP JUMP JUMPDEST PUSH0 DUP2 SWAP1 POP SWAP2 SWAP1 POP JUMP JUMPDEST PUSH2 0x8A1 DUP2 PUSH2 0x88F JUMP JUMPDEST DUP3 MSTORE POP POP JUMP JUMPDEST PUSH2 0x8B0 DUP2 PUSH2 0x829 JUMP JUMPDEST DUP3 MSTORE POP POP JUMP JUMPDEST PUSH0 DUP2 MLOAD SWAP1 POP SWAP2 SWAP1 POP JUMP JUMPDEST PUSH0 DUP3 DUP3 MSTORE PUSH1 0x20 DUP3 ADD SWAP1 POP SWAP3 SWAP2 POP POP JUMP JUMPDEST DUP3 DUP2 DUP4 MCOPY PUSH0 DUP4 DUP4 ADD MSTORE POP POP POP JUMP JUMPDEST PUSH0 PUSH1 0x1F NOT PUSH1 0x1F DUP4 ADD AND SWAP1 POP SWAP2 SWAP1 POP JUMP JUMPDEST PUSH0 PUSH2 0x8F8 DUP3 PUSH2 0x8B6 JUMP JUMPDEST PUSH2 0x902 DUP2 DUP6 PUSH2 0x8C0 JUMP JUMPDEST SWAP4 POP PUSH2 0x912 DUP2 DUP6 PUSH1 0x20 DUP7 ADD PUSH2 0x8D0 JUMP JUMPDEST PUSH2 0x91B DUP2 PUSH2 0x8DE JUMP JUMPDEST DUP5 ADD SWAP2 POP POP SWAP3 SWAP2 POP POP JUMP JUMPDEST PUSH0 PUSH1 0x3 SWAP1 POP SWAP2 SWAP1 POP JUMP JUMPDEST PUSH0 DUP2 SWAP1 POP SWAP3 SWAP2 POP POP JUMP JUMPDEST PUSH0 DUP2 SWAP1 POP SWAP2 SWAP1 POP JUMP JUMPDEST PUSH2 0x94C DUP2 PUSH2 0x751 JUMP JUMPDEST DUP3 MSTORE POP POP JUMP JUMPDEST PUSH0 PUSH2 0x95D DUP4 DUP4 PUSH2 0x943 JUMP JUMPDEST PUSH1 0x20 DUP4 ADD SWAP1 POP SWAP3 SWAP2 POP POP JUMP JUMPDEST PUSH0 PUSH1 0x20 DUP3 ADD SWAP1 POP SWAP2 SWAP1 POP JUMP JUMPDEST PUSH2 0x97E DUP2 PUSH2 0x926 JUMP JUMPDEST PUSH2 0x988 DUP2 DUP5 PUSH2 0x930 JUMP JUMPDEST SWAP3 POP PUSH2 0x993 DUP3 PUSH2 0x93A JUMP JUMPDEST DUP1 PUSH0 JUMPDEST DUP4 DUP2 LT ISZERO PUSH2 0x9C3 JUMPI DUP2 MLOAD PUSH2 0x9AA DUP8 DUP3 PUSH2 0x952 JUMP JUMPDEST SWAP7 POP PUSH2 0x9B5 DUP4 PUSH2 0x969 JUMP JUMPDEST SWAP3 POP POP PUSH1 0x1 DUP2 ADD SWAP1 POP PUSH2 0x996 JUMP JUMPDEST POP POP POP POP POP POP JUMP JUMPDEST PUSH0 DUP2 MLOAD SWAP1 POP SWAP2 SWAP1 POP JUMP JUMPDEST PUSH0 DUP3 DUP3 MSTORE PUSH1 0x20 DUP3 ADD SWAP1 POP SWAP3 SWAP2 POP POP JUMP JUMPDEST PUSH0 DUP2 SWAP1 POP PUSH1 0x20 DUP3 ADD SWAP1 POP SWAP2 SWAP1 POP JUMP JUMPDEST PUSH0 PUSH1 0x20 DUP3 ADD SWAP1 POP SWAP2 SWAP1 POP JUMP JUMPDEST PUSH0 PUSH2 0xA0A DUP3 PUSH2 0x9CB JUMP JUMPDEST PUSH2 0xA14 DUP2 DUP6 PUSH2 0x9D5 JUMP JUMPDEST SWAP4 POP PUSH2 0xA1F DUP4 PUSH2 0x9E5 JUMP JUMPDEST DUP1 PUSH0 JUMPDEST DUP4 DUP2 LT ISZERO PUSH2 0xA4F JUMPI DUP2 MLOAD PUSH2 0xA36 DUP9 DUP3 PUSH2 0x952 JUMP JUMPDEST SWAP8 POP PUSH2 0xA41 DUP4 PUSH2 0x9F4 JUMP JUMPDEST SWAP3 POP POP PUSH1 0x1 DUP2 ADD SWAP1 POP PUSH2 0xA22 JUMP JUMPDEST POP DUP6 SWAP4 POP POP POP POP SWAP3 SWAP2 POP POP JUMP JUMPDEST PUSH0 PUSH2 0x120 DUP3 ADD SWAP1 POP PUSH2 0xA70 PUSH0 DUP4 ADD DUP11 PUSH2 0x7AF JUMP JUMPDEST PUSH2 0xA7D PUSH1 0x20 DUP4 ADD DUP10 PUSH2 0x898 JUMP JUMPDEST PUSH2 0xA8A PUSH1 0x40 DUP4 ADD DUP9 PUSH2 0x7E2 JUMP JUMPDEST PUSH2 0xA97 PUSH1 0x60 DUP4 ADD DUP8 PUSH2 0x8A7 JUMP JUMPDEST DUP2 DUP2 SUB PUSH1 0x80 DUP4 ADD MSTORE PUSH2 0xAA9 DUP2 DUP7 PUSH2 0x8EE JUMP JUMPDEST SWAP1 POP PUSH2 0xAB8 PUSH1 0xA0 DUP4 ADD DUP6 PUSH2 0x975 JUMP JUMPDEST DUP2 DUP2 SUB PUSH2 0x100 DUP4 ADD MSTORE PUSH2 0xACB DUP2 DUP5 PUSH2 0xA00 JUMP JUMPDEST SWAP1 POP SWAP9 SWAP8 POP POP POP POP POP POP POP POP JUMP JUMPDEST PUSH0 DUP1 REVERT JUMPDEST PUSH0 DUP1 REVERT JUMPDEST PUSH32 0x4E487B7100000000000000000000000000000000000000000000000000000000 PUSH0 MSTORE PUSH1 0x41 PUSH1 0x4 MSTORE PUSH1 0x24 PUSH0 REVERT JUMPDEST PUSH2 0xB17 DUP3 PUSH2 0x8DE JUMP JUMPDEST DUP2 ADD DUP2 DUP2 LT PUSH8 0xFFFFFFFFFFFFFFFF DUP3 GT OR ISZERO PUSH2 0xB36 JUMPI PUSH2 0xB35 PUSH2 0xAE1 JUMP JUMPDEST JUMPDEST DUP1 PUSH1 0x40 MSTORE POP POP POP JUMP JUMPDEST PUSH0 PUSH2 0xB48 PUSH2 0x740 JUMP JUMPDEST SWAP1 POP PUSH2 0xB54 DUP3 DUP3 PUSH2 0xB0E JUMP JUMPDEST SWAP2 SWAP1 POP JUMP JUMPDEST PUSH0 PUSH8 0xFFFFFFFFFFFFFFFF DUP3 GT ISZERO PUSH2 0xB73 JUMPI PUSH2 0xB72 PUSH2 0xAE1 JUMP JUMPDEST JUMPDEST PUSH2 0xB7C DUP3 PUSH2 0x8DE JUMP JUMPDEST SWAP1 POP PUSH1 0x20 DUP2 ADD SWAP1 POP SWAP2 SWAP1 POP JUMP JUMPDEST DUP3 DUP2 DUP4 CALLDATACOPY PUSH0 DUP4 DUP4 ADD MSTORE POP POP POP JUMP JUMPDEST PUSH0 PUSH2 0xBA9 PUSH2 0xBA4 DUP5 PUSH2 0xB59 JUMP JUMPDEST PUSH2 0xB3F JUMP JUMPDEST SWAP1 POP DUP3 DUP2 MSTORE PUSH1 0x20 DUP2 ADD DUP5 DUP5 DUP5 ADD GT ISZERO PUSH2 0xBC5 JUMPI PUSH2 0xBC4 PUSH2 0xADD JUMP JUMPDEST JUMPDEST PUSH2 0xBD0 DUP5 DUP3 DUP6 PUSH2 0xB89 JUMP JUMPDEST POP SWAP4 SWAP3 POP POP POP JUMP JUMPDEST PUSH0 DUP3 PUSH1 0x1F DUP4 ADD SLT PUSH2 0xBEC JUMPI PUSH2 0xBEB PUSH2 0xAD9 JUMP JUMPDEST JUMPDEST DUP2 CALLDATALOAD PUSH2 0xBFC DUP5 DUP3 PUSH1 0x20 DUP7 ADD PUSH2 0xB97 JUMP JUMPDEST SWAP2 POP POP SWAP3 SWAP2 POP POP JUMP JUMPDEST PUSH0 PUSH1 0x20 DUP3 DUP5 SUB SLT ISZERO PUSH2 0xC1A JUMPI PUSH2 0xC19 PUSH2 0x749 JUMP JUMPDEST JUMPDEST PUSH0 DUP3 ADD CALLDATALOAD PUSH8 0xFFFFFFFFFFFFFFFF DUP2 GT ISZERO PUSH2 0xC37 JUMPI PUSH2 0xC36 PUSH2 0x74D JUMP JUMPDEST JUMPDEST PUSH2 0xC43 DUP5 DUP3 DUP6 ADD PUSH2 0xBD8 JUMP JUMPDEST SWAP2 POP POP SWAP3 SWAP2 POP POP JUMP JUMPDEST PUSH0 PUSH1 0x20 DUP3 ADD SWAP1 POP PUSH2 0xC5F PUSH0 DUP4 ADD DUP5 PUSH2 0x8A7 JUMP JUMPDEST SWAP3 SWAP2 POP POP JUMP JUMPDEST PUSH2 0xC6E DUP2 PUSH2 0x7D7 JUMP JUMPDEST DUP2 EQ PUSH2 0xC78 JUMPI PUSH0 DUP1 REVERT JUMPDEST POP JUMP JUMPDEST PUSH0 DUP2 CALLDATALOAD SWAP1 POP PUSH2 0xC89 DUP2 PUSH2 0xC65 JUMP JUMPDEST SWAP3 SWAP2 POP POP JUMP JUMPDEST PUSH0 PUSH1 0x20 DUP3 DUP5 SUB SLT ISZERO PUSH2 0xCA4 JUMPI PUSH2 0xCA3 PUSH2 0x749 JUMP JUMPDEST JUMPDEST PUSH0 PUSH2 0xCB1 DUP5 DUP3 DUP6 ADD PUSH2 0xC7B JUMP JUMPDEST SWAP2 POP POP SWAP3 SWAP2 POP POP JUMP JUMPDEST PUSH0 PUSH8 0xFFFFFFFFFFFFFFFF DUP3 GT ISZERO PUSH2 0xCD4 JUMPI PUSH2 0xCD3 PUSH2 0xAE1 JUMP JUMPDEST JUMPDEST PUSH1 0x20 DUP3 MUL SWAP1 POP SWAP2 SWAP1 POP JUMP JUMPDEST PUSH0 DUP1 REVERT JUMPDEST PUSH0 PUSH2 0xCF5 PUSH2 0xCF0 DUP5 PUSH2 0xCBA JUMP JUMPDEST PUSH2 0xB3F JUMP JUMPDEST SWAP1 POP DUP1 PUSH1 0x20 DUP5 MUL DUP4 ADD DUP6 DUP2 GT ISZERO PUSH2 0xD0F JUMPI PUSH2 0xD0E PUSH2 0xCDF JUMP JUMPDEST JUMPDEST DUP4 JUMPDEST DUP2 DUP2 LT ISZERO PUSH2 0xD38 JUMPI DUP1 PUSH2 0xD24 DUP9 DUP3 PUSH2 0x770 JUMP JUMPDEST DUP5 MSTORE PUSH1 0x20 DUP5 ADD SWAP4 POP POP PUSH1 0x20 DUP2 ADD SWAP1 POP PUSH2 0xD11 JUMP JUMPDEST POP POP POP SWAP4 SWAP3 POP POP POP JUMP JUMPDEST PUSH0 DUP3 PUSH1 0x1F DUP4 ADD SLT PUSH2 0xD56 JUMPI PUSH2 0xD55 PUSH2 0xAD9 JUMP JUMPDEST JUMPDEST PUSH1 0x3 PUSH2 0xD63 DUP5 DUP3 DUP6 PUSH2 0xCE3 JUMP JUMPDEST SWAP2 POP POP SWAP3 SWAP2 POP POP JUMP JUMPDEST PUSH0 PUSH1 0x60 DUP3 DUP5 SUB SLT ISZERO PUSH2 0xD81 JUMPI PUSH2 0xD80 PUSH2 0x749 JUMP JUMPDEST JUMPDEST PUSH0 PUSH2 0xD8E DUP5 DUP3 DUP6 ADD PUSH2 0xD42 JUMP JUMPDEST SWAP2 POP POP SWAP3 SWAP2 POP POP JUMP JUMPDEST PUSH0 PUSH1 0x20 DUP3 ADD SWAP1 POP PUSH2 0xDAA PUSH0 DUP4 ADD DUP5 PUSH2 0x898 JUMP JUMPDEST SWAP3 SWAP2 POP POP JUMP JUMPDEST PUSH0 PUSH1 0x20 DUP3 ADD SWAP1 POP DUP2 DUP2 SUB PUSH0 DUP4 ADD MSTORE PUSH2 0xDC8 DUP2 DUP5 PUSH2 0x8EE JUMP JUMPDEST SWAP1 POP SWAP3 SWAP2 POP POP JUMP JUMPDEST PUSH2 0xDD9 DUP2 PUSH2 0x88F JUMP JUMPDEST DUP2 EQ PUSH2 0xDE3 JUMPI PUSH0 DUP1 REVERT JUMPDEST POP JUMP JUMPDEST PUSH0 DUP2 CALLDATALOAD SWAP1 POP PUSH2 0xDF4 DUP2 PUSH2 0xDD0 JUMP JUMPDEST SWAP3 SWAP2 POP POP JUMP JUMPDEST PUSH0 PUSH1 0x20 DUP3 DUP5 SUB SLT ISZERO PUSH2 0xE0F JUMPI PUSH2 0xE0E PUSH2 0x749 JUMP JUMPDEST JUMPDEST PUSH0 PUSH2 0xE1C DUP5 DUP3 DUP6 ADD PUSH2 0xDE6 JUMP JUMPDEST SWAP2 POP POP SWAP3 SWAP2 POP POP JUMP JUMPDEST PUSH0 PUSH8 0xFFFFFFFFFFFFFFFF DUP3 GT ISZERO PUSH2 0xE3F JUMPI PUSH2 0xE3E PUSH2 0xAE1 JUMP JUMPDEST JUMPDEST PUSH1 0x20 DUP3 MUL SWAP1 POP PUSH1 0x20 DUP2 ADD SWAP1 POP SWAP2 SWAP1 POP JUMP JUMPDEST PUSH0 PUSH2 0xE62 PUSH2 0xE5D DUP5 PUSH2 0xE25 JUMP JUMPDEST PUSH2 0xB3F JUMP JUMPDEST SWAP1 POP DUP1 DUP4 DUP3 MSTORE PUSH1 0x20 DUP3 ADD SWAP1 POP PUSH1 0x20 DUP5 MUL DUP4 ADD DUP6 DUP2 GT ISZERO PUSH2 0xE85 JUMPI PUSH2 0xE84 PUSH2 0xCDF JUMP JUMPDEST JUMPDEST DUP4 JUMPDEST DUP2 DUP2 LT ISZERO PUSH2 0xEAE JUMPI DUP1 PUSH2 0xE9A DUP9 DUP3 PUSH2 0x770 JUMP JUMPDEST DUP5 MSTORE PUSH1 0x20 DUP5 ADD SWAP4 POP POP PUSH1 0x20 DUP2 ADD SWAP1 POP PUSH2 0xE87 JUMP JUMPDEST POP POP POP SWAP4 SWAP3 POP POP POP JUMP JUMPDEST PUSH0 DUP3 PUSH1 0x1F DUP4 ADD SLT PUSH2 0xECC JUMPI PUSH2 0xECB PUSH2 0xAD9 JUMP JUMPDEST JUMPDEST DUP2 CALLDATALOAD PUSH2 0xEDC DUP5 DUP3 PUSH1 0x20 DUP7 ADD PUSH2 0xE50 JUMP JUMPDEST SWAP2 POP POP SWAP3 SWAP2 POP POP JUMP JUMPDEST PUSH0 PUSH1 0x20 DUP3 DUP5 SUB SLT ISZERO PUSH2 0xEFA JUMPI PUSH2 0xEF9 PUSH2 0x749 JUMP JUMPDEST JUMPDEST PUSH0 DUP3 ADD CALLDATALOAD PUSH8 0xFFFFFFFFFFFFFFFF DUP2 GT ISZERO PUSH2 0xF17 JUMPI PUSH2 0xF16 PUSH2 0x74D JUMP JUMPDEST JUMPDEST PUSH2 0xF23 DUP5 DUP3 DUP6 ADD PUSH2 0xEB8 JUMP JUMPDEST SWAP2 POP POP SWAP3 SWAP2 POP POP JUMP JUMPDEST PUSH0 PUSH1 0x20 DUP3 ADD SWAP1 POP DUP2 DUP2 SUB PUSH0 DUP4 ADD MSTORE PUSH2 0xF44 DUP2 DUP5 PUSH2 0xA00 JUMP JUMPDEST SWAP1 POP SWAP3 SWAP2 POP POP JUMP JUMPDEST PUSH32 0x4E487B7100000000000000000000000000000000000000000000000000000000 PUSH0 MSTORE PUSH1 0x22 PUSH1 0x4 MSTORE PUSH1 0x24 PUSH0 REVERT JUMPDEST PUSH0 PUSH1 0x2 DUP3 DIV SWAP1 POP PUSH1 0x1 DUP3 AND DUP1 PUSH2 0xF90 JUMPI PUSH1 0x7F DUP3 AND SWAP2 POP JUMPDEST PUSH1 0x20 DUP3 LT DUP2 SUB PUSH2 0xFA3 JUMPI PUSH2 0xFA2 PUSH2 0xF4C JUMP JUMPDEST JUMPDEST POP SWAP2 SWAP1 POP JUMP JUMPDEST PUSH0 DUP2 SWAP1 POP DUP2 PUSH0 MSTORE PUSH1 0x20 PUSH0 KECCAK256 SWAP1 POP SWAP2 SWAP1 POP JUMP JUMPDEST PUSH0 PUSH1 0x20 PUSH1 0x1F DUP4 ADD DIV SWAP1 POP SWAP2 SWAP1 POP JUMP JUMPDEST PUSH0 DUP3 DUP3 SHL SWAP1 POP SWAP3 SWAP2 POP POP JUMP JUMPDEST PUSH0 PUSH1 0x8 DUP4 MUL PUSH2 0x1005 PUSH32 0xFFFFFFFFFFFFFFFFFFFFFFFFFFFFFFFFFFFFFFFFFFFFFFFFFFFFFFFFFFFFFFFF DUP3 PUSH2 0xFCA JUMP JUMPDEST PUSH2 0x100F DUP7 DUP4 PUSH2 0xFCA JUMP JUMPDEST SWAP6 POP DUP1 NOT DUP5 AND SWAP4 POP DUP1 DUP7 AND DUP5 OR SWAP3 POP POP POP SWAP4 SWAP3 POP POP POP JUMP JUMPDEST PUSH0 DUP2 SWAP1 POP SWAP2 SWAP1 POP JUMP JUMPDEST PUSH0 PUSH2 0x104A PUSH2 0x1045 PUSH2 0x1040 DUP5 PUSH2 0x751 JUMP JUMPDEST PUSH2 0x1027 JUMP JUMPDEST PUSH2 0x751 JUMP JUMPDEST SWAP1 POP SWAP2 SWAP1 POP JUMP JUMPDEST PUSH0 DUP2 SWAP1 POP SWAP2 SWAP1 POP JUMP JUMPDEST PUSH2 0x1063 DUP4 PUSH2 0x1030 JUMP JUMPDEST PUSH2 0x1077 PUSH2 0x106F DUP3 PUSH2 0x1051 JUMP JUMPDEST DUP5 DUP5 SLOAD PUSH2 0xFD6 JUMP JUMPDEST DUP3 SSTORE POP POP POP POP JUMP JUMPDEST PUSH0 SWAP1 JUMP JUMPDEST PUSH2 0x108B PUSH2 0x107F JUMP JUMPDEST PUSH2 0x1096 DUP2 DUP5 DUP5 PUSH2 0x105A JUMP JUMPDEST POP POP POP JUMP JUMPDEST JUMPDEST DUP2 DUP2 LT ISZERO PUSH2 0x10B9 JUMPI PUSH2 0x10AE PUSH0 DUP3 PUSH2 0x1083 JUMP JUMPDEST PUSH1 0x1 DUP2 ADD SWAP1 POP PUSH2 0x109C JUMP JUMPDEST POP POP JUMP JUMPDEST PUSH1 0x1F DUP3 GT ISZERO PUSH2 0x10FE JUMPI PUSH2 0x10CF DUP2 PUSH2 0xFA9 JUMP JUMPDEST PUSH2 0x10D8 DUP5 PUSH2 0xFBB JUMP JUMPDEST DUP2 ADD PUSH1 0x20 DUP6 LT ISZERO PUSH2 0x10E7 JUMPI DUP2 SWAP1 POP JUMPDEST PUSH2 0x10FB PUSH2 0x10F3 DUP6 PUSH2 0xFBB JUMP JUMPDEST DUP4 ADD DUP3 PUSH2 0x109B JUMP JUMPDEST POP POP JUMPDEST POP POP POP JUMP JUMPDEST PUSH0 DUP3 DUP3 SHR SWAP1 POP SWAP3 SWAP2 POP POP JUMP JUMPDEST PUSH0 PUSH2 0x111E PUSH0 NOT DUP5 PUSH1 0x8 MUL PUSH2 0x1103 JUMP JUMPDEST NOT DUP1 DUP4 AND SWAP2 POP POP SWAP3 SWAP2 POP POP JUMP JUMPDEST PUSH0 PUSH2 0x1136 DUP4 DUP4 PUSH2 0x110F JUMP JUMPDEST SWAP2 POP DUP3 PUSH1 0x2 MUL DUP3 OR SWAP1 POP SWAP3 SWAP2 POP POP JUMP JUMPDEST PUSH2 0x114F DUP3 PUSH2 0x8B6 JUMP JUMPDEST PUSH8 0xFFFFFFFFFFFFFFFF DUP2 GT ISZERO PUSH2 0x1168 JUMPI PUSH2 0x1167 PUSH2 0xAE1 JUMP JUMPDEST JUMPDEST PUSH2 0x1172 DUP3 SLOAD PUSH2 0xF79 JUMP JUMPDEST PUSH2 0x117D DUP3 DUP3 DUP6 PUSH2 0x10BD JUMP JUMPDEST PUSH0 PUSH1 0x20 SWAP1 POP PUSH1 0x1F DUP4 GT PUSH1 0x1 DUP2 EQ PUSH2 0x11AE JUMPI PUSH0 DUP5 ISZERO PUSH2 0x119C JUMPI DUP3 DUP8 ADD MLOAD SWAP1 POP JUMPDEST PUSH2 0x11A6 DUP6 DUP3 PUSH2 0x112B JUMP JUMPDEST DUP7 SSTORE POP PUSH2 0x120D JUMP JUMPDEST PUSH1 0x1F NOT DUP5 AND PUSH2 0x11BC DUP7 PUSH2 0xFA9 JUMP JUMPDEST PUSH0 JUMPDEST DUP3 DUP2 LT ISZERO PUSH2 0x11E3 JUMPI DUP5 DUP10 ADD MLOAD DUP3 SSTORE PUSH1 0x1 DUP3 ADD SWAP2 POP PUSH1 0x20 DUP6 ADD SWAP5 POP PUSH1 0x20 DUP2 ADD SWAP1 POP PUSH2 0x11BE JUMP JUMPDEST DUP7 DUP4 LT ISZERO PUSH2 0x1200 JUMPI DUP5 DUP10 ADD MLOAD PUSH2 0x11FC PUSH1 0x1F DUP10 AND DUP3 PUSH2 0x110F JUMP JUMPDEST DUP4 SSTORE POP JUMPDEST PUSH1 0x1 PUSH1 0x2 DUP9 MUL ADD DUP9 SSTORE POP POP POP JUMPDEST POP POP POP POP POP POP JUMP INVALID LOG2 PUSH5 0x6970667358 0x22 SLT KECCAK256 PUSH10 0x15694FE6DD49205318FF 0xB0 INVALID EXTCODECOPY 0xE0 DUP12 GASLIMIT 0x2E PUSH31 0x463BAB8236A6EAC23114777F1564736F6C634300081A003300000000000000 "
				},
				"gasEstimates": {
					"creation": {
						"codeDepositCost": "936600",
						"executionCost": "973",
						"totalCost": "937573"
					},
					"external": {
						"a()": "2534",
						"addressvar()": "2582",
						"dynamicarray(uint256)": "infinite",
						"fixedarray(uint256)": "infinite",
						"number()": "2491",
						"number1()": "2447",
						"retrieve()": "infinite",
						"store(uint256)": "22603",
						"store1(int256)": "22581",
						"store2(bool)": "24718",
						"store3(address)": "24789",
						"store4(string)": "infinite",
						"store5(uint256[3])": "infinite",
						"store6(uint256[])": "infinite",
						"stringVar()": "infinite"
					}
				},
				"methodIdentifiers": {
					"a()": "0dbe671f",
					"addressvar()": "68c394ff",
					"dynamicarray(uint256)": "0b559dfa",
					"fixedarray(uint256)": "029194b4",
					"number()": "8381f58a",
					"number1()": "c223a39e",
					"retrieve()": "2e64cec1",
					"store(uint256)": "6057361d",
					"store1(int256)": "f3e1b056",
					"store2(bool)": "6a20bf08",
					"store3(address)": "17fd6986",
					"store4(string)": "344c3634",
					"store5(uint256[3])": "8d8a227b",
					"store6(uint256[])": "faecdad7",
					"stringVar()": "e9074ca3"
				}
			},
			"storageLayout": {
				"storage": [
					{
						"astId": 4,
						"contract": "contracts/exp1_types.sol:Storage",
						"label": "number",
						"offset": 0,
						"slot": "0",
						"type": "t_uint256"
					},
					{
						"astId": 6,
						"contract": "contracts/exp1_types.sol:Storage",
						"label": "number1",
						"offset": 0,
						"slot": "1",
						"type": "t_int256"
					},
					{
						"astId": 8,
						"contract": "contracts/exp1_types.sol:Storage",
						"label": "a",
						"offset": 0,
						"slot": "2",
						"type": "t_bool"
					},
					{
						"astId": 10,
						"contract": "contracts/exp1_types.sol:Storage",
						"label": "addressvar",
						"offset": 1,
						"slot": "2",
						"type": "t_address"
					},
					{
						"astId": 12,
						"contract": "contracts/exp1_types.sol:Storage",
						"label": "stringVar",
						"offset": 0,
						"slot": "3",
						"type": "t_string_storage"
					},
					{
						"astId": 16,
						"contract": "contracts/exp1_types.sol:Storage",
						"label": "fixedarray",
						"offset": 0,
						"slot": "4",
						"type": "t_array(t_uint256)3_storage"
					},
					{
						"astId": 19,
						"contract": "contracts/exp1_types.sol:Storage",
						"label": "dynamicarray",
						"offset": 0,
						"slot": "7",
						"type": "t_array(t_uint256)dyn_storage"
					}
				],
				"types": {
					"t_address": {
						"encoding": "inplace",
						"label": "address",
						"numberOfBytes": "20"
					},
					"t_array(t_uint256)3_storage": {
						"base": "t_uint256",
						"encoding": "inplace",
						"label": "uint256[3]",
						"numberOfBytes": "96"
					},
					"t_array(t_uint256)dyn_storage": {
						"base": "t_uint256",
						"encoding": "dynamic_array",
						"label": "uint256[]",
						"numberOfBytes": "32"
					},
					"t_bool": {
						"encoding": "inplace",
						"label": "bool",
						"numberOfBytes": "1"
					},
					"t_int256": {
						"encoding": "inplace",
						"label": "int256",
						"numberOfBytes": "32"
					},
					"t_string_storage": {
						"encoding": "bytes",
						"label": "string",
						"numberOfBytes": "32"
					},
					"t_uint256": {
						"encoding": "inplace",
						"label": "uint256",
						"numberOfBytes": "32"
					}
				}
			},
			"userdoc": {
				"kind": "user",
				"methods": {},
				"version": 1
			}
		}
	}
}