{
	"data": {
		"bytecode": {
			"linkReferences": {},
			"object": "6080604052348015600e575f80fd5b506105418061001c5f395ff3fe608060405234801561000f575f80fd5b5060043610610029575f3560e01c8063872339bd1461002d575b5f80fd5b610047600480360381019061004291906101e8565b61005e565b604051610055929190610247565b60405180910390f35b5f805f8386600461006f919061029b565b610079919061029b565b8586610085919061029b565b61008f9190610311565b90505f8112156100d4576040517f08c379a00000000000000000000000000000000000000000000000000000000081526004016100cb906103d1565b60405180910390fd5b5f6100de82610150565b90505f8760026100ee919061029b565b82886100f9906103ef565b6101039190610435565b61010d91906104a3565b90505f88600261011d919061029b565b8389610128906103ef565b6101329190610311565b61013c91906104a3565b905081819550955050505050935093915050565b5f8060026001846101619190610435565b61016b91906104a3565b90505f8390505b808212156101a757819050600282838661018c91906104a3565b6101969190610435565b6101a091906104a3565b9150610172565b8192505050919050565b5f80fd5b5f819050919050565b6101c7816101b5565b81146101d1575f80fd5b50565b5f813590506101e2816101be565b92915050565b5f805f606084860312156101ff576101fe6101b1565b5b5f61020c868287016101d4565b935050602061021d868287016101d4565b925050604061022e868287016101d4565b9150509250925092565b610241816101b5565b82525050565b5f60408201905061025a5f830185610238565b6102676020830184610238565b9392505050565b7f4e487b71000000000000000000000000000000000000000000000000000000005f52601160045260245ffd5b5f6102a5826101b5565b91506102b0836101b5565b92508282026102be816101b5565b91507f800000000000000000000000000000000000000000000000000000000000000084145f841216156102f5576102f461026e565b5b828205841483151761030a5761030961026e565b5b5092915050565b5f61031b826101b5565b9150610326836101b5565b925082820390508181125f8412168282135f85121516171561034b5761034a61026e565b5b92915050565b5f82825260208201905092915050565b7f4469736372696d696e616e74206d757374206265206e6f6e2d6e6567617469765f8201527f6500000000000000000000000000000000000000000000000000000000000000602082015250565b5f6103bb602183610351565b91506103c682610361565b604082019050919050565b5f6020820190508181035f8301526103e8816103af565b9050919050565b5f6103f9826101b5565b91507f8000000000000000000000000000000000000000000000000000000000000000820361042b5761042a61026e565b5b815f039050919050565b5f61043f826101b5565b915061044a836101b5565b92508282019050828112155f8312168382125f8412151617156104705761046f61026e565b5b92915050565b7f4e487b71000000000000000000000000000000000000000000000000000000005f52601260045260245ffd5b5f6104ad826101b5565b91506104b8836101b5565b9250826104c8576104c7610476565b5b60015f0383147f800000000000000000000000000000000000000000000000000000000000000083141615610500576104ff61026e565b5b82820590509291505056fea264697066735822122024e81e9c5de4b77799e78cab601789b79d860251bf0b990ec93a8502506577e564736f6c634300081a0033",
			"opcodes": "PUSH1 0x80 PUSH1 0x40 MSTORE CALLVALUE DUP1 ISZERO PUSH1 0xE JUMPI PUSH0 DUP1 REVERT JUMPDEST POP PUSH2 0x541 DUP1 PUSH2 0x1C PUSH0 CODECOPY PUSH0 RETURN INVALID PUSH1 0x80 PUSH1 0x40 MSTORE CALLVALUE DUP1 ISZERO PUSH2 0xF JUMPI PUSH0 DUP1 REVERT JUMPDEST POP PUSH1 0x4 CALLDATASIZE LT PUSH2 0x29 JUMPI PUSH0 CALLDATALOAD PUSH1 0xE0 SHR DUP1 PUSH4 0x872339BD EQ PUSH2 0x2D JUMPI JUMPDEST PUSH0 DUP1 REVERT JUMPDEST PUSH2 0x47 PUSH1 0x4 DUP1 CALLDATASIZE SUB DUP2 ADD SWAP1 PUSH2 0x42 SWAP2 SWAP1 PUSH2 0x1E8 JUMP JUMPDEST PUSH2 0x5E JUMP JUMPDEST PUSH1 0x40 MLOAD PUSH2 0x55 SWAP3 SWAP2 SWAP1 PUSH2 0x247 JUMP JUMPDEST PUSH1 0x40 MLOAD DUP1 SWAP2 SUB SWAP1 RETURN JUMPDEST PUSH0 DUP1 PUSH0 DUP4 DUP7 PUSH1 0x4 PUSH2 0x6F SWAP2 SWAP1 PUSH2 0x29B JUMP JUMPDEST PUSH2 0x79 SWAP2 SWAP1 PUSH2 0x29B JUMP JUMPDEST DUP6 DUP7 PUSH2 0x85 SWAP2 SWAP1 PUSH2 0x29B JUMP JUMPDEST PUSH2 0x8F SWAP2 SWAP1 PUSH2 0x311 JUMP JUMPDEST SWAP1 POP PUSH0 DUP2 SLT ISZERO PUSH2 0xD4 JUMPI PUSH1 0x40 MLOAD PUSH32 0x8C379A000000000000000000000000000000000000000000000000000000000 DUP2 MSTORE PUSH1 0x4 ADD PUSH2 0xCB SWAP1 PUSH2 0x3D1 JUMP JUMPDEST PUSH1 0x40 MLOAD DUP1 SWAP2 SUB SWAP1 REVERT JUMPDEST PUSH0 PUSH2 0xDE DUP3 PUSH2 0x150 JUMP JUMPDEST SWAP1 POP PUSH0 DUP8 PUSH1 0x2 PUSH2 0xEE SWAP2 SWAP1 PUSH2 0x29B JUMP JUMPDEST DUP3 DUP9 PUSH2 0xF9 SWAP1 PUSH2 0x3EF JUMP JUMPDEST PUSH2 0x103 SWAP2 SWAP1 PUSH2 0x435 JUMP JUMPDEST PUSH2 0x10D SWAP2 SWAP1 PUSH2 0x4A3 JUMP JUMPDEST SWAP1 POP PUSH0 DUP9 PUSH1 0x2 PUSH2 0x11D SWAP2 SWAP1 PUSH2 0x29B JUMP JUMPDEST DUP4 DUP10 PUSH2 0x128 SWAP1 PUSH2 0x3EF JUMP JUMPDEST PUSH2 0x132 SWAP2 SWAP1 PUSH2 0x311 JUMP JUMPDEST PUSH2 0x13C SWAP2 SWAP1 PUSH2 0x4A3 JUMP JUMPDEST SWAP1 POP DUP2 DUP2 SWAP6 POP SWAP6 POP POP POP POP POP SWAP4 POP SWAP4 SWAP2 POP POP JUMP JUMPDEST PUSH0 DUP1 PUSH1 0x2 PUSH1 0x1 DUP5 PUSH2 0x161 SWAP2 SWAP1 PUSH2 0x435 JUMP JUMPDEST PUSH2 0x16B SWAP2 SWAP1 PUSH2 0x4A3 JUMP JUMPDEST SWAP1 POP PUSH0 DUP4 SWAP1 POP JUMPDEST DUP1 DUP3 SLT ISZERO PUSH2 0x1A7 JUMPI DUP2 SWAP1 POP PUSH1 0x2 DUP3 DUP4 DUP7 PUSH2 0x18C SWAP2 SWAP1 PUSH2 0x4A3 JUMP JUMPDEST PUSH2 0x196 SWAP2 SWAP1 PUSH2 0x435 JUMP JUMPDEST PUSH2 0x1A0 SWAP2 SWAP1 PUSH2 0x4A3 JUMP JUMPDEST SWAP2 POP PUSH2 0x172 JUMP JUMPDEST DUP2 SWAP3 POP POP POP SWAP2 SWAP1 POP JUMP JUMPDEST PUSH0 DUP1 REVERT JUMPDEST PUSH0 DUP2 SWAP1 POP SWAP2 SWAP1 POP JUMP JUMPDEST PUSH2 0x1C7 DUP2 PUSH2 0x1B5 JUMP JUMPDEST DUP2 EQ PUSH2 0x1D1 JUMPI PUSH0 DUP1 REVERT JUMPDEST POP JUMP JUMPDEST PUSH0 DUP2 CALLDATALOAD SWAP1 POP PUSH2 0x1E2 DUP2 PUSH2 0x1BE JUMP JUMPDEST SWAP3 SWAP2 POP POP JUMP JUMPDEST PUSH0 DUP1 PUSH0 PUSH1 0x60 DUP5 DUP7 SUB SLT ISZERO PUSH2 0x1FF JUMPI PUSH2 0x1FE PUSH2 0x1B1 JUMP JUMPDEST JUMPDEST PUSH0 PUSH2 0x20C DUP7 DUP3 DUP8 ADD PUSH2 0x1D4 JUMP JUMPDEST SWAP4 POP POP PUSH1 0x20 PUSH2 0x21D DUP7 DUP3 DUP8 ADD PUSH2 0x1D4 JUMP JUMPDEST SWAP3 POP POP PUSH1 0x40 PUSH2 0x22E DUP7 DUP3 DUP8 ADD PUSH2 0x1D4 JUMP JUMPDEST SWAP2 POP POP SWAP3 POP SWAP3 POP SWAP3 JUMP JUMPDEST PUSH2 0x241 DUP2 PUSH2 0x1B5 JUMP JUMPDEST DUP3 MSTORE POP POP JUMP JUMPDEST PUSH0 PUSH1 0x40 DUP3 ADD SWAP1 POP PUSH2 0x25A PUSH0 DUP4 ADD DUP6 PUSH2 0x238 JUMP JUMPDEST PUSH2 0x267 PUSH1 0x20 DUP4 ADD DUP5 PUSH2 0x238 JUMP JUMPDEST SWAP4 SWAP3 POP POP POP JUMP JUMPDEST PUSH32 0x4E487B7100000000000000000000000000000000000000000000000000000000 PUSH0 MSTORE PUSH1 0x11 PUSH1 0x4 MSTORE PUSH1 0x24 PUSH0 REVERT JUMPDEST PUSH0 PUSH2 0x2A5 DUP3 PUSH2 0x1B5 JUMP JUMPDEST SWAP2 POP PUSH2 0x2B0 DUP4 PUSH2 0x1B5 JUMP JUMPDEST SWAP3 POP DUP3 DUP3 MUL PUSH2 0x2BE DUP2 PUSH2 0x1B5 JUMP JUMPDEST SWAP2 POP PUSH32 0x8000000000000000000000000000000000000000000000000000000000000000 DUP5 EQ PUSH0 DUP5 SLT AND ISZERO PUSH2 0x2F5 JUMPI PUSH2 0x2F4 PUSH2 0x26E JUMP JUMPDEST JUMPDEST DUP3 DUP3 SDIV DUP5 EQ DUP4 ISZERO OR PUSH2 0x30A JUMPI PUSH2 0x309 PUSH2 0x26E JUMP JUMPDEST JUMPDEST POP SWAP3 SWAP2 POP POP JUMP JUMPDEST PUSH0 PUSH2 0x31B DUP3 PUSH2 0x1B5 JUMP JUMPDEST SWAP2 POP PUSH2 0x326 DUP4 PUSH2 0x1B5 JUMP JUMPDEST SWAP3 POP DUP3 DUP3 SUB SWAP1 POP DUP2 DUP2 SLT PUSH0 DUP5 SLT AND DUP3 DUP3 SGT PUSH0 DUP6 SLT ISZERO AND OR ISZERO PUSH2 0x34B JUMPI PUSH2 0x34A PUSH2 0x26E JUMP JUMPDEST JUMPDEST SWAP3 SWAP2 POP POP JUMP JUMPDEST PUSH0 DUP3 DUP3 MSTORE PUSH1 0x20 DUP3 ADD SWAP1 POP SWAP3 SWAP2 POP POP JUMP JUMPDEST PUSH32 0x4469736372696D696E616E74206D757374206265206E6F6E2D6E656761746976 PUSH0 DUP3 ADD MSTORE PUSH32 0x6500000000000000000000000000000000000000000000000000000000000000 PUSH1 0x20 DUP3 ADD MSTORE POP JUMP JUMPDEST PUSH0 PUSH2 0x3BB PUSH1 0x21 DUP4 PUSH2 0x351 JUMP JUMPDEST SWAP2 POP PUSH2 0x3C6 DUP3 PUSH2 0x361 JUMP JUMPDEST PUSH1 0x40 DUP3 ADD SWAP1 POP SWAP2 SWAP1 POP JUMP JUMPDEST PUSH0 PUSH1 0x20 DUP3 ADD SWAP1 POP DUP2 DUP2 SUB PUSH0 DUP4 ADD MSTORE PUSH2 0x3E8 DUP2 PUSH2 0x3AF JUMP JUMPDEST SWAP1 POP SWAP2 SWAP1 POP JUMP JUMPDEST PUSH0 PUSH2 0x3F9 DUP3 PUSH2 0x1B5 JUMP JUMPDEST SWAP2 POP PUSH32 0x8000000000000000000000000000000000000000000000000000000000000000 DUP3 SUB PUSH2 0x42B JUMPI PUSH2 0x42A PUSH2 0x26E JUMP JUMPDEST JUMPDEST DUP2 PUSH0 SUB SWAP1 POP SWAP2 SWAP1 POP JUMP JUMPDEST PUSH0 PUSH2 0x43F DUP3 PUSH2 0x1B5 JUMP JUMPDEST SWAP2 POP PUSH2 0x44A DUP4 PUSH2 0x1B5 JUMP JUMPDEST SWAP3 POP DUP3 DUP3 ADD SWAP1 POP DUP3 DUP2 SLT ISZERO PUSH0 DUP4 SLT AND DUP4 DUP3 SLT PUSH0 DUP5 SLT ISZERO AND OR ISZERO PUSH2 0x470 JUMPI PUSH2 0x46F PUSH2 0x26E JUMP JUMPDEST JUMPDEST SWAP3 SWAP2 POP POP JUMP JUMPDEST PUSH32 0x4E487B7100000000000000000000000000000000000000000000000000000000 PUSH0 MSTORE PUSH1 0x12 PUSH1 0x4 MSTORE PUSH1 0x24 PUSH0 REVERT JUMPDEST PUSH0 PUSH2 0x4AD DUP3 PUSH2 0x1B5 JUMP JUMPDEST SWAP2 POP PUSH2 0x4B8 DUP4 PUSH2 0x1B5 JUMP JUMPDEST SWAP3 POP DUP3 PUSH2 0x4C8 JUMPI PUSH2 0x4C7 PUSH2 0x476 JUMP JUMPDEST JUMPDEST PUSH1 0x1 PUSH0 SUB DUP4 EQ PUSH32 0x8000000000000000000000000000000000000000000000000000000000000000 DUP4 EQ AND ISZERO PUSH2 0x500 JUMPI PUSH2 0x4FF PUSH2 0x26E JUMP JUMPDEST JUMPDEST DUP3 DUP3 SDIV SWAP1 POP SWAP3 SWAP2 POP POP JUMP INVALID LOG2 PUSH5 0x6970667358 0x22 SLT KECCAK256 0x24 0xE8 0x1E SWAP13 TSTORE 0xE4 0xB7 PUSH24 0x99E78CAB601789B79D860251BF0B990EC93A8502506577E5 PUSH5 0x736F6C6343 STOP ADDMOD BYTE STOP CALLER "
		},
		"gasEstimates": {
			"creation": {
				"codeDepositCost": "269000",
				"executionCost": "310",
				"totalCost": "269310"
			},
			"external": {
				"solveQuadratic(int256,int256,int256)": "infinite"
			},
			"internal": {
				"sqrt(int256)": "infinite"
			}
		},
		"methodIdentifiers": {
			"solveQuadratic(int256,int256,int256)": "872339bd"
		}
	},
	"abi": [
		{
			"inputs": [
				{
					"internalType": "int256",
					"name": "a",
					"type": "int256"
				},
				{
					"internalType": "int256",
					"name": "b",
					"type": "int256"
				},
				{
					"internalType": "int256",
					"name": "c",
					"type": "int256"
				}
			],
			"name": "solveQuadratic",
			"outputs": [
				{
					"internalType": "int256",
					"name": "",
					"type": "int256"
				},
				{
					"internalType": "int256",
					"name": "",
					"type": "int256"
				}
			],
			"stateMutability": "pure",
			"type": "function"
		}
	]
}