{
	"data": {
		"bytecode": {
			"linkReferences": {},
			"object": "6080604052348015600e575f80fd5b506110b08061001c5f395ff3fe608060405234801561000f575f80fd5b5060043610610091575f3560e01c80632e64cec1116100645780632e64cec1146101315780635d4fb290146101555780638381f58a146101715780639b267f091461018f5780639d02f895146101ad57610091565b8063029194b41461009557806309efb8ff146100c55780630b559dfa146100e35780630dbe671f14610113575b5f80fd5b6100af60048036038101906100aa9190610669565b6101cb565b6040516100bc91906106a3565b60405180910390f35b6100cd6101e4565b6040516100da91906106d7565b60405180910390f35b6100fd60048036038101906100f89190610669565b6101f6565b60405161010a91906106a3565b60405180910390f35b61011b610216565b604051610128919061070a565b60405180910390f35b610139610228565b60405161014c9796959493929190610908565b60405180910390f35b61016f600480360381019061016a9190610ca1565b6103ae565b005b6101796104a8565b60405161018691906106a3565b60405180910390f35b6101976104ad565b6040516101a49190610d78565b60405180910390f35b6101b5610539565b6040516101c29190610d98565b60405180910390f35b600281600381106101da575f80fd5b015f915090505481565b60055f9054906101000a9004601e0b81565b60068181548110610205575f80fd5b905f5260205f20015f915090505481565b60015f9054906101000a900460ff1681565b5f805f61023361055d565b5f6060805f5460015f9054906101000a900460ff1660018054906101000a900473ffffffffffffffffffffffffffffffffffffffff16600260055f9054906101000a9004601e0b60066007836003806020026040519081016040528092919082600380156102b6576020028201915b8154815260200190600101908083116102a2575b505050505093508180548060200260200160405190810160405280929190818152602001828054801561030657602002820191905f5260205f20905b8154815260200190600101908083116102f2575b5050505050915080805461031990610dde565b80601f016020809104026020016040519081016040528092919081815260200182805461034590610dde565b80156103905780601f1061036757610100808354040283529160200191610390565b820191905f5260205f20905b81548152906001019060200180831161037357829003601f168201915b50505050509050965096509650965096509650965090919293949596565b865f819055508560015f6101000a81548160ff021916908315150217905550846001806101000a81548173ffffffffffffffffffffffffffffffffffffffff021916908373ffffffffffffffffffffffffffffffffffffffff16021790555083600290600361041e92919061057f565b508260055f6101000a8154817effffffffffffffffffffffffffffffffffffffffffffffffffffffffffffff0219169083601e0b7effffffffffffffffffffffffffffffffffffffffffffffffffffffffffffff160217905550816006908051906020019061048e9291906105bf565b50806007908161049e9190610fab565b5050505050505050565b5f5481565b600780546104ba90610dde565b80601f01602080910402602001604051908101604052809291908181526020018280546104e690610dde565b80156105315780601f1061050857610100808354040283529160200191610531565b820191905f5260205f20905b81548152906001019060200180831161051457829003601f168201915b505050505081565b60018054906101000a900473ffffffffffffffffffffffffffffffffffffffff1681565b6040518060600160405280600390602082028036833780820191505090505090565b82600381019282156105ae579160200282015b828111156105ad578251825591602001919060010190610592565b5b5090506105bb919061060a565b5090565b828054828255905f5260205f209081019282156105f9579160200282015b828111156105f85782518255916020019190600101906105dd565b5b509050610606919061060a565b5090565b5b80821115610621575f815f90555060010161060b565b5090565b5f604051905090565b5f80fd5b5f80fd5b5f819050919050565b61064881610636565b8114610652575f80fd5b50565b5f813590506106638161063f565b92915050565b5f6020828403121561067e5761067d61062e565b5b5f61068b84828501610655565b91505092915050565b61069d81610636565b82525050565b5f6020820190506106b65f830184610694565b92915050565b5f81601e0b9050919050565b6106d1816106bc565b82525050565b5f6020820190506106ea5f8301846106c8565b92915050565b5f8115159050919050565b610704816106f0565b82525050565b5f60208201905061071d5f8301846106fb565b92915050565b5f73ffffffffffffffffffffffffffffffffffffffff82169050919050565b5f61074c82610723565b9050919050565b61075c81610742565b82525050565b5f60039050919050565b5f81905092915050565b5f819050919050565b61078881610636565b82525050565b5f610799838361077f565b60208301905092915050565b5f602082019050919050565b6107ba81610762565b6107c4818461076c565b92506107cf82610776565b805f5b838110156107ff5781516107e6878261078e565b96506107f1836107a5565b9250506001810190506107d2565b505050505050565b5f81519050919050565b5f82825260208201905092915050565b5f819050602082019050919050565b5f602082019050919050565b5f61084682610807565b6108508185610811565b935061085b83610821565b805f5b8381101561088b578151610872888261078e565b975061087d83610830565b92505060018101905061085e565b5085935050505092915050565b5f81519050919050565b5f82825260208201905092915050565b8281835e5f83830152505050565b5f601f19601f8301169050919050565b5f6108da82610898565b6108e481856108a2565b93506108f48185602086016108b2565b6108fd816108c0565b840191505092915050565b5f6101208201905061091c5f83018a610694565b61092960208301896106fb565b6109366040830188610753565b61094360608301876107b1565b61095060c08301866106c8565b81810360e0830152610962818561083c565b905081810361010083015261097781846108d0565b905098975050505050505050565b61098e816106f0565b8114610998575f80fd5b50565b5f813590506109a981610985565b92915050565b6109b881610742565b81146109c2575f80fd5b50565b5f813590506109d3816109af565b92915050565b5f80fd5b7f4e487b71000000000000000000000000000000000000000000000000000000005f52604160045260245ffd5b610a13826108c0565b810181811067ffffffffffffffff82111715610a3257610a316109dd565b5b80604052505050565b5f610a44610625565b9050610a508282610a0a565b919050565b5f67ffffffffffffffff821115610a6f57610a6e6109dd565b5b602082029050919050565b5f80fd5b5f610a90610a8b84610a55565b610a3b565b90508060208402830185811115610aaa57610aa9610a7a565b5b835b81811015610ad35780610abf8882610655565b845260208401935050602081019050610aac565b5050509392505050565b5f82601f830112610af157610af06109d9565b5b6003610afe848285610a7e565b91505092915050565b610b10816106bc565b8114610b1a575f80fd5b50565b5f81359050610b2b81610b07565b92915050565b5f67ffffffffffffffff821115610b4b57610b4a6109dd565b5b602082029050602081019050919050565b5f610b6e610b6984610b31565b610a3b565b90508083825260208201905060208402830185811115610b9157610b90610a7a565b5b835b81811015610bba5780610ba68882610655565b845260208401935050602081019050610b93565b5050509392505050565b5f82601f830112610bd857610bd76109d9565b5b8135610be8848260208601610b5c565b91505092915050565b5f80fd5b5f67ffffffffffffffff821115610c0f57610c0e6109dd565b5b610c18826108c0565b9050602081019050919050565b828183375f83830152505050565b5f610c45610c4084610bf5565b610a3b565b905082815260208101848484011115610c6157610c60610bf1565b5b610c6c848285610c25565b509392505050565b5f82601f830112610c8857610c876109d9565b5b8135610c98848260208601610c33565b91505092915050565b5f805f805f805f610120888a031215610cbd57610cbc61062e565b5b5f610cca8a828b01610655565b9750506020610cdb8a828b0161099b565b9650506040610cec8a828b016109c5565b9550506060610cfd8a828b01610add565b94505060c0610d0e8a828b01610b1d565b93505060e088013567ffffffffffffffff811115610d2f57610d2e610632565b5b610d3b8a828b01610bc4565b92505061010088013567ffffffffffffffff811115610d5d57610d5c610632565b5b610d698a828b01610c74565b91505092959891949750929550565b5f6020820190508181035f830152610d9081846108d0565b905092915050565b5f602082019050610dab5f830184610753565b92915050565b7f4e487b71000000000000000000000000000000000000000000000000000000005f52602260045260245ffd5b5f6002820490506001821680610df557607f821691505b602082108103610e0857610e07610db1565b5b50919050565b5f819050815f5260205f209050919050565b5f6020601f8301049050919050565b5f82821b905092915050565b5f60088302610e6a7fffffffffffffffffffffffffffffffffffffffffffffffffffffffffffffffff82610e2f565b610e748683610e2f565b95508019841693508086168417925050509392505050565b5f819050919050565b5f610eaf610eaa610ea584610636565b610e8c565b610636565b9050919050565b5f819050919050565b610ec883610e95565b610edc610ed482610eb6565b848454610e3b565b825550505050565b5f90565b610ef0610ee4565b610efb818484610ebf565b505050565b5b81811015610f1e57610f135f82610ee8565b600181019050610f01565b5050565b601f821115610f6357610f3481610e0e565b610f3d84610e20565b81016020851015610f4c578190505b610f60610f5885610e20565b830182610f00565b50505b505050565b5f82821c905092915050565b5f610f835f1984600802610f68565b1980831691505092915050565b5f610f9b8383610f74565b9150826002028217905092915050565b610fb482610898565b67ffffffffffffffff811115610fcd57610fcc6109dd565b5b610fd78254610dde565b610fe2828285610f22565b5f60209050601f831160018114611013575f8415611001578287015190505b61100b8582610f90565b865550611072565b601f19841661102186610e0e565b5f5b8281101561104857848901518255600182019150602085019450602081019050611023565b868310156110655784890151611061601f891682610f74565b8355505b6001600288020188555050505b50505050505056fea2646970667358221220c9297e420399b7ed8524e726db1fecae245353925d58bcff4be0d5c0cb7597df64736f6c634300081a0033",
			"opcodes": "PUSH1 0x80 PUSH1 0x40 MSTORE CALLVALUE DUP1 ISZERO PUSH1 0xE JUMPI PUSH0 DUP1 REVERT JUMPDEST POP PUSH2 0x10B0 DUP1 PUSH2 0x1C PUSH0 CODECOPY PUSH0 RETURN INVALID PUSH1 0x80 PUSH1 0x40 MSTORE CALLVALUE DUP1 ISZERO PUSH2 0xF JUMPI PUSH0 DUP1 REVERT JUMPDEST POP PUSH1 0x4 CALLDATASIZE LT PUSH2 0x91 JUMPI PUSH0 CALLDATALOAD PUSH1 0xE0 SHR DUP1 PUSH4 0x2E64CEC1 GT PUSH2 0x64 JUMPI DUP1 PUSH4 0x2E64CEC1 EQ PUSH2 0x131 JUMPI DUP1 PUSH4 0x5D4FB290 EQ PUSH2 0x155 JUMPI DUP1 PUSH4 0x8381F58A EQ PUSH2 0x171 JUMPI DUP1 PUSH4 0x9B267F09 EQ PUSH2 0x18F JUMPI DUP1 PUSH4 0x9D02F895 EQ PUSH2 0x1AD JUMPI PUSH2 0x91 JUMP JUMPDEST DUP1 PUSH4 0x29194B4 EQ PUSH2 0x95 JUMPI DUP1 PUSH4 0x9EFB8FF EQ PUSH2 0xC5 JUMPI DUP1 PUSH4 0xB559DFA EQ PUSH2 0xE3 JUMPI DUP1 PUSH4 0xDBE671F EQ PUSH2 0x113 JUMPI JUMPDEST PUSH0 DUP1 REVERT JUMPDEST PUSH2 0xAF PUSH1 0x4 DUP1 CALLDATASIZE SUB DUP2 ADD SWAP1 PUSH2 0xAA SWAP2 SWAP1 PUSH2 0x669 JUMP JUMPDEST PUSH2 0x1CB JUMP JUMPDEST PUSH1 0x40 MLOAD PUSH2 0xBC SWAP2 SWAP1 PUSH2 0x6A3 JUMP JUMPDEST PUSH1 0x40 MLOAD DUP1 SWAP2 SUB SWAP1 RETURN JUMPDEST PUSH2 0xCD PUSH2 0x1E4 JUMP JUMPDEST PUSH1 0x40 MLOAD PUSH2 0xDA SWAP2 SWAP1 PUSH2 0x6D7 JUMP JUMPDEST PUSH1 0x40 MLOAD DUP1 SWAP2 SUB SWAP1 RETURN JUMPDEST PUSH2 0xFD PUSH1 0x4 DUP1 CALLDATASIZE SUB DUP2 ADD SWAP1 PUSH2 0xF8 SWAP2 SWAP1 PUSH2 0x669 JUMP JUMPDEST PUSH2 0x1F6 JUMP JUMPDEST PUSH1 0x40 MLOAD PUSH2 0x10A SWAP2 SWAP1 PUSH2 0x6A3 JUMP JUMPDEST PUSH1 0x40 MLOAD DUP1 SWAP2 SUB SWAP1 RETURN JUMPDEST PUSH2 0x11B PUSH2 0x216 JUMP JUMPDEST PUSH1 0x40 MLOAD PUSH2 0x128 SWAP2 SWAP1 PUSH2 0x70A JUMP JUMPDEST PUSH1 0x40 MLOAD DUP1 SWAP2 SUB SWAP1 RETURN JUMPDEST PUSH2 0x139 PUSH2 0x228 JUMP JUMPDEST PUSH1 0x40 MLOAD PUSH2 0x14C SWAP8 SWAP7 SWAP6 SWAP5 SWAP4 SWAP3 SWAP2 SWAP1 PUSH2 0x908 JUMP JUMPDEST PUSH1 0x40 MLOAD DUP1 SWAP2 SUB SWAP1 RETURN JUMPDEST PUSH2 0x16F PUSH1 0x4 DUP1 CALLDATASIZE SUB DUP2 ADD SWAP1 PUSH2 0x16A SWAP2 SWAP1 PUSH2 0xCA1 JUMP JUMPDEST PUSH2 0x3AE JUMP JUMPDEST STOP JUMPDEST PUSH2 0x179 PUSH2 0x4A8 JUMP JUMPDEST PUSH1 0x40 MLOAD PUSH2 0x186 SWAP2 SWAP1 PUSH2 0x6A3 JUMP JUMPDEST PUSH1 0x40 MLOAD DUP1 SWAP2 SUB SWAP1 RETURN JUMPDEST PUSH2 0x197 PUSH2 0x4AD JUMP JUMPDEST PUSH1 0x40 MLOAD PUSH2 0x1A4 SWAP2 SWAP1 PUSH2 0xD78 JUMP JUMPDEST PUSH1 0x40 MLOAD DUP1 SWAP2 SUB SWAP1 RETURN JUMPDEST PUSH2 0x1B5 PUSH2 0x539 JUMP JUMPDEST PUSH1 0x40 MLOAD PUSH2 0x1C2 SWAP2 SWAP1 PUSH2 0xD98 JUMP JUMPDEST PUSH1 0x40 MLOAD DUP1 SWAP2 SUB SWAP1 RETURN JUMPDEST PUSH1 0x2 DUP2 PUSH1 0x3 DUP2 LT PUSH2 0x1DA JUMPI PUSH0 DUP1 REVERT JUMPDEST ADD PUSH0 SWAP2 POP SWAP1 POP SLOAD DUP2 JUMP JUMPDEST PUSH1 0x5 PUSH0 SWAP1 SLOAD SWAP1 PUSH2 0x100 EXP SWAP1 DIV PUSH1 0x1E SIGNEXTEND DUP2 JUMP JUMPDEST PUSH1 0x6 DUP2 DUP2 SLOAD DUP2 LT PUSH2 0x205 JUMPI PUSH0 DUP1 REVERT JUMPDEST SWAP1 PUSH0 MSTORE PUSH1 0x20 PUSH0 KECCAK256 ADD PUSH0 SWAP2 POP SWAP1 POP SLOAD DUP2 JUMP JUMPDEST PUSH1 0x1 PUSH0 SWAP1 SLOAD SWAP1 PUSH2 0x100 EXP SWAP1 DIV PUSH1 0xFF AND DUP2 JUMP JUMPDEST PUSH0 DUP1 PUSH0 PUSH2 0x233 PUSH2 0x55D JUMP JUMPDEST PUSH0 PUSH1 0x60 DUP1 PUSH0 SLOAD PUSH1 0x1 PUSH0 SWAP1 SLOAD SWAP1 PUSH2 0x100 EXP SWAP1 DIV PUSH1 0xFF AND PUSH1 0x1 DUP1 SLOAD SWAP1 PUSH2 0x100 EXP SWAP1 DIV PUSH20 0xFFFFFFFFFFFFFFFFFFFFFFFFFFFFFFFFFFFFFFFF AND PUSH1 0x2 PUSH1 0x5 PUSH0 SWAP1 SLOAD SWAP1 PUSH2 0x100 EXP SWAP1 DIV PUSH1 0x1E SIGNEXTEND PUSH1 0x6 PUSH1 0x7 DUP4 PUSH1 0x3 DUP1 PUSH1 0x20 MUL PUSH1 0x40 MLOAD SWAP1 DUP2 ADD PUSH1 0x40 MSTORE DUP1 SWAP3 SWAP2 SWAP1 DUP3 PUSH1 0x3 DUP1 ISZERO PUSH2 0x2B6 JUMPI PUSH1 0x20 MUL DUP3 ADD SWAP2 JUMPDEST DUP2 SLOAD DUP2 MSTORE PUSH1 0x20 ADD SWAP1 PUSH1 0x1 ADD SWAP1 DUP1 DUP4 GT PUSH2 0x2A2 JUMPI JUMPDEST POP POP POP POP POP SWAP4 POP DUP2 DUP1 SLOAD DUP1 PUSH1 0x20 MUL PUSH1 0x20 ADD PUSH1 0x40 MLOAD SWAP1 DUP2 ADD PUSH1 0x40 MSTORE DUP1 SWAP3 SWAP2 SWAP1 DUP2 DUP2 MSTORE PUSH1 0x20 ADD DUP3 DUP1 SLOAD DUP1 ISZERO PUSH2 0x306 JUMPI PUSH1 0x20 MUL DUP3 ADD SWAP2 SWAP1 PUSH0 MSTORE PUSH1 0x20 PUSH0 KECCAK256 SWAP1 JUMPDEST DUP2 SLOAD DUP2 MSTORE PUSH1 0x20 ADD SWAP1 PUSH1 0x1 ADD SWAP1 DUP1 DUP4 GT PUSH2 0x2F2 JUMPI JUMPDEST POP POP POP POP POP SWAP2 POP DUP1 DUP1 SLOAD PUSH2 0x319 SWAP1 PUSH2 0xDDE JUMP JUMPDEST DUP1 PUSH1 0x1F ADD PUSH1 0x20 DUP1 SWAP2 DIV MUL PUSH1 0x20 ADD PUSH1 0x40 MLOAD SWAP1 DUP2 ADD PUSH1 0x40 MSTORE DUP1 SWAP3 SWAP2 SWAP1 DUP2 DUP2 MSTORE PUSH1 0x20 ADD DUP3 DUP1 SLOAD PUSH2 0x345 SWAP1 PUSH2 0xDDE JUMP JUMPDEST DUP1 ISZERO PUSH2 0x390 JUMPI DUP1 PUSH1 0x1F LT PUSH2 0x367 JUMPI PUSH2 0x100 DUP1 DUP4 SLOAD DIV MUL DUP4 MSTORE SWAP2 PUSH1 0x20 ADD SWAP2 PUSH2 0x390 JUMP JUMPDEST DUP3 ADD SWAP2 SWAP1 PUSH0 MSTORE PUSH1 0x20 PUSH0 KECCAK256 SWAP1 JUMPDEST DUP2 SLOAD DUP2 MSTORE SWAP1 PUSH1 0x1 ADD SWAP1 PUSH1 0x20 ADD DUP1 DUP4 GT PUSH2 0x373 JUMPI DUP3 SWAP1 SUB PUSH1 0x1F AND DUP3 ADD SWAP2 JUMPDEST POP POP POP POP POP SWAP1 POP SWAP7 POP SWAP7 POP SWAP7 POP SWAP7 POP SWAP7 POP SWAP7 POP SWAP7 POP SWAP1 SWAP2 SWAP3 SWAP4 SWAP5 SWAP6 SWAP7 JUMP JUMPDEST DUP7 PUSH0 DUP2 SWAP1 SSTORE POP DUP6 PUSH1 0x1 PUSH0 PUSH2 0x100 EXP DUP2 SLOAD DUP2 PUSH1 0xFF MUL NOT AND SWAP1 DUP4 ISZERO ISZERO MUL OR SWAP1 SSTORE POP DUP5 PUSH1 0x1 DUP1 PUSH2 0x100 EXP DUP2 SLOAD DUP2 PUSH20 0xFFFFFFFFFFFFFFFFFFFFFFFFFFFFFFFFFFFFFFFF MUL NOT AND SWAP1 DUP4 PUSH20 0xFFFFFFFFFFFFFFFFFFFFFFFFFFFFFFFFFFFFFFFF AND MUL OR SWAP1 SSTORE POP DUP4 PUSH1 0x2 SWAP1 PUSH1 0x3 PUSH2 0x41E SWAP3 SWAP2 SWAP1 PUSH2 0x57F JUMP JUMPDEST POP DUP3 PUSH1 0x5 PUSH0 PUSH2 0x100 EXP DUP2 SLOAD DUP2 PUSH31 0xFFFFFFFFFFFFFFFFFFFFFFFFFFFFFFFFFFFFFFFFFFFFFFFFFFFFFFFFFFFFFF MUL NOT AND SWAP1 DUP4 PUSH1 0x1E SIGNEXTEND PUSH31 0xFFFFFFFFFFFFFFFFFFFFFFFFFFFFFFFFFFFFFFFFFFFFFFFFFFFFFFFFFFFFFF AND MUL OR SWAP1 SSTORE POP DUP2 PUSH1 0x6 SWAP1 DUP1 MLOAD SWAP1 PUSH1 0x20 ADD SWAP1 PUSH2 0x48E SWAP3 SWAP2 SWAP1 PUSH2 0x5BF JUMP JUMPDEST POP DUP1 PUSH1 0x7 SWAP1 DUP2 PUSH2 0x49E SWAP2 SWAP1 PUSH2 0xFAB JUMP JUMPDEST POP POP POP POP POP POP POP POP JUMP JUMPDEST PUSH0 SLOAD DUP2 JUMP JUMPDEST PUSH1 0x7 DUP1 SLOAD PUSH2 0x4BA SWAP1 PUSH2 0xDDE JUMP JUMPDEST DUP1 PUSH1 0x1F ADD PUSH1 0x20 DUP1 SWAP2 DIV MUL PUSH1 0x20 ADD PUSH1 0x40 MLOAD SWAP1 DUP2 ADD PUSH1 0x40 MSTORE DUP1 SWAP3 SWAP2 SWAP1 DUP2 DUP2 MSTORE PUSH1 0x20 ADD DUP3 DUP1 SLOAD PUSH2 0x4E6 SWAP1 PUSH2 0xDDE JUMP JUMPDEST DUP1 ISZERO PUSH2 0x531 JUMPI DUP1 PUSH1 0x1F LT PUSH2 0x508 JUMPI PUSH2 0x100 DUP1 DUP4 SLOAD DIV MUL DUP4 MSTORE SWAP2 PUSH1 0x20 ADD SWAP2 PUSH2 0x531 JUMP JUMPDEST DUP3 ADD SWAP2 SWAP1 PUSH0 MSTORE PUSH1 0x20 PUSH0 KECCAK256 SWAP1 JUMPDEST DUP2 SLOAD DUP2 MSTORE SWAP1 PUSH1 0x1 ADD SWAP1 PUSH1 0x20 ADD DUP1 DUP4 GT PUSH2 0x514 JUMPI DUP3 SWAP1 SUB PUSH1 0x1F AND DUP3 ADD SWAP2 JUMPDEST POP POP POP POP POP DUP2 JUMP JUMPDEST PUSH1 0x1 DUP1 SLOAD SWAP1 PUSH2 0x100 EXP SWAP1 DIV PUSH20 0xFFFFFFFFFFFFFFFFFFFFFFFFFFFFFFFFFFFFFFFF AND DUP2 JUMP JUMPDEST PUSH1 0x40 MLOAD DUP1 PUSH1 0x60 ADD PUSH1 0x40 MSTORE DUP1 PUSH1 0x3 SWAP1 PUSH1 0x20 DUP3 MUL DUP1 CALLDATASIZE DUP4 CALLDATACOPY DUP1 DUP3 ADD SWAP2 POP POP SWAP1 POP POP SWAP1 JUMP JUMPDEST DUP3 PUSH1 0x3 DUP2 ADD SWAP3 DUP3 ISZERO PUSH2 0x5AE JUMPI SWAP2 PUSH1 0x20 MUL DUP3 ADD JUMPDEST DUP3 DUP2 GT ISZERO PUSH2 0x5AD JUMPI DUP3 MLOAD DUP3 SSTORE SWAP2 PUSH1 0x20 ADD SWAP2 SWAP1 PUSH1 0x1 ADD SWAP1 PUSH2 0x592 JUMP JUMPDEST JUMPDEST POP SWAP1 POP PUSH2 0x5BB SWAP2 SWAP1 PUSH2 0x60A JUMP JUMPDEST POP SWAP1 JUMP JUMPDEST DUP3 DUP1 SLOAD DUP3 DUP3 SSTORE SWAP1 PUSH0 MSTORE PUSH1 0x20 PUSH0 KECCAK256 SWAP1 DUP2 ADD SWAP3 DUP3 ISZERO PUSH2 0x5F9 JUMPI SWAP2 PUSH1 0x20 MUL DUP3 ADD JUMPDEST DUP3 DUP2 GT ISZERO PUSH2 0x5F8 JUMPI DUP3 MLOAD DUP3 SSTORE SWAP2 PUSH1 0x20 ADD SWAP2 SWAP1 PUSH1 0x1 ADD SWAP1 PUSH2 0x5DD JUMP JUMPDEST JUMPDEST POP SWAP1 POP PUSH2 0x606 SWAP2 SWAP1 PUSH2 0x60A JUMP JUMPDEST POP SWAP1 JUMP JUMPDEST JUMPDEST DUP1 DUP3 GT ISZERO PUSH2 0x621 JUMPI PUSH0 DUP2 PUSH0 SWAP1 SSTORE POP PUSH1 0x1 ADD PUSH2 0x60B JUMP JUMPDEST POP SWAP1 JUMP JUMPDEST PUSH0 PUSH1 0x40 MLOAD SWAP1 POP SWAP1 JUMP JUMPDEST PUSH0 DUP1 REVERT JUMPDEST PUSH0 DUP1 REVERT JUMPDEST PUSH0 DUP2 SWAP1 POP SWAP2 SWAP1 POP JUMP JUMPDEST PUSH2 0x648 DUP2 PUSH2 0x636 JUMP JUMPDEST DUP2 EQ PUSH2 0x652 JUMPI PUSH0 DUP1 REVERT JUMPDEST POP JUMP JUMPDEST PUSH0 DUP2 CALLDATALOAD SWAP1 POP PUSH2 0x663 DUP2 PUSH2 0x63F JUMP JUMPDEST SWAP3 SWAP2 POP POP JUMP JUMPDEST PUSH0 PUSH1 0x20 DUP3 DUP5 SUB SLT ISZERO PUSH2 0x67E JUMPI PUSH2 0x67D PUSH2 0x62E JUMP JUMPDEST JUMPDEST PUSH0 PUSH2 0x68B DUP5 DUP3 DUP6 ADD PUSH2 0x655 JUMP JUMPDEST SWAP2 POP POP SWAP3 SWAP2 POP POP JUMP JUMPDEST PUSH2 0x69D DUP2 PUSH2 0x636 JUMP JUMPDEST DUP3 MSTORE POP POP JUMP JUMPDEST PUSH0 PUSH1 0x20 DUP3 ADD SWAP1 POP PUSH2 0x6B6 PUSH0 DUP4 ADD DUP5 PUSH2 0x694 JUMP JUMPDEST SWAP3 SWAP2 POP POP JUMP JUMPDEST PUSH0 DUP2 PUSH1 0x1E SIGNEXTEND SWAP1 POP SWAP2 SWAP1 POP JUMP JUMPDEST PUSH2 0x6D1 DUP2 PUSH2 0x6BC JUMP JUMPDEST DUP3 MSTORE POP POP JUMP JUMPDEST PUSH0 PUSH1 0x20 DUP3 ADD SWAP1 POP PUSH2 0x6EA PUSH0 DUP4 ADD DUP5 PUSH2 0x6C8 JUMP JUMPDEST SWAP3 SWAP2 POP POP JUMP JUMPDEST PUSH0 DUP2 ISZERO ISZERO SWAP1 POP SWAP2 SWAP1 POP JUMP JUMPDEST PUSH2 0x704 DUP2 PUSH2 0x6F0 JUMP JUMPDEST DUP3 MSTORE POP POP JUMP JUMPDEST PUSH0 PUSH1 0x20 DUP3 ADD SWAP1 POP PUSH2 0x71D PUSH0 DUP4 ADD DUP5 PUSH2 0x6FB JUMP JUMPDEST SWAP3 SWAP2 POP POP JUMP JUMPDEST PUSH0 PUSH20 0xFFFFFFFFFFFFFFFFFFFFFFFFFFFFFFFFFFFFFFFF DUP3 AND SWAP1 POP SWAP2 SWAP1 POP JUMP JUMPDEST PUSH0 PUSH2 0x74C DUP3 PUSH2 0x723 JUMP JUMPDEST SWAP1 POP SWAP2 SWAP1 POP JUMP JUMPDEST PUSH2 0x75C DUP2 PUSH2 0x742 JUMP JUMPDEST DUP3 MSTORE POP POP JUMP JUMPDEST PUSH0 PUSH1 0x3 SWAP1 POP SWAP2 SWAP1 POP JUMP JUMPDEST PUSH0 DUP2 SWAP1 POP SWAP3 SWAP2 POP POP JUMP JUMPDEST PUSH0 DUP2 SWAP1 POP SWAP2 SWAP1 POP JUMP JUMPDEST PUSH2 0x788 DUP2 PUSH2 0x636 JUMP JUMPDEST DUP3 MSTORE POP POP JUMP JUMPDEST PUSH0 PUSH2 0x799 DUP4 DUP4 PUSH2 0x77F JUMP JUMPDEST PUSH1 0x20 DUP4 ADD SWAP1 POP SWAP3 SWAP2 POP POP JUMP JUMPDEST PUSH0 PUSH1 0x20 DUP3 ADD SWAP1 POP SWAP2 SWAP1 POP JUMP JUMPDEST PUSH2 0x7BA DUP2 PUSH2 0x762 JUMP JUMPDEST PUSH2 0x7C4 DUP2 DUP5 PUSH2 0x76C JUMP JUMPDEST SWAP3 POP PUSH2 0x7CF DUP3 PUSH2 0x776 JUMP JUMPDEST DUP1 PUSH0 JUMPDEST DUP4 DUP2 LT ISZERO PUSH2 0x7FF JUMPI DUP2 MLOAD PUSH2 0x7E6 DUP8 DUP3 PUSH2 0x78E JUMP JUMPDEST SWAP7 POP PUSH2 0x7F1 DUP4 PUSH2 0x7A5 JUMP JUMPDEST SWAP3 POP POP PUSH1 0x1 DUP2 ADD SWAP1 POP PUSH2 0x7D2 JUMP JUMPDEST POP POP POP POP POP POP JUMP JUMPDEST PUSH0 DUP2 MLOAD SWAP1 POP SWAP2 SWAP1 POP JUMP JUMPDEST PUSH0 DUP3 DUP3 MSTORE PUSH1 0x20 DUP3 ADD SWAP1 POP SWAP3 SWAP2 POP POP JUMP JUMPDEST PUSH0 DUP2 SWAP1 POP PUSH1 0x20 DUP3 ADD SWAP1 POP SWAP2 SWAP1 POP JUMP JUMPDEST PUSH0 PUSH1 0x20 DUP3 ADD SWAP1 POP SWAP2 SWAP1 POP JUMP JUMPDEST PUSH0 PUSH2 0x846 DUP3 PUSH2 0x807 JUMP JUMPDEST PUSH2 0x850 DUP2 DUP6 PUSH2 0x811 JUMP JUMPDEST SWAP4 POP PUSH2 0x85B DUP4 PUSH2 0x821 JUMP JUMPDEST DUP1 PUSH0 JUMPDEST DUP4 DUP2 LT ISZERO PUSH2 0x88B JUMPI DUP2 MLOAD PUSH2 0x872 DUP9 DUP3 PUSH2 0x78E JUMP JUMPDEST SWAP8 POP PUSH2 0x87D DUP4 PUSH2 0x830 JUMP JUMPDEST SWAP3 POP POP PUSH1 0x1 DUP2 ADD SWAP1 POP PUSH2 0x85E JUMP JUMPDEST POP DUP6 SWAP4 POP POP POP POP SWAP3 SWAP2 POP POP JUMP JUMPDEST PUSH0 DUP2 MLOAD SWAP1 POP SWAP2 SWAP1 POP JUMP JUMPDEST PUSH0 DUP3 DUP3 MSTORE PUSH1 0x20 DUP3 ADD SWAP1 POP SWAP3 SWAP2 POP POP JUMP JUMPDEST DUP3 DUP2 DUP4 MCOPY PUSH0 DUP4 DUP4 ADD MSTORE POP POP POP JUMP JUMPDEST PUSH0 PUSH1 0x1F NOT PUSH1 0x1F DUP4 ADD AND SWAP1 POP SWAP2 SWAP1 POP JUMP JUMPDEST PUSH0 PUSH2 0x8DA DUP3 PUSH2 0x898 JUMP JUMPDEST PUSH2 0x8E4 DUP2 DUP6 PUSH2 0x8A2 JUMP JUMPDEST SWAP4 POP PUSH2 0x8F4 DUP2 DUP6 PUSH1 0x20 DUP7 ADD PUSH2 0x8B2 JUMP JUMPDEST PUSH2 0x8FD DUP2 PUSH2 0x8C0 JUMP JUMPDEST DUP5 ADD SWAP2 POP POP SWAP3 SWAP2 POP POP JUMP JUMPDEST PUSH0 PUSH2 0x120 DUP3 ADD SWAP1 POP PUSH2 0x91C PUSH0 DUP4 ADD DUP11 PUSH2 0x694 JUMP JUMPDEST PUSH2 0x929 PUSH1 0x20 DUP4 ADD DUP10 PUSH2 0x6FB JUMP JUMPDEST PUSH2 0x936 PUSH1 0x40 DUP4 ADD DUP9 PUSH2 0x753 JUMP JUMPDEST PUSH2 0x943 PUSH1 0x60 DUP4 ADD DUP8 PUSH2 0x7B1 JUMP JUMPDEST PUSH2 0x950 PUSH1 0xC0 DUP4 ADD DUP7 PUSH2 0x6C8 JUMP JUMPDEST DUP2 DUP2 SUB PUSH1 0xE0 DUP4 ADD MSTORE PUSH2 0x962 DUP2 DUP6 PUSH2 0x83C JUMP JUMPDEST SWAP1 POP DUP2 DUP2 SUB PUSH2 0x100 DUP4 ADD MSTORE PUSH2 0x977 DUP2 DUP5 PUSH2 0x8D0 JUMP JUMPDEST SWAP1 POP SWAP9 SWAP8 POP POP POP POP POP POP POP POP JUMP JUMPDEST PUSH2 0x98E DUP2 PUSH2 0x6F0 JUMP JUMPDEST DUP2 EQ PUSH2 0x998 JUMPI PUSH0 DUP1 REVERT JUMPDEST POP JUMP JUMPDEST PUSH0 DUP2 CALLDATALOAD SWAP1 POP PUSH2 0x9A9 DUP2 PUSH2 0x985 JUMP JUMPDEST SWAP3 SWAP2 POP POP JUMP JUMPDEST PUSH2 0x9B8 DUP2 PUSH2 0x742 JUMP JUMPDEST DUP2 EQ PUSH2 0x9C2 JUMPI PUSH0 DUP1 REVERT JUMPDEST POP JUMP JUMPDEST PUSH0 DUP2 CALLDATALOAD SWAP1 POP PUSH2 0x9D3 DUP2 PUSH2 0x9AF JUMP JUMPDEST SWAP3 SWAP2 POP POP JUMP JUMPDEST PUSH0 DUP1 REVERT JUMPDEST PUSH32 0x4E487B7100000000000000000000000000000000000000000000000000000000 PUSH0 MSTORE PUSH1 0x41 PUSH1 0x4 MSTORE PUSH1 0x24 PUSH0 REVERT JUMPDEST PUSH2 0xA13 DUP3 PUSH2 0x8C0 JUMP JUMPDEST DUP2 ADD DUP2 DUP2 LT PUSH8 0xFFFFFFFFFFFFFFFF DUP3 GT OR ISZERO PUSH2 0xA32 JUMPI PUSH2 0xA31 PUSH2 0x9DD JUMP JUMPDEST JUMPDEST DUP1 PUSH1 0x40 MSTORE POP POP POP JUMP JUMPDEST PUSH0 PUSH2 0xA44 PUSH2 0x625 JUMP JUMPDEST SWAP1 POP PUSH2 0xA50 DUP3 DUP3 PUSH2 0xA0A JUMP JUMPDEST SWAP2 SWAP1 POP JUMP JUMPDEST PUSH0 PUSH8 0xFFFFFFFFFFFFFFFF DUP3 GT ISZERO PUSH2 0xA6F JUMPI PUSH2 0xA6E PUSH2 0x9DD JUMP JUMPDEST JUMPDEST PUSH1 0x20 DUP3 MUL SWAP1 POP SWAP2 SWAP1 POP JUMP JUMPDEST PUSH0 DUP1 REVERT JUMPDEST PUSH0 PUSH2 0xA90 PUSH2 0xA8B DUP5 PUSH2 0xA55 JUMP JUMPDEST PUSH2 0xA3B JUMP JUMPDEST SWAP1 POP DUP1 PUSH1 0x20 DUP5 MUL DUP4 ADD DUP6 DUP2 GT ISZERO PUSH2 0xAAA JUMPI PUSH2 0xAA9 PUSH2 0xA7A JUMP JUMPDEST JUMPDEST DUP4 JUMPDEST DUP2 DUP2 LT ISZERO PUSH2 0xAD3 JUMPI DUP1 PUSH2 0xABF DUP9 DUP3 PUSH2 0x655 JUMP JUMPDEST DUP5 MSTORE PUSH1 0x20 DUP5 ADD SWAP4 POP POP PUSH1 0x20 DUP2 ADD SWAP1 POP PUSH2 0xAAC JUMP JUMPDEST POP POP POP SWAP4 SWAP3 POP POP POP JUMP JUMPDEST PUSH0 DUP3 PUSH1 0x1F DUP4 ADD SLT PUSH2 0xAF1 JUMPI PUSH2 0xAF0 PUSH2 0x9D9 JUMP JUMPDEST JUMPDEST PUSH1 0x3 PUSH2 0xAFE DUP5 DUP3 DUP6 PUSH2 0xA7E JUMP JUMPDEST SWAP2 POP POP SWAP3 SWAP2 POP POP JUMP JUMPDEST PUSH2 0xB10 DUP2 PUSH2 0x6BC JUMP JUMPDEST DUP2 EQ PUSH2 0xB1A JUMPI PUSH0 DUP1 REVERT JUMPDEST POP JUMP JUMPDEST PUSH0 DUP2 CALLDATALOAD SWAP1 POP PUSH2 0xB2B DUP2 PUSH2 0xB07 JUMP JUMPDEST SWAP3 SWAP2 POP POP JUMP JUMPDEST PUSH0 PUSH8 0xFFFFFFFFFFFFFFFF DUP3 GT ISZERO PUSH2 0xB4B JUMPI PUSH2 0xB4A PUSH2 0x9DD JUMP JUMPDEST JUMPDEST PUSH1 0x20 DUP3 MUL SWAP1 POP PUSH1 0x20 DUP2 ADD SWAP1 POP SWAP2 SWAP1 POP JUMP JUMPDEST PUSH0 PUSH2 0xB6E PUSH2 0xB69 DUP5 PUSH2 0xB31 JUMP JUMPDEST PUSH2 0xA3B JUMP JUMPDEST SWAP1 POP DUP1 DUP4 DUP3 MSTORE PUSH1 0x20 DUP3 ADD SWAP1 POP PUSH1 0x20 DUP5 MUL DUP4 ADD DUP6 DUP2 GT ISZERO PUSH2 0xB91 JUMPI PUSH2 0xB90 PUSH2 0xA7A JUMP JUMPDEST JUMPDEST DUP4 JUMPDEST DUP2 DUP2 LT ISZERO PUSH2 0xBBA JUMPI DUP1 PUSH2 0xBA6 DUP9 DUP3 PUSH2 0x655 JUMP JUMPDEST DUP5 MSTORE PUSH1 0x20 DUP5 ADD SWAP4 POP POP PUSH1 0x20 DUP2 ADD SWAP1 POP PUSH2 0xB93 JUMP JUMPDEST POP POP POP SWAP4 SWAP3 POP POP POP JUMP JUMPDEST PUSH0 DUP3 PUSH1 0x1F DUP4 ADD SLT PUSH2 0xBD8 JUMPI PUSH2 0xBD7 PUSH2 0x9D9 JUMP JUMPDEST JUMPDEST DUP2 CALLDATALOAD PUSH2 0xBE8 DUP5 DUP3 PUSH1 0x20 DUP7 ADD PUSH2 0xB5C JUMP JUMPDEST SWAP2 POP POP SWAP3 SWAP2 POP POP JUMP JUMPDEST PUSH0 DUP1 REVERT JUMPDEST PUSH0 PUSH8 0xFFFFFFFFFFFFFFFF DUP3 GT ISZERO PUSH2 0xC0F JUMPI PUSH2 0xC0E PUSH2 0x9DD JUMP JUMPDEST JUMPDEST PUSH2 0xC18 DUP3 PUSH2 0x8C0 JUMP JUMPDEST SWAP1 POP PUSH1 0x20 DUP2 ADD SWAP1 POP SWAP2 SWAP1 POP JUMP JUMPDEST DUP3 DUP2 DUP4 CALLDATACOPY PUSH0 DUP4 DUP4 ADD MSTORE POP POP POP JUMP JUMPDEST PUSH0 PUSH2 0xC45 PUSH2 0xC40 DUP5 PUSH2 0xBF5 JUMP JUMPDEST PUSH2 0xA3B JUMP JUMPDEST SWAP1 POP DUP3 DUP2 MSTORE PUSH1 0x20 DUP2 ADD DUP5 DUP5 DUP5 ADD GT ISZERO PUSH2 0xC61 JUMPI PUSH2 0xC60 PUSH2 0xBF1 JUMP JUMPDEST JUMPDEST PUSH2 0xC6C DUP5 DUP3 DUP6 PUSH2 0xC25 JUMP JUMPDEST POP SWAP4 SWAP3 POP POP POP JUMP JUMPDEST PUSH0 DUP3 PUSH1 0x1F DUP4 ADD SLT PUSH2 0xC88 JUMPI PUSH2 0xC87 PUSH2 0x9D9 JUMP JUMPDEST JUMPDEST DUP2 CALLDATALOAD PUSH2 0xC98 DUP5 DUP3 PUSH1 0x20 DUP7 ADD PUSH2 0xC33 JUMP JUMPDEST SWAP2 POP POP SWAP3 SWAP2 POP POP JUMP JUMPDEST PUSH0 DUP1 PUSH0 DUP1 PUSH0 DUP1 PUSH0 PUSH2 0x120 DUP9 DUP11 SUB SLT ISZERO PUSH2 0xCBD JUMPI PUSH2 0xCBC PUSH2 0x62E JUMP JUMPDEST JUMPDEST PUSH0 PUSH2 0xCCA DUP11 DUP3 DUP12 ADD PUSH2 0x655 JUMP JUMPDEST SWAP8 POP POP PUSH1 0x20 PUSH2 0xCDB DUP11 DUP3 DUP12 ADD PUSH2 0x99B JUMP JUMPDEST SWAP7 POP POP PUSH1 0x40 PUSH2 0xCEC DUP11 DUP3 DUP12 ADD PUSH2 0x9C5 JUMP JUMPDEST SWAP6 POP POP PUSH1 0x60 PUSH2 0xCFD DUP11 DUP3 DUP12 ADD PUSH2 0xADD JUMP JUMPDEST SWAP5 POP POP PUSH1 0xC0 PUSH2 0xD0E DUP11 DUP3 DUP12 ADD PUSH2 0xB1D JUMP JUMPDEST SWAP4 POP POP PUSH1 0xE0 DUP9 ADD CALLDATALOAD PUSH8 0xFFFFFFFFFFFFFFFF DUP2 GT ISZERO PUSH2 0xD2F JUMPI PUSH2 0xD2E PUSH2 0x632 JUMP JUMPDEST JUMPDEST PUSH2 0xD3B DUP11 DUP3 DUP12 ADD PUSH2 0xBC4 JUMP JUMPDEST SWAP3 POP POP PUSH2 0x100 DUP9 ADD CALLDATALOAD PUSH8 0xFFFFFFFFFFFFFFFF DUP2 GT ISZERO PUSH2 0xD5D JUMPI PUSH2 0xD5C PUSH2 0x632 JUMP JUMPDEST JUMPDEST PUSH2 0xD69 DUP11 DUP3 DUP12 ADD PUSH2 0xC74 JUMP JUMPDEST SWAP2 POP POP SWAP3 SWAP6 SWAP9 SWAP2 SWAP5 SWAP8 POP SWAP3 SWAP6 POP JUMP JUMPDEST PUSH0 PUSH1 0x20 DUP3 ADD SWAP1 POP DUP2 DUP2 SUB PUSH0 DUP4 ADD MSTORE PUSH2 0xD90 DUP2 DUP5 PUSH2 0x8D0 JUMP JUMPDEST SWAP1 POP SWAP3 SWAP2 POP POP JUMP JUMPDEST PUSH0 PUSH1 0x20 DUP3 ADD SWAP1 POP PUSH2 0xDAB PUSH0 DUP4 ADD DUP5 PUSH2 0x753 JUMP JUMPDEST SWAP3 SWAP2 POP POP JUMP JUMPDEST PUSH32 0x4E487B7100000000000000000000000000000000000000000000000000000000 PUSH0 MSTORE PUSH1 0x22 PUSH1 0x4 MSTORE PUSH1 0x24 PUSH0 REVERT JUMPDEST PUSH0 PUSH1 0x2 DUP3 DIV SWAP1 POP PUSH1 0x1 DUP3 AND DUP1 PUSH2 0xDF5 JUMPI PUSH1 0x7F DUP3 AND SWAP2 POP JUMPDEST PUSH1 0x20 DUP3 LT DUP2 SUB PUSH2 0xE08 JUMPI PUSH2 0xE07 PUSH2 0xDB1 JUMP JUMPDEST JUMPDEST POP SWAP2 SWAP1 POP JUMP JUMPDEST PUSH0 DUP2 SWAP1 POP DUP2 PUSH0 MSTORE PUSH1 0x20 PUSH0 KECCAK256 SWAP1 POP SWAP2 SWAP1 POP JUMP JUMPDEST PUSH0 PUSH1 0x20 PUSH1 0x1F DUP4 ADD DIV SWAP1 POP SWAP2 SWAP1 POP JUMP JUMPDEST PUSH0 DUP3 DUP3 SHL SWAP1 POP SWAP3 SWAP2 POP POP JUMP JUMPDEST PUSH0 PUSH1 0x8 DUP4 MUL PUSH2 0xE6A PUSH32 0xFFFFFFFFFFFFFFFFFFFFFFFFFFFFFFFFFFFFFFFFFFFFFFFFFFFFFFFFFFFFFFFF DUP3 PUSH2 0xE2F JUMP JUMPDEST PUSH2 0xE74 DUP7 DUP4 PUSH2 0xE2F JUMP JUMPDEST SWAP6 POP DUP1 NOT DUP5 AND SWAP4 POP DUP1 DUP7 AND DUP5 OR SWAP3 POP POP POP SWAP4 SWAP3 POP POP POP JUMP JUMPDEST PUSH0 DUP2 SWAP1 POP SWAP2 SWAP1 POP JUMP JUMPDEST PUSH0 PUSH2 0xEAF PUSH2 0xEAA PUSH2 0xEA5 DUP5 PUSH2 0x636 JUMP JUMPDEST PUSH2 0xE8C JUMP JUMPDEST PUSH2 0x636 JUMP JUMPDEST SWAP1 POP SWAP2 SWAP1 POP JUMP JUMPDEST PUSH0 DUP2 SWAP1 POP SWAP2 SWAP1 POP JUMP JUMPDEST PUSH2 0xEC8 DUP4 PUSH2 0xE95 JUMP JUMPDEST PUSH2 0xEDC PUSH2 0xED4 DUP3 PUSH2 0xEB6 JUMP JUMPDEST DUP5 DUP5 SLOAD PUSH2 0xE3B JUMP JUMPDEST DUP3 SSTORE POP POP POP POP JUMP JUMPDEST PUSH0 SWAP1 JUMP JUMPDEST PUSH2 0xEF0 PUSH2 0xEE4 JUMP JUMPDEST PUSH2 0xEFB DUP2 DUP5 DUP5 PUSH2 0xEBF JUMP JUMPDEST POP POP POP JUMP JUMPDEST JUMPDEST DUP2 DUP2 LT ISZERO PUSH2 0xF1E JUMPI PUSH2 0xF13 PUSH0 DUP3 PUSH2 0xEE8 JUMP JUMPDEST PUSH1 0x1 DUP2 ADD SWAP1 POP PUSH2 0xF01 JUMP JUMPDEST POP POP JUMP JUMPDEST PUSH1 0x1F DUP3 GT ISZERO PUSH2 0xF63 JUMPI PUSH2 0xF34 DUP2 PUSH2 0xE0E JUMP JUMPDEST PUSH2 0xF3D DUP5 PUSH2 0xE20 JUMP JUMPDEST DUP2 ADD PUSH1 0x20 DUP6 LT ISZERO PUSH2 0xF4C JUMPI DUP2 SWAP1 POP JUMPDEST PUSH2 0xF60 PUSH2 0xF58 DUP6 PUSH2 0xE20 JUMP JUMPDEST DUP4 ADD DUP3 PUSH2 0xF00 JUMP JUMPDEST POP POP JUMPDEST POP POP POP JUMP JUMPDEST PUSH0 DUP3 DUP3 SHR SWAP1 POP SWAP3 SWAP2 POP POP JUMP JUMPDEST PUSH0 PUSH2 0xF83 PUSH0 NOT DUP5 PUSH1 0x8 MUL PUSH2 0xF68 JUMP JUMPDEST NOT DUP1 DUP4 AND SWAP2 POP POP SWAP3 SWAP2 POP POP JUMP JUMPDEST PUSH0 PUSH2 0xF9B DUP4 DUP4 PUSH2 0xF74 JUMP JUMPDEST SWAP2 POP DUP3 PUSH1 0x2 MUL DUP3 OR SWAP1 POP SWAP3 SWAP2 POP POP JUMP JUMPDEST PUSH2 0xFB4 DUP3 PUSH2 0x898 JUMP JUMPDEST PUSH8 0xFFFFFFFFFFFFFFFF DUP2 GT ISZERO PUSH2 0xFCD JUMPI PUSH2 0xFCC PUSH2 0x9DD JUMP JUMPDEST JUMPDEST PUSH2 0xFD7 DUP3 SLOAD PUSH2 0xDDE JUMP JUMPDEST PUSH2 0xFE2 DUP3 DUP3 DUP6 PUSH2 0xF22 JUMP JUMPDEST PUSH0 PUSH1 0x20 SWAP1 POP PUSH1 0x1F DUP4 GT PUSH1 0x1 DUP2 EQ PUSH2 0x1013 JUMPI PUSH0 DUP5 ISZERO PUSH2 0x1001 JUMPI DUP3 DUP8 ADD MLOAD SWAP1 POP JUMPDEST PUSH2 0x100B DUP6 DUP3 PUSH2 0xF90 JUMP JUMPDEST DUP7 SSTORE POP PUSH2 0x1072 JUMP JUMPDEST PUSH1 0x1F NOT DUP5 AND PUSH2 0x1021 DUP7 PUSH2 0xE0E JUMP JUMPDEST PUSH0 JUMPDEST DUP3 DUP2 LT ISZERO PUSH2 0x1048 JUMPI DUP5 DUP10 ADD MLOAD DUP3 SSTORE PUSH1 0x1 DUP3 ADD SWAP2 POP PUSH1 0x20 DUP6 ADD SWAP5 POP PUSH1 0x20 DUP2 ADD SWAP1 POP PUSH2 0x1023 JUMP JUMPDEST DUP7 DUP4 LT ISZERO PUSH2 0x1065 JUMPI DUP5 DUP10 ADD MLOAD PUSH2 0x1061 PUSH1 0x1F DUP10 AND DUP3 PUSH2 0xF74 JUMP JUMPDEST DUP4 SSTORE POP JUMPDEST PUSH1 0x1 PUSH1 0x2 DUP9 MUL ADD DUP9 SSTORE POP POP POP JUMPDEST POP POP POP POP POP POP JUMP INVALID LOG2 PUSH5 0x6970667358 0x22 SLT KECCAK256 0xC9 0x29 PUSH31 0x420399B7ED8524E726DB1FECAE245353925D58BCFF4BE0D5C0CB7597DF6473 PUSH16 0x6C634300081A00330000000000000000 "
		},
		"gasEstimates": {
			"creation": {
				"codeDepositCost": "854400",
				"executionCost": "888",
				"totalCost": "855288"
			},
			"external": {
				"_string()": "infinite",
				"a()": "2533",
				"addvar()": "2644",
				"dynamicarray(uint256)": "infinite",
				"fixedarray(uint256)": "infinite",
				"integer()": "2493",
				"number()": "2468",
				"retrieve()": "infinite",
				"store(uint256,bool,address,uint256[3],int248,uint256[],string)": "infinite"
			}
		},
		"methodIdentifiers": {
			"_string()": "9b267f09",
			"a()": "0dbe671f",
			"addvar()": "9d02f895",
			"dynamicarray(uint256)": "0b559dfa",
			"fixedarray(uint256)": "029194b4",
			"integer()": "09efb8ff",
			"number()": "8381f58a",
			"retrieve()": "2e64cec1",
			"store(uint256,bool,address,uint256[3],int248,uint256[],string)": "5d4fb290"
		}
	},
	"abi": [
		{
			"inputs": [],
			"name": "_string",
			"outputs": [
				{
					"internalType": "string",
					"name": "",
					"type": "string"
				}
			],
			"stateMutability": "view",
			"type": "function"
		},
		{
			"inputs": [],
			"name": "a",
			"outputs": [
				{
					"internalType": "bool",
					"name": "",
					"type": "bool"
				}
			],
			"stateMutability": "view",
			"type": "function"
		},
		{
			"inputs": [],
			"name": "addvar",
			"outputs": [
				{
					"internalType": "address",
					"name": "",
					"type": "address"
				}
			],
			"stateMutability": "view",
			"type": "function"
		},
		{
			"inputs": [
				{
					"internalType": "uint256",
					"name": "",
					"type": "uint256"
				}
			],
			"name": "dynamicarray",
			"outputs": [
				{
					"internalType": "uint256",
					"name": "",
					"type": "uint256"
				}
			],
			"stateMutability": "view",
			"type": "function"
		},
		{
			"inputs": [
				{
					"internalType": "uint256",
					"name": "",
					"type": "uint256"
				}
			],
			"name": "fixedarray",
			"outputs": [
				{
					"internalType": "uint256",
					"name": "",
					"type": "uint256"
				}
			],
			"stateMutability": "view",
			"type": "function"
		},
		{
			"inputs": [],
			"name": "integer",
			"outputs": [
				{
					"internalType": "int248",
					"name": "",
					"type": "int248"
				}
			],
			"stateMutability": "view",
			"type": "function"
		},
		{
			"inputs": [],
			"name": "number",
			"outputs": [
				{
					"internalType": "uint256",
					"name": "",
					"type": "uint256"
				}
			],
			"stateMutability": "view",
			"type": "function"
		},
		{
			"inputs": [],
			"name": "retrieve",
			"outputs": [
				{
					"internalType": "uint256",
					"name": "",
					"type": "uint256"
				},
				{
					"internalType": "bool",
					"name": "",
					"type": "bool"
				},
				{
					"internalType": "address",
					"name": "",
					"type": "address"
				},
				{
					"internalType": "uint256[3]",
					"name": "",
					"type": "uint256[3]"
				},
				{
					"internalType": "int248",
					"name": "",
					"type": "int248"
				},
				{
					"internalType": "uint256[]",
					"name": "",
					"type": "uint256[]"
				},
				{
					"internalType": "string",
					"name": "",
					"type": "string"
				}
			],
			"stateMutability": "view",
			"type": "function"
		},
		{
			"inputs": [
				{
					"internalType": "uint256",
					"name": "num",
					"type": "uint256"
				},
				{
					"internalType": "bool",
					"name": "b",
					"type": "bool"
				},
				{
					"internalType": "address",
					"name": "addressvar",
					"type": "address"
				},
				{
					"internalType": "uint256[3]",
					"name": "fixarr",
					"type": "uint256[3]"
				},
				{
					"internalType": "int248",
					"name": "integ",
					"type": "int248"
				},
				{
					"internalType": "uint256[]",
					"name": "dynarr",
					"type": "uint256[]"
				},
				{
					"internalType": "string",
					"name": "_str",
					"type": "string"
				}
			],
			"name": "store",
			"outputs": [],
			"stateMutability": "nonpayable",
			"type": "function"
		}
	]
}